{
	"contracts/CovidVaccineSupplyChain.sol": {
		"Vax": {
			"abi": [
				{
					"inputs": [
						{
							"internalType": "address",
							"name": "_product",
							"type": "address"
						},
						{
							"internalType": "address",
							"name": "_hospital",
							"type": "address"
						}
					],
					"stateMutability": "nonpayable",
					"type": "constructor"
				},
				{
					"anonymous": false,
					"inputs": [
						{
							"indexed": false,
							"internalType": "address",
							"name": "deliverer",
							"type": "address"
						}
					],
					"name": "Deliverer",
					"type": "event"
				},
				{
					"anonymous": false,
					"inputs": [
						{
							"indexed": false,
							"internalType": "address",
							"name": "supplier",
							"type": "address"
						}
					],
					"name": "OwnerOfProduct",
					"type": "event"
				},
				{
					"inputs": [
						{
							"internalType": "address",
							"name": "_deliverer",
							"type": "address"
						}
					],
					"name": "Auth",
					"outputs": [],
					"stateMutability": "nonpayable",
					"type": "function"
				},
				{
					"inputs": [],
					"name": "CODE",
					"outputs": [
						{
							"internalType": "string",
							"name": "",
							"type": "string"
						}
					],
					"stateMutability": "view",
					"type": "function"
				},
				{
					"inputs": [],
					"name": "StepOfDelivery",
					"outputs": [],
					"stateMutability": "nonpayable",
					"type": "function"
				},
				{
					"inputs": [],
					"name": "defectiveReason",
					"outputs": [
						{
							"internalType": "enum Vax.DefectiveReason",
							"name": "",
							"type": "uint8"
						}
					],
					"stateMutability": "view",
					"type": "function"
				},
				{
					"inputs": [
						{
							"internalType": "address",
							"name": "",
							"type": "address"
						}
					],
					"name": "deliverers",
					"outputs": [
						{
							"internalType": "bool",
							"name": "",
							"type": "bool"
						}
					],
					"stateMutability": "view",
					"type": "function"
				},
				{
					"inputs": [],
					"name": "delivery",
					"outputs": [],
					"stateMutability": "nonpayable",
					"type": "function"
				},
				{
					"inputs": [],
					"name": "deliveryManfunction",
					"outputs": [],
					"stateMutability": "nonpayable",
					"type": "function"
				},
				{
					"inputs": [],
					"name": "hospital",
					"outputs": [
						{
							"internalType": "address",
							"name": "",
							"type": "address"
						}
					],
					"stateMutability": "view",
					"type": "function"
				},
				{
					"inputs": [],
					"name": "product",
					"outputs": [
						{
							"internalType": "address",
							"name": "",
							"type": "address"
						}
					],
					"stateMutability": "view",
					"type": "function"
				},
				{
					"inputs": [],
					"name": "step",
					"outputs": [
						{
							"internalType": "enum Vax.Step",
							"name": "",
							"type": "uint8"
						}
					],
					"stateMutability": "view",
					"type": "function"
				},
				{
					"inputs": [],
					"name": "supplier",
					"outputs": [
						{
							"internalType": "address",
							"name": "",
							"type": "address"
						}
					],
					"stateMutability": "view",
					"type": "function"
				}
			],
			"devdoc": {
				"kind": "dev",
				"methods": {},
				"version": 1
			},
			"evm": {
				"assembly": "    /* \"contracts/CovidVaccineSupplyChain.sol\":76:1765  contract Vax {\r... */\n  mstore(0x40, 0x80)\n    /* \"contracts/CovidVaccineSupplyChain.sol\":102:133  string public CODE =\"Covid Vax\" */\n  mload(0x40)\n  dup1\n  0x40\n  add\n  0x40\n  mstore\n  dup1\n  0x09\n  dup2\n  mstore\n  0x20\n  add\n  0x436f766964205661780000000000000000000000000000000000000000000000\n  dup2\n  mstore\n  pop\n  0x00\n  swap1\n  dup1\n  mload\n  swap1\n  0x20\n  add\n  swap1\n  tag_1\n  swap3\n  swap2\n  swap1\n  tag_2\n  jump\t// in\ntag_1:\n  pop\n    /* \"contracts/CovidVaccineSupplyChain.sol\":578:795  constructor(address _product , address _hospital){\r... */\n  callvalue\n  dup1\n  iszero\n  tag_3\n  jumpi\n  0x00\n  dup1\n  revert\ntag_3:\n  pop\n  mload(0x40)\n  sub(codesize, bytecodeSize)\n  dup1\n  bytecodeSize\n  dup4\n  codecopy\n  dup2\n  dup2\n  add\n  0x40\n  mstore\n  dup2\n  add\n  swap1\n  tag_4\n  swap2\n  swap1\n  tag_5\n  jump\t// in\ntag_4:\n    /* \"contracts/CovidVaccineSupplyChain.sol\":648:658  msg.sender */\n  caller\n    /* \"contracts/CovidVaccineSupplyChain.sol\":637:645  supplier */\n  0x02\n  0x00\n    /* \"contracts/CovidVaccineSupplyChain.sol\":637:658  supplier = msg.sender */\n  0x0100\n  exp\n  dup2\n  sload\n  dup2\n  0xffffffffffffffffffffffffffffffffffffffff\n  mul\n  not\n  and\n  swap1\n  dup4\n  0xffffffffffffffffffffffffffffffffffffffff\n  and\n  mul\n  or\n  swap1\n  sstore\n  pop\n    /* \"contracts/CovidVaccineSupplyChain.sol\":678:686  _product */\n  dup2\n    /* \"contracts/CovidVaccineSupplyChain.sol\":668:675  product */\n  0x01\n  0x00\n    /* \"contracts/CovidVaccineSupplyChain.sol\":668:686  product = _product */\n  0x0100\n  exp\n  dup2\n  sload\n  dup2\n  0xffffffffffffffffffffffffffffffffffffffff\n  mul\n  not\n  and\n  swap1\n  dup4\n  0xffffffffffffffffffffffffffffffffffffffff\n  and\n  mul\n  or\n  swap1\n  sstore\n  pop\n    /* \"contracts/CovidVaccineSupplyChain.sol\":707:716  _hospital */\n  dup1\n    /* \"contracts/CovidVaccineSupplyChain.sol\":696:704  hospital */\n  0x03\n  0x00\n    /* \"contracts/CovidVaccineSupplyChain.sol\":696:716  hospital = _hospital */\n  0x0100\n  exp\n  dup2\n  sload\n  dup2\n  0xffffffffffffffffffffffffffffffffffffffff\n  mul\n  not\n  and\n  swap1\n  dup4\n  0xffffffffffffffffffffffffffffffffffffffff\n  and\n  mul\n  or\n  swap1\n  sstore\n  pop\n    /* \"contracts/CovidVaccineSupplyChain.sol\":733:748  Step.production */\n  0x00\n    /* \"contracts/CovidVaccineSupplyChain.sol\":726:730  step */\n  0x05\n  0x00\n    /* \"contracts/CovidVaccineSupplyChain.sol\":726:748  step = Step.production */\n  0x0100\n  exp\n  dup2\n  sload\n  dup2\n  0xff\n  mul\n  not\n  and\n  swap1\n  dup4\n  0x04\n  dup2\n  gt\n  iszero\n  tag_8\n  jumpi\n  tag_9\n  tag_10\n  jump\t// in\ntag_9:\ntag_8:\n  mul\n  or\n  swap1\n  sstore\n  pop\n    /* \"contracts/CovidVaccineSupplyChain.sol\":763:787  OwnerOfProduct(supplier) */\n  0x400153a8cebbd91509d8511ec62d3fe08eac19a7afab5e61a723c0860db23520\n    /* \"contracts/CovidVaccineSupplyChain.sol\":778:786  supplier */\n  0x02\n  0x00\n  swap1\n  sload\n  swap1\n  0x0100\n  exp\n  swap1\n  div\n  0xffffffffffffffffffffffffffffffffffffffff\n  and\n    /* \"contracts/CovidVaccineSupplyChain.sol\":763:787  OwnerOfProduct(supplier) */\n  mload(0x40)\n  tag_11\n  swap2\n  swap1\n  tag_12\n  jump\t// in\ntag_11:\n  mload(0x40)\n  dup1\n  swap2\n  sub\n  swap1\n  log1\n    /* \"contracts/CovidVaccineSupplyChain.sol\":578:795  constructor(address _product , address _hospital){\r... */\n  pop\n  pop\n    /* \"contracts/CovidVaccineSupplyChain.sol\":76:1765  contract Vax {\r... */\n  jump(tag_13)\ntag_2:\n  dup3\n  dup1\n  sload\n  tag_14\n  swap1\n  tag_15\n  jump\t// in\ntag_14:\n  swap1\n  0x00\n  mstore\n  keccak256(0x00, 0x20)\n  swap1\n  0x1f\n  add\n  0x20\n  swap1\n  div\n  dup2\n  add\n  swap3\n  dup3\n  tag_17\n  jumpi\n  0x00\n  dup6\n  sstore\n  jump(tag_16)\ntag_17:\n  dup3\n  0x1f\n  lt\n  tag_18\n  jumpi\n  dup1\n  mload\n  not(0xff)\n  and\n  dup4\n  dup1\n  add\n  or\n  dup6\n  sstore\n  jump(tag_16)\ntag_18:\n  dup3\n  dup1\n  add\n  0x01\n  add\n  dup6\n  sstore\n  dup3\n  iszero\n  tag_16\n  jumpi\n  swap2\n  dup3\n  add\ntag_19:\n  dup3\n  dup2\n  gt\n  iszero\n  tag_20\n  jumpi\n  dup3\n  mload\n  dup3\n  sstore\n  swap2\n  0x20\n  add\n  swap2\n  swap1\n  0x01\n  add\n  swap1\n  jump(tag_19)\ntag_20:\ntag_16:\n  pop\n  swap1\n  pop\n  tag_21\n  swap2\n  swap1\n  tag_22\n  jump\t// in\ntag_21:\n  pop\n  swap1\n  jump\t// out\ntag_22:\ntag_23:\n  dup1\n  dup3\n  gt\n  iszero\n  tag_24\n  jumpi\n  0x00\n  dup2\n  0x00\n  swap1\n  sstore\n  pop\n  0x01\n  add\n  jump(tag_23)\ntag_24:\n  pop\n  swap1\n  jump\t// out\n    /* \"#utility.yul\":7:150   */\ntag_26:\n    /* \"#utility.yul\":64:69   */\n  0x00\n    /* \"#utility.yul\":95:101   */\n  dup2\n    /* \"#utility.yul\":89:102   */\n  mload\n    /* \"#utility.yul\":80:102   */\n  swap1\n  pop\n    /* \"#utility.yul\":111:144   */\n  tag_28\n    /* \"#utility.yul\":138:143   */\n  dup2\n    /* \"#utility.yul\":111:144   */\n  tag_29\n  jump\t// in\ntag_28:\n    /* \"#utility.yul\":7:150   */\n  swap3\n  swap2\n  pop\n  pop\n  jump\t// out\n    /* \"#utility.yul\":156:663   */\ntag_5:\n    /* \"#utility.yul\":235:241   */\n  0x00\n    /* \"#utility.yul\":243:249   */\n  dup1\n    /* \"#utility.yul\":292:294   */\n  0x40\n    /* \"#utility.yul\":280:289   */\n  dup4\n    /* \"#utility.yul\":271:278   */\n  dup6\n    /* \"#utility.yul\":267:290   */\n  sub\n    /* \"#utility.yul\":263:295   */\n  slt\n    /* \"#utility.yul\":260:379   */\n  iszero\n  tag_31\n  jumpi\n    /* \"#utility.yul\":298:377   */\n  tag_32\n  tag_33\n  jump\t// in\ntag_32:\n    /* \"#utility.yul\":260:379   */\ntag_31:\n    /* \"#utility.yul\":418:419   */\n  0x00\n    /* \"#utility.yul\":443:507   */\n  tag_34\n    /* \"#utility.yul\":499:506   */\n  dup6\n    /* \"#utility.yul\":490:496   */\n  dup3\n    /* \"#utility.yul\":479:488   */\n  dup7\n    /* \"#utility.yul\":475:497   */\n  add\n    /* \"#utility.yul\":443:507   */\n  tag_26\n  jump\t// in\ntag_34:\n    /* \"#utility.yul\":433:507   */\n  swap3\n  pop\n    /* \"#utility.yul\":389:517   */\n  pop\n    /* \"#utility.yul\":556:558   */\n  0x20\n    /* \"#utility.yul\":582:646   */\n  tag_35\n    /* \"#utility.yul\":638:645   */\n  dup6\n    /* \"#utility.yul\":629:635   */\n  dup3\n    /* \"#utility.yul\":618:627   */\n  dup7\n    /* \"#utility.yul\":614:636   */\n  add\n    /* \"#utility.yul\":582:646   */\n  tag_26\n  jump\t// in\ntag_35:\n    /* \"#utility.yul\":572:646   */\n  swap2\n  pop\n    /* \"#utility.yul\":527:656   */\n  pop\n    /* \"#utility.yul\":156:663   */\n  swap3\n  pop\n  swap3\n  swap1\n  pop\n  jump\t// out\n    /* \"#utility.yul\":669:787   */\ntag_36:\n    /* \"#utility.yul\":756:780   */\n  tag_38\n    /* \"#utility.yul\":774:779   */\n  dup2\n    /* \"#utility.yul\":756:780   */\n  tag_39\n  jump\t// in\ntag_38:\n    /* \"#utility.yul\":751:754   */\n  dup3\n    /* \"#utility.yul\":744:781   */\n  mstore\n    /* \"#utility.yul\":669:787   */\n  pop\n  pop\n  jump\t// out\n    /* \"#utility.yul\":793:1015   */\ntag_12:\n    /* \"#utility.yul\":886:890   */\n  0x00\n    /* \"#utility.yul\":924:926   */\n  0x20\n    /* \"#utility.yul\":913:922   */\n  dup3\n    /* \"#utility.yul\":909:927   */\n  add\n    /* \"#utility.yul\":901:927   */\n  swap1\n  pop\n    /* \"#utility.yul\":937:1008   */\n  tag_41\n    /* \"#utility.yul\":1005:1006   */\n  0x00\n    /* \"#utility.yul\":994:1003   */\n  dup4\n    /* \"#utility.yul\":990:1007   */\n  add\n    /* \"#utility.yul\":981:987   */\n  dup5\n    /* \"#utility.yul\":937:1008   */\n  tag_36\n  jump\t// in\ntag_41:\n    /* \"#utility.yul\":793:1015   */\n  swap3\n  swap2\n  pop\n  pop\n  jump\t// out\n    /* \"#utility.yul\":1102:1198   */\ntag_39:\n    /* \"#utility.yul\":1139:1146   */\n  0x00\n    /* \"#utility.yul\":1168:1192   */\n  tag_45\n    /* \"#utility.yul\":1186:1191   */\n  dup3\n    /* \"#utility.yul\":1168:1192   */\n  tag_46\n  jump\t// in\ntag_45:\n    /* \"#utility.yul\":1157:1192   */\n  swap1\n  pop\n    /* \"#utility.yul\":1102:1198   */\n  swap2\n  swap1\n  pop\n  jump\t// out\n    /* \"#utility.yul\":1204:1330   */\ntag_46:\n    /* \"#utility.yul\":1241:1248   */\n  0x00\n    /* \"#utility.yul\":1281:1323   */\n  0xffffffffffffffffffffffffffffffffffffffff\n    /* \"#utility.yul\":1274:1279   */\n  dup3\n    /* \"#utility.yul\":1270:1324   */\n  and\n    /* \"#utility.yul\":1259:1324   */\n  swap1\n  pop\n    /* \"#utility.yul\":1204:1330   */\n  swap2\n  swap1\n  pop\n  jump\t// out\n    /* \"#utility.yul\":1336:1656   */\ntag_15:\n    /* \"#utility.yul\":1380:1386   */\n  0x00\n    /* \"#utility.yul\":1417:1418   */\n  0x02\n    /* \"#utility.yul\":1411:1415   */\n  dup3\n    /* \"#utility.yul\":1407:1419   */\n  div\n    /* \"#utility.yul\":1397:1419   */\n  swap1\n  pop\n    /* \"#utility.yul\":1464:1465   */\n  0x01\n    /* \"#utility.yul\":1458:1462   */\n  dup3\n    /* \"#utility.yul\":1454:1466   */\n  and\n    /* \"#utility.yul\":1485:1503   */\n  dup1\n    /* \"#utility.yul\":1475:1556   */\n  tag_49\n  jumpi\n    /* \"#utility.yul\":1541:1545   */\n  0x7f\n    /* \"#utility.yul\":1533:1539   */\n  dup3\n    /* \"#utility.yul\":1529:1546   */\n  and\n    /* \"#utility.yul\":1519:1546   */\n  swap2\n  pop\n    /* \"#utility.yul\":1475:1556   */\ntag_49:\n    /* \"#utility.yul\":1603:1605   */\n  0x20\n    /* \"#utility.yul\":1595:1601   */\n  dup3\n    /* \"#utility.yul\":1592:1606   */\n  lt\n    /* \"#utility.yul\":1572:1590   */\n  dup2\n    /* \"#utility.yul\":1569:1607   */\n  eq\n    /* \"#utility.yul\":1566:1650   */\n  iszero\n  tag_50\n  jumpi\n    /* \"#utility.yul\":1622:1640   */\n  tag_51\n  tag_52\n  jump\t// in\ntag_51:\n    /* \"#utility.yul\":1566:1650   */\ntag_50:\n    /* \"#utility.yul\":1387:1656   */\n  pop\n    /* \"#utility.yul\":1336:1656   */\n  swap2\n  swap1\n  pop\n  jump\t// out\n    /* \"#utility.yul\":1662:1842   */\ntag_10:\n    /* \"#utility.yul\":1710:1787   */\n  0x4e487b7100000000000000000000000000000000000000000000000000000000\n    /* \"#utility.yul\":1707:1708   */\n  0x00\n    /* \"#utility.yul\":1700:1788   */\n  mstore\n    /* \"#utility.yul\":1807:1811   */\n  0x21\n    /* \"#utility.yul\":1804:1805   */\n  0x04\n    /* \"#utility.yul\":1797:1812   */\n  mstore\n    /* \"#utility.yul\":1831:1835   */\n  0x24\n    /* \"#utility.yul\":1828:1829   */\n  0x00\n    /* \"#utility.yul\":1821:1836   */\n  revert\n    /* \"#utility.yul\":1848:2028   */\ntag_52:\n    /* \"#utility.yul\":1896:1973   */\n  0x4e487b7100000000000000000000000000000000000000000000000000000000\n    /* \"#utility.yul\":1893:1894   */\n  0x00\n    /* \"#utility.yul\":1886:1974   */\n  mstore\n    /* \"#utility.yul\":1993:1997   */\n  0x22\n    /* \"#utility.yul\":1990:1991   */\n  0x04\n    /* \"#utility.yul\":1983:1998   */\n  mstore\n    /* \"#utility.yul\":2017:2021   */\n  0x24\n    /* \"#utility.yul\":2014:2015   */\n  0x00\n    /* \"#utility.yul\":2007:2022   */\n  revert\n    /* \"#utility.yul\":2157:2274   */\ntag_33:\n    /* \"#utility.yul\":2266:2267   */\n  0x00\n    /* \"#utility.yul\":2263:2264   */\n  dup1\n    /* \"#utility.yul\":2256:2268   */\n  revert\n    /* \"#utility.yul\":2280:2402   */\ntag_29:\n    /* \"#utility.yul\":2353:2377   */\n  tag_59\n    /* \"#utility.yul\":2371:2376   */\n  dup2\n    /* \"#utility.yul\":2353:2377   */\n  tag_39\n  jump\t// in\ntag_59:\n    /* \"#utility.yul\":2346:2351   */\n  dup2\n    /* \"#utility.yul\":2343:2378   */\n  eq\n    /* \"#utility.yul\":2333:2396   */\n  tag_60\n  jumpi\n    /* \"#utility.yul\":2392:2393   */\n  0x00\n    /* \"#utility.yul\":2389:2390   */\n  dup1\n    /* \"#utility.yul\":2382:2394   */\n  revert\n    /* \"#utility.yul\":2333:2396   */\ntag_60:\n    /* \"#utility.yul\":2280:2402   */\n  pop\n  jump\t// out\n    /* \"contracts/CovidVaccineSupplyChain.sol\":76:1765  contract Vax {\r... */\ntag_13:\n  dataSize(sub_0)\n  dup1\n  dataOffset(sub_0)\n  0x00\n  codecopy\n  0x00\n  return\nstop\n\nsub_0: assembly {\n        /* \"contracts/CovidVaccineSupplyChain.sol\":76:1765  contract Vax {\r... */\n      mstore(0x40, 0x80)\n      callvalue\n      dup1\n      iszero\n      tag_1\n      jumpi\n      0x00\n      dup1\n      revert\n    tag_1:\n      pop\n      jumpi(tag_2, lt(calldatasize, 0x04))\n      shr(0xe0, calldataload(0x00))\n      dup1\n      0xaa2fedde\n      gt\n      tag_14\n      jumpi\n      dup1\n      0xaa2fedde\n      eq\n      tag_8\n      jumpi\n      dup1\n      0xb6c859bf\n      eq\n      tag_9\n      jumpi\n      dup1\n      0xb7c779f4\n      eq\n      tag_10\n      jumpi\n      dup1\n      0xbf9ce952\n      eq\n      tag_11\n      jumpi\n      dup1\n      0xe25fe175\n      eq\n      tag_12\n      jumpi\n      dup1\n      0xe8950c0f\n      eq\n      tag_13\n      jumpi\n      jump(tag_2)\n    tag_14:\n      dup1\n      0x0fc8f82a\n      eq\n      tag_3\n      jumpi\n      dup1\n      0x11e760dc\n      eq\n      tag_4\n      jumpi\n      dup1\n      0x1fe49587\n      eq\n      tag_5\n      jumpi\n      dup1\n      0x36da4468\n      eq\n      tag_6\n      jumpi\n      dup1\n      0x3d5a70c2\n      eq\n      tag_7\n      jumpi\n    tag_2:\n      0x00\n      dup1\n      revert\n        /* \"contracts/CovidVaccineSupplyChain.sol\":102:133  string public CODE =\"Covid Vax\" */\n    tag_3:\n      tag_15\n      tag_16\n      jump\t// in\n    tag_15:\n      mload(0x40)\n      tag_17\n      swap2\n      swap1\n      tag_18\n      jump\t// in\n    tag_17:\n      mload(0x40)\n      dup1\n      swap2\n      sub\n      swap1\n      return\n        /* \"contracts/CovidVaccineSupplyChain.sol\":531:569  DefectiveReason public defectiveReason */\n    tag_4:\n      tag_19\n      tag_20\n      jump\t// in\n    tag_19:\n      mload(0x40)\n      tag_21\n      swap2\n      swap1\n      tag_22\n      jump\t// in\n    tag_21:\n      mload(0x40)\n      dup1\n      swap2\n      sub\n      swap1\n      return\n        /* \"contracts/CovidVaccineSupplyChain.sol\":1046:1185  function Auth(address _deliverer)external isOwner{\r... */\n    tag_5:\n      tag_23\n      0x04\n      dup1\n      calldatasize\n      sub\n      dup2\n      add\n      swap1\n      tag_24\n      swap2\n      swap1\n      tag_25\n      jump\t// in\n    tag_24:\n      tag_26\n      jump\t// in\n    tag_23:\n      stop\n        /* \"contracts/CovidVaccineSupplyChain.sol\":169:192  address public supplier */\n    tag_6:\n      tag_27\n      tag_28\n      jump\t// in\n    tag_27:\n      mload(0x40)\n      tag_29\n      swap2\n      swap1\n      tag_30\n      jump\t// in\n    tag_29:\n      mload(0x40)\n      dup1\n      swap2\n      sub\n      swap1\n      return\n        /* \"contracts/CovidVaccineSupplyChain.sol\":1579:1756  function delivery()external {\r... */\n    tag_7:\n      tag_31\n      tag_32\n      jump\t// in\n    tag_31:\n      stop\n        /* \"contracts/CovidVaccineSupplyChain.sol\":199:222  address public hospital */\n    tag_8:\n      tag_33\n      tag_34\n      jump\t// in\n    tag_33:\n      mload(0x40)\n      tag_35\n      swap2\n      swap1\n      tag_30\n      jump\t// in\n    tag_35:\n      mload(0x40)\n      dup1\n      swap2\n      sub\n      swap1\n      return\n        /* \"contracts/CovidVaccineSupplyChain.sol\":1197:1385  function StepOfDelivery() external isOwner{\r... */\n    tag_9:\n      tag_36\n      tag_37\n      jump\t// in\n    tag_36:\n      stop\n        /* \"contracts/CovidVaccineSupplyChain.sol\":1393:1571  function deliveryManfunction() external isDeliverer{\r... */\n    tag_10:\n      tag_38\n      tag_39\n      jump\t// in\n    tag_38:\n      stop\n        /* \"contracts/CovidVaccineSupplyChain.sol\":140:162  address public product */\n    tag_11:\n      tag_40\n      tag_41\n      jump\t// in\n    tag_40:\n      mload(0x40)\n      tag_42\n      swap2\n      swap1\n      tag_30\n      jump\t// in\n    tag_42:\n      mload(0x40)\n      dup1\n      swap2\n      sub\n      swap1\n      return\n        /* \"contracts/CovidVaccineSupplyChain.sol\":508:524  Step public step */\n    tag_12:\n      tag_43\n      tag_44\n      jump\t// in\n    tag_43:\n      mload(0x40)\n      tag_45\n      swap2\n      swap1\n      tag_46\n      jump\t// in\n    tag_45:\n      mload(0x40)\n      dup1\n      swap2\n      sub\n      swap1\n      return\n        /* \"contracts/CovidVaccineSupplyChain.sol\":229:271  mapping (address => bool)public deliverers */\n    tag_13:\n      tag_47\n      0x04\n      dup1\n      calldatasize\n      sub\n      dup2\n      add\n      swap1\n      tag_48\n      swap2\n      swap1\n      tag_25\n      jump\t// in\n    tag_48:\n      tag_49\n      jump\t// in\n    tag_47:\n      mload(0x40)\n      tag_50\n      swap2\n      swap1\n      tag_51\n      jump\t// in\n    tag_50:\n      mload(0x40)\n      dup1\n      swap2\n      sub\n      swap1\n      return\n        /* \"contracts/CovidVaccineSupplyChain.sol\":102:133  string public CODE =\"Covid Vax\" */\n    tag_16:\n      0x00\n      dup1\n      sload\n      tag_52\n      swap1\n      tag_53\n      jump\t// in\n    tag_52:\n      dup1\n      0x1f\n      add\n      0x20\n      dup1\n      swap2\n      div\n      mul\n      0x20\n      add\n      mload(0x40)\n      swap1\n      dup2\n      add\n      0x40\n      mstore\n      dup1\n      swap3\n      swap2\n      swap1\n      dup2\n      dup2\n      mstore\n      0x20\n      add\n      dup3\n      dup1\n      sload\n      tag_54\n      swap1\n      tag_53\n      jump\t// in\n    tag_54:\n      dup1\n      iszero\n      tag_55\n      jumpi\n      dup1\n      0x1f\n      lt\n      tag_56\n      jumpi\n      0x0100\n      dup1\n      dup4\n      sload\n      div\n      mul\n      dup4\n      mstore\n      swap2\n      0x20\n      add\n      swap2\n      jump(tag_55)\n    tag_56:\n      dup3\n      add\n      swap2\n      swap1\n      0x00\n      mstore\n      keccak256(0x00, 0x20)\n      swap1\n    tag_57:\n      dup2\n      sload\n      dup2\n      mstore\n      swap1\n      0x01\n      add\n      swap1\n      0x20\n      add\n      dup1\n      dup4\n      gt\n      tag_57\n      jumpi\n      dup3\n      swap1\n      sub\n      0x1f\n      and\n      dup3\n      add\n      swap2\n    tag_55:\n      pop\n      pop\n      pop\n      pop\n      pop\n      dup2\n      jump\t// out\n        /* \"contracts/CovidVaccineSupplyChain.sol\":531:569  DefectiveReason public defectiveReason */\n    tag_20:\n      0x05\n      0x01\n      swap1\n      sload\n      swap1\n      0x0100\n      exp\n      swap1\n      div\n      0xff\n      and\n      dup2\n      jump\t// out\n        /* \"contracts/CovidVaccineSupplyChain.sol\":1046:1185  function Auth(address _deliverer)external isOwner{\r... */\n    tag_26:\n        /* \"contracts/CovidVaccineSupplyChain.sol\":854:862  supplier */\n      0x02\n      0x00\n      swap1\n      sload\n      swap1\n      0x0100\n      exp\n      swap1\n      div\n      0xffffffffffffffffffffffffffffffffffffffff\n      and\n        /* \"contracts/CovidVaccineSupplyChain.sol\":840:862  msg.sender == supplier */\n      0xffffffffffffffffffffffffffffffffffffffff\n      and\n        /* \"contracts/CovidVaccineSupplyChain.sol\":840:850  msg.sender */\n      caller\n        /* \"contracts/CovidVaccineSupplyChain.sol\":840:862  msg.sender == supplier */\n      0xffffffffffffffffffffffffffffffffffffffff\n      and\n      eq\n        /* \"contracts/CovidVaccineSupplyChain.sol\":832:889  require(msg.sender == supplier, \" You are not the owner\") */\n      tag_59\n      jumpi\n      mload(0x40)\n      0x08c379a000000000000000000000000000000000000000000000000000000000\n      dup2\n      mstore\n      0x04\n      add\n      tag_60\n      swap1\n      tag_61\n      jump\t// in\n    tag_60:\n      mload(0x40)\n      dup1\n      swap2\n      sub\n      swap1\n      revert\n    tag_59:\n        /* \"contracts/CovidVaccineSupplyChain.sol\":1131:1135  true */\n      0x01\n        /* \"contracts/CovidVaccineSupplyChain.sol\":1106:1116  deliverers */\n      0x04\n        /* \"contracts/CovidVaccineSupplyChain.sol\":1106:1128  deliverers[_deliverer] */\n      0x00\n        /* \"contracts/CovidVaccineSupplyChain.sol\":1117:1127  _deliverer */\n      dup4\n        /* \"contracts/CovidVaccineSupplyChain.sol\":1106:1128  deliverers[_deliverer] */\n      0xffffffffffffffffffffffffffffffffffffffff\n      and\n      0xffffffffffffffffffffffffffffffffffffffff\n      and\n      dup2\n      mstore\n      0x20\n      add\n      swap1\n      dup2\n      mstore\n      0x20\n      add\n      0x00\n      keccak256\n      0x00\n        /* \"contracts/CovidVaccineSupplyChain.sol\":1106:1135  deliverers[_deliverer] = true */\n      0x0100\n      exp\n      dup2\n      sload\n      dup2\n      0xff\n      mul\n      not\n      and\n      swap1\n      dup4\n      iszero\n      iszero\n      mul\n      or\n      swap1\n      sstore\n      pop\n        /* \"contracts/CovidVaccineSupplyChain.sol\":1151:1177  OwnerOfProduct(msg.sender) */\n      0x400153a8cebbd91509d8511ec62d3fe08eac19a7afab5e61a723c0860db23520\n        /* \"contracts/CovidVaccineSupplyChain.sol\":1166:1176  msg.sender */\n      caller\n        /* \"contracts/CovidVaccineSupplyChain.sol\":1151:1177  OwnerOfProduct(msg.sender) */\n      mload(0x40)\n      tag_63\n      swap2\n      swap1\n      tag_30\n      jump\t// in\n    tag_63:\n      mload(0x40)\n      dup1\n      swap2\n      sub\n      swap1\n      log1\n        /* \"contracts/CovidVaccineSupplyChain.sol\":1046:1185  function Auth(address _deliverer)external isOwner{\r... */\n      pop\n      jump\t// out\n        /* \"contracts/CovidVaccineSupplyChain.sol\":169:192  address public supplier */\n    tag_28:\n      0x02\n      0x00\n      swap1\n      sload\n      swap1\n      0x0100\n      exp\n      swap1\n      div\n      0xffffffffffffffffffffffffffffffffffffffff\n      and\n      dup2\n      jump\t// out\n        /* \"contracts/CovidVaccineSupplyChain.sol\":1579:1756  function delivery()external {\r... */\n    tag_32:\n        /* \"contracts/CovidVaccineSupplyChain.sol\":1634:1644  Step.onWay */\n      0x02\n        /* \"contracts/CovidVaccineSupplyChain.sol\":1626:1644  step == Step.onWay */\n      0x04\n      dup2\n      gt\n      iszero\n      tag_65\n      jumpi\n      tag_66\n      tag_67\n      jump\t// in\n    tag_66:\n    tag_65:\n        /* \"contracts/CovidVaccineSupplyChain.sol\":1626:1630  step */\n      0x05\n      0x00\n      swap1\n      sload\n      swap1\n      0x0100\n      exp\n      swap1\n      div\n      0xff\n      and\n        /* \"contracts/CovidVaccineSupplyChain.sol\":1626:1644  step == Step.onWay */\n      0x04\n      dup2\n      gt\n      iszero\n      tag_68\n      jumpi\n      tag_69\n      tag_67\n      jump\t// in\n    tag_69:\n    tag_68:\n      eq\n        /* \"contracts/CovidVaccineSupplyChain.sol\":1618:1676  require(step == Step.onWay , \"Still waiting for delivery\") */\n      tag_70\n      jumpi\n      mload(0x40)\n      0x08c379a000000000000000000000000000000000000000000000000000000000\n      dup2\n      mstore\n      0x04\n      add\n      tag_71\n      swap1\n      tag_72\n      jump\t// in\n    tag_71:\n      mload(0x40)\n      dup1\n      swap2\n      sub\n      swap1\n      revert\n    tag_70:\n        /* \"contracts/CovidVaccineSupplyChain.sol\":1709:1717  hospital */\n      0x03\n      0x00\n      swap1\n      sload\n      swap1\n      0x0100\n      exp\n      swap1\n      div\n      0xffffffffffffffffffffffffffffffffffffffff\n      and\n        /* \"contracts/CovidVaccineSupplyChain.sol\":1695:1717  msg.sender == hospital */\n      0xffffffffffffffffffffffffffffffffffffffff\n      and\n        /* \"contracts/CovidVaccineSupplyChain.sol\":1695:1705  msg.sender */\n      caller\n        /* \"contracts/CovidVaccineSupplyChain.sol\":1695:1717  msg.sender == hospital */\n      0xffffffffffffffffffffffffffffffffffffffff\n      and\n      eq\n        /* \"contracts/CovidVaccineSupplyChain.sol\":1687:1718  require(msg.sender == hospital) */\n      tag_73\n      jumpi\n      0x00\n      dup1\n      revert\n    tag_73:\n        /* \"contracts/CovidVaccineSupplyChain.sol\":1736:1748  Step.shipped */\n      0x03\n        /* \"contracts/CovidVaccineSupplyChain.sol\":1729:1733  step */\n      0x05\n      0x00\n        /* \"contracts/CovidVaccineSupplyChain.sol\":1729:1748  step = Step.shipped */\n      0x0100\n      exp\n      dup2\n      sload\n      dup2\n      0xff\n      mul\n      not\n      and\n      swap1\n      dup4\n      0x04\n      dup2\n      gt\n      iszero\n      tag_74\n      jumpi\n      tag_75\n      tag_67\n      jump\t// in\n    tag_75:\n    tag_74:\n      mul\n      or\n      swap1\n      sstore\n      pop\n        /* \"contracts/CovidVaccineSupplyChain.sol\":1579:1756  function delivery()external {\r... */\n      jump\t// out\n        /* \"contracts/CovidVaccineSupplyChain.sol\":199:222  address public hospital */\n    tag_34:\n      0x03\n      0x00\n      swap1\n      sload\n      swap1\n      0x0100\n      exp\n      swap1\n      div\n      0xffffffffffffffffffffffffffffffffffffffff\n      and\n      dup2\n      jump\t// out\n        /* \"contracts/CovidVaccineSupplyChain.sol\":1197:1385  function StepOfDelivery() external isOwner{\r... */\n    tag_37:\n        /* \"contracts/CovidVaccineSupplyChain.sol\":854:862  supplier */\n      0x02\n      0x00\n      swap1\n      sload\n      swap1\n      0x0100\n      exp\n      swap1\n      div\n      0xffffffffffffffffffffffffffffffffffffffff\n      and\n        /* \"contracts/CovidVaccineSupplyChain.sol\":840:862  msg.sender == supplier */\n      0xffffffffffffffffffffffffffffffffffffffff\n      and\n        /* \"contracts/CovidVaccineSupplyChain.sol\":840:850  msg.sender */\n      caller\n        /* \"contracts/CovidVaccineSupplyChain.sol\":840:862  msg.sender == supplier */\n      0xffffffffffffffffffffffffffffffffffffffff\n      and\n      eq\n        /* \"contracts/CovidVaccineSupplyChain.sol\":832:889  require(msg.sender == supplier, \" You are not the owner\") */\n      tag_77\n      jumpi\n      mload(0x40)\n      0x08c379a000000000000000000000000000000000000000000000000000000000\n      dup2\n      mstore\n      0x04\n      add\n      tag_78\n      swap1\n      tag_61\n      jump\t// in\n    tag_78:\n      mload(0x40)\n      dup1\n      swap2\n      sub\n      swap1\n      revert\n    tag_77:\n        /* \"contracts/CovidVaccineSupplyChain.sol\":1266:1281  Step.production */\n      0x00\n        /* \"contracts/CovidVaccineSupplyChain.sol\":1258:1281  step == Step.production */\n      0x04\n      dup2\n      gt\n      iszero\n      tag_80\n      jumpi\n      tag_81\n      tag_67\n      jump\t// in\n    tag_81:\n    tag_80:\n        /* \"contracts/CovidVaccineSupplyChain.sol\":1258:1262  step */\n      0x05\n      0x00\n      swap1\n      sload\n      swap1\n      0x0100\n      exp\n      swap1\n      div\n      0xff\n      and\n        /* \"contracts/CovidVaccineSupplyChain.sol\":1258:1281  step == Step.production */\n      0x04\n      dup2\n      gt\n      iszero\n      tag_82\n      jumpi\n      tag_83\n      tag_67\n      jump\t// in\n    tag_83:\n    tag_82:\n      eq\n        /* \"contracts/CovidVaccineSupplyChain.sol\":1250:1303  require(step == Step.production, \"Not in production\") */\n      tag_84\n      jumpi\n      mload(0x40)\n      0x08c379a000000000000000000000000000000000000000000000000000000000\n      dup2\n      mstore\n      0x04\n      add\n      tag_85\n      swap1\n      tag_86\n      jump\t// in\n    tag_85:\n      mload(0x40)\n      dup1\n      swap2\n      sub\n      swap1\n      revert\n    tag_84:\n        /* \"contracts/CovidVaccineSupplyChain.sol\":1321:1333  Step.waiting */\n      0x01\n        /* \"contracts/CovidVaccineSupplyChain.sol\":1314:1318  step */\n      0x05\n      0x00\n        /* \"contracts/CovidVaccineSupplyChain.sol\":1314:1333  step = Step.waiting */\n      0x0100\n      exp\n      dup2\n      sload\n      dup2\n      0xff\n      mul\n      not\n      and\n      swap1\n      dup4\n      0x04\n      dup2\n      gt\n      iszero\n      tag_87\n      jumpi\n      tag_88\n      tag_67\n      jump\t// in\n    tag_88:\n    tag_87:\n      mul\n      or\n      swap1\n      sstore\n      pop\n        /* \"contracts/CovidVaccineSupplyChain.sol\":1351:1377  OwnerOfProduct(msg.sender) */\n      0x400153a8cebbd91509d8511ec62d3fe08eac19a7afab5e61a723c0860db23520\n        /* \"contracts/CovidVaccineSupplyChain.sol\":1366:1376  msg.sender */\n      caller\n        /* \"contracts/CovidVaccineSupplyChain.sol\":1351:1377  OwnerOfProduct(msg.sender) */\n      mload(0x40)\n      tag_89\n      swap2\n      swap1\n      tag_30\n      jump\t// in\n    tag_89:\n      mload(0x40)\n      dup1\n      swap2\n      sub\n      swap1\n      log1\n        /* \"contracts/CovidVaccineSupplyChain.sol\":1197:1385  function StepOfDelivery() external isOwner{\r... */\n      jump\t// out\n        /* \"contracts/CovidVaccineSupplyChain.sol\":1393:1571  function deliveryManfunction() external isDeliverer{\r... */\n    tag_39:\n        /* \"contracts/CovidVaccineSupplyChain.sol\":987:991  true */\n      0x01\n        /* \"contracts/CovidVaccineSupplyChain.sol\":961:991  deliverers[msg.sender] == true */\n      iszero\n      iszero\n        /* \"contracts/CovidVaccineSupplyChain.sol\":961:971  deliverers */\n      0x04\n        /* \"contracts/CovidVaccineSupplyChain.sol\":961:983  deliverers[msg.sender] */\n      0x00\n        /* \"contracts/CovidVaccineSupplyChain.sol\":972:982  msg.sender */\n      caller\n        /* \"contracts/CovidVaccineSupplyChain.sol\":961:983  deliverers[msg.sender] */\n      0xffffffffffffffffffffffffffffffffffffffff\n      and\n      0xffffffffffffffffffffffffffffffffffffffff\n      and\n      dup2\n      mstore\n      0x20\n      add\n      swap1\n      dup2\n      mstore\n      0x20\n      add\n      0x00\n      keccak256\n      0x00\n      swap1\n      sload\n      swap1\n      0x0100\n      exp\n      swap1\n      div\n      0xff\n      and\n        /* \"contracts/CovidVaccineSupplyChain.sol\":961:991  deliverers[msg.sender] == true */\n      iszero\n      iszero\n      eq\n        /* \"contracts/CovidVaccineSupplyChain.sol\":953:1018  require(deliverers[msg.sender] == true, \" You are not the owner\") */\n      tag_91\n      jumpi\n      mload(0x40)\n      0x08c379a000000000000000000000000000000000000000000000000000000000\n      dup2\n      mstore\n      0x04\n      add\n      tag_92\n      swap1\n      tag_61\n      jump\t// in\n    tag_92:\n      mload(0x40)\n      dup1\n      swap2\n      sub\n      swap1\n      revert\n    tag_91:\n        /* \"contracts/CovidVaccineSupplyChain.sol\":1471:1483  Step.waiting */\n      0x01\n        /* \"contracts/CovidVaccineSupplyChain.sol\":1463:1483  step == Step.waiting */\n      0x04\n      dup2\n      gt\n      iszero\n      tag_94\n      jumpi\n      tag_95\n      tag_67\n      jump\t// in\n    tag_95:\n    tag_94:\n        /* \"contracts/CovidVaccineSupplyChain.sol\":1463:1467  step */\n      0x05\n      0x00\n      swap1\n      sload\n      swap1\n      0x0100\n      exp\n      swap1\n      div\n      0xff\n      and\n        /* \"contracts/CovidVaccineSupplyChain.sol\":1463:1483  step == Step.waiting */\n      0x04\n      dup2\n      gt\n      iszero\n      tag_96\n      jumpi\n      tag_97\n      tag_67\n      jump\t// in\n    tag_97:\n    tag_96:\n      eq\n        /* \"contracts/CovidVaccineSupplyChain.sol\":1455:1498  require(step == Step.waiting , \"Not ready\") */\n      tag_98\n      jumpi\n      mload(0x40)\n      0x08c379a000000000000000000000000000000000000000000000000000000000\n      dup2\n      mstore\n      0x04\n      add\n      tag_99\n      swap1\n      tag_100\n      jump\t// in\n    tag_99:\n      mload(0x40)\n      dup1\n      swap2\n      sub\n      swap1\n      revert\n    tag_98:\n        /* \"contracts/CovidVaccineSupplyChain.sol\":1516:1526  Step.onWay */\n      0x02\n        /* \"contracts/CovidVaccineSupplyChain.sol\":1509:1513  step */\n      0x05\n      0x00\n        /* \"contracts/CovidVaccineSupplyChain.sol\":1509:1526  step = Step.onWay */\n      0x0100\n      exp\n      dup2\n      sload\n      dup2\n      0xff\n      mul\n      not\n      and\n      swap1\n      dup4\n      0x04\n      dup2\n      gt\n      iszero\n      tag_101\n      jumpi\n      tag_102\n      tag_67\n      jump\t// in\n    tag_102:\n    tag_101:\n      mul\n      or\n      swap1\n      sstore\n      pop\n        /* \"contracts/CovidVaccineSupplyChain.sol\":1542:1563  Deliverer(msg.sender) */\n      0xfb229d12ab26294bc680d0ad524e4315a0ce05f84a2b75c4c7a0da7f1c0b1343\n        /* \"contracts/CovidVaccineSupplyChain.sol\":1552:1562  msg.sender */\n      caller\n        /* \"contracts/CovidVaccineSupplyChain.sol\":1542:1563  Deliverer(msg.sender) */\n      mload(0x40)\n      tag_103\n      swap2\n      swap1\n      tag_30\n      jump\t// in\n    tag_103:\n      mload(0x40)\n      dup1\n      swap2\n      sub\n      swap1\n      log1\n        /* \"contracts/CovidVaccineSupplyChain.sol\":1393:1571  function deliveryManfunction() external isDeliverer{\r... */\n      jump\t// out\n        /* \"contracts/CovidVaccineSupplyChain.sol\":140:162  address public product */\n    tag_41:\n      0x01\n      0x00\n      swap1\n      sload\n      swap1\n      0x0100\n      exp\n      swap1\n      div\n      0xffffffffffffffffffffffffffffffffffffffff\n      and\n      dup2\n      jump\t// out\n        /* \"contracts/CovidVaccineSupplyChain.sol\":508:524  Step public step */\n    tag_44:\n      0x05\n      0x00\n      swap1\n      sload\n      swap1\n      0x0100\n      exp\n      swap1\n      div\n      0xff\n      and\n      dup2\n      jump\t// out\n        /* \"contracts/CovidVaccineSupplyChain.sol\":229:271  mapping (address => bool)public deliverers */\n    tag_49:\n      mstore(0x20, 0x04)\n      dup1\n      0x00\n      mstore\n      keccak256(0x00, 0x40)\n      0x00\n      swap2\n      pop\n      sload\n      swap1\n      0x0100\n      exp\n      swap1\n      div\n      0xff\n      and\n      dup2\n      jump\t// out\n        /* \"#utility.yul\":7:146   */\n    tag_105:\n        /* \"#utility.yul\":53:58   */\n      0x00\n        /* \"#utility.yul\":91:97   */\n      dup2\n        /* \"#utility.yul\":78:98   */\n      calldataload\n        /* \"#utility.yul\":69:98   */\n      swap1\n      pop\n        /* \"#utility.yul\":107:140   */\n      tag_107\n        /* \"#utility.yul\":134:139   */\n      dup2\n        /* \"#utility.yul\":107:140   */\n      tag_108\n      jump\t// in\n    tag_107:\n        /* \"#utility.yul\":7:146   */\n      swap3\n      swap2\n      pop\n      pop\n      jump\t// out\n        /* \"#utility.yul\":152:481   */\n    tag_25:\n        /* \"#utility.yul\":211:217   */\n      0x00\n        /* \"#utility.yul\":260:262   */\n      0x20\n        /* \"#utility.yul\":248:257   */\n      dup3\n        /* \"#utility.yul\":239:246   */\n      dup5\n        /* \"#utility.yul\":235:258   */\n      sub\n        /* \"#utility.yul\":231:263   */\n      slt\n        /* \"#utility.yul\":228:347   */\n      iszero\n      tag_110\n      jumpi\n        /* \"#utility.yul\":266:345   */\n      tag_111\n      tag_112\n      jump\t// in\n    tag_111:\n        /* \"#utility.yul\":228:347   */\n    tag_110:\n        /* \"#utility.yul\":386:387   */\n      0x00\n        /* \"#utility.yul\":411:464   */\n      tag_113\n        /* \"#utility.yul\":456:463   */\n      dup5\n        /* \"#utility.yul\":447:453   */\n      dup3\n        /* \"#utility.yul\":436:445   */\n      dup6\n        /* \"#utility.yul\":432:454   */\n      add\n        /* \"#utility.yul\":411:464   */\n      tag_105\n      jump\t// in\n    tag_113:\n        /* \"#utility.yul\":401:464   */\n      swap2\n      pop\n        /* \"#utility.yul\":357:474   */\n      pop\n        /* \"#utility.yul\":152:481   */\n      swap3\n      swap2\n      pop\n      pop\n      jump\t// out\n        /* \"#utility.yul\":487:605   */\n    tag_114:\n        /* \"#utility.yul\":574:598   */\n      tag_116\n        /* \"#utility.yul\":592:597   */\n      dup2\n        /* \"#utility.yul\":574:598   */\n      tag_117\n      jump\t// in\n    tag_116:\n        /* \"#utility.yul\":569:572   */\n      dup3\n        /* \"#utility.yul\":562:599   */\n      mstore\n        /* \"#utility.yul\":487:605   */\n      pop\n      pop\n      jump\t// out\n        /* \"#utility.yul\":611:720   */\n    tag_118:\n        /* \"#utility.yul\":692:713   */\n      tag_120\n        /* \"#utility.yul\":707:712   */\n      dup2\n        /* \"#utility.yul\":692:713   */\n      tag_121\n      jump\t// in\n    tag_120:\n        /* \"#utility.yul\":687:690   */\n      dup3\n        /* \"#utility.yul\":680:714   */\n      mstore\n        /* \"#utility.yul\":611:720   */\n      pop\n      pop\n      jump\t// out\n        /* \"#utility.yul\":726:889   */\n    tag_122:\n        /* \"#utility.yul\":829:882   */\n      tag_124\n        /* \"#utility.yul\":876:881   */\n      dup2\n        /* \"#utility.yul\":829:882   */\n      tag_125\n      jump\t// in\n    tag_124:\n        /* \"#utility.yul\":824:827   */\n      dup3\n        /* \"#utility.yul\":817:883   */\n      mstore\n        /* \"#utility.yul\":726:889   */\n      pop\n      pop\n      jump\t// out\n        /* \"#utility.yul\":895:1036   */\n    tag_126:\n        /* \"#utility.yul\":987:1029   */\n      tag_128\n        /* \"#utility.yul\":1023:1028   */\n      dup2\n        /* \"#utility.yul\":987:1029   */\n      tag_129\n      jump\t// in\n    tag_128:\n        /* \"#utility.yul\":982:985   */\n      dup3\n        /* \"#utility.yul\":975:1030   */\n      mstore\n        /* \"#utility.yul\":895:1036   */\n      pop\n      pop\n      jump\t// out\n        /* \"#utility.yul\":1042:1406   */\n    tag_130:\n        /* \"#utility.yul\":1130:1133   */\n      0x00\n        /* \"#utility.yul\":1158:1197   */\n      tag_132\n        /* \"#utility.yul\":1191:1196   */\n      dup3\n        /* \"#utility.yul\":1158:1197   */\n      tag_133\n      jump\t// in\n    tag_132:\n        /* \"#utility.yul\":1213:1284   */\n      tag_134\n        /* \"#utility.yul\":1277:1283   */\n      dup2\n        /* \"#utility.yul\":1272:1275   */\n      dup6\n        /* \"#utility.yul\":1213:1284   */\n      tag_135\n      jump\t// in\n    tag_134:\n        /* \"#utility.yul\":1206:1284   */\n      swap4\n      pop\n        /* \"#utility.yul\":1293:1345   */\n      tag_136\n        /* \"#utility.yul\":1338:1344   */\n      dup2\n        /* \"#utility.yul\":1333:1336   */\n      dup6\n        /* \"#utility.yul\":1326:1330   */\n      0x20\n        /* \"#utility.yul\":1319:1324   */\n      dup7\n        /* \"#utility.yul\":1315:1331   */\n      add\n        /* \"#utility.yul\":1293:1345   */\n      tag_137\n      jump\t// in\n    tag_136:\n        /* \"#utility.yul\":1370:1399   */\n      tag_138\n        /* \"#utility.yul\":1392:1398   */\n      dup2\n        /* \"#utility.yul\":1370:1399   */\n      tag_139\n      jump\t// in\n    tag_138:\n        /* \"#utility.yul\":1365:1368   */\n      dup5\n        /* \"#utility.yul\":1361:1400   */\n      add\n        /* \"#utility.yul\":1354:1400   */\n      swap2\n      pop\n        /* \"#utility.yul\":1134:1406   */\n      pop\n        /* \"#utility.yul\":1042:1406   */\n      swap3\n      swap2\n      pop\n      pop\n      jump\t// out\n        /* \"#utility.yul\":1412:1777   */\n    tag_140:\n        /* \"#utility.yul\":1554:1557   */\n      0x00\n        /* \"#utility.yul\":1575:1641   */\n      tag_142\n        /* \"#utility.yul\":1639:1640   */\n      0x09\n        /* \"#utility.yul\":1634:1637   */\n      dup4\n        /* \"#utility.yul\":1575:1641   */\n      tag_135\n      jump\t// in\n    tag_142:\n        /* \"#utility.yul\":1568:1641   */\n      swap2\n      pop\n        /* \"#utility.yul\":1650:1743   */\n      tag_143\n        /* \"#utility.yul\":1739:1742   */\n      dup3\n        /* \"#utility.yul\":1650:1743   */\n      tag_144\n      jump\t// in\n    tag_143:\n        /* \"#utility.yul\":1768:1770   */\n      0x20\n        /* \"#utility.yul\":1763:1766   */\n      dup3\n        /* \"#utility.yul\":1759:1771   */\n      add\n        /* \"#utility.yul\":1752:1771   */\n      swap1\n      pop\n        /* \"#utility.yul\":1412:1777   */\n      swap2\n      swap1\n      pop\n      jump\t// out\n        /* \"#utility.yul\":1783:2149   */\n    tag_145:\n        /* \"#utility.yul\":1925:1928   */\n      0x00\n        /* \"#utility.yul\":1946:2013   */\n      tag_147\n        /* \"#utility.yul\":2010:2012   */\n      0x11\n        /* \"#utility.yul\":2005:2008   */\n      dup4\n        /* \"#utility.yul\":1946:2013   */\n      tag_135\n      jump\t// in\n    tag_147:\n        /* \"#utility.yul\":1939:2013   */\n      swap2\n      pop\n        /* \"#utility.yul\":2022:2115   */\n      tag_148\n        /* \"#utility.yul\":2111:2114   */\n      dup3\n        /* \"#utility.yul\":2022:2115   */\n      tag_149\n      jump\t// in\n    tag_148:\n        /* \"#utility.yul\":2140:2142   */\n      0x20\n        /* \"#utility.yul\":2135:2138   */\n      dup3\n        /* \"#utility.yul\":2131:2143   */\n      add\n        /* \"#utility.yul\":2124:2143   */\n      swap1\n      pop\n        /* \"#utility.yul\":1783:2149   */\n      swap2\n      swap1\n      pop\n      jump\t// out\n        /* \"#utility.yul\":2155:2521   */\n    tag_150:\n        /* \"#utility.yul\":2297:2300   */\n      0x00\n        /* \"#utility.yul\":2318:2385   */\n      tag_152\n        /* \"#utility.yul\":2382:2384   */\n      0x1a\n        /* \"#utility.yul\":2377:2380   */\n      dup4\n        /* \"#utility.yul\":2318:2385   */\n      tag_135\n      jump\t// in\n    tag_152:\n        /* \"#utility.yul\":2311:2385   */\n      swap2\n      pop\n        /* \"#utility.yul\":2394:2487   */\n      tag_153\n        /* \"#utility.yul\":2483:2486   */\n      dup3\n        /* \"#utility.yul\":2394:2487   */\n      tag_154\n      jump\t// in\n    tag_153:\n        /* \"#utility.yul\":2512:2514   */\n      0x20\n        /* \"#utility.yul\":2507:2510   */\n      dup3\n        /* \"#utility.yul\":2503:2515   */\n      add\n        /* \"#utility.yul\":2496:2515   */\n      swap1\n      pop\n        /* \"#utility.yul\":2155:2521   */\n      swap2\n      swap1\n      pop\n      jump\t// out\n        /* \"#utility.yul\":2527:2893   */\n    tag_155:\n        /* \"#utility.yul\":2669:2672   */\n      0x00\n        /* \"#utility.yul\":2690:2757   */\n      tag_157\n        /* \"#utility.yul\":2754:2756   */\n      0x16\n        /* \"#utility.yul\":2749:2752   */\n      dup4\n        /* \"#utility.yul\":2690:2757   */\n      tag_135\n      jump\t// in\n    tag_157:\n        /* \"#utility.yul\":2683:2757   */\n      swap2\n      pop\n        /* \"#utility.yul\":2766:2859   */\n      tag_158\n        /* \"#utility.yul\":2855:2858   */\n      dup3\n        /* \"#utility.yul\":2766:2859   */\n      tag_159\n      jump\t// in\n    tag_158:\n        /* \"#utility.yul\":2884:2886   */\n      0x20\n        /* \"#utility.yul\":2879:2882   */\n      dup3\n        /* \"#utility.yul\":2875:2887   */\n      add\n        /* \"#utility.yul\":2868:2887   */\n      swap1\n      pop\n        /* \"#utility.yul\":2527:2893   */\n      swap2\n      swap1\n      pop\n      jump\t// out\n        /* \"#utility.yul\":2899:3121   */\n    tag_30:\n        /* \"#utility.yul\":2992:2996   */\n      0x00\n        /* \"#utility.yul\":3030:3032   */\n      0x20\n        /* \"#utility.yul\":3019:3028   */\n      dup3\n        /* \"#utility.yul\":3015:3033   */\n      add\n        /* \"#utility.yul\":3007:3033   */\n      swap1\n      pop\n        /* \"#utility.yul\":3043:3114   */\n      tag_161\n        /* \"#utility.yul\":3111:3112   */\n      0x00\n        /* \"#utility.yul\":3100:3109   */\n      dup4\n        /* \"#utility.yul\":3096:3113   */\n      add\n        /* \"#utility.yul\":3087:3093   */\n      dup5\n        /* \"#utility.yul\":3043:3114   */\n      tag_114\n      jump\t// in\n    tag_161:\n        /* \"#utility.yul\":2899:3121   */\n      swap3\n      swap2\n      pop\n      pop\n      jump\t// out\n        /* \"#utility.yul\":3127:3337   */\n    tag_51:\n        /* \"#utility.yul\":3214:3218   */\n      0x00\n        /* \"#utility.yul\":3252:3254   */\n      0x20\n        /* \"#utility.yul\":3241:3250   */\n      dup3\n        /* \"#utility.yul\":3237:3255   */\n      add\n        /* \"#utility.yul\":3229:3255   */\n      swap1\n      pop\n        /* \"#utility.yul\":3265:3330   */\n      tag_163\n        /* \"#utility.yul\":3327:3328   */\n      0x00\n        /* \"#utility.yul\":3316:3325   */\n      dup4\n        /* \"#utility.yul\":3312:3329   */\n      add\n        /* \"#utility.yul\":3303:3309   */\n      dup5\n        /* \"#utility.yul\":3265:3330   */\n      tag_118\n      jump\t// in\n    tag_163:\n        /* \"#utility.yul\":3127:3337   */\n      swap3\n      swap2\n      pop\n      pop\n      jump\t// out\n        /* \"#utility.yul\":3343:3597   */\n    tag_22:\n        /* \"#utility.yul\":3452:3456   */\n      0x00\n        /* \"#utility.yul\":3490:3492   */\n      0x20\n        /* \"#utility.yul\":3479:3488   */\n      dup3\n        /* \"#utility.yul\":3475:3493   */\n      add\n        /* \"#utility.yul\":3467:3493   */\n      swap1\n      pop\n        /* \"#utility.yul\":3503:3590   */\n      tag_165\n        /* \"#utility.yul\":3587:3588   */\n      0x00\n        /* \"#utility.yul\":3576:3585   */\n      dup4\n        /* \"#utility.yul\":3572:3589   */\n      add\n        /* \"#utility.yul\":3563:3569   */\n      dup5\n        /* \"#utility.yul\":3503:3590   */\n      tag_122\n      jump\t// in\n    tag_165:\n        /* \"#utility.yul\":3343:3597   */\n      swap3\n      swap2\n      pop\n      pop\n      jump\t// out\n        /* \"#utility.yul\":3603:3835   */\n    tag_46:\n        /* \"#utility.yul\":3701:3705   */\n      0x00\n        /* \"#utility.yul\":3739:3741   */\n      0x20\n        /* \"#utility.yul\":3728:3737   */\n      dup3\n        /* \"#utility.yul\":3724:3742   */\n      add\n        /* \"#utility.yul\":3716:3742   */\n      swap1\n      pop\n        /* \"#utility.yul\":3752:3828   */\n      tag_167\n        /* \"#utility.yul\":3825:3826   */\n      0x00\n        /* \"#utility.yul\":3814:3823   */\n      dup4\n        /* \"#utility.yul\":3810:3827   */\n      add\n        /* \"#utility.yul\":3801:3807   */\n      dup5\n        /* \"#utility.yul\":3752:3828   */\n      tag_126\n      jump\t// in\n    tag_167:\n        /* \"#utility.yul\":3603:3835   */\n      swap3\n      swap2\n      pop\n      pop\n      jump\t// out\n        /* \"#utility.yul\":3841:4154   */\n    tag_18:\n        /* \"#utility.yul\":3954:3958   */\n      0x00\n        /* \"#utility.yul\":3992:3994   */\n      0x20\n        /* \"#utility.yul\":3981:3990   */\n      dup3\n        /* \"#utility.yul\":3977:3995   */\n      add\n        /* \"#utility.yul\":3969:3995   */\n      swap1\n      pop\n        /* \"#utility.yul\":4041:4050   */\n      dup2\n        /* \"#utility.yul\":4035:4039   */\n      dup2\n        /* \"#utility.yul\":4031:4051   */\n      sub\n        /* \"#utility.yul\":4027:4028   */\n      0x00\n        /* \"#utility.yul\":4016:4025   */\n      dup4\n        /* \"#utility.yul\":4012:4029   */\n      add\n        /* \"#utility.yul\":4005:4052   */\n      mstore\n        /* \"#utility.yul\":4069:4147   */\n      tag_169\n        /* \"#utility.yul\":4142:4146   */\n      dup2\n        /* \"#utility.yul\":4133:4139   */\n      dup5\n        /* \"#utility.yul\":4069:4147   */\n      tag_130\n      jump\t// in\n    tag_169:\n        /* \"#utility.yul\":4061:4147   */\n      swap1\n      pop\n        /* \"#utility.yul\":3841:4154   */\n      swap3\n      swap2\n      pop\n      pop\n      jump\t// out\n        /* \"#utility.yul\":4160:4579   */\n    tag_100:\n        /* \"#utility.yul\":4326:4330   */\n      0x00\n        /* \"#utility.yul\":4364:4366   */\n      0x20\n        /* \"#utility.yul\":4353:4362   */\n      dup3\n        /* \"#utility.yul\":4349:4367   */\n      add\n        /* \"#utility.yul\":4341:4367   */\n      swap1\n      pop\n        /* \"#utility.yul\":4413:4422   */\n      dup2\n        /* \"#utility.yul\":4407:4411   */\n      dup2\n        /* \"#utility.yul\":4403:4423   */\n      sub\n        /* \"#utility.yul\":4399:4400   */\n      0x00\n        /* \"#utility.yul\":4388:4397   */\n      dup4\n        /* \"#utility.yul\":4384:4401   */\n      add\n        /* \"#utility.yul\":4377:4424   */\n      mstore\n        /* \"#utility.yul\":4441:4572   */\n      tag_171\n        /* \"#utility.yul\":4567:4571   */\n      dup2\n        /* \"#utility.yul\":4441:4572   */\n      tag_140\n      jump\t// in\n    tag_171:\n        /* \"#utility.yul\":4433:4572   */\n      swap1\n      pop\n        /* \"#utility.yul\":4160:4579   */\n      swap2\n      swap1\n      pop\n      jump\t// out\n        /* \"#utility.yul\":4585:5004   */\n    tag_86:\n        /* \"#utility.yul\":4751:4755   */\n      0x00\n        /* \"#utility.yul\":4789:4791   */\n      0x20\n        /* \"#utility.yul\":4778:4787   */\n      dup3\n        /* \"#utility.yul\":4774:4792   */\n      add\n        /* \"#utility.yul\":4766:4792   */\n      swap1\n      pop\n        /* \"#utility.yul\":4838:4847   */\n      dup2\n        /* \"#utility.yul\":4832:4836   */\n      dup2\n        /* \"#utility.yul\":4828:4848   */\n      sub\n        /* \"#utility.yul\":4824:4825   */\n      0x00\n        /* \"#utility.yul\":4813:4822   */\n      dup4\n        /* \"#utility.yul\":4809:4826   */\n      add\n        /* \"#utility.yul\":4802:4849   */\n      mstore\n        /* \"#utility.yul\":4866:4997   */\n      tag_173\n        /* \"#utility.yul\":4992:4996   */\n      dup2\n        /* \"#utility.yul\":4866:4997   */\n      tag_145\n      jump\t// in\n    tag_173:\n        /* \"#utility.yul\":4858:4997   */\n      swap1\n      pop\n        /* \"#utility.yul\":4585:5004   */\n      swap2\n      swap1\n      pop\n      jump\t// out\n        /* \"#utility.yul\":5010:5429   */\n    tag_72:\n        /* \"#utility.yul\":5176:5180   */\n      0x00\n        /* \"#utility.yul\":5214:5216   */\n      0x20\n        /* \"#utility.yul\":5203:5212   */\n      dup3\n        /* \"#utility.yul\":5199:5217   */\n      add\n        /* \"#utility.yul\":5191:5217   */\n      swap1\n      pop\n        /* \"#utility.yul\":5263:5272   */\n      dup2\n        /* \"#utility.yul\":5257:5261   */\n      dup2\n        /* \"#utility.yul\":5253:5273   */\n      sub\n        /* \"#utility.yul\":5249:5250   */\n      0x00\n        /* \"#utility.yul\":5238:5247   */\n      dup4\n        /* \"#utility.yul\":5234:5251   */\n      add\n        /* \"#utility.yul\":5227:5274   */\n      mstore\n        /* \"#utility.yul\":5291:5422   */\n      tag_175\n        /* \"#utility.yul\":5417:5421   */\n      dup2\n        /* \"#utility.yul\":5291:5422   */\n      tag_150\n      jump\t// in\n    tag_175:\n        /* \"#utility.yul\":5283:5422   */\n      swap1\n      pop\n        /* \"#utility.yul\":5010:5429   */\n      swap2\n      swap1\n      pop\n      jump\t// out\n        /* \"#utility.yul\":5435:5854   */\n    tag_61:\n        /* \"#utility.yul\":5601:5605   */\n      0x00\n        /* \"#utility.yul\":5639:5641   */\n      0x20\n        /* \"#utility.yul\":5628:5637   */\n      dup3\n        /* \"#utility.yul\":5624:5642   */\n      add\n        /* \"#utility.yul\":5616:5642   */\n      swap1\n      pop\n        /* \"#utility.yul\":5688:5697   */\n      dup2\n        /* \"#utility.yul\":5682:5686   */\n      dup2\n        /* \"#utility.yul\":5678:5698   */\n      sub\n        /* \"#utility.yul\":5674:5675   */\n      0x00\n        /* \"#utility.yul\":5663:5672   */\n      dup4\n        /* \"#utility.yul\":5659:5676   */\n      add\n        /* \"#utility.yul\":5652:5699   */\n      mstore\n        /* \"#utility.yul\":5716:5847   */\n      tag_177\n        /* \"#utility.yul\":5842:5846   */\n      dup2\n        /* \"#utility.yul\":5716:5847   */\n      tag_155\n      jump\t// in\n    tag_177:\n        /* \"#utility.yul\":5708:5847   */\n      swap1\n      pop\n        /* \"#utility.yul\":5435:5854   */\n      swap2\n      swap1\n      pop\n      jump\t// out\n        /* \"#utility.yul\":5941:6040   */\n    tag_133:\n        /* \"#utility.yul\":5993:5999   */\n      0x00\n        /* \"#utility.yul\":6027:6032   */\n      dup2\n        /* \"#utility.yul\":6021:6033   */\n      mload\n        /* \"#utility.yul\":6011:6033   */\n      swap1\n      pop\n        /* \"#utility.yul\":5941:6040   */\n      swap2\n      swap1\n      pop\n      jump\t// out\n        /* \"#utility.yul\":6046:6215   */\n    tag_135:\n        /* \"#utility.yul\":6130:6141   */\n      0x00\n        /* \"#utility.yul\":6164:6170   */\n      dup3\n        /* \"#utility.yul\":6159:6162   */\n      dup3\n        /* \"#utility.yul\":6152:6171   */\n      mstore\n        /* \"#utility.yul\":6204:6208   */\n      0x20\n        /* \"#utility.yul\":6199:6202   */\n      dup3\n        /* \"#utility.yul\":6195:6209   */\n      add\n        /* \"#utility.yul\":6180:6209   */\n      swap1\n      pop\n        /* \"#utility.yul\":6046:6215   */\n      swap3\n      swap2\n      pop\n      pop\n      jump\t// out\n        /* \"#utility.yul\":6221:6317   */\n    tag_117:\n        /* \"#utility.yul\":6258:6265   */\n      0x00\n        /* \"#utility.yul\":6287:6311   */\n      tag_183\n        /* \"#utility.yul\":6305:6310   */\n      dup3\n        /* \"#utility.yul\":6287:6311   */\n      tag_184\n      jump\t// in\n    tag_183:\n        /* \"#utility.yul\":6276:6311   */\n      swap1\n      pop\n        /* \"#utility.yul\":6221:6317   */\n      swap2\n      swap1\n      pop\n      jump\t// out\n        /* \"#utility.yul\":6323:6413   */\n    tag_121:\n        /* \"#utility.yul\":6357:6364   */\n      0x00\n        /* \"#utility.yul\":6400:6405   */\n      dup2\n        /* \"#utility.yul\":6393:6406   */\n      iszero\n        /* \"#utility.yul\":6386:6407   */\n      iszero\n        /* \"#utility.yul\":6375:6407   */\n      swap1\n      pop\n        /* \"#utility.yul\":6323:6413   */\n      swap2\n      swap1\n      pop\n      jump\t// out\n        /* \"#utility.yul\":6419:6566   */\n    tag_186:\n        /* \"#utility.yul\":6474:6481   */\n      0x00\n        /* \"#utility.yul\":6503:6508   */\n      dup2\n        /* \"#utility.yul\":6492:6508   */\n      swap1\n      pop\n        /* \"#utility.yul\":6509:6560   */\n      tag_188\n        /* \"#utility.yul\":6554:6559   */\n      dup3\n        /* \"#utility.yul\":6509:6560   */\n      tag_189\n      jump\t// in\n    tag_188:\n        /* \"#utility.yul\":6419:6566   */\n      swap2\n      swap1\n      pop\n      jump\t// out\n        /* \"#utility.yul\":6572:6697   */\n    tag_190:\n        /* \"#utility.yul\":6616:6623   */\n      0x00\n        /* \"#utility.yul\":6645:6650   */\n      dup2\n        /* \"#utility.yul\":6634:6650   */\n      swap1\n      pop\n        /* \"#utility.yul\":6651:6691   */\n      tag_192\n        /* \"#utility.yul\":6685:6690   */\n      dup3\n        /* \"#utility.yul\":6651:6691   */\n      tag_193\n      jump\t// in\n    tag_192:\n        /* \"#utility.yul\":6572:6697   */\n      swap2\n      swap1\n      pop\n      jump\t// out\n        /* \"#utility.yul\":6703:6829   */\n    tag_184:\n        /* \"#utility.yul\":6740:6747   */\n      0x00\n        /* \"#utility.yul\":6780:6822   */\n      0xffffffffffffffffffffffffffffffffffffffff\n        /* \"#utility.yul\":6773:6778   */\n      dup3\n        /* \"#utility.yul\":6769:6823   */\n      and\n        /* \"#utility.yul\":6758:6823   */\n      swap1\n      pop\n        /* \"#utility.yul\":6703:6829   */\n      swap2\n      swap1\n      pop\n      jump\t// out\n        /* \"#utility.yul\":6835:6982   */\n    tag_125:\n        /* \"#utility.yul\":6901:6910   */\n      0x00\n        /* \"#utility.yul\":6934:6976   */\n      tag_196\n        /* \"#utility.yul\":6970:6975   */\n      dup3\n        /* \"#utility.yul\":6934:6976   */\n      tag_186\n      jump\t// in\n    tag_196:\n        /* \"#utility.yul\":6921:6976   */\n      swap1\n      pop\n        /* \"#utility.yul\":6835:6982   */\n      swap2\n      swap1\n      pop\n      jump\t// out\n        /* \"#utility.yul\":6988:7113   */\n    tag_129:\n        /* \"#utility.yul\":7043:7052   */\n      0x00\n        /* \"#utility.yul\":7076:7107   */\n      tag_198\n        /* \"#utility.yul\":7101:7106   */\n      dup3\n        /* \"#utility.yul\":7076:7107   */\n      tag_190\n      jump\t// in\n    tag_198:\n        /* \"#utility.yul\":7063:7107   */\n      swap1\n      pop\n        /* \"#utility.yul\":6988:7113   */\n      swap2\n      swap1\n      pop\n      jump\t// out\n        /* \"#utility.yul\":7119:7426   */\n    tag_137:\n        /* \"#utility.yul\":7187:7188   */\n      0x00\n        /* \"#utility.yul\":7197:7310   */\n    tag_200:\n        /* \"#utility.yul\":7211:7217   */\n      dup4\n        /* \"#utility.yul\":7208:7209   */\n      dup2\n        /* \"#utility.yul\":7205:7218   */\n      lt\n        /* \"#utility.yul\":7197:7310   */\n      iszero\n      tag_202\n      jumpi\n        /* \"#utility.yul\":7296:7297   */\n      dup1\n        /* \"#utility.yul\":7291:7294   */\n      dup3\n        /* \"#utility.yul\":7287:7298   */\n      add\n        /* \"#utility.yul\":7281:7299   */\n      mload\n        /* \"#utility.yul\":7277:7278   */\n      dup2\n        /* \"#utility.yul\":7272:7275   */\n      dup5\n        /* \"#utility.yul\":7268:7279   */\n      add\n        /* \"#utility.yul\":7261:7300   */\n      mstore\n        /* \"#utility.yul\":7233:7235   */\n      0x20\n        /* \"#utility.yul\":7230:7231   */\n      dup2\n        /* \"#utility.yul\":7226:7236   */\n      add\n        /* \"#utility.yul\":7221:7236   */\n      swap1\n      pop\n        /* \"#utility.yul\":7197:7310   */\n      jump(tag_200)\n    tag_202:\n        /* \"#utility.yul\":7328:7334   */\n      dup4\n        /* \"#utility.yul\":7325:7326   */\n      dup2\n        /* \"#utility.yul\":7322:7335   */\n      gt\n        /* \"#utility.yul\":7319:7420   */\n      iszero\n      tag_203\n      jumpi\n        /* \"#utility.yul\":7408:7409   */\n      0x00\n        /* \"#utility.yul\":7399:7405   */\n      dup5\n        /* \"#utility.yul\":7394:7397   */\n      dup5\n        /* \"#utility.yul\":7390:7406   */\n      add\n        /* \"#utility.yul\":7383:7410   */\n      mstore\n        /* \"#utility.yul\":7319:7420   */\n    tag_203:\n        /* \"#utility.yul\":7168:7426   */\n      pop\n        /* \"#utility.yul\":7119:7426   */\n      pop\n      pop\n      pop\n      jump\t// out\n        /* \"#utility.yul\":7432:7752   */\n    tag_53:\n        /* \"#utility.yul\":7476:7482   */\n      0x00\n        /* \"#utility.yul\":7513:7514   */\n      0x02\n        /* \"#utility.yul\":7507:7511   */\n      dup3\n        /* \"#utility.yul\":7503:7515   */\n      div\n        /* \"#utility.yul\":7493:7515   */\n      swap1\n      pop\n        /* \"#utility.yul\":7560:7561   */\n      0x01\n        /* \"#utility.yul\":7554:7558   */\n      dup3\n        /* \"#utility.yul\":7550:7562   */\n      and\n        /* \"#utility.yul\":7581:7599   */\n      dup1\n        /* \"#utility.yul\":7571:7652   */\n      tag_205\n      jumpi\n        /* \"#utility.yul\":7637:7641   */\n      0x7f\n        /* \"#utility.yul\":7629:7635   */\n      dup3\n        /* \"#utility.yul\":7625:7642   */\n      and\n        /* \"#utility.yul\":7615:7642   */\n      swap2\n      pop\n        /* \"#utility.yul\":7571:7652   */\n    tag_205:\n        /* \"#utility.yul\":7699:7701   */\n      0x20\n        /* \"#utility.yul\":7691:7697   */\n      dup3\n        /* \"#utility.yul\":7688:7702   */\n      lt\n        /* \"#utility.yul\":7668:7686   */\n      dup2\n        /* \"#utility.yul\":7665:7703   */\n      eq\n        /* \"#utility.yul\":7662:7746   */\n      iszero\n      tag_206\n      jumpi\n        /* \"#utility.yul\":7718:7736   */\n      tag_207\n      tag_208\n      jump\t// in\n    tag_207:\n        /* \"#utility.yul\":7662:7746   */\n    tag_206:\n        /* \"#utility.yul\":7483:7752   */\n      pop\n        /* \"#utility.yul\":7432:7752   */\n      swap2\n      swap1\n      pop\n      jump\t// out\n        /* \"#utility.yul\":7758:7938   */\n    tag_67:\n        /* \"#utility.yul\":7806:7883   */\n      0x4e487b7100000000000000000000000000000000000000000000000000000000\n        /* \"#utility.yul\":7803:7804   */\n      0x00\n        /* \"#utility.yul\":7796:7884   */\n      mstore\n        /* \"#utility.yul\":7903:7907   */\n      0x21\n        /* \"#utility.yul\":7900:7901   */\n      0x04\n        /* \"#utility.yul\":7893:7908   */\n      mstore\n        /* \"#utility.yul\":7927:7931   */\n      0x24\n        /* \"#utility.yul\":7924:7925   */\n      0x00\n        /* \"#utility.yul\":7917:7932   */\n      revert\n        /* \"#utility.yul\":7944:8124   */\n    tag_208:\n        /* \"#utility.yul\":7992:8069   */\n      0x4e487b7100000000000000000000000000000000000000000000000000000000\n        /* \"#utility.yul\":7989:7990   */\n      0x00\n        /* \"#utility.yul\":7982:8070   */\n      mstore\n        /* \"#utility.yul\":8089:8093   */\n      0x22\n        /* \"#utility.yul\":8086:8087   */\n      0x04\n        /* \"#utility.yul\":8079:8094   */\n      mstore\n        /* \"#utility.yul\":8113:8117   */\n      0x24\n        /* \"#utility.yul\":8110:8111   */\n      0x00\n        /* \"#utility.yul\":8103:8118   */\n      revert\n        /* \"#utility.yul\":8253:8370   */\n    tag_112:\n        /* \"#utility.yul\":8362:8363   */\n      0x00\n        /* \"#utility.yul\":8359:8360   */\n      dup1\n        /* \"#utility.yul\":8352:8364   */\n      revert\n        /* \"#utility.yul\":8376:8478   */\n    tag_139:\n        /* \"#utility.yul\":8417:8423   */\n      0x00\n        /* \"#utility.yul\":8468:8470   */\n      0x1f\n        /* \"#utility.yul\":8464:8471   */\n      not\n        /* \"#utility.yul\":8459:8461   */\n      0x1f\n        /* \"#utility.yul\":8452:8457   */\n      dup4\n        /* \"#utility.yul\":8448:8462   */\n      add\n        /* \"#utility.yul\":8444:8472   */\n      and\n        /* \"#utility.yul\":8434:8472   */\n      swap1\n      pop\n        /* \"#utility.yul\":8376:8478   */\n      swap2\n      swap1\n      pop\n      jump\t// out\n        /* \"#utility.yul\":8484:8643   */\n    tag_144:\n        /* \"#utility.yul\":8624:8635   */\n      0x4e6f742072656164790000000000000000000000000000000000000000000000\n        /* \"#utility.yul\":8620:8621   */\n      0x00\n        /* \"#utility.yul\":8612:8618   */\n      dup3\n        /* \"#utility.yul\":8608:8622   */\n      add\n        /* \"#utility.yul\":8601:8636   */\n      mstore\n        /* \"#utility.yul\":8484:8643   */\n      pop\n      jump\t// out\n        /* \"#utility.yul\":8649:8816   */\n    tag_149:\n        /* \"#utility.yul\":8789:8808   */\n      0x4e6f7420696e2070726f64756374696f6e000000000000000000000000000000\n        /* \"#utility.yul\":8785:8786   */\n      0x00\n        /* \"#utility.yul\":8777:8783   */\n      dup3\n        /* \"#utility.yul\":8773:8787   */\n      add\n        /* \"#utility.yul\":8766:8809   */\n      mstore\n        /* \"#utility.yul\":8649:8816   */\n      pop\n      jump\t// out\n        /* \"#utility.yul\":8822:8998   */\n    tag_154:\n        /* \"#utility.yul\":8962:8990   */\n      0x5374696c6c2077616974696e6720666f722064656c6976657279000000000000\n        /* \"#utility.yul\":8958:8959   */\n      0x00\n        /* \"#utility.yul\":8950:8956   */\n      dup3\n        /* \"#utility.yul\":8946:8960   */\n      add\n        /* \"#utility.yul\":8939:8991   */\n      mstore\n        /* \"#utility.yul\":8822:8998   */\n      pop\n      jump\t// out\n        /* \"#utility.yul\":9004:9176   */\n    tag_159:\n        /* \"#utility.yul\":9144:9168   */\n      0x20596f7520617265206e6f7420746865206f776e657200000000000000000000\n        /* \"#utility.yul\":9140:9141   */\n      0x00\n        /* \"#utility.yul\":9132:9138   */\n      dup3\n        /* \"#utility.yul\":9128:9142   */\n      add\n        /* \"#utility.yul\":9121:9169   */\n      mstore\n        /* \"#utility.yul\":9004:9176   */\n      pop\n      jump\t// out\n        /* \"#utility.yul\":9182:9305   */\n    tag_189:\n        /* \"#utility.yul\":9273:9274   */\n      0x04\n        /* \"#utility.yul\":9266:9271   */\n      dup2\n        /* \"#utility.yul\":9263:9275   */\n      lt\n        /* \"#utility.yul\":9253:9299   */\n      tag_220\n      jumpi\n        /* \"#utility.yul\":9279:9297   */\n      tag_221\n      tag_67\n      jump\t// in\n    tag_221:\n        /* \"#utility.yul\":9253:9299   */\n    tag_220:\n        /* \"#utility.yul\":9182:9305   */\n      pop\n      jump\t// out\n        /* \"#utility.yul\":9311:9423   */\n    tag_193:\n        /* \"#utility.yul\":9391:9392   */\n      0x05\n        /* \"#utility.yul\":9384:9389   */\n      dup2\n        /* \"#utility.yul\":9381:9393   */\n      lt\n        /* \"#utility.yul\":9371:9417   */\n      tag_223\n      jumpi\n        /* \"#utility.yul\":9397:9415   */\n      tag_224\n      tag_67\n      jump\t// in\n    tag_224:\n        /* \"#utility.yul\":9371:9417   */\n    tag_223:\n        /* \"#utility.yul\":9311:9423   */\n      pop\n      jump\t// out\n        /* \"#utility.yul\":9429:9551   */\n    tag_108:\n        /* \"#utility.yul\":9502:9526   */\n      tag_226\n        /* \"#utility.yul\":9520:9525   */\n      dup2\n        /* \"#utility.yul\":9502:9526   */\n      tag_117\n      jump\t// in\n    tag_226:\n        /* \"#utility.yul\":9495:9500   */\n      dup2\n        /* \"#utility.yul\":9492:9527   */\n      eq\n        /* \"#utility.yul\":9482:9545   */\n      tag_227\n      jumpi\n        /* \"#utility.yul\":9541:9542   */\n      0x00\n        /* \"#utility.yul\":9538:9539   */\n      dup1\n        /* \"#utility.yul\":9531:9543   */\n      revert\n        /* \"#utility.yul\":9482:9545   */\n    tag_227:\n        /* \"#utility.yul\":9429:9551   */\n      pop\n      jump\t// out\n\n    auxdata: 0xa2646970667358221220aec45c9affef90e04dfd2f582383fff5dbca2929b39b59b2768603f9be72072c64736f6c63430008070033\n}\n",
				"bytecode": {
					"linkReferences": {},
					"object": "60806040526040518060400160405280600981526020017f436f7669642056617800000000000000000000000000000000000000000000008152506000908051906020019062000051929190620001d9565b503480156200005f57600080fd5b50604051620010fb380380620010fb8339818101604052810190620000859190620002a0565b33600260006101000a81548173ffffffffffffffffffffffffffffffffffffffff021916908373ffffffffffffffffffffffffffffffffffffffff16021790555081600160006101000a81548173ffffffffffffffffffffffffffffffffffffffff021916908373ffffffffffffffffffffffffffffffffffffffff16021790555080600360006101000a81548173ffffffffffffffffffffffffffffffffffffffff021916908373ffffffffffffffffffffffffffffffffffffffff1602179055506000600560006101000a81548160ff021916908360048111156200017157620001706200037f565b5b02179055507f400153a8cebbd91509d8511ec62d3fe08eac19a7afab5e61a723c0860db23520600260009054906101000a900473ffffffffffffffffffffffffffffffffffffffff16604051620001c99190620002f8565b60405180910390a15050620003fc565b828054620001e79062000349565b90600052602060002090601f0160209004810192826200020b576000855562000257565b82601f106200022657805160ff191683800117855562000257565b8280016001018555821562000257579182015b828111156200025657825182559160200191906001019062000239565b5b5090506200026691906200026a565b5090565b5b80821115620002855760008160009055506001016200026b565b5090565b6000815190506200029a81620003e2565b92915050565b60008060408385031215620002ba57620002b9620003dd565b5b6000620002ca8582860162000289565b9250506020620002dd8582860162000289565b9150509250929050565b620002f28162000315565b82525050565b60006020820190506200030f6000830184620002e7565b92915050565b6000620003228262000329565b9050919050565b600073ffffffffffffffffffffffffffffffffffffffff82169050919050565b600060028204905060018216806200036257607f821691505b60208210811415620003795762000378620003ae565b5b50919050565b7f4e487b7100000000000000000000000000000000000000000000000000000000600052602160045260246000fd5b7f4e487b7100000000000000000000000000000000000000000000000000000000600052602260045260246000fd5b600080fd5b620003ed8162000315565b8114620003f957600080fd5b50565b610cef806200040c6000396000f3fe608060405234801561001057600080fd5b50600436106100a95760003560e01c8063aa2fedde11610071578063aa2fedde1461012e578063b6c859bf1461014c578063b7c779f414610156578063bf9ce95214610160578063e25fe1751461017e578063e8950c0f1461019c576100a9565b80630fc8f82a146100ae57806311e760dc146100cc5780631fe49587146100ea57806336da4468146101065780633d5a70c214610124575b600080fd5b6100b66101cc565b6040516100c391906109b7565b60405180910390f35b6100d461025a565b6040516100e19190610981565b60405180910390f35b61010460048036038101906100ff919061081d565b61026d565b005b61010e61038f565b60405161011b919061094b565b60405180910390f35b61012c6103b5565b005b6101366104b2565b604051610143919061094b565b60405180910390f35b6101546104d8565b005b61015e610642565b005b6101686107af565b604051610175919061094b565b60405180910390f35b6101866107d5565b604051610193919061099c565b60405180910390f35b6101b660048036038101906101b1919061081d565b6107e8565b6040516101c39190610966565b60405180910390f35b600080546101d990610b30565b80601f016020809104026020016040519081016040528092919081815260200182805461020590610b30565b80156102525780601f1061022757610100808354040283529160200191610252565b820191906000526020600020905b81548152906001019060200180831161023557829003601f168201915b505050505081565b600560019054906101000a900460ff1681565b600260009054906101000a900473ffffffffffffffffffffffffffffffffffffffff1673ffffffffffffffffffffffffffffffffffffffff163373ffffffffffffffffffffffffffffffffffffffff16146102fd576040517f08c379a00000000000000000000000000000000000000000000000000000000081526004016102f490610a39565b60405180910390fd5b6001600460008373ffffffffffffffffffffffffffffffffffffffff1673ffffffffffffffffffffffffffffffffffffffff16815260200190815260200160002060006101000a81548160ff0219169083151502179055507f400153a8cebbd91509d8511ec62d3fe08eac19a7afab5e61a723c0860db2352033604051610384919061094b565b60405180910390a150565b600260009054906101000a900473ffffffffffffffffffffffffffffffffffffffff1681565b600260048111156103c9576103c8610b62565b5b600560009054906101000a900460ff1660048111156103eb576103ea610b62565b5b1461042b576040517f08c379a000000000000000000000000000000000000000000000000000000000815260040161042290610a19565b60405180910390fd5b600360009054906101000a900473ffffffffffffffffffffffffffffffffffffffff1673ffffffffffffffffffffffffffffffffffffffff163373ffffffffffffffffffffffffffffffffffffffff161461048557600080fd5b6003600560006101000a81548160ff021916908360048111156104ab576104aa610b62565b5b0217905550565b600360009054906101000a900473ffffffffffffffffffffffffffffffffffffffff1681565b600260009054906101000a900473ffffffffffffffffffffffffffffffffffffffff1673ffffffffffffffffffffffffffffffffffffffff163373ffffffffffffffffffffffffffffffffffffffff1614610568576040517f08c379a000000000000000000000000000000000000000000000000000000000815260040161055f90610a39565b60405180910390fd5b6000600481111561057c5761057b610b62565b5b600560009054906101000a900460ff16600481111561059e5761059d610b62565b5b146105de576040517f08c379a00000000000000000000000000000000000000000000000000000000081526004016105d5906109f9565b60405180910390fd5b6001600560006101000a81548160ff0219169083600481111561060457610603610b62565b5b02179055507f400153a8cebbd91509d8511ec62d3fe08eac19a7afab5e61a723c0860db2352033604051610638919061094b565b60405180910390a1565b60011515600460003373ffffffffffffffffffffffffffffffffffffffff1673ffffffffffffffffffffffffffffffffffffffff16815260200190815260200160002060009054906101000a900460ff161515146106d5576040517f08c379a00000000000000000000000000000000000000000000000000000000081526004016106cc90610a39565b60405180910390fd5b600160048111156106e9576106e8610b62565b5b600560009054906101000a900460ff16600481111561070b5761070a610b62565b5b1461074b576040517f08c379a0000000000000000000000000000000000000000000000000000000008152600401610742906109d9565b60405180910390fd5b6002600560006101000a81548160ff0219169083600481111561077157610770610b62565b5b02179055507ffb229d12ab26294bc680d0ad524e4315a0ce05f84a2b75c4c7a0da7f1c0b1343336040516107a5919061094b565b60405180910390a1565b600160009054906101000a900473ffffffffffffffffffffffffffffffffffffffff1681565b600560009054906101000a900460ff1681565b60046020528060005260406000206000915054906101000a900460ff1681565b60008135905061081781610ca2565b92915050565b60006020828403121561083357610832610bc0565b5b600061084184828501610808565b91505092915050565b61085381610a75565b82525050565b61086281610a87565b82525050565b61087181610ad9565b82525050565b61088081610aeb565b82525050565b600061089182610a59565b61089b8185610a64565b93506108ab818560208601610afd565b6108b481610bc5565b840191505092915050565b60006108cc600983610a64565b91506108d782610bd6565b602082019050919050565b60006108ef601183610a64565b91506108fa82610bff565b602082019050919050565b6000610912601a83610a64565b915061091d82610c28565b602082019050919050565b6000610935601683610a64565b915061094082610c51565b602082019050919050565b6000602082019050610960600083018461084a565b92915050565b600060208201905061097b6000830184610859565b92915050565b60006020820190506109966000830184610868565b92915050565b60006020820190506109b16000830184610877565b92915050565b600060208201905081810360008301526109d18184610886565b905092915050565b600060208201905081810360008301526109f2816108bf565b9050919050565b60006020820190508181036000830152610a12816108e2565b9050919050565b60006020820190508181036000830152610a3281610905565b9050919050565b60006020820190508181036000830152610a5281610928565b9050919050565b600081519050919050565b600082825260208201905092915050565b6000610a8082610ab9565b9050919050565b60008115159050919050565b6000819050610aa182610c7a565b919050565b6000819050610ab482610c8e565b919050565b600073ffffffffffffffffffffffffffffffffffffffff82169050919050565b6000610ae482610a93565b9050919050565b6000610af682610aa6565b9050919050565b60005b83811015610b1b578082015181840152602081019050610b00565b83811115610b2a576000848401525b50505050565b60006002820490506001821680610b4857607f821691505b60208210811415610b5c57610b5b610b91565b5b50919050565b7f4e487b7100000000000000000000000000000000000000000000000000000000600052602160045260246000fd5b7f4e487b7100000000000000000000000000000000000000000000000000000000600052602260045260246000fd5b600080fd5b6000601f19601f8301169050919050565b7f4e6f742072656164790000000000000000000000000000000000000000000000600082015250565b7f4e6f7420696e2070726f64756374696f6e000000000000000000000000000000600082015250565b7f5374696c6c2077616974696e6720666f722064656c6976657279000000000000600082015250565b7f20596f7520617265206e6f7420746865206f776e657200000000000000000000600082015250565b60048110610c8b57610c8a610b62565b5b50565b60058110610c9f57610c9e610b62565b5b50565b610cab81610a75565b8114610cb657600080fd5b5056fea2646970667358221220aec45c9affef90e04dfd2f582383fff5dbca2929b39b59b2768603f9be72072c64736f6c63430008070033",
					"opcodes": "PUSH1 0x80 PUSH1 0x40 MSTORE PUSH1 0x40 MLOAD DUP1 PUSH1 0x40 ADD PUSH1 0x40 MSTORE DUP1 PUSH1 0x9 DUP2 MSTORE PUSH1 0x20 ADD PUSH32 0x436F766964205661780000000000000000000000000000000000000000000000 DUP2 MSTORE POP PUSH1 0x0 SWAP1 DUP1 MLOAD SWAP1 PUSH1 0x20 ADD SWAP1 PUSH3 0x51 SWAP3 SWAP2 SWAP1 PUSH3 0x1D9 JUMP JUMPDEST POP CALLVALUE DUP1 ISZERO PUSH3 0x5F JUMPI PUSH1 0x0 DUP1 REVERT JUMPDEST POP PUSH1 0x40 MLOAD PUSH3 0x10FB CODESIZE SUB DUP1 PUSH3 0x10FB DUP4 CODECOPY DUP2 DUP2 ADD PUSH1 0x40 MSTORE DUP2 ADD SWAP1 PUSH3 0x85 SWAP2 SWAP1 PUSH3 0x2A0 JUMP JUMPDEST CALLER PUSH1 0x2 PUSH1 0x0 PUSH2 0x100 EXP DUP2 SLOAD DUP2 PUSH20 0xFFFFFFFFFFFFFFFFFFFFFFFFFFFFFFFFFFFFFFFF MUL NOT AND SWAP1 DUP4 PUSH20 0xFFFFFFFFFFFFFFFFFFFFFFFFFFFFFFFFFFFFFFFF AND MUL OR SWAP1 SSTORE POP DUP2 PUSH1 0x1 PUSH1 0x0 PUSH2 0x100 EXP DUP2 SLOAD DUP2 PUSH20 0xFFFFFFFFFFFFFFFFFFFFFFFFFFFFFFFFFFFFFFFF MUL NOT AND SWAP1 DUP4 PUSH20 0xFFFFFFFFFFFFFFFFFFFFFFFFFFFFFFFFFFFFFFFF AND MUL OR SWAP1 SSTORE POP DUP1 PUSH1 0x3 PUSH1 0x0 PUSH2 0x100 EXP DUP2 SLOAD DUP2 PUSH20 0xFFFFFFFFFFFFFFFFFFFFFFFFFFFFFFFFFFFFFFFF MUL NOT AND SWAP1 DUP4 PUSH20 0xFFFFFFFFFFFFFFFFFFFFFFFFFFFFFFFFFFFFFFFF AND MUL OR SWAP1 SSTORE POP PUSH1 0x0 PUSH1 0x5 PUSH1 0x0 PUSH2 0x100 EXP DUP2 SLOAD DUP2 PUSH1 0xFF MUL NOT AND SWAP1 DUP4 PUSH1 0x4 DUP2 GT ISZERO PUSH3 0x171 JUMPI PUSH3 0x170 PUSH3 0x37F JUMP JUMPDEST JUMPDEST MUL OR SWAP1 SSTORE POP PUSH32 0x400153A8CEBBD91509D8511EC62D3FE08EAC19A7AFAB5E61A723C0860DB23520 PUSH1 0x2 PUSH1 0x0 SWAP1 SLOAD SWAP1 PUSH2 0x100 EXP SWAP1 DIV PUSH20 0xFFFFFFFFFFFFFFFFFFFFFFFFFFFFFFFFFFFFFFFF AND PUSH1 0x40 MLOAD PUSH3 0x1C9 SWAP2 SWAP1 PUSH3 0x2F8 JUMP JUMPDEST PUSH1 0x40 MLOAD DUP1 SWAP2 SUB SWAP1 LOG1 POP POP PUSH3 0x3FC JUMP JUMPDEST DUP3 DUP1 SLOAD PUSH3 0x1E7 SWAP1 PUSH3 0x349 JUMP JUMPDEST SWAP1 PUSH1 0x0 MSTORE PUSH1 0x20 PUSH1 0x0 KECCAK256 SWAP1 PUSH1 0x1F ADD PUSH1 0x20 SWAP1 DIV DUP2 ADD SWAP3 DUP3 PUSH3 0x20B JUMPI PUSH1 0x0 DUP6 SSTORE PUSH3 0x257 JUMP JUMPDEST DUP3 PUSH1 0x1F LT PUSH3 0x226 JUMPI DUP1 MLOAD PUSH1 0xFF NOT AND DUP4 DUP1 ADD OR DUP6 SSTORE PUSH3 0x257 JUMP JUMPDEST DUP3 DUP1 ADD PUSH1 0x1 ADD DUP6 SSTORE DUP3 ISZERO PUSH3 0x257 JUMPI SWAP2 DUP3 ADD JUMPDEST DUP3 DUP2 GT ISZERO PUSH3 0x256 JUMPI DUP3 MLOAD DUP3 SSTORE SWAP2 PUSH1 0x20 ADD SWAP2 SWAP1 PUSH1 0x1 ADD SWAP1 PUSH3 0x239 JUMP JUMPDEST JUMPDEST POP SWAP1 POP PUSH3 0x266 SWAP2 SWAP1 PUSH3 0x26A JUMP JUMPDEST POP SWAP1 JUMP JUMPDEST JUMPDEST DUP1 DUP3 GT ISZERO PUSH3 0x285 JUMPI PUSH1 0x0 DUP2 PUSH1 0x0 SWAP1 SSTORE POP PUSH1 0x1 ADD PUSH3 0x26B JUMP JUMPDEST POP SWAP1 JUMP JUMPDEST PUSH1 0x0 DUP2 MLOAD SWAP1 POP PUSH3 0x29A DUP2 PUSH3 0x3E2 JUMP JUMPDEST SWAP3 SWAP2 POP POP JUMP JUMPDEST PUSH1 0x0 DUP1 PUSH1 0x40 DUP4 DUP6 SUB SLT ISZERO PUSH3 0x2BA JUMPI PUSH3 0x2B9 PUSH3 0x3DD JUMP JUMPDEST JUMPDEST PUSH1 0x0 PUSH3 0x2CA DUP6 DUP3 DUP7 ADD PUSH3 0x289 JUMP JUMPDEST SWAP3 POP POP PUSH1 0x20 PUSH3 0x2DD DUP6 DUP3 DUP7 ADD PUSH3 0x289 JUMP JUMPDEST SWAP2 POP POP SWAP3 POP SWAP3 SWAP1 POP JUMP JUMPDEST PUSH3 0x2F2 DUP2 PUSH3 0x315 JUMP JUMPDEST DUP3 MSTORE POP POP JUMP JUMPDEST PUSH1 0x0 PUSH1 0x20 DUP3 ADD SWAP1 POP PUSH3 0x30F PUSH1 0x0 DUP4 ADD DUP5 PUSH3 0x2E7 JUMP JUMPDEST SWAP3 SWAP2 POP POP JUMP JUMPDEST PUSH1 0x0 PUSH3 0x322 DUP3 PUSH3 0x329 JUMP JUMPDEST SWAP1 POP SWAP2 SWAP1 POP JUMP JUMPDEST PUSH1 0x0 PUSH20 0xFFFFFFFFFFFFFFFFFFFFFFFFFFFFFFFFFFFFFFFF DUP3 AND SWAP1 POP SWAP2 SWAP1 POP JUMP JUMPDEST PUSH1 0x0 PUSH1 0x2 DUP3 DIV SWAP1 POP PUSH1 0x1 DUP3 AND DUP1 PUSH3 0x362 JUMPI PUSH1 0x7F DUP3 AND SWAP2 POP JUMPDEST PUSH1 0x20 DUP3 LT DUP2 EQ ISZERO PUSH3 0x379 JUMPI PUSH3 0x378 PUSH3 0x3AE JUMP JUMPDEST JUMPDEST POP SWAP2 SWAP1 POP JUMP JUMPDEST PUSH32 0x4E487B7100000000000000000000000000000000000000000000000000000000 PUSH1 0x0 MSTORE PUSH1 0x21 PUSH1 0x4 MSTORE PUSH1 0x24 PUSH1 0x0 REVERT JUMPDEST PUSH32 0x4E487B7100000000000000000000000000000000000000000000000000000000 PUSH1 0x0 MSTORE PUSH1 0x22 PUSH1 0x4 MSTORE PUSH1 0x24 PUSH1 0x0 REVERT JUMPDEST PUSH1 0x0 DUP1 REVERT JUMPDEST PUSH3 0x3ED DUP2 PUSH3 0x315 JUMP JUMPDEST DUP2 EQ PUSH3 0x3F9 JUMPI PUSH1 0x0 DUP1 REVERT JUMPDEST POP JUMP JUMPDEST PUSH2 0xCEF DUP1 PUSH3 0x40C PUSH1 0x0 CODECOPY PUSH1 0x0 RETURN INVALID PUSH1 0x80 PUSH1 0x40 MSTORE CALLVALUE DUP1 ISZERO PUSH2 0x10 JUMPI PUSH1 0x0 DUP1 REVERT JUMPDEST POP PUSH1 0x4 CALLDATASIZE LT PUSH2 0xA9 JUMPI PUSH1 0x0 CALLDATALOAD PUSH1 0xE0 SHR DUP1 PUSH4 0xAA2FEDDE GT PUSH2 0x71 JUMPI DUP1 PUSH4 0xAA2FEDDE EQ PUSH2 0x12E JUMPI DUP1 PUSH4 0xB6C859BF EQ PUSH2 0x14C JUMPI DUP1 PUSH4 0xB7C779F4 EQ PUSH2 0x156 JUMPI DUP1 PUSH4 0xBF9CE952 EQ PUSH2 0x160 JUMPI DUP1 PUSH4 0xE25FE175 EQ PUSH2 0x17E JUMPI DUP1 PUSH4 0xE8950C0F EQ PUSH2 0x19C JUMPI PUSH2 0xA9 JUMP JUMPDEST DUP1 PUSH4 0xFC8F82A EQ PUSH2 0xAE JUMPI DUP1 PUSH4 0x11E760DC EQ PUSH2 0xCC JUMPI DUP1 PUSH4 0x1FE49587 EQ PUSH2 0xEA JUMPI DUP1 PUSH4 0x36DA4468 EQ PUSH2 0x106 JUMPI DUP1 PUSH4 0x3D5A70C2 EQ PUSH2 0x124 JUMPI JUMPDEST PUSH1 0x0 DUP1 REVERT JUMPDEST PUSH2 0xB6 PUSH2 0x1CC JUMP JUMPDEST PUSH1 0x40 MLOAD PUSH2 0xC3 SWAP2 SWAP1 PUSH2 0x9B7 JUMP JUMPDEST PUSH1 0x40 MLOAD DUP1 SWAP2 SUB SWAP1 RETURN JUMPDEST PUSH2 0xD4 PUSH2 0x25A JUMP JUMPDEST PUSH1 0x40 MLOAD PUSH2 0xE1 SWAP2 SWAP1 PUSH2 0x981 JUMP JUMPDEST PUSH1 0x40 MLOAD DUP1 SWAP2 SUB SWAP1 RETURN JUMPDEST PUSH2 0x104 PUSH1 0x4 DUP1 CALLDATASIZE SUB DUP2 ADD SWAP1 PUSH2 0xFF SWAP2 SWAP1 PUSH2 0x81D JUMP JUMPDEST PUSH2 0x26D JUMP JUMPDEST STOP JUMPDEST PUSH2 0x10E PUSH2 0x38F JUMP JUMPDEST PUSH1 0x40 MLOAD PUSH2 0x11B SWAP2 SWAP1 PUSH2 0x94B JUMP JUMPDEST PUSH1 0x40 MLOAD DUP1 SWAP2 SUB SWAP1 RETURN JUMPDEST PUSH2 0x12C PUSH2 0x3B5 JUMP JUMPDEST STOP JUMPDEST PUSH2 0x136 PUSH2 0x4B2 JUMP JUMPDEST PUSH1 0x40 MLOAD PUSH2 0x143 SWAP2 SWAP1 PUSH2 0x94B JUMP JUMPDEST PUSH1 0x40 MLOAD DUP1 SWAP2 SUB SWAP1 RETURN JUMPDEST PUSH2 0x154 PUSH2 0x4D8 JUMP JUMPDEST STOP JUMPDEST PUSH2 0x15E PUSH2 0x642 JUMP JUMPDEST STOP JUMPDEST PUSH2 0x168 PUSH2 0x7AF JUMP JUMPDEST PUSH1 0x40 MLOAD PUSH2 0x175 SWAP2 SWAP1 PUSH2 0x94B JUMP JUMPDEST PUSH1 0x40 MLOAD DUP1 SWAP2 SUB SWAP1 RETURN JUMPDEST PUSH2 0x186 PUSH2 0x7D5 JUMP JUMPDEST PUSH1 0x40 MLOAD PUSH2 0x193 SWAP2 SWAP1 PUSH2 0x99C JUMP JUMPDEST PUSH1 0x40 MLOAD DUP1 SWAP2 SUB SWAP1 RETURN JUMPDEST PUSH2 0x1B6 PUSH1 0x4 DUP1 CALLDATASIZE SUB DUP2 ADD SWAP1 PUSH2 0x1B1 SWAP2 SWAP1 PUSH2 0x81D JUMP JUMPDEST PUSH2 0x7E8 JUMP JUMPDEST PUSH1 0x40 MLOAD PUSH2 0x1C3 SWAP2 SWAP1 PUSH2 0x966 JUMP JUMPDEST PUSH1 0x40 MLOAD DUP1 SWAP2 SUB SWAP1 RETURN JUMPDEST PUSH1 0x0 DUP1 SLOAD PUSH2 0x1D9 SWAP1 PUSH2 0xB30 JUMP JUMPDEST DUP1 PUSH1 0x1F ADD PUSH1 0x20 DUP1 SWAP2 DIV MUL PUSH1 0x20 ADD PUSH1 0x40 MLOAD SWAP1 DUP2 ADD PUSH1 0x40 MSTORE DUP1 SWAP3 SWAP2 SWAP1 DUP2 DUP2 MSTORE PUSH1 0x20 ADD DUP3 DUP1 SLOAD PUSH2 0x205 SWAP1 PUSH2 0xB30 JUMP JUMPDEST DUP1 ISZERO PUSH2 0x252 JUMPI DUP1 PUSH1 0x1F LT PUSH2 0x227 JUMPI PUSH2 0x100 DUP1 DUP4 SLOAD DIV MUL DUP4 MSTORE SWAP2 PUSH1 0x20 ADD SWAP2 PUSH2 0x252 JUMP JUMPDEST DUP3 ADD SWAP2 SWAP1 PUSH1 0x0 MSTORE PUSH1 0x20 PUSH1 0x0 KECCAK256 SWAP1 JUMPDEST DUP2 SLOAD DUP2 MSTORE SWAP1 PUSH1 0x1 ADD SWAP1 PUSH1 0x20 ADD DUP1 DUP4 GT PUSH2 0x235 JUMPI DUP3 SWAP1 SUB PUSH1 0x1F AND DUP3 ADD SWAP2 JUMPDEST POP POP POP POP POP DUP2 JUMP JUMPDEST PUSH1 0x5 PUSH1 0x1 SWAP1 SLOAD SWAP1 PUSH2 0x100 EXP SWAP1 DIV PUSH1 0xFF AND DUP2 JUMP JUMPDEST PUSH1 0x2 PUSH1 0x0 SWAP1 SLOAD SWAP1 PUSH2 0x100 EXP SWAP1 DIV PUSH20 0xFFFFFFFFFFFFFFFFFFFFFFFFFFFFFFFFFFFFFFFF AND PUSH20 0xFFFFFFFFFFFFFFFFFFFFFFFFFFFFFFFFFFFFFFFF AND CALLER PUSH20 0xFFFFFFFFFFFFFFFFFFFFFFFFFFFFFFFFFFFFFFFF AND EQ PUSH2 0x2FD JUMPI PUSH1 0x40 MLOAD PUSH32 0x8C379A000000000000000000000000000000000000000000000000000000000 DUP2 MSTORE PUSH1 0x4 ADD PUSH2 0x2F4 SWAP1 PUSH2 0xA39 JUMP JUMPDEST PUSH1 0x40 MLOAD DUP1 SWAP2 SUB SWAP1 REVERT JUMPDEST PUSH1 0x1 PUSH1 0x4 PUSH1 0x0 DUP4 PUSH20 0xFFFFFFFFFFFFFFFFFFFFFFFFFFFFFFFFFFFFFFFF AND PUSH20 0xFFFFFFFFFFFFFFFFFFFFFFFFFFFFFFFFFFFFFFFF AND DUP2 MSTORE PUSH1 0x20 ADD SWAP1 DUP2 MSTORE PUSH1 0x20 ADD PUSH1 0x0 KECCAK256 PUSH1 0x0 PUSH2 0x100 EXP DUP2 SLOAD DUP2 PUSH1 0xFF MUL NOT AND SWAP1 DUP4 ISZERO ISZERO MUL OR SWAP1 SSTORE POP PUSH32 0x400153A8CEBBD91509D8511EC62D3FE08EAC19A7AFAB5E61A723C0860DB23520 CALLER PUSH1 0x40 MLOAD PUSH2 0x384 SWAP2 SWAP1 PUSH2 0x94B JUMP JUMPDEST PUSH1 0x40 MLOAD DUP1 SWAP2 SUB SWAP1 LOG1 POP JUMP JUMPDEST PUSH1 0x2 PUSH1 0x0 SWAP1 SLOAD SWAP1 PUSH2 0x100 EXP SWAP1 DIV PUSH20 0xFFFFFFFFFFFFFFFFFFFFFFFFFFFFFFFFFFFFFFFF AND DUP2 JUMP JUMPDEST PUSH1 0x2 PUSH1 0x4 DUP2 GT ISZERO PUSH2 0x3C9 JUMPI PUSH2 0x3C8 PUSH2 0xB62 JUMP JUMPDEST JUMPDEST PUSH1 0x5 PUSH1 0x0 SWAP1 SLOAD SWAP1 PUSH2 0x100 EXP SWAP1 DIV PUSH1 0xFF AND PUSH1 0x4 DUP2 GT ISZERO PUSH2 0x3EB JUMPI PUSH2 0x3EA PUSH2 0xB62 JUMP JUMPDEST JUMPDEST EQ PUSH2 0x42B JUMPI PUSH1 0x40 MLOAD PUSH32 0x8C379A000000000000000000000000000000000000000000000000000000000 DUP2 MSTORE PUSH1 0x4 ADD PUSH2 0x422 SWAP1 PUSH2 0xA19 JUMP JUMPDEST PUSH1 0x40 MLOAD DUP1 SWAP2 SUB SWAP1 REVERT JUMPDEST PUSH1 0x3 PUSH1 0x0 SWAP1 SLOAD SWAP1 PUSH2 0x100 EXP SWAP1 DIV PUSH20 0xFFFFFFFFFFFFFFFFFFFFFFFFFFFFFFFFFFFFFFFF AND PUSH20 0xFFFFFFFFFFFFFFFFFFFFFFFFFFFFFFFFFFFFFFFF AND CALLER PUSH20 0xFFFFFFFFFFFFFFFFFFFFFFFFFFFFFFFFFFFFFFFF AND EQ PUSH2 0x485 JUMPI PUSH1 0x0 DUP1 REVERT JUMPDEST PUSH1 0x3 PUSH1 0x5 PUSH1 0x0 PUSH2 0x100 EXP DUP2 SLOAD DUP2 PUSH1 0xFF MUL NOT AND SWAP1 DUP4 PUSH1 0x4 DUP2 GT ISZERO PUSH2 0x4AB JUMPI PUSH2 0x4AA PUSH2 0xB62 JUMP JUMPDEST JUMPDEST MUL OR SWAP1 SSTORE POP JUMP JUMPDEST PUSH1 0x3 PUSH1 0x0 SWAP1 SLOAD SWAP1 PUSH2 0x100 EXP SWAP1 DIV PUSH20 0xFFFFFFFFFFFFFFFFFFFFFFFFFFFFFFFFFFFFFFFF AND DUP2 JUMP JUMPDEST PUSH1 0x2 PUSH1 0x0 SWAP1 SLOAD SWAP1 PUSH2 0x100 EXP SWAP1 DIV PUSH20 0xFFFFFFFFFFFFFFFFFFFFFFFFFFFFFFFFFFFFFFFF AND PUSH20 0xFFFFFFFFFFFFFFFFFFFFFFFFFFFFFFFFFFFFFFFF AND CALLER PUSH20 0xFFFFFFFFFFFFFFFFFFFFFFFFFFFFFFFFFFFFFFFF AND EQ PUSH2 0x568 JUMPI PUSH1 0x40 MLOAD PUSH32 0x8C379A000000000000000000000000000000000000000000000000000000000 DUP2 MSTORE PUSH1 0x4 ADD PUSH2 0x55F SWAP1 PUSH2 0xA39 JUMP JUMPDEST PUSH1 0x40 MLOAD DUP1 SWAP2 SUB SWAP1 REVERT JUMPDEST PUSH1 0x0 PUSH1 0x4 DUP2 GT ISZERO PUSH2 0x57C JUMPI PUSH2 0x57B PUSH2 0xB62 JUMP JUMPDEST JUMPDEST PUSH1 0x5 PUSH1 0x0 SWAP1 SLOAD SWAP1 PUSH2 0x100 EXP SWAP1 DIV PUSH1 0xFF AND PUSH1 0x4 DUP2 GT ISZERO PUSH2 0x59E JUMPI PUSH2 0x59D PUSH2 0xB62 JUMP JUMPDEST JUMPDEST EQ PUSH2 0x5DE JUMPI PUSH1 0x40 MLOAD PUSH32 0x8C379A000000000000000000000000000000000000000000000000000000000 DUP2 MSTORE PUSH1 0x4 ADD PUSH2 0x5D5 SWAP1 PUSH2 0x9F9 JUMP JUMPDEST PUSH1 0x40 MLOAD DUP1 SWAP2 SUB SWAP1 REVERT JUMPDEST PUSH1 0x1 PUSH1 0x5 PUSH1 0x0 PUSH2 0x100 EXP DUP2 SLOAD DUP2 PUSH1 0xFF MUL NOT AND SWAP1 DUP4 PUSH1 0x4 DUP2 GT ISZERO PUSH2 0x604 JUMPI PUSH2 0x603 PUSH2 0xB62 JUMP JUMPDEST JUMPDEST MUL OR SWAP1 SSTORE POP PUSH32 0x400153A8CEBBD91509D8511EC62D3FE08EAC19A7AFAB5E61A723C0860DB23520 CALLER PUSH1 0x40 MLOAD PUSH2 0x638 SWAP2 SWAP1 PUSH2 0x94B JUMP JUMPDEST PUSH1 0x40 MLOAD DUP1 SWAP2 SUB SWAP1 LOG1 JUMP JUMPDEST PUSH1 0x1 ISZERO ISZERO PUSH1 0x4 PUSH1 0x0 CALLER PUSH20 0xFFFFFFFFFFFFFFFFFFFFFFFFFFFFFFFFFFFFFFFF AND PUSH20 0xFFFFFFFFFFFFFFFFFFFFFFFFFFFFFFFFFFFFFFFF AND DUP2 MSTORE PUSH1 0x20 ADD SWAP1 DUP2 MSTORE PUSH1 0x20 ADD PUSH1 0x0 KECCAK256 PUSH1 0x0 SWAP1 SLOAD SWAP1 PUSH2 0x100 EXP SWAP1 DIV PUSH1 0xFF AND ISZERO ISZERO EQ PUSH2 0x6D5 JUMPI PUSH1 0x40 MLOAD PUSH32 0x8C379A000000000000000000000000000000000000000000000000000000000 DUP2 MSTORE PUSH1 0x4 ADD PUSH2 0x6CC SWAP1 PUSH2 0xA39 JUMP JUMPDEST PUSH1 0x40 MLOAD DUP1 SWAP2 SUB SWAP1 REVERT JUMPDEST PUSH1 0x1 PUSH1 0x4 DUP2 GT ISZERO PUSH2 0x6E9 JUMPI PUSH2 0x6E8 PUSH2 0xB62 JUMP JUMPDEST JUMPDEST PUSH1 0x5 PUSH1 0x0 SWAP1 SLOAD SWAP1 PUSH2 0x100 EXP SWAP1 DIV PUSH1 0xFF AND PUSH1 0x4 DUP2 GT ISZERO PUSH2 0x70B JUMPI PUSH2 0x70A PUSH2 0xB62 JUMP JUMPDEST JUMPDEST EQ PUSH2 0x74B JUMPI PUSH1 0x40 MLOAD PUSH32 0x8C379A000000000000000000000000000000000000000000000000000000000 DUP2 MSTORE PUSH1 0x4 ADD PUSH2 0x742 SWAP1 PUSH2 0x9D9 JUMP JUMPDEST PUSH1 0x40 MLOAD DUP1 SWAP2 SUB SWAP1 REVERT JUMPDEST PUSH1 0x2 PUSH1 0x5 PUSH1 0x0 PUSH2 0x100 EXP DUP2 SLOAD DUP2 PUSH1 0xFF MUL NOT AND SWAP1 DUP4 PUSH1 0x4 DUP2 GT ISZERO PUSH2 0x771 JUMPI PUSH2 0x770 PUSH2 0xB62 JUMP JUMPDEST JUMPDEST MUL OR SWAP1 SSTORE POP PUSH32 0xFB229D12AB26294BC680D0AD524E4315A0CE05F84A2B75C4C7A0DA7F1C0B1343 CALLER PUSH1 0x40 MLOAD PUSH2 0x7A5 SWAP2 SWAP1 PUSH2 0x94B JUMP JUMPDEST PUSH1 0x40 MLOAD DUP1 SWAP2 SUB SWAP1 LOG1 JUMP JUMPDEST PUSH1 0x1 PUSH1 0x0 SWAP1 SLOAD SWAP1 PUSH2 0x100 EXP SWAP1 DIV PUSH20 0xFFFFFFFFFFFFFFFFFFFFFFFFFFFFFFFFFFFFFFFF AND DUP2 JUMP JUMPDEST PUSH1 0x5 PUSH1 0x0 SWAP1 SLOAD SWAP1 PUSH2 0x100 EXP SWAP1 DIV PUSH1 0xFF AND DUP2 JUMP JUMPDEST PUSH1 0x4 PUSH1 0x20 MSTORE DUP1 PUSH1 0x0 MSTORE PUSH1 0x40 PUSH1 0x0 KECCAK256 PUSH1 0x0 SWAP2 POP SLOAD SWAP1 PUSH2 0x100 EXP SWAP1 DIV PUSH1 0xFF AND DUP2 JUMP JUMPDEST PUSH1 0x0 DUP2 CALLDATALOAD SWAP1 POP PUSH2 0x817 DUP2 PUSH2 0xCA2 JUMP JUMPDEST SWAP3 SWAP2 POP POP JUMP JUMPDEST PUSH1 0x0 PUSH1 0x20 DUP3 DUP5 SUB SLT ISZERO PUSH2 0x833 JUMPI PUSH2 0x832 PUSH2 0xBC0 JUMP JUMPDEST JUMPDEST PUSH1 0x0 PUSH2 0x841 DUP5 DUP3 DUP6 ADD PUSH2 0x808 JUMP JUMPDEST SWAP2 POP POP SWAP3 SWAP2 POP POP JUMP JUMPDEST PUSH2 0x853 DUP2 PUSH2 0xA75 JUMP JUMPDEST DUP3 MSTORE POP POP JUMP JUMPDEST PUSH2 0x862 DUP2 PUSH2 0xA87 JUMP JUMPDEST DUP3 MSTORE POP POP JUMP JUMPDEST PUSH2 0x871 DUP2 PUSH2 0xAD9 JUMP JUMPDEST DUP3 MSTORE POP POP JUMP JUMPDEST PUSH2 0x880 DUP2 PUSH2 0xAEB JUMP JUMPDEST DUP3 MSTORE POP POP JUMP JUMPDEST PUSH1 0x0 PUSH2 0x891 DUP3 PUSH2 0xA59 JUMP JUMPDEST PUSH2 0x89B DUP2 DUP6 PUSH2 0xA64 JUMP JUMPDEST SWAP4 POP PUSH2 0x8AB DUP2 DUP6 PUSH1 0x20 DUP7 ADD PUSH2 0xAFD JUMP JUMPDEST PUSH2 0x8B4 DUP2 PUSH2 0xBC5 JUMP JUMPDEST DUP5 ADD SWAP2 POP POP SWAP3 SWAP2 POP POP JUMP JUMPDEST PUSH1 0x0 PUSH2 0x8CC PUSH1 0x9 DUP4 PUSH2 0xA64 JUMP JUMPDEST SWAP2 POP PUSH2 0x8D7 DUP3 PUSH2 0xBD6 JUMP JUMPDEST PUSH1 0x20 DUP3 ADD SWAP1 POP SWAP2 SWAP1 POP JUMP JUMPDEST PUSH1 0x0 PUSH2 0x8EF PUSH1 0x11 DUP4 PUSH2 0xA64 JUMP JUMPDEST SWAP2 POP PUSH2 0x8FA DUP3 PUSH2 0xBFF JUMP JUMPDEST PUSH1 0x20 DUP3 ADD SWAP1 POP SWAP2 SWAP1 POP JUMP JUMPDEST PUSH1 0x0 PUSH2 0x912 PUSH1 0x1A DUP4 PUSH2 0xA64 JUMP JUMPDEST SWAP2 POP PUSH2 0x91D DUP3 PUSH2 0xC28 JUMP JUMPDEST PUSH1 0x20 DUP3 ADD SWAP1 POP SWAP2 SWAP1 POP JUMP JUMPDEST PUSH1 0x0 PUSH2 0x935 PUSH1 0x16 DUP4 PUSH2 0xA64 JUMP JUMPDEST SWAP2 POP PUSH2 0x940 DUP3 PUSH2 0xC51 JUMP JUMPDEST PUSH1 0x20 DUP3 ADD SWAP1 POP SWAP2 SWAP1 POP JUMP JUMPDEST PUSH1 0x0 PUSH1 0x20 DUP3 ADD SWAP1 POP PUSH2 0x960 PUSH1 0x0 DUP4 ADD DUP5 PUSH2 0x84A JUMP JUMPDEST SWAP3 SWAP2 POP POP JUMP JUMPDEST PUSH1 0x0 PUSH1 0x20 DUP3 ADD SWAP1 POP PUSH2 0x97B PUSH1 0x0 DUP4 ADD DUP5 PUSH2 0x859 JUMP JUMPDEST SWAP3 SWAP2 POP POP JUMP JUMPDEST PUSH1 0x0 PUSH1 0x20 DUP3 ADD SWAP1 POP PUSH2 0x996 PUSH1 0x0 DUP4 ADD DUP5 PUSH2 0x868 JUMP JUMPDEST SWAP3 SWAP2 POP POP JUMP JUMPDEST PUSH1 0x0 PUSH1 0x20 DUP3 ADD SWAP1 POP PUSH2 0x9B1 PUSH1 0x0 DUP4 ADD DUP5 PUSH2 0x877 JUMP JUMPDEST SWAP3 SWAP2 POP POP JUMP JUMPDEST PUSH1 0x0 PUSH1 0x20 DUP3 ADD SWAP1 POP DUP2 DUP2 SUB PUSH1 0x0 DUP4 ADD MSTORE PUSH2 0x9D1 DUP2 DUP5 PUSH2 0x886 JUMP JUMPDEST SWAP1 POP SWAP3 SWAP2 POP POP JUMP JUMPDEST PUSH1 0x0 PUSH1 0x20 DUP3 ADD SWAP1 POP DUP2 DUP2 SUB PUSH1 0x0 DUP4 ADD MSTORE PUSH2 0x9F2 DUP2 PUSH2 0x8BF JUMP JUMPDEST SWAP1 POP SWAP2 SWAP1 POP JUMP JUMPDEST PUSH1 0x0 PUSH1 0x20 DUP3 ADD SWAP1 POP DUP2 DUP2 SUB PUSH1 0x0 DUP4 ADD MSTORE PUSH2 0xA12 DUP2 PUSH2 0x8E2 JUMP JUMPDEST SWAP1 POP SWAP2 SWAP1 POP JUMP JUMPDEST PUSH1 0x0 PUSH1 0x20 DUP3 ADD SWAP1 POP DUP2 DUP2 SUB PUSH1 0x0 DUP4 ADD MSTORE PUSH2 0xA32 DUP2 PUSH2 0x905 JUMP JUMPDEST SWAP1 POP SWAP2 SWAP1 POP JUMP JUMPDEST PUSH1 0x0 PUSH1 0x20 DUP3 ADD SWAP1 POP DUP2 DUP2 SUB PUSH1 0x0 DUP4 ADD MSTORE PUSH2 0xA52 DUP2 PUSH2 0x928 JUMP JUMPDEST SWAP1 POP SWAP2 SWAP1 POP JUMP JUMPDEST PUSH1 0x0 DUP2 MLOAD SWAP1 POP SWAP2 SWAP1 POP JUMP JUMPDEST PUSH1 0x0 DUP3 DUP3 MSTORE PUSH1 0x20 DUP3 ADD SWAP1 POP SWAP3 SWAP2 POP POP JUMP JUMPDEST PUSH1 0x0 PUSH2 0xA80 DUP3 PUSH2 0xAB9 JUMP JUMPDEST SWAP1 POP SWAP2 SWAP1 POP JUMP JUMPDEST PUSH1 0x0 DUP2 ISZERO ISZERO SWAP1 POP SWAP2 SWAP1 POP JUMP JUMPDEST PUSH1 0x0 DUP2 SWAP1 POP PUSH2 0xAA1 DUP3 PUSH2 0xC7A JUMP JUMPDEST SWAP2 SWAP1 POP JUMP JUMPDEST PUSH1 0x0 DUP2 SWAP1 POP PUSH2 0xAB4 DUP3 PUSH2 0xC8E JUMP JUMPDEST SWAP2 SWAP1 POP JUMP JUMPDEST PUSH1 0x0 PUSH20 0xFFFFFFFFFFFFFFFFFFFFFFFFFFFFFFFFFFFFFFFF DUP3 AND SWAP1 POP SWAP2 SWAP1 POP JUMP JUMPDEST PUSH1 0x0 PUSH2 0xAE4 DUP3 PUSH2 0xA93 JUMP JUMPDEST SWAP1 POP SWAP2 SWAP1 POP JUMP JUMPDEST PUSH1 0x0 PUSH2 0xAF6 DUP3 PUSH2 0xAA6 JUMP JUMPDEST SWAP1 POP SWAP2 SWAP1 POP JUMP JUMPDEST PUSH1 0x0 JUMPDEST DUP4 DUP2 LT ISZERO PUSH2 0xB1B JUMPI DUP1 DUP3 ADD MLOAD DUP2 DUP5 ADD MSTORE PUSH1 0x20 DUP2 ADD SWAP1 POP PUSH2 0xB00 JUMP JUMPDEST DUP4 DUP2 GT ISZERO PUSH2 0xB2A JUMPI PUSH1 0x0 DUP5 DUP5 ADD MSTORE JUMPDEST POP POP POP POP JUMP JUMPDEST PUSH1 0x0 PUSH1 0x2 DUP3 DIV SWAP1 POP PUSH1 0x1 DUP3 AND DUP1 PUSH2 0xB48 JUMPI PUSH1 0x7F DUP3 AND SWAP2 POP JUMPDEST PUSH1 0x20 DUP3 LT DUP2 EQ ISZERO PUSH2 0xB5C JUMPI PUSH2 0xB5B PUSH2 0xB91 JUMP JUMPDEST JUMPDEST POP SWAP2 SWAP1 POP JUMP JUMPDEST PUSH32 0x4E487B7100000000000000000000000000000000000000000000000000000000 PUSH1 0x0 MSTORE PUSH1 0x21 PUSH1 0x4 MSTORE PUSH1 0x24 PUSH1 0x0 REVERT JUMPDEST PUSH32 0x4E487B7100000000000000000000000000000000000000000000000000000000 PUSH1 0x0 MSTORE PUSH1 0x22 PUSH1 0x4 MSTORE PUSH1 0x24 PUSH1 0x0 REVERT JUMPDEST PUSH1 0x0 DUP1 REVERT JUMPDEST PUSH1 0x0 PUSH1 0x1F NOT PUSH1 0x1F DUP4 ADD AND SWAP1 POP SWAP2 SWAP1 POP JUMP JUMPDEST PUSH32 0x4E6F742072656164790000000000000000000000000000000000000000000000 PUSH1 0x0 DUP3 ADD MSTORE POP JUMP JUMPDEST PUSH32 0x4E6F7420696E2070726F64756374696F6E000000000000000000000000000000 PUSH1 0x0 DUP3 ADD MSTORE POP JUMP JUMPDEST PUSH32 0x5374696C6C2077616974696E6720666F722064656C6976657279000000000000 PUSH1 0x0 DUP3 ADD MSTORE POP JUMP JUMPDEST PUSH32 0x20596F7520617265206E6F7420746865206F776E657200000000000000000000 PUSH1 0x0 DUP3 ADD MSTORE POP JUMP JUMPDEST PUSH1 0x4 DUP2 LT PUSH2 0xC8B JUMPI PUSH2 0xC8A PUSH2 0xB62 JUMP JUMPDEST JUMPDEST POP JUMP JUMPDEST PUSH1 0x5 DUP2 LT PUSH2 0xC9F JUMPI PUSH2 0xC9E PUSH2 0xB62 JUMP JUMPDEST JUMPDEST POP JUMP JUMPDEST PUSH2 0xCAB DUP2 PUSH2 0xA75 JUMP JUMPDEST DUP2 EQ PUSH2 0xCB6 JUMPI PUSH1 0x0 DUP1 REVERT JUMPDEST POP JUMP INVALID LOG2 PUSH5 0x6970667358 0x22 SLT KECCAK256 0xAE 0xC4 0x5C SWAP11 SELFDESTRUCT 0xEF SWAP1 0xE0 0x4D REVERT 0x2F PC 0x23 DUP4 SELFDESTRUCT CREATE2 0xDB 0xCA 0x29 0x29 0xB3 SWAP12 MSIZE 0xB2 PUSH23 0x8603F9BE72072C64736F6C634300080700330000000000 "
				},
				"gasEstimates": {
					"creation": {
						"codeDepositCost": "662200",
						"executionCost": "infinite",
						"totalCost": "infinite"
					},
					"external": {
						"Auth(address)": "infinite",
						"CODE()": "infinite",
						"StepOfDelivery()": "30073",
						"defectiveReason()": "2633",
						"deliverers(address)": "2955",
						"delivery()": "28901",
						"deliveryManfunction()": "30185",
						"hospital()": "2514",
						"product()": "2580",
						"step()": "2648",
						"supplier()": "2581"
					}
				},
				"methodIdentifiers": {
					"Auth(address)": "1fe49587",
					"CODE()": "0fc8f82a",
					"StepOfDelivery()": "b6c859bf",
					"defectiveReason()": "11e760dc",
					"deliverers(address)": "e8950c0f",
					"delivery()": "3d5a70c2",
					"deliveryManfunction()": "b7c779f4",
					"hospital()": "aa2fedde",
					"product()": "bf9ce952",
					"step()": "e25fe175",
					"supplier()": "36da4468"
				}
			},
			"userdoc": {
				"kind": "user",
				"methods": {},
				"version": 1
			}
		}
	}
}