{
	"contracts/CovidVaccineSupplyChain.sol": {
		"Vax": {
			"abi": [
				{
					"inputs": [
						{
							"internalType": "address",
							"name": "_product",
							"type": "address"
						},
						{
							"internalType": "address",
							"name": "_hospital",
							"type": "address"
						}
					],
					"stateMutability": "nonpayable",
					"type": "constructor"
				},
				{
					"anonymous": false,
					"inputs": [
						{
							"indexed": false,
							"internalType": "address",
							"name": "deliverer",
							"type": "address"
						}
					],
					"name": "Deliverer",
					"type": "event"
				},
				{
					"anonymous": false,
					"inputs": [
						{
							"indexed": false,
							"internalType": "address",
							"name": "supplier",
							"type": "address"
						}
					],
					"name": "OwnerOfProduct",
					"type": "event"
				},
				{
					"inputs": [
						{
							"internalType": "address",
							"name": "_deliverer",
							"type": "address"
						}
					],
					"name": "Auth",
					"outputs": [],
					"stateMutability": "nonpayable",
					"type": "function"
				},
				{
					"inputs": [],
					"name": "CODE",
					"outputs": [
						{
							"internalType": "string",
							"name": "",
							"type": "string"
						}
					],
					"stateMutability": "view",
					"type": "function"
				},
				{
					"inputs": [
						{
							"internalType": "enum Vax.DefectiveReason",
							"name": "_reason",
							"type": "uint8"
						}
					],
					"name": "ProductDestruct",
					"outputs": [],
					"stateMutability": "nonpayable",
					"type": "function"
				},
				{
					"inputs": [],
					"name": "StepOfDelivery",
					"outputs": [],
					"stateMutability": "nonpayable",
					"type": "function"
				},
				{
					"inputs": [],
					"name": "defectiveReason",
					"outputs": [
						{
							"internalType": "enum Vax.DefectiveReason",
							"name": "",
							"type": "uint8"
						}
					],
					"stateMutability": "view",
					"type": "function"
				},
				{
					"inputs": [
						{
							"internalType": "address",
							"name": "",
							"type": "address"
						}
					],
					"name": "deliverers",
					"outputs": [
						{
							"internalType": "bool",
							"name": "",
							"type": "bool"
						}
					],
					"stateMutability": "view",
					"type": "function"
				},
				{
					"inputs": [],
					"name": "delivery",
					"outputs": [],
					"stateMutability": "nonpayable",
					"type": "function"
				},
				{
					"inputs": [],
					"name": "deliveryManfunction",
					"outputs": [],
					"stateMutability": "nonpayable",
					"type": "function"
				},
				{
					"inputs": [],
					"name": "hospital",
					"outputs": [
						{
							"internalType": "address",
							"name": "",
							"type": "address"
						}
					],
					"stateMutability": "view",
					"type": "function"
				},
				{
					"inputs": [],
					"name": "product",
					"outputs": [
						{
							"internalType": "address",
							"name": "",
							"type": "address"
						}
					],
					"stateMutability": "view",
					"type": "function"
				},
				{
					"inputs": [],
					"name": "step",
					"outputs": [
						{
							"internalType": "enum Vax.Step",
							"name": "",
							"type": "uint8"
						}
					],
					"stateMutability": "view",
					"type": "function"
				},
				{
					"inputs": [],
					"name": "supplier",
					"outputs": [
						{
							"internalType": "address",
							"name": "",
							"type": "address"
						}
					],
					"stateMutability": "view",
					"type": "function"
				}
			],
			"devdoc": {
				"kind": "dev",
				"methods": {},
				"version": 1
			},
			"evm": {
				"assembly": "    /* \"contracts/CovidVaccineSupplyChain.sol\":76:2134  contract Vax {\r... */\n  mstore(0x40, 0x80)\n    /* \"contracts/CovidVaccineSupplyChain.sol\":102:133  string public CODE =\"Covid Vax\" */\n  mload(0x40)\n  dup1\n  0x40\n  add\n  0x40\n  mstore\n  dup1\n  0x09\n  dup2\n  mstore\n  0x20\n  add\n  0x436f766964205661780000000000000000000000000000000000000000000000\n  dup2\n  mstore\n  pop\n  0x00\n  swap1\n  dup1\n  mload\n  swap1\n  0x20\n  add\n  swap1\n  tag_1\n  swap3\n  swap2\n  swap1\n  tag_2\n  jump\t// in\ntag_1:\n  pop\n    /* \"contracts/CovidVaccineSupplyChain.sol\":578:795  constructor(address _product , address _hospital){\r... */\n  callvalue\n  dup1\n  iszero\n  tag_3\n  jumpi\n  0x00\n  dup1\n  revert\ntag_3:\n  pop\n  mload(0x40)\n  sub(codesize, bytecodeSize)\n  dup1\n  bytecodeSize\n  dup4\n  codecopy\n  dup2\n  dup2\n  add\n  0x40\n  mstore\n  dup2\n  add\n  swap1\n  tag_4\n  swap2\n  swap1\n  tag_5\n  jump\t// in\ntag_4:\n    /* \"contracts/CovidVaccineSupplyChain.sol\":648:658  msg.sender */\n  caller\n    /* \"contracts/CovidVaccineSupplyChain.sol\":637:645  supplier */\n  0x02\n  0x00\n    /* \"contracts/CovidVaccineSupplyChain.sol\":637:658  supplier = msg.sender */\n  0x0100\n  exp\n  dup2\n  sload\n  dup2\n  0xffffffffffffffffffffffffffffffffffffffff\n  mul\n  not\n  and\n  swap1\n  dup4\n  0xffffffffffffffffffffffffffffffffffffffff\n  and\n  mul\n  or\n  swap1\n  sstore\n  pop\n    /* \"contracts/CovidVaccineSupplyChain.sol\":678:686  _product */\n  dup2\n    /* \"contracts/CovidVaccineSupplyChain.sol\":668:675  product */\n  0x01\n  0x00\n    /* \"contracts/CovidVaccineSupplyChain.sol\":668:686  product = _product */\n  0x0100\n  exp\n  dup2\n  sload\n  dup2\n  0xffffffffffffffffffffffffffffffffffffffff\n  mul\n  not\n  and\n  swap1\n  dup4\n  0xffffffffffffffffffffffffffffffffffffffff\n  and\n  mul\n  or\n  swap1\n  sstore\n  pop\n    /* \"contracts/CovidVaccineSupplyChain.sol\":707:716  _hospital */\n  dup1\n    /* \"contracts/CovidVaccineSupplyChain.sol\":696:704  hospital */\n  0x03\n  0x00\n    /* \"contracts/CovidVaccineSupplyChain.sol\":696:716  hospital = _hospital */\n  0x0100\n  exp\n  dup2\n  sload\n  dup2\n  0xffffffffffffffffffffffffffffffffffffffff\n  mul\n  not\n  and\n  swap1\n  dup4\n  0xffffffffffffffffffffffffffffffffffffffff\n  and\n  mul\n  or\n  swap1\n  sstore\n  pop\n    /* \"contracts/CovidVaccineSupplyChain.sol\":733:748  Step.production */\n  0x00\n    /* \"contracts/CovidVaccineSupplyChain.sol\":726:730  step */\n  0x05\n  0x00\n    /* \"contracts/CovidVaccineSupplyChain.sol\":726:748  step = Step.production */\n  0x0100\n  exp\n  dup2\n  sload\n  dup2\n  0xff\n  mul\n  not\n  and\n  swap1\n  dup4\n  0x04\n  dup2\n  gt\n  iszero\n  tag_8\n  jumpi\n  tag_9\n  tag_10\n  jump\t// in\ntag_9:\ntag_8:\n  mul\n  or\n  swap1\n  sstore\n  pop\n    /* \"contracts/CovidVaccineSupplyChain.sol\":763:787  OwnerOfProduct(supplier) */\n  0x400153a8cebbd91509d8511ec62d3fe08eac19a7afab5e61a723c0860db23520\n    /* \"contracts/CovidVaccineSupplyChain.sol\":778:786  supplier */\n  0x02\n  0x00\n  swap1\n  sload\n  swap1\n  0x0100\n  exp\n  swap1\n  div\n  0xffffffffffffffffffffffffffffffffffffffff\n  and\n    /* \"contracts/CovidVaccineSupplyChain.sol\":763:787  OwnerOfProduct(supplier) */\n  mload(0x40)\n  tag_11\n  swap2\n  swap1\n  tag_12\n  jump\t// in\ntag_11:\n  mload(0x40)\n  dup1\n  swap2\n  sub\n  swap1\n  log1\n    /* \"contracts/CovidVaccineSupplyChain.sol\":578:795  constructor(address _product , address _hospital){\r... */\n  pop\n  pop\n    /* \"contracts/CovidVaccineSupplyChain.sol\":76:2134  contract Vax {\r... */\n  jump(tag_13)\ntag_2:\n  dup3\n  dup1\n  sload\n  tag_14\n  swap1\n  tag_15\n  jump\t// in\ntag_14:\n  swap1\n  0x00\n  mstore\n  keccak256(0x00, 0x20)\n  swap1\n  0x1f\n  add\n  0x20\n  swap1\n  div\n  dup2\n  add\n  swap3\n  dup3\n  tag_17\n  jumpi\n  0x00\n  dup6\n  sstore\n  jump(tag_16)\ntag_17:\n  dup3\n  0x1f\n  lt\n  tag_18\n  jumpi\n  dup1\n  mload\n  not(0xff)\n  and\n  dup4\n  dup1\n  add\n  or\n  dup6\n  sstore\n  jump(tag_16)\ntag_18:\n  dup3\n  dup1\n  add\n  0x01\n  add\n  dup6\n  sstore\n  dup3\n  iszero\n  tag_16\n  jumpi\n  swap2\n  dup3\n  add\ntag_19:\n  dup3\n  dup2\n  gt\n  iszero\n  tag_20\n  jumpi\n  dup3\n  mload\n  dup3\n  sstore\n  swap2\n  0x20\n  add\n  swap2\n  swap1\n  0x01\n  add\n  swap1\n  jump(tag_19)\ntag_20:\ntag_16:\n  pop\n  swap1\n  pop\n  tag_21\n  swap2\n  swap1\n  tag_22\n  jump\t// in\ntag_21:\n  pop\n  swap1\n  jump\t// out\ntag_22:\ntag_23:\n  dup1\n  dup3\n  gt\n  iszero\n  tag_24\n  jumpi\n  0x00\n  dup2\n  0x00\n  swap1\n  sstore\n  pop\n  0x01\n  add\n  jump(tag_23)\ntag_24:\n  pop\n  swap1\n  jump\t// out\n    /* \"#utility.yul\":7:150   */\ntag_26:\n    /* \"#utility.yul\":64:69   */\n  0x00\n    /* \"#utility.yul\":95:101   */\n  dup2\n    /* \"#utility.yul\":89:102   */\n  mload\n    /* \"#utility.yul\":80:102   */\n  swap1\n  pop\n    /* \"#utility.yul\":111:144   */\n  tag_28\n    /* \"#utility.yul\":138:143   */\n  dup2\n    /* \"#utility.yul\":111:144   */\n  tag_29\n  jump\t// in\ntag_28:\n    /* \"#utility.yul\":7:150   */\n  swap3\n  swap2\n  pop\n  pop\n  jump\t// out\n    /* \"#utility.yul\":156:663   */\ntag_5:\n    /* \"#utility.yul\":235:241   */\n  0x00\n    /* \"#utility.yul\":243:249   */\n  dup1\n    /* \"#utility.yul\":292:294   */\n  0x40\n    /* \"#utility.yul\":280:289   */\n  dup4\n    /* \"#utility.yul\":271:278   */\n  dup6\n    /* \"#utility.yul\":267:290   */\n  sub\n    /* \"#utility.yul\":263:295   */\n  slt\n    /* \"#utility.yul\":260:379   */\n  iszero\n  tag_31\n  jumpi\n    /* \"#utility.yul\":298:377   */\n  tag_32\n  tag_33\n  jump\t// in\ntag_32:\n    /* \"#utility.yul\":260:379   */\ntag_31:\n    /* \"#utility.yul\":418:419   */\n  0x00\n    /* \"#utility.yul\":443:507   */\n  tag_34\n    /* \"#utility.yul\":499:506   */\n  dup6\n    /* \"#utility.yul\":490:496   */\n  dup3\n    /* \"#utility.yul\":479:488   */\n  dup7\n    /* \"#utility.yul\":475:497   */\n  add\n    /* \"#utility.yul\":443:507   */\n  tag_26\n  jump\t// in\ntag_34:\n    /* \"#utility.yul\":433:507   */\n  swap3\n  pop\n    /* \"#utility.yul\":389:517   */\n  pop\n    /* \"#utility.yul\":556:558   */\n  0x20\n    /* \"#utility.yul\":582:646   */\n  tag_35\n    /* \"#utility.yul\":638:645   */\n  dup6\n    /* \"#utility.yul\":629:635   */\n  dup3\n    /* \"#utility.yul\":618:627   */\n  dup7\n    /* \"#utility.yul\":614:636   */\n  add\n    /* \"#utility.yul\":582:646   */\n  tag_26\n  jump\t// in\ntag_35:\n    /* \"#utility.yul\":572:646   */\n  swap2\n  pop\n    /* \"#utility.yul\":527:656   */\n  pop\n    /* \"#utility.yul\":156:663   */\n  swap3\n  pop\n  swap3\n  swap1\n  pop\n  jump\t// out\n    /* \"#utility.yul\":669:787   */\ntag_36:\n    /* \"#utility.yul\":756:780   */\n  tag_38\n    /* \"#utility.yul\":774:779   */\n  dup2\n    /* \"#utility.yul\":756:780   */\n  tag_39\n  jump\t// in\ntag_38:\n    /* \"#utility.yul\":751:754   */\n  dup3\n    /* \"#utility.yul\":744:781   */\n  mstore\n    /* \"#utility.yul\":669:787   */\n  pop\n  pop\n  jump\t// out\n    /* \"#utility.yul\":793:1015   */\ntag_12:\n    /* \"#utility.yul\":886:890   */\n  0x00\n    /* \"#utility.yul\":924:926   */\n  0x20\n    /* \"#utility.yul\":913:922   */\n  dup3\n    /* \"#utility.yul\":909:927   */\n  add\n    /* \"#utility.yul\":901:927   */\n  swap1\n  pop\n    /* \"#utility.yul\":937:1008   */\n  tag_41\n    /* \"#utility.yul\":1005:1006   */\n  0x00\n    /* \"#utility.yul\":994:1003   */\n  dup4\n    /* \"#utility.yul\":990:1007   */\n  add\n    /* \"#utility.yul\":981:987   */\n  dup5\n    /* \"#utility.yul\":937:1008   */\n  tag_36\n  jump\t// in\ntag_41:\n    /* \"#utility.yul\":793:1015   */\n  swap3\n  swap2\n  pop\n  pop\n  jump\t// out\n    /* \"#utility.yul\":1102:1198   */\ntag_39:\n    /* \"#utility.yul\":1139:1146   */\n  0x00\n    /* \"#utility.yul\":1168:1192   */\n  tag_45\n    /* \"#utility.yul\":1186:1191   */\n  dup3\n    /* \"#utility.yul\":1168:1192   */\n  tag_46\n  jump\t// in\ntag_45:\n    /* \"#utility.yul\":1157:1192   */\n  swap1\n  pop\n    /* \"#utility.yul\":1102:1198   */\n  swap2\n  swap1\n  pop\n  jump\t// out\n    /* \"#utility.yul\":1204:1330   */\ntag_46:\n    /* \"#utility.yul\":1241:1248   */\n  0x00\n    /* \"#utility.yul\":1281:1323   */\n  0xffffffffffffffffffffffffffffffffffffffff\n    /* \"#utility.yul\":1274:1279   */\n  dup3\n    /* \"#utility.yul\":1270:1324   */\n  and\n    /* \"#utility.yul\":1259:1324   */\n  swap1\n  pop\n    /* \"#utility.yul\":1204:1330   */\n  swap2\n  swap1\n  pop\n  jump\t// out\n    /* \"#utility.yul\":1336:1656   */\ntag_15:\n    /* \"#utility.yul\":1380:1386   */\n  0x00\n    /* \"#utility.yul\":1417:1418   */\n  0x02\n    /* \"#utility.yul\":1411:1415   */\n  dup3\n    /* \"#utility.yul\":1407:1419   */\n  div\n    /* \"#utility.yul\":1397:1419   */\n  swap1\n  pop\n    /* \"#utility.yul\":1464:1465   */\n  0x01\n    /* \"#utility.yul\":1458:1462   */\n  dup3\n    /* \"#utility.yul\":1454:1466   */\n  and\n    /* \"#utility.yul\":1485:1503   */\n  dup1\n    /* \"#utility.yul\":1475:1556   */\n  tag_49\n  jumpi\n    /* \"#utility.yul\":1541:1545   */\n  0x7f\n    /* \"#utility.yul\":1533:1539   */\n  dup3\n    /* \"#utility.yul\":1529:1546   */\n  and\n    /* \"#utility.yul\":1519:1546   */\n  swap2\n  pop\n    /* \"#utility.yul\":1475:1556   */\ntag_49:\n    /* \"#utility.yul\":1603:1605   */\n  0x20\n    /* \"#utility.yul\":1595:1601   */\n  dup3\n    /* \"#utility.yul\":1592:1606   */\n  lt\n    /* \"#utility.yul\":1572:1590   */\n  dup2\n    /* \"#utility.yul\":1569:1607   */\n  eq\n    /* \"#utility.yul\":1566:1650   */\n  iszero\n  tag_50\n  jumpi\n    /* \"#utility.yul\":1622:1640   */\n  tag_51\n  tag_52\n  jump\t// in\ntag_51:\n    /* \"#utility.yul\":1566:1650   */\ntag_50:\n    /* \"#utility.yul\":1387:1656   */\n  pop\n    /* \"#utility.yul\":1336:1656   */\n  swap2\n  swap1\n  pop\n  jump\t// out\n    /* \"#utility.yul\":1662:1842   */\ntag_10:\n    /* \"#utility.yul\":1710:1787   */\n  0x4e487b7100000000000000000000000000000000000000000000000000000000\n    /* \"#utility.yul\":1707:1708   */\n  0x00\n    /* \"#utility.yul\":1700:1788   */\n  mstore\n    /* \"#utility.yul\":1807:1811   */\n  0x21\n    /* \"#utility.yul\":1804:1805   */\n  0x04\n    /* \"#utility.yul\":1797:1812   */\n  mstore\n    /* \"#utility.yul\":1831:1835   */\n  0x24\n    /* \"#utility.yul\":1828:1829   */\n  0x00\n    /* \"#utility.yul\":1821:1836   */\n  revert\n    /* \"#utility.yul\":1848:2028   */\ntag_52:\n    /* \"#utility.yul\":1896:1973   */\n  0x4e487b7100000000000000000000000000000000000000000000000000000000\n    /* \"#utility.yul\":1893:1894   */\n  0x00\n    /* \"#utility.yul\":1886:1974   */\n  mstore\n    /* \"#utility.yul\":1993:1997   */\n  0x22\n    /* \"#utility.yul\":1990:1991   */\n  0x04\n    /* \"#utility.yul\":1983:1998   */\n  mstore\n    /* \"#utility.yul\":2017:2021   */\n  0x24\n    /* \"#utility.yul\":2014:2015   */\n  0x00\n    /* \"#utility.yul\":2007:2022   */\n  revert\n    /* \"#utility.yul\":2157:2274   */\ntag_33:\n    /* \"#utility.yul\":2266:2267   */\n  0x00\n    /* \"#utility.yul\":2263:2264   */\n  dup1\n    /* \"#utility.yul\":2256:2268   */\n  revert\n    /* \"#utility.yul\":2280:2402   */\ntag_29:\n    /* \"#utility.yul\":2353:2377   */\n  tag_59\n    /* \"#utility.yul\":2371:2376   */\n  dup2\n    /* \"#utility.yul\":2353:2377   */\n  tag_39\n  jump\t// in\ntag_59:\n    /* \"#utility.yul\":2346:2351   */\n  dup2\n    /* \"#utility.yul\":2343:2378   */\n  eq\n    /* \"#utility.yul\":2333:2396   */\n  tag_60\n  jumpi\n    /* \"#utility.yul\":2392:2393   */\n  0x00\n    /* \"#utility.yul\":2389:2390   */\n  dup1\n    /* \"#utility.yul\":2382:2394   */\n  revert\n    /* \"#utility.yul\":2333:2396   */\ntag_60:\n    /* \"#utility.yul\":2280:2402   */\n  pop\n  jump\t// out\n    /* \"contracts/CovidVaccineSupplyChain.sol\":76:2134  contract Vax {\r... */\ntag_13:\n  dataSize(sub_0)\n  dup1\n  dataOffset(sub_0)\n  0x00\n  codecopy\n  0x00\n  return\nstop\n\nsub_0: assembly {\n        /* \"contracts/CovidVaccineSupplyChain.sol\":76:2134  contract Vax {\r... */\n      mstore(0x40, 0x80)\n      callvalue\n      dup1\n      iszero\n      tag_1\n      jumpi\n      0x00\n      dup1\n      revert\n    tag_1:\n      pop\n      jumpi(tag_2, lt(calldatasize, 0x04))\n      shr(0xe0, calldataload(0x00))\n      dup1\n      0xaa2fedde\n      gt\n      tag_15\n      jumpi\n      dup1\n      0xaa2fedde\n      eq\n      tag_9\n      jumpi\n      dup1\n      0xb6c859bf\n      eq\n      tag_10\n      jumpi\n      dup1\n      0xb7c779f4\n      eq\n      tag_11\n      jumpi\n      dup1\n      0xbf9ce952\n      eq\n      tag_12\n      jumpi\n      dup1\n      0xe25fe175\n      eq\n      tag_13\n      jumpi\n      dup1\n      0xe8950c0f\n      eq\n      tag_14\n      jumpi\n      jump(tag_2)\n    tag_15:\n      dup1\n      0x0fc8f82a\n      eq\n      tag_3\n      jumpi\n      dup1\n      0x11e760dc\n      eq\n      tag_4\n      jumpi\n      dup1\n      0x1fe49587\n      eq\n      tag_5\n      jumpi\n      dup1\n      0x36da4468\n      eq\n      tag_6\n      jumpi\n      dup1\n      0x3d5a70c2\n      eq\n      tag_7\n      jumpi\n      dup1\n      0xa72e783b\n      eq\n      tag_8\n      jumpi\n    tag_2:\n      0x00\n      dup1\n      revert\n        /* \"contracts/CovidVaccineSupplyChain.sol\":102:133  string public CODE =\"Covid Vax\" */\n    tag_3:\n      tag_16\n      tag_17\n      jump\t// in\n    tag_16:\n      mload(0x40)\n      tag_18\n      swap2\n      swap1\n      tag_19\n      jump\t// in\n    tag_18:\n      mload(0x40)\n      dup1\n      swap2\n      sub\n      swap1\n      return\n        /* \"contracts/CovidVaccineSupplyChain.sol\":531:569  DefectiveReason public defectiveReason */\n    tag_4:\n      tag_20\n      tag_21\n      jump\t// in\n    tag_20:\n      mload(0x40)\n      tag_22\n      swap2\n      swap1\n      tag_23\n      jump\t// in\n    tag_22:\n      mload(0x40)\n      dup1\n      swap2\n      sub\n      swap1\n      return\n        /* \"contracts/CovidVaccineSupplyChain.sol\":1046:1185  function Auth(address _deliverer)external isOwner{\r... */\n    tag_5:\n      tag_24\n      0x04\n      dup1\n      calldatasize\n      sub\n      dup2\n      add\n      swap1\n      tag_25\n      swap2\n      swap1\n      tag_26\n      jump\t// in\n    tag_25:\n      tag_27\n      jump\t// in\n    tag_24:\n      stop\n        /* \"contracts/CovidVaccineSupplyChain.sol\":169:192  address public supplier */\n    tag_6:\n      tag_28\n      tag_29\n      jump\t// in\n    tag_28:\n      mload(0x40)\n      tag_30\n      swap2\n      swap1\n      tag_31\n      jump\t// in\n    tag_30:\n      mload(0x40)\n      dup1\n      swap2\n      sub\n      swap1\n      return\n        /* \"contracts/CovidVaccineSupplyChain.sol\":1579:1824  function delivery()external {\r... */\n    tag_7:\n      tag_32\n      tag_33\n      jump\t// in\n    tag_32:\n      stop\n        /* \"contracts/CovidVaccineSupplyChain.sol\":1834:2125  function ProductDestruct(DefectiveReason _reason)external {\r... */\n    tag_8:\n      tag_34\n      0x04\n      dup1\n      calldatasize\n      sub\n      dup2\n      add\n      swap1\n      tag_35\n      swap2\n      swap1\n      tag_36\n      jump\t// in\n    tag_35:\n      tag_37\n      jump\t// in\n    tag_34:\n      stop\n        /* \"contracts/CovidVaccineSupplyChain.sol\":199:222  address public hospital */\n    tag_9:\n      tag_38\n      tag_39\n      jump\t// in\n    tag_38:\n      mload(0x40)\n      tag_40\n      swap2\n      swap1\n      tag_31\n      jump\t// in\n    tag_40:\n      mload(0x40)\n      dup1\n      swap2\n      sub\n      swap1\n      return\n        /* \"contracts/CovidVaccineSupplyChain.sol\":1197:1385  function StepOfDelivery() external isOwner{\r... */\n    tag_10:\n      tag_41\n      tag_42\n      jump\t// in\n    tag_41:\n      stop\n        /* \"contracts/CovidVaccineSupplyChain.sol\":1393:1571  function deliveryManfunction() external isDeliverer{\r... */\n    tag_11:\n      tag_43\n      tag_44\n      jump\t// in\n    tag_43:\n      stop\n        /* \"contracts/CovidVaccineSupplyChain.sol\":140:162  address public product */\n    tag_12:\n      tag_45\n      tag_46\n      jump\t// in\n    tag_45:\n      mload(0x40)\n      tag_47\n      swap2\n      swap1\n      tag_31\n      jump\t// in\n    tag_47:\n      mload(0x40)\n      dup1\n      swap2\n      sub\n      swap1\n      return\n        /* \"contracts/CovidVaccineSupplyChain.sol\":508:524  Step public step */\n    tag_13:\n      tag_48\n      tag_49\n      jump\t// in\n    tag_48:\n      mload(0x40)\n      tag_50\n      swap2\n      swap1\n      tag_51\n      jump\t// in\n    tag_50:\n      mload(0x40)\n      dup1\n      swap2\n      sub\n      swap1\n      return\n        /* \"contracts/CovidVaccineSupplyChain.sol\":229:271  mapping (address => bool)public deliverers */\n    tag_14:\n      tag_52\n      0x04\n      dup1\n      calldatasize\n      sub\n      dup2\n      add\n      swap1\n      tag_53\n      swap2\n      swap1\n      tag_26\n      jump\t// in\n    tag_53:\n      tag_54\n      jump\t// in\n    tag_52:\n      mload(0x40)\n      tag_55\n      swap2\n      swap1\n      tag_56\n      jump\t// in\n    tag_55:\n      mload(0x40)\n      dup1\n      swap2\n      sub\n      swap1\n      return\n        /* \"contracts/CovidVaccineSupplyChain.sol\":102:133  string public CODE =\"Covid Vax\" */\n    tag_17:\n      0x00\n      dup1\n      sload\n      tag_57\n      swap1\n      tag_58\n      jump\t// in\n    tag_57:\n      dup1\n      0x1f\n      add\n      0x20\n      dup1\n      swap2\n      div\n      mul\n      0x20\n      add\n      mload(0x40)\n      swap1\n      dup2\n      add\n      0x40\n      mstore\n      dup1\n      swap3\n      swap2\n      swap1\n      dup2\n      dup2\n      mstore\n      0x20\n      add\n      dup3\n      dup1\n      sload\n      tag_59\n      swap1\n      tag_58\n      jump\t// in\n    tag_59:\n      dup1\n      iszero\n      tag_60\n      jumpi\n      dup1\n      0x1f\n      lt\n      tag_61\n      jumpi\n      0x0100\n      dup1\n      dup4\n      sload\n      div\n      mul\n      dup4\n      mstore\n      swap2\n      0x20\n      add\n      swap2\n      jump(tag_60)\n    tag_61:\n      dup3\n      add\n      swap2\n      swap1\n      0x00\n      mstore\n      keccak256(0x00, 0x20)\n      swap1\n    tag_62:\n      dup2\n      sload\n      dup2\n      mstore\n      swap1\n      0x01\n      add\n      swap1\n      0x20\n      add\n      dup1\n      dup4\n      gt\n      tag_62\n      jumpi\n      dup3\n      swap1\n      sub\n      0x1f\n      and\n      dup3\n      add\n      swap2\n    tag_60:\n      pop\n      pop\n      pop\n      pop\n      pop\n      dup2\n      jump\t// out\n        /* \"contracts/CovidVaccineSupplyChain.sol\":531:569  DefectiveReason public defectiveReason */\n    tag_21:\n      0x05\n      0x01\n      swap1\n      sload\n      swap1\n      0x0100\n      exp\n      swap1\n      div\n      0xff\n      and\n      dup2\n      jump\t// out\n        /* \"contracts/CovidVaccineSupplyChain.sol\":1046:1185  function Auth(address _deliverer)external isOwner{\r... */\n    tag_27:\n        /* \"contracts/CovidVaccineSupplyChain.sol\":854:862  supplier */\n      0x02\n      0x00\n      swap1\n      sload\n      swap1\n      0x0100\n      exp\n      swap1\n      div\n      0xffffffffffffffffffffffffffffffffffffffff\n      and\n        /* \"contracts/CovidVaccineSupplyChain.sol\":840:862  msg.sender == supplier */\n      0xffffffffffffffffffffffffffffffffffffffff\n      and\n        /* \"contracts/CovidVaccineSupplyChain.sol\":840:850  msg.sender */\n      caller\n        /* \"contracts/CovidVaccineSupplyChain.sol\":840:862  msg.sender == supplier */\n      0xffffffffffffffffffffffffffffffffffffffff\n      and\n      eq\n        /* \"contracts/CovidVaccineSupplyChain.sol\":832:889  require(msg.sender == supplier, \" You are not the owner\") */\n      tag_64\n      jumpi\n      mload(0x40)\n      0x08c379a000000000000000000000000000000000000000000000000000000000\n      dup2\n      mstore\n      0x04\n      add\n      tag_65\n      swap1\n      tag_66\n      jump\t// in\n    tag_65:\n      mload(0x40)\n      dup1\n      swap2\n      sub\n      swap1\n      revert\n    tag_64:\n        /* \"contracts/CovidVaccineSupplyChain.sol\":1131:1135  true */\n      0x01\n        /* \"contracts/CovidVaccineSupplyChain.sol\":1106:1116  deliverers */\n      0x04\n        /* \"contracts/CovidVaccineSupplyChain.sol\":1106:1128  deliverers[_deliverer] */\n      0x00\n        /* \"contracts/CovidVaccineSupplyChain.sol\":1117:1127  _deliverer */\n      dup4\n        /* \"contracts/CovidVaccineSupplyChain.sol\":1106:1128  deliverers[_deliverer] */\n      0xffffffffffffffffffffffffffffffffffffffff\n      and\n      0xffffffffffffffffffffffffffffffffffffffff\n      and\n      dup2\n      mstore\n      0x20\n      add\n      swap1\n      dup2\n      mstore\n      0x20\n      add\n      0x00\n      keccak256\n      0x00\n        /* \"contracts/CovidVaccineSupplyChain.sol\":1106:1135  deliverers[_deliverer] = true */\n      0x0100\n      exp\n      dup2\n      sload\n      dup2\n      0xff\n      mul\n      not\n      and\n      swap1\n      dup4\n      iszero\n      iszero\n      mul\n      or\n      swap1\n      sstore\n      pop\n        /* \"contracts/CovidVaccineSupplyChain.sol\":1151:1177  OwnerOfProduct(msg.sender) */\n      0x400153a8cebbd91509d8511ec62d3fe08eac19a7afab5e61a723c0860db23520\n        /* \"contracts/CovidVaccineSupplyChain.sol\":1166:1176  msg.sender */\n      caller\n        /* \"contracts/CovidVaccineSupplyChain.sol\":1151:1177  OwnerOfProduct(msg.sender) */\n      mload(0x40)\n      tag_68\n      swap2\n      swap1\n      tag_31\n      jump\t// in\n    tag_68:\n      mload(0x40)\n      dup1\n      swap2\n      sub\n      swap1\n      log1\n        /* \"contracts/CovidVaccineSupplyChain.sol\":1046:1185  function Auth(address _deliverer)external isOwner{\r... */\n      pop\n      jump\t// out\n        /* \"contracts/CovidVaccineSupplyChain.sol\":169:192  address public supplier */\n    tag_29:\n      0x02\n      0x00\n      swap1\n      sload\n      swap1\n      0x0100\n      exp\n      swap1\n      div\n      0xffffffffffffffffffffffffffffffffffffffff\n      and\n      dup2\n      jump\t// out\n        /* \"contracts/CovidVaccineSupplyChain.sol\":1579:1824  function delivery()external {\r... */\n    tag_33:\n        /* \"contracts/CovidVaccineSupplyChain.sol\":1634:1644  Step.onWay */\n      0x02\n        /* \"contracts/CovidVaccineSupplyChain.sol\":1626:1644  step == Step.onWay */\n      0x04\n      dup2\n      gt\n      iszero\n      tag_70\n      jumpi\n      tag_71\n      tag_72\n      jump\t// in\n    tag_71:\n    tag_70:\n        /* \"contracts/CovidVaccineSupplyChain.sol\":1626:1630  step */\n      0x05\n      0x00\n      swap1\n      sload\n      swap1\n      0x0100\n      exp\n      swap1\n      div\n      0xff\n      and\n        /* \"contracts/CovidVaccineSupplyChain.sol\":1626:1644  step == Step.onWay */\n      0x04\n      dup2\n      gt\n      iszero\n      tag_73\n      jumpi\n      tag_74\n      tag_72\n      jump\t// in\n    tag_74:\n    tag_73:\n      eq\n        /* \"contracts/CovidVaccineSupplyChain.sol\":1618:1676  require(step == Step.onWay , \"Still waiting for delivery\") */\n      tag_75\n      jumpi\n      mload(0x40)\n      0x08c379a000000000000000000000000000000000000000000000000000000000\n      dup2\n      mstore\n      0x04\n      add\n      tag_76\n      swap1\n      tag_77\n      jump\t// in\n    tag_76:\n      mload(0x40)\n      dup1\n      swap2\n      sub\n      swap1\n      revert\n    tag_75:\n        /* \"contracts/CovidVaccineSupplyChain.sol\":1709:1717  hospital */\n      0x03\n      0x00\n      swap1\n      sload\n      swap1\n      0x0100\n      exp\n      swap1\n      div\n      0xffffffffffffffffffffffffffffffffffffffff\n      and\n        /* \"contracts/CovidVaccineSupplyChain.sol\":1695:1717  msg.sender == hospital */\n      0xffffffffffffffffffffffffffffffffffffffff\n      and\n        /* \"contracts/CovidVaccineSupplyChain.sol\":1695:1705  msg.sender */\n      caller\n        /* \"contracts/CovidVaccineSupplyChain.sol\":1695:1717  msg.sender == hospital */\n      0xffffffffffffffffffffffffffffffffffffffff\n      and\n      eq\n        /* \"contracts/CovidVaccineSupplyChain.sol\":1687:1744  require(msg.sender == hospital, \"Not the right hospital\") */\n      tag_78\n      jumpi\n      mload(0x40)\n      0x08c379a000000000000000000000000000000000000000000000000000000000\n      dup2\n      mstore\n      0x04\n      add\n      tag_79\n      swap1\n      tag_80\n      jump\t// in\n    tag_79:\n      mload(0x40)\n      dup1\n      swap2\n      sub\n      swap1\n      revert\n    tag_78:\n        /* \"contracts/CovidVaccineSupplyChain.sol\":1762:1774  Step.shipped */\n      0x03\n        /* \"contracts/CovidVaccineSupplyChain.sol\":1755:1759  step */\n      0x05\n      0x00\n        /* \"contracts/CovidVaccineSupplyChain.sol\":1755:1774  step = Step.shipped */\n      0x0100\n      exp\n      dup2\n      sload\n      dup2\n      0xff\n      mul\n      not\n      and\n      swap1\n      dup4\n      0x04\n      dup2\n      gt\n      iszero\n      tag_81\n      jumpi\n      tag_82\n      tag_72\n      jump\t// in\n    tag_82:\n    tag_81:\n      mul\n      or\n      swap1\n      sstore\n      pop\n        /* \"contracts/CovidVaccineSupplyChain.sol\":1790:1816  OwnerOfProduct(msg.sender) */\n      0x400153a8cebbd91509d8511ec62d3fe08eac19a7afab5e61a723c0860db23520\n        /* \"contracts/CovidVaccineSupplyChain.sol\":1805:1815  msg.sender */\n      caller\n        /* \"contracts/CovidVaccineSupplyChain.sol\":1790:1816  OwnerOfProduct(msg.sender) */\n      mload(0x40)\n      tag_83\n      swap2\n      swap1\n      tag_31\n      jump\t// in\n    tag_83:\n      mload(0x40)\n      dup1\n      swap2\n      sub\n      swap1\n      log1\n        /* \"contracts/CovidVaccineSupplyChain.sol\":1579:1824  function delivery()external {\r... */\n      jump\t// out\n        /* \"contracts/CovidVaccineSupplyChain.sol\":1834:2125  function ProductDestruct(DefectiveReason _reason)external {\r... */\n    tag_37:\n        /* \"contracts/CovidVaccineSupplyChain.sol\":1919:1931  Step.shipped */\n      0x03\n        /* \"contracts/CovidVaccineSupplyChain.sol\":1911:1931  step == Step.shipped */\n      0x04\n      dup2\n      gt\n      iszero\n      tag_85\n      jumpi\n      tag_86\n      tag_72\n      jump\t// in\n    tag_86:\n    tag_85:\n        /* \"contracts/CovidVaccineSupplyChain.sol\":1911:1915  step */\n      0x05\n      0x00\n      swap1\n      sload\n      swap1\n      0x0100\n      exp\n      swap1\n      div\n      0xff\n      and\n        /* \"contracts/CovidVaccineSupplyChain.sol\":1911:1931  step == Step.shipped */\n      0x04\n      dup2\n      gt\n      iszero\n      tag_87\n      jumpi\n      tag_88\n      tag_72\n      jump\t// in\n    tag_88:\n    tag_87:\n      eq\n        /* \"contracts/CovidVaccineSupplyChain.sol\":1903:1963  require(step == Step.shipped , \"Still waiting for delivery\") */\n      tag_89\n      jumpi\n      mload(0x40)\n      0x08c379a000000000000000000000000000000000000000000000000000000000\n      dup2\n      mstore\n      0x04\n      add\n      tag_90\n      swap1\n      tag_77\n      jump\t// in\n    tag_90:\n      mload(0x40)\n      dup1\n      swap2\n      sub\n      swap1\n      revert\n    tag_89:\n        /* \"contracts/CovidVaccineSupplyChain.sol\":1996:2004  hospital */\n      0x03\n      0x00\n      swap1\n      sload\n      swap1\n      0x0100\n      exp\n      swap1\n      div\n      0xffffffffffffffffffffffffffffffffffffffff\n      and\n        /* \"contracts/CovidVaccineSupplyChain.sol\":1982:2004  msg.sender == hospital */\n      0xffffffffffffffffffffffffffffffffffffffff\n      and\n        /* \"contracts/CovidVaccineSupplyChain.sol\":1982:1992  msg.sender */\n      caller\n        /* \"contracts/CovidVaccineSupplyChain.sol\":1982:2004  msg.sender == hospital */\n      0xffffffffffffffffffffffffffffffffffffffff\n      and\n      eq\n        /* \"contracts/CovidVaccineSupplyChain.sol\":1974:2031  require(msg.sender == hospital, \"Not the right hospital\") */\n      tag_91\n      jumpi\n      mload(0x40)\n      0x08c379a000000000000000000000000000000000000000000000000000000000\n      dup2\n      mstore\n      0x04\n      add\n      tag_92\n      swap1\n      tag_80\n      jump\t// in\n    tag_92:\n      mload(0x40)\n      dup1\n      swap2\n      sub\n      swap1\n      revert\n    tag_91:\n        /* \"contracts/CovidVaccineSupplyChain.sol\":2049:2063  Step.defective */\n      0x04\n        /* \"contracts/CovidVaccineSupplyChain.sol\":2042:2046  step */\n      0x05\n      0x00\n        /* \"contracts/CovidVaccineSupplyChain.sol\":2042:2063  step = Step.defective */\n      0x0100\n      exp\n      dup2\n      sload\n      dup2\n      0xff\n      mul\n      not\n      and\n      swap1\n      dup4\n      0x04\n      dup2\n      gt\n      iszero\n      tag_93\n      jumpi\n      tag_94\n      tag_72\n      jump\t// in\n    tag_94:\n    tag_93:\n      mul\n      or\n      swap1\n      sstore\n      pop\n        /* \"contracts/CovidVaccineSupplyChain.sol\":2091:2117  OwnerOfProduct(msg.sender) */\n      0x400153a8cebbd91509d8511ec62d3fe08eac19a7afab5e61a723c0860db23520\n        /* \"contracts/CovidVaccineSupplyChain.sol\":2106:2116  msg.sender */\n      caller\n        /* \"contracts/CovidVaccineSupplyChain.sol\":2091:2117  OwnerOfProduct(msg.sender) */\n      mload(0x40)\n      tag_95\n      swap2\n      swap1\n      tag_31\n      jump\t// in\n    tag_95:\n      mload(0x40)\n      dup1\n      swap2\n      sub\n      swap1\n      log1\n        /* \"contracts/CovidVaccineSupplyChain.sol\":1834:2125  function ProductDestruct(DefectiveReason _reason)external {\r... */\n      pop\n      jump\t// out\n        /* \"contracts/CovidVaccineSupplyChain.sol\":199:222  address public hospital */\n    tag_39:\n      0x03\n      0x00\n      swap1\n      sload\n      swap1\n      0x0100\n      exp\n      swap1\n      div\n      0xffffffffffffffffffffffffffffffffffffffff\n      and\n      dup2\n      jump\t// out\n        /* \"contracts/CovidVaccineSupplyChain.sol\":1197:1385  function StepOfDelivery() external isOwner{\r... */\n    tag_42:\n        /* \"contracts/CovidVaccineSupplyChain.sol\":854:862  supplier */\n      0x02\n      0x00\n      swap1\n      sload\n      swap1\n      0x0100\n      exp\n      swap1\n      div\n      0xffffffffffffffffffffffffffffffffffffffff\n      and\n        /* \"contracts/CovidVaccineSupplyChain.sol\":840:862  msg.sender == supplier */\n      0xffffffffffffffffffffffffffffffffffffffff\n      and\n        /* \"contracts/CovidVaccineSupplyChain.sol\":840:850  msg.sender */\n      caller\n        /* \"contracts/CovidVaccineSupplyChain.sol\":840:862  msg.sender == supplier */\n      0xffffffffffffffffffffffffffffffffffffffff\n      and\n      eq\n        /* \"contracts/CovidVaccineSupplyChain.sol\":832:889  require(msg.sender == supplier, \" You are not the owner\") */\n      tag_97\n      jumpi\n      mload(0x40)\n      0x08c379a000000000000000000000000000000000000000000000000000000000\n      dup2\n      mstore\n      0x04\n      add\n      tag_98\n      swap1\n      tag_66\n      jump\t// in\n    tag_98:\n      mload(0x40)\n      dup1\n      swap2\n      sub\n      swap1\n      revert\n    tag_97:\n        /* \"contracts/CovidVaccineSupplyChain.sol\":1266:1281  Step.production */\n      0x00\n        /* \"contracts/CovidVaccineSupplyChain.sol\":1258:1281  step == Step.production */\n      0x04\n      dup2\n      gt\n      iszero\n      tag_100\n      jumpi\n      tag_101\n      tag_72\n      jump\t// in\n    tag_101:\n    tag_100:\n        /* \"contracts/CovidVaccineSupplyChain.sol\":1258:1262  step */\n      0x05\n      0x00\n      swap1\n      sload\n      swap1\n      0x0100\n      exp\n      swap1\n      div\n      0xff\n      and\n        /* \"contracts/CovidVaccineSupplyChain.sol\":1258:1281  step == Step.production */\n      0x04\n      dup2\n      gt\n      iszero\n      tag_102\n      jumpi\n      tag_103\n      tag_72\n      jump\t// in\n    tag_103:\n    tag_102:\n      eq\n        /* \"contracts/CovidVaccineSupplyChain.sol\":1250:1303  require(step == Step.production, \"Not in production\") */\n      tag_104\n      jumpi\n      mload(0x40)\n      0x08c379a000000000000000000000000000000000000000000000000000000000\n      dup2\n      mstore\n      0x04\n      add\n      tag_105\n      swap1\n      tag_106\n      jump\t// in\n    tag_105:\n      mload(0x40)\n      dup1\n      swap2\n      sub\n      swap1\n      revert\n    tag_104:\n        /* \"contracts/CovidVaccineSupplyChain.sol\":1321:1333  Step.waiting */\n      0x01\n        /* \"contracts/CovidVaccineSupplyChain.sol\":1314:1318  step */\n      0x05\n      0x00\n        /* \"contracts/CovidVaccineSupplyChain.sol\":1314:1333  step = Step.waiting */\n      0x0100\n      exp\n      dup2\n      sload\n      dup2\n      0xff\n      mul\n      not\n      and\n      swap1\n      dup4\n      0x04\n      dup2\n      gt\n      iszero\n      tag_107\n      jumpi\n      tag_108\n      tag_72\n      jump\t// in\n    tag_108:\n    tag_107:\n      mul\n      or\n      swap1\n      sstore\n      pop\n        /* \"contracts/CovidVaccineSupplyChain.sol\":1351:1377  OwnerOfProduct(msg.sender) */\n      0x400153a8cebbd91509d8511ec62d3fe08eac19a7afab5e61a723c0860db23520\n        /* \"contracts/CovidVaccineSupplyChain.sol\":1366:1376  msg.sender */\n      caller\n        /* \"contracts/CovidVaccineSupplyChain.sol\":1351:1377  OwnerOfProduct(msg.sender) */\n      mload(0x40)\n      tag_109\n      swap2\n      swap1\n      tag_31\n      jump\t// in\n    tag_109:\n      mload(0x40)\n      dup1\n      swap2\n      sub\n      swap1\n      log1\n        /* \"contracts/CovidVaccineSupplyChain.sol\":1197:1385  function StepOfDelivery() external isOwner{\r... */\n      jump\t// out\n        /* \"contracts/CovidVaccineSupplyChain.sol\":1393:1571  function deliveryManfunction() external isDeliverer{\r... */\n    tag_44:\n        /* \"contracts/CovidVaccineSupplyChain.sol\":987:991  true */\n      0x01\n        /* \"contracts/CovidVaccineSupplyChain.sol\":961:991  deliverers[msg.sender] == true */\n      iszero\n      iszero\n        /* \"contracts/CovidVaccineSupplyChain.sol\":961:971  deliverers */\n      0x04\n        /* \"contracts/CovidVaccineSupplyChain.sol\":961:983  deliverers[msg.sender] */\n      0x00\n        /* \"contracts/CovidVaccineSupplyChain.sol\":972:982  msg.sender */\n      caller\n        /* \"contracts/CovidVaccineSupplyChain.sol\":961:983  deliverers[msg.sender] */\n      0xffffffffffffffffffffffffffffffffffffffff\n      and\n      0xffffffffffffffffffffffffffffffffffffffff\n      and\n      dup2\n      mstore\n      0x20\n      add\n      swap1\n      dup2\n      mstore\n      0x20\n      add\n      0x00\n      keccak256\n      0x00\n      swap1\n      sload\n      swap1\n      0x0100\n      exp\n      swap1\n      div\n      0xff\n      and\n        /* \"contracts/CovidVaccineSupplyChain.sol\":961:991  deliverers[msg.sender] == true */\n      iszero\n      iszero\n      eq\n        /* \"contracts/CovidVaccineSupplyChain.sol\":953:1018  require(deliverers[msg.sender] == true, \" You are not the owner\") */\n      tag_111\n      jumpi\n      mload(0x40)\n      0x08c379a000000000000000000000000000000000000000000000000000000000\n      dup2\n      mstore\n      0x04\n      add\n      tag_112\n      swap1\n      tag_66\n      jump\t// in\n    tag_112:\n      mload(0x40)\n      dup1\n      swap2\n      sub\n      swap1\n      revert\n    tag_111:\n        /* \"contracts/CovidVaccineSupplyChain.sol\":1471:1483  Step.waiting */\n      0x01\n        /* \"contracts/CovidVaccineSupplyChain.sol\":1463:1483  step == Step.waiting */\n      0x04\n      dup2\n      gt\n      iszero\n      tag_114\n      jumpi\n      tag_115\n      tag_72\n      jump\t// in\n    tag_115:\n    tag_114:\n        /* \"contracts/CovidVaccineSupplyChain.sol\":1463:1467  step */\n      0x05\n      0x00\n      swap1\n      sload\n      swap1\n      0x0100\n      exp\n      swap1\n      div\n      0xff\n      and\n        /* \"contracts/CovidVaccineSupplyChain.sol\":1463:1483  step == Step.waiting */\n      0x04\n      dup2\n      gt\n      iszero\n      tag_116\n      jumpi\n      tag_117\n      tag_72\n      jump\t// in\n    tag_117:\n    tag_116:\n      eq\n        /* \"contracts/CovidVaccineSupplyChain.sol\":1455:1498  require(step == Step.waiting , \"Not ready\") */\n      tag_118\n      jumpi\n      mload(0x40)\n      0x08c379a000000000000000000000000000000000000000000000000000000000\n      dup2\n      mstore\n      0x04\n      add\n      tag_119\n      swap1\n      tag_120\n      jump\t// in\n    tag_119:\n      mload(0x40)\n      dup1\n      swap2\n      sub\n      swap1\n      revert\n    tag_118:\n        /* \"contracts/CovidVaccineSupplyChain.sol\":1516:1526  Step.onWay */\n      0x02\n        /* \"contracts/CovidVaccineSupplyChain.sol\":1509:1513  step */\n      0x05\n      0x00\n        /* \"contracts/CovidVaccineSupplyChain.sol\":1509:1526  step = Step.onWay */\n      0x0100\n      exp\n      dup2\n      sload\n      dup2\n      0xff\n      mul\n      not\n      and\n      swap1\n      dup4\n      0x04\n      dup2\n      gt\n      iszero\n      tag_121\n      jumpi\n      tag_122\n      tag_72\n      jump\t// in\n    tag_122:\n    tag_121:\n      mul\n      or\n      swap1\n      sstore\n      pop\n        /* \"contracts/CovidVaccineSupplyChain.sol\":1542:1563  Deliverer(msg.sender) */\n      0xfb229d12ab26294bc680d0ad524e4315a0ce05f84a2b75c4c7a0da7f1c0b1343\n        /* \"contracts/CovidVaccineSupplyChain.sol\":1552:1562  msg.sender */\n      caller\n        /* \"contracts/CovidVaccineSupplyChain.sol\":1542:1563  Deliverer(msg.sender) */\n      mload(0x40)\n      tag_123\n      swap2\n      swap1\n      tag_31\n      jump\t// in\n    tag_123:\n      mload(0x40)\n      dup1\n      swap2\n      sub\n      swap1\n      log1\n        /* \"contracts/CovidVaccineSupplyChain.sol\":1393:1571  function deliveryManfunction() external isDeliverer{\r... */\n      jump\t// out\n        /* \"contracts/CovidVaccineSupplyChain.sol\":140:162  address public product */\n    tag_46:\n      0x01\n      0x00\n      swap1\n      sload\n      swap1\n      0x0100\n      exp\n      swap1\n      div\n      0xffffffffffffffffffffffffffffffffffffffff\n      and\n      dup2\n      jump\t// out\n        /* \"contracts/CovidVaccineSupplyChain.sol\":508:524  Step public step */\n    tag_49:\n      0x05\n      0x00\n      swap1\n      sload\n      swap1\n      0x0100\n      exp\n      swap1\n      div\n      0xff\n      and\n      dup2\n      jump\t// out\n        /* \"contracts/CovidVaccineSupplyChain.sol\":229:271  mapping (address => bool)public deliverers */\n    tag_54:\n      mstore(0x20, 0x04)\n      dup1\n      0x00\n      mstore\n      keccak256(0x00, 0x40)\n      0x00\n      swap2\n      pop\n      sload\n      swap1\n      0x0100\n      exp\n      swap1\n      div\n      0xff\n      and\n      dup2\n      jump\t// out\n        /* \"#utility.yul\":7:146   */\n    tag_125:\n        /* \"#utility.yul\":53:58   */\n      0x00\n        /* \"#utility.yul\":91:97   */\n      dup2\n        /* \"#utility.yul\":78:98   */\n      calldataload\n        /* \"#utility.yul\":69:98   */\n      swap1\n      pop\n        /* \"#utility.yul\":107:140   */\n      tag_127\n        /* \"#utility.yul\":134:139   */\n      dup2\n        /* \"#utility.yul\":107:140   */\n      tag_128\n      jump\t// in\n    tag_127:\n        /* \"#utility.yul\":7:146   */\n      swap3\n      swap2\n      pop\n      pop\n      jump\t// out\n        /* \"#utility.yul\":152:327   */\n    tag_129:\n        /* \"#utility.yul\":216:221   */\n      0x00\n        /* \"#utility.yul\":254:260   */\n      dup2\n        /* \"#utility.yul\":241:261   */\n      calldataload\n        /* \"#utility.yul\":232:261   */\n      swap1\n      pop\n        /* \"#utility.yul\":270:321   */\n      tag_131\n        /* \"#utility.yul\":315:320   */\n      dup2\n        /* \"#utility.yul\":270:321   */\n      tag_132\n      jump\t// in\n    tag_131:\n        /* \"#utility.yul\":152:327   */\n      swap3\n      swap2\n      pop\n      pop\n      jump\t// out\n        /* \"#utility.yul\":333:662   */\n    tag_26:\n        /* \"#utility.yul\":392:398   */\n      0x00\n        /* \"#utility.yul\":441:443   */\n      0x20\n        /* \"#utility.yul\":429:438   */\n      dup3\n        /* \"#utility.yul\":420:427   */\n      dup5\n        /* \"#utility.yul\":416:439   */\n      sub\n        /* \"#utility.yul\":412:444   */\n      slt\n        /* \"#utility.yul\":409:528   */\n      iszero\n      tag_134\n      jumpi\n        /* \"#utility.yul\":447:526   */\n      tag_135\n      tag_136\n      jump\t// in\n    tag_135:\n        /* \"#utility.yul\":409:528   */\n    tag_134:\n        /* \"#utility.yul\":567:568   */\n      0x00\n        /* \"#utility.yul\":592:645   */\n      tag_137\n        /* \"#utility.yul\":637:644   */\n      dup5\n        /* \"#utility.yul\":628:634   */\n      dup3\n        /* \"#utility.yul\":617:626   */\n      dup6\n        /* \"#utility.yul\":613:635   */\n      add\n        /* \"#utility.yul\":592:645   */\n      tag_125\n      jump\t// in\n    tag_137:\n        /* \"#utility.yul\":582:645   */\n      swap2\n      pop\n        /* \"#utility.yul\":538:655   */\n      pop\n        /* \"#utility.yul\":333:662   */\n      swap3\n      swap2\n      pop\n      pop\n      jump\t// out\n        /* \"#utility.yul\":668:1033   */\n    tag_36:\n        /* \"#utility.yul\":745:751   */\n      0x00\n        /* \"#utility.yul\":794:796   */\n      0x20\n        /* \"#utility.yul\":782:791   */\n      dup3\n        /* \"#utility.yul\":773:780   */\n      dup5\n        /* \"#utility.yul\":769:792   */\n      sub\n        /* \"#utility.yul\":765:797   */\n      slt\n        /* \"#utility.yul\":762:881   */\n      iszero\n      tag_139\n      jumpi\n        /* \"#utility.yul\":800:879   */\n      tag_140\n      tag_136\n      jump\t// in\n    tag_140:\n        /* \"#utility.yul\":762:881   */\n    tag_139:\n        /* \"#utility.yul\":920:921   */\n      0x00\n        /* \"#utility.yul\":945:1016   */\n      tag_141\n        /* \"#utility.yul\":1008:1015   */\n      dup5\n        /* \"#utility.yul\":999:1005   */\n      dup3\n        /* \"#utility.yul\":988:997   */\n      dup6\n        /* \"#utility.yul\":984:1006   */\n      add\n        /* \"#utility.yul\":945:1016   */\n      tag_129\n      jump\t// in\n    tag_141:\n        /* \"#utility.yul\":935:1016   */\n      swap2\n      pop\n        /* \"#utility.yul\":891:1026   */\n      pop\n        /* \"#utility.yul\":668:1033   */\n      swap3\n      swap2\n      pop\n      pop\n      jump\t// out\n        /* \"#utility.yul\":1039:1157   */\n    tag_142:\n        /* \"#utility.yul\":1126:1150   */\n      tag_144\n        /* \"#utility.yul\":1144:1149   */\n      dup2\n        /* \"#utility.yul\":1126:1150   */\n      tag_145\n      jump\t// in\n    tag_144:\n        /* \"#utility.yul\":1121:1124   */\n      dup3\n        /* \"#utility.yul\":1114:1151   */\n      mstore\n        /* \"#utility.yul\":1039:1157   */\n      pop\n      pop\n      jump\t// out\n        /* \"#utility.yul\":1163:1272   */\n    tag_146:\n        /* \"#utility.yul\":1244:1265   */\n      tag_148\n        /* \"#utility.yul\":1259:1264   */\n      dup2\n        /* \"#utility.yul\":1244:1265   */\n      tag_149\n      jump\t// in\n    tag_148:\n        /* \"#utility.yul\":1239:1242   */\n      dup3\n        /* \"#utility.yul\":1232:1266   */\n      mstore\n        /* \"#utility.yul\":1163:1272   */\n      pop\n      pop\n      jump\t// out\n        /* \"#utility.yul\":1278:1441   */\n    tag_150:\n        /* \"#utility.yul\":1381:1434   */\n      tag_152\n        /* \"#utility.yul\":1428:1433   */\n      dup2\n        /* \"#utility.yul\":1381:1434   */\n      tag_153\n      jump\t// in\n    tag_152:\n        /* \"#utility.yul\":1376:1379   */\n      dup3\n        /* \"#utility.yul\":1369:1435   */\n      mstore\n        /* \"#utility.yul\":1278:1441   */\n      pop\n      pop\n      jump\t// out\n        /* \"#utility.yul\":1447:1588   */\n    tag_154:\n        /* \"#utility.yul\":1539:1581   */\n      tag_156\n        /* \"#utility.yul\":1575:1580   */\n      dup2\n        /* \"#utility.yul\":1539:1581   */\n      tag_157\n      jump\t// in\n    tag_156:\n        /* \"#utility.yul\":1534:1537   */\n      dup3\n        /* \"#utility.yul\":1527:1582   */\n      mstore\n        /* \"#utility.yul\":1447:1588   */\n      pop\n      pop\n      jump\t// out\n        /* \"#utility.yul\":1594:1958   */\n    tag_158:\n        /* \"#utility.yul\":1682:1685   */\n      0x00\n        /* \"#utility.yul\":1710:1749   */\n      tag_160\n        /* \"#utility.yul\":1743:1748   */\n      dup3\n        /* \"#utility.yul\":1710:1749   */\n      tag_161\n      jump\t// in\n    tag_160:\n        /* \"#utility.yul\":1765:1836   */\n      tag_162\n        /* \"#utility.yul\":1829:1835   */\n      dup2\n        /* \"#utility.yul\":1824:1827   */\n      dup6\n        /* \"#utility.yul\":1765:1836   */\n      tag_163\n      jump\t// in\n    tag_162:\n        /* \"#utility.yul\":1758:1836   */\n      swap4\n      pop\n        /* \"#utility.yul\":1845:1897   */\n      tag_164\n        /* \"#utility.yul\":1890:1896   */\n      dup2\n        /* \"#utility.yul\":1885:1888   */\n      dup6\n        /* \"#utility.yul\":1878:1882   */\n      0x20\n        /* \"#utility.yul\":1871:1876   */\n      dup7\n        /* \"#utility.yul\":1867:1883   */\n      add\n        /* \"#utility.yul\":1845:1897   */\n      tag_165\n      jump\t// in\n    tag_164:\n        /* \"#utility.yul\":1922:1951   */\n      tag_166\n        /* \"#utility.yul\":1944:1950   */\n      dup2\n        /* \"#utility.yul\":1922:1951   */\n      tag_167\n      jump\t// in\n    tag_166:\n        /* \"#utility.yul\":1917:1920   */\n      dup5\n        /* \"#utility.yul\":1913:1952   */\n      add\n        /* \"#utility.yul\":1906:1952   */\n      swap2\n      pop\n        /* \"#utility.yul\":1686:1958   */\n      pop\n        /* \"#utility.yul\":1594:1958   */\n      swap3\n      swap2\n      pop\n      pop\n      jump\t// out\n        /* \"#utility.yul\":1964:2330   */\n    tag_168:\n        /* \"#utility.yul\":2106:2109   */\n      0x00\n        /* \"#utility.yul\":2127:2194   */\n      tag_170\n        /* \"#utility.yul\":2191:2193   */\n      0x16\n        /* \"#utility.yul\":2186:2189   */\n      dup4\n        /* \"#utility.yul\":2127:2194   */\n      tag_163\n      jump\t// in\n    tag_170:\n        /* \"#utility.yul\":2120:2194   */\n      swap2\n      pop\n        /* \"#utility.yul\":2203:2296   */\n      tag_171\n        /* \"#utility.yul\":2292:2295   */\n      dup3\n        /* \"#utility.yul\":2203:2296   */\n      tag_172\n      jump\t// in\n    tag_171:\n        /* \"#utility.yul\":2321:2323   */\n      0x20\n        /* \"#utility.yul\":2316:2319   */\n      dup3\n        /* \"#utility.yul\":2312:2324   */\n      add\n        /* \"#utility.yul\":2305:2324   */\n      swap1\n      pop\n        /* \"#utility.yul\":1964:2330   */\n      swap2\n      swap1\n      pop\n      jump\t// out\n        /* \"#utility.yul\":2336:2701   */\n    tag_173:\n        /* \"#utility.yul\":2478:2481   */\n      0x00\n        /* \"#utility.yul\":2499:2565   */\n      tag_175\n        /* \"#utility.yul\":2563:2564   */\n      0x09\n        /* \"#utility.yul\":2558:2561   */\n      dup4\n        /* \"#utility.yul\":2499:2565   */\n      tag_163\n      jump\t// in\n    tag_175:\n        /* \"#utility.yul\":2492:2565   */\n      swap2\n      pop\n        /* \"#utility.yul\":2574:2667   */\n      tag_176\n        /* \"#utility.yul\":2663:2666   */\n      dup3\n        /* \"#utility.yul\":2574:2667   */\n      tag_177\n      jump\t// in\n    tag_176:\n        /* \"#utility.yul\":2692:2694   */\n      0x20\n        /* \"#utility.yul\":2687:2690   */\n      dup3\n        /* \"#utility.yul\":2683:2695   */\n      add\n        /* \"#utility.yul\":2676:2695   */\n      swap1\n      pop\n        /* \"#utility.yul\":2336:2701   */\n      swap2\n      swap1\n      pop\n      jump\t// out\n        /* \"#utility.yul\":2707:3073   */\n    tag_178:\n        /* \"#utility.yul\":2849:2852   */\n      0x00\n        /* \"#utility.yul\":2870:2937   */\n      tag_180\n        /* \"#utility.yul\":2934:2936   */\n      0x11\n        /* \"#utility.yul\":2929:2932   */\n      dup4\n        /* \"#utility.yul\":2870:2937   */\n      tag_163\n      jump\t// in\n    tag_180:\n        /* \"#utility.yul\":2863:2937   */\n      swap2\n      pop\n        /* \"#utility.yul\":2946:3039   */\n      tag_181\n        /* \"#utility.yul\":3035:3038   */\n      dup3\n        /* \"#utility.yul\":2946:3039   */\n      tag_182\n      jump\t// in\n    tag_181:\n        /* \"#utility.yul\":3064:3066   */\n      0x20\n        /* \"#utility.yul\":3059:3062   */\n      dup3\n        /* \"#utility.yul\":3055:3067   */\n      add\n        /* \"#utility.yul\":3048:3067   */\n      swap1\n      pop\n        /* \"#utility.yul\":2707:3073   */\n      swap2\n      swap1\n      pop\n      jump\t// out\n        /* \"#utility.yul\":3079:3445   */\n    tag_183:\n        /* \"#utility.yul\":3221:3224   */\n      0x00\n        /* \"#utility.yul\":3242:3309   */\n      tag_185\n        /* \"#utility.yul\":3306:3308   */\n      0x1a\n        /* \"#utility.yul\":3301:3304   */\n      dup4\n        /* \"#utility.yul\":3242:3309   */\n      tag_163\n      jump\t// in\n    tag_185:\n        /* \"#utility.yul\":3235:3309   */\n      swap2\n      pop\n        /* \"#utility.yul\":3318:3411   */\n      tag_186\n        /* \"#utility.yul\":3407:3410   */\n      dup3\n        /* \"#utility.yul\":3318:3411   */\n      tag_187\n      jump\t// in\n    tag_186:\n        /* \"#utility.yul\":3436:3438   */\n      0x20\n        /* \"#utility.yul\":3431:3434   */\n      dup3\n        /* \"#utility.yul\":3427:3439   */\n      add\n        /* \"#utility.yul\":3420:3439   */\n      swap1\n      pop\n        /* \"#utility.yul\":3079:3445   */\n      swap2\n      swap1\n      pop\n      jump\t// out\n        /* \"#utility.yul\":3451:3817   */\n    tag_188:\n        /* \"#utility.yul\":3593:3596   */\n      0x00\n        /* \"#utility.yul\":3614:3681   */\n      tag_190\n        /* \"#utility.yul\":3678:3680   */\n      0x16\n        /* \"#utility.yul\":3673:3676   */\n      dup4\n        /* \"#utility.yul\":3614:3681   */\n      tag_163\n      jump\t// in\n    tag_190:\n        /* \"#utility.yul\":3607:3681   */\n      swap2\n      pop\n        /* \"#utility.yul\":3690:3783   */\n      tag_191\n        /* \"#utility.yul\":3779:3782   */\n      dup3\n        /* \"#utility.yul\":3690:3783   */\n      tag_192\n      jump\t// in\n    tag_191:\n        /* \"#utility.yul\":3808:3810   */\n      0x20\n        /* \"#utility.yul\":3803:3806   */\n      dup3\n        /* \"#utility.yul\":3799:3811   */\n      add\n        /* \"#utility.yul\":3792:3811   */\n      swap1\n      pop\n        /* \"#utility.yul\":3451:3817   */\n      swap2\n      swap1\n      pop\n      jump\t// out\n        /* \"#utility.yul\":3823:4045   */\n    tag_31:\n        /* \"#utility.yul\":3916:3920   */\n      0x00\n        /* \"#utility.yul\":3954:3956   */\n      0x20\n        /* \"#utility.yul\":3943:3952   */\n      dup3\n        /* \"#utility.yul\":3939:3957   */\n      add\n        /* \"#utility.yul\":3931:3957   */\n      swap1\n      pop\n        /* \"#utility.yul\":3967:4038   */\n      tag_194\n        /* \"#utility.yul\":4035:4036   */\n      0x00\n        /* \"#utility.yul\":4024:4033   */\n      dup4\n        /* \"#utility.yul\":4020:4037   */\n      add\n        /* \"#utility.yul\":4011:4017   */\n      dup5\n        /* \"#utility.yul\":3967:4038   */\n      tag_142\n      jump\t// in\n    tag_194:\n        /* \"#utility.yul\":3823:4045   */\n      swap3\n      swap2\n      pop\n      pop\n      jump\t// out\n        /* \"#utility.yul\":4051:4261   */\n    tag_56:\n        /* \"#utility.yul\":4138:4142   */\n      0x00\n        /* \"#utility.yul\":4176:4178   */\n      0x20\n        /* \"#utility.yul\":4165:4174   */\n      dup3\n        /* \"#utility.yul\":4161:4179   */\n      add\n        /* \"#utility.yul\":4153:4179   */\n      swap1\n      pop\n        /* \"#utility.yul\":4189:4254   */\n      tag_196\n        /* \"#utility.yul\":4251:4252   */\n      0x00\n        /* \"#utility.yul\":4240:4249   */\n      dup4\n        /* \"#utility.yul\":4236:4253   */\n      add\n        /* \"#utility.yul\":4227:4233   */\n      dup5\n        /* \"#utility.yul\":4189:4254   */\n      tag_146\n      jump\t// in\n    tag_196:\n        /* \"#utility.yul\":4051:4261   */\n      swap3\n      swap2\n      pop\n      pop\n      jump\t// out\n        /* \"#utility.yul\":4267:4521   */\n    tag_23:\n        /* \"#utility.yul\":4376:4380   */\n      0x00\n        /* \"#utility.yul\":4414:4416   */\n      0x20\n        /* \"#utility.yul\":4403:4412   */\n      dup3\n        /* \"#utility.yul\":4399:4417   */\n      add\n        /* \"#utility.yul\":4391:4417   */\n      swap1\n      pop\n        /* \"#utility.yul\":4427:4514   */\n      tag_198\n        /* \"#utility.yul\":4511:4512   */\n      0x00\n        /* \"#utility.yul\":4500:4509   */\n      dup4\n        /* \"#utility.yul\":4496:4513   */\n      add\n        /* \"#utility.yul\":4487:4493   */\n      dup5\n        /* \"#utility.yul\":4427:4514   */\n      tag_150\n      jump\t// in\n    tag_198:\n        /* \"#utility.yul\":4267:4521   */\n      swap3\n      swap2\n      pop\n      pop\n      jump\t// out\n        /* \"#utility.yul\":4527:4759   */\n    tag_51:\n        /* \"#utility.yul\":4625:4629   */\n      0x00\n        /* \"#utility.yul\":4663:4665   */\n      0x20\n        /* \"#utility.yul\":4652:4661   */\n      dup3\n        /* \"#utility.yul\":4648:4666   */\n      add\n        /* \"#utility.yul\":4640:4666   */\n      swap1\n      pop\n        /* \"#utility.yul\":4676:4752   */\n      tag_200\n        /* \"#utility.yul\":4749:4750   */\n      0x00\n        /* \"#utility.yul\":4738:4747   */\n      dup4\n        /* \"#utility.yul\":4734:4751   */\n      add\n        /* \"#utility.yul\":4725:4731   */\n      dup5\n        /* \"#utility.yul\":4676:4752   */\n      tag_154\n      jump\t// in\n    tag_200:\n        /* \"#utility.yul\":4527:4759   */\n      swap3\n      swap2\n      pop\n      pop\n      jump\t// out\n        /* \"#utility.yul\":4765:5078   */\n    tag_19:\n        /* \"#utility.yul\":4878:4882   */\n      0x00\n        /* \"#utility.yul\":4916:4918   */\n      0x20\n        /* \"#utility.yul\":4905:4914   */\n      dup3\n        /* \"#utility.yul\":4901:4919   */\n      add\n        /* \"#utility.yul\":4893:4919   */\n      swap1\n      pop\n        /* \"#utility.yul\":4965:4974   */\n      dup2\n        /* \"#utility.yul\":4959:4963   */\n      dup2\n        /* \"#utility.yul\":4955:4975   */\n      sub\n        /* \"#utility.yul\":4951:4952   */\n      0x00\n        /* \"#utility.yul\":4940:4949   */\n      dup4\n        /* \"#utility.yul\":4936:4953   */\n      add\n        /* \"#utility.yul\":4929:4976   */\n      mstore\n        /* \"#utility.yul\":4993:5071   */\n      tag_202\n        /* \"#utility.yul\":5066:5070   */\n      dup2\n        /* \"#utility.yul\":5057:5063   */\n      dup5\n        /* \"#utility.yul\":4993:5071   */\n      tag_158\n      jump\t// in\n    tag_202:\n        /* \"#utility.yul\":4985:5071   */\n      swap1\n      pop\n        /* \"#utility.yul\":4765:5078   */\n      swap3\n      swap2\n      pop\n      pop\n      jump\t// out\n        /* \"#utility.yul\":5084:5503   */\n    tag_80:\n        /* \"#utility.yul\":5250:5254   */\n      0x00\n        /* \"#utility.yul\":5288:5290   */\n      0x20\n        /* \"#utility.yul\":5277:5286   */\n      dup3\n        /* \"#utility.yul\":5273:5291   */\n      add\n        /* \"#utility.yul\":5265:5291   */\n      swap1\n      pop\n        /* \"#utility.yul\":5337:5346   */\n      dup2\n        /* \"#utility.yul\":5331:5335   */\n      dup2\n        /* \"#utility.yul\":5327:5347   */\n      sub\n        /* \"#utility.yul\":5323:5324   */\n      0x00\n        /* \"#utility.yul\":5312:5321   */\n      dup4\n        /* \"#utility.yul\":5308:5325   */\n      add\n        /* \"#utility.yul\":5301:5348   */\n      mstore\n        /* \"#utility.yul\":5365:5496   */\n      tag_204\n        /* \"#utility.yul\":5491:5495   */\n      dup2\n        /* \"#utility.yul\":5365:5496   */\n      tag_168\n      jump\t// in\n    tag_204:\n        /* \"#utility.yul\":5357:5496   */\n      swap1\n      pop\n        /* \"#utility.yul\":5084:5503   */\n      swap2\n      swap1\n      pop\n      jump\t// out\n        /* \"#utility.yul\":5509:5928   */\n    tag_120:\n        /* \"#utility.yul\":5675:5679   */\n      0x00\n        /* \"#utility.yul\":5713:5715   */\n      0x20\n        /* \"#utility.yul\":5702:5711   */\n      dup3\n        /* \"#utility.yul\":5698:5716   */\n      add\n        /* \"#utility.yul\":5690:5716   */\n      swap1\n      pop\n        /* \"#utility.yul\":5762:5771   */\n      dup2\n        /* \"#utility.yul\":5756:5760   */\n      dup2\n        /* \"#utility.yul\":5752:5772   */\n      sub\n        /* \"#utility.yul\":5748:5749   */\n      0x00\n        /* \"#utility.yul\":5737:5746   */\n      dup4\n        /* \"#utility.yul\":5733:5750   */\n      add\n        /* \"#utility.yul\":5726:5773   */\n      mstore\n        /* \"#utility.yul\":5790:5921   */\n      tag_206\n        /* \"#utility.yul\":5916:5920   */\n      dup2\n        /* \"#utility.yul\":5790:5921   */\n      tag_173\n      jump\t// in\n    tag_206:\n        /* \"#utility.yul\":5782:5921   */\n      swap1\n      pop\n        /* \"#utility.yul\":5509:5928   */\n      swap2\n      swap1\n      pop\n      jump\t// out\n        /* \"#utility.yul\":5934:6353   */\n    tag_106:\n        /* \"#utility.yul\":6100:6104   */\n      0x00\n        /* \"#utility.yul\":6138:6140   */\n      0x20\n        /* \"#utility.yul\":6127:6136   */\n      dup3\n        /* \"#utility.yul\":6123:6141   */\n      add\n        /* \"#utility.yul\":6115:6141   */\n      swap1\n      pop\n        /* \"#utility.yul\":6187:6196   */\n      dup2\n        /* \"#utility.yul\":6181:6185   */\n      dup2\n        /* \"#utility.yul\":6177:6197   */\n      sub\n        /* \"#utility.yul\":6173:6174   */\n      0x00\n        /* \"#utility.yul\":6162:6171   */\n      dup4\n        /* \"#utility.yul\":6158:6175   */\n      add\n        /* \"#utility.yul\":6151:6198   */\n      mstore\n        /* \"#utility.yul\":6215:6346   */\n      tag_208\n        /* \"#utility.yul\":6341:6345   */\n      dup2\n        /* \"#utility.yul\":6215:6346   */\n      tag_178\n      jump\t// in\n    tag_208:\n        /* \"#utility.yul\":6207:6346   */\n      swap1\n      pop\n        /* \"#utility.yul\":5934:6353   */\n      swap2\n      swap1\n      pop\n      jump\t// out\n        /* \"#utility.yul\":6359:6778   */\n    tag_77:\n        /* \"#utility.yul\":6525:6529   */\n      0x00\n        /* \"#utility.yul\":6563:6565   */\n      0x20\n        /* \"#utility.yul\":6552:6561   */\n      dup3\n        /* \"#utility.yul\":6548:6566   */\n      add\n        /* \"#utility.yul\":6540:6566   */\n      swap1\n      pop\n        /* \"#utility.yul\":6612:6621   */\n      dup2\n        /* \"#utility.yul\":6606:6610   */\n      dup2\n        /* \"#utility.yul\":6602:6622   */\n      sub\n        /* \"#utility.yul\":6598:6599   */\n      0x00\n        /* \"#utility.yul\":6587:6596   */\n      dup4\n        /* \"#utility.yul\":6583:6600   */\n      add\n        /* \"#utility.yul\":6576:6623   */\n      mstore\n        /* \"#utility.yul\":6640:6771   */\n      tag_210\n        /* \"#utility.yul\":6766:6770   */\n      dup2\n        /* \"#utility.yul\":6640:6771   */\n      tag_183\n      jump\t// in\n    tag_210:\n        /* \"#utility.yul\":6632:6771   */\n      swap1\n      pop\n        /* \"#utility.yul\":6359:6778   */\n      swap2\n      swap1\n      pop\n      jump\t// out\n        /* \"#utility.yul\":6784:7203   */\n    tag_66:\n        /* \"#utility.yul\":6950:6954   */\n      0x00\n        /* \"#utility.yul\":6988:6990   */\n      0x20\n        /* \"#utility.yul\":6977:6986   */\n      dup3\n        /* \"#utility.yul\":6973:6991   */\n      add\n        /* \"#utility.yul\":6965:6991   */\n      swap1\n      pop\n        /* \"#utility.yul\":7037:7046   */\n      dup2\n        /* \"#utility.yul\":7031:7035   */\n      dup2\n        /* \"#utility.yul\":7027:7047   */\n      sub\n        /* \"#utility.yul\":7023:7024   */\n      0x00\n        /* \"#utility.yul\":7012:7021   */\n      dup4\n        /* \"#utility.yul\":7008:7025   */\n      add\n        /* \"#utility.yul\":7001:7048   */\n      mstore\n        /* \"#utility.yul\":7065:7196   */\n      tag_212\n        /* \"#utility.yul\":7191:7195   */\n      dup2\n        /* \"#utility.yul\":7065:7196   */\n      tag_188\n      jump\t// in\n    tag_212:\n        /* \"#utility.yul\":7057:7196   */\n      swap1\n      pop\n        /* \"#utility.yul\":6784:7203   */\n      swap2\n      swap1\n      pop\n      jump\t// out\n        /* \"#utility.yul\":7290:7389   */\n    tag_161:\n        /* \"#utility.yul\":7342:7348   */\n      0x00\n        /* \"#utility.yul\":7376:7381   */\n      dup2\n        /* \"#utility.yul\":7370:7382   */\n      mload\n        /* \"#utility.yul\":7360:7382   */\n      swap1\n      pop\n        /* \"#utility.yul\":7290:7389   */\n      swap2\n      swap1\n      pop\n      jump\t// out\n        /* \"#utility.yul\":7395:7564   */\n    tag_163:\n        /* \"#utility.yul\":7479:7490   */\n      0x00\n        /* \"#utility.yul\":7513:7519   */\n      dup3\n        /* \"#utility.yul\":7508:7511   */\n      dup3\n        /* \"#utility.yul\":7501:7520   */\n      mstore\n        /* \"#utility.yul\":7553:7557   */\n      0x20\n        /* \"#utility.yul\":7548:7551   */\n      dup3\n        /* \"#utility.yul\":7544:7558   */\n      add\n        /* \"#utility.yul\":7529:7558   */\n      swap1\n      pop\n        /* \"#utility.yul\":7395:7564   */\n      swap3\n      swap2\n      pop\n      pop\n      jump\t// out\n        /* \"#utility.yul\":7570:7666   */\n    tag_145:\n        /* \"#utility.yul\":7607:7614   */\n      0x00\n        /* \"#utility.yul\":7636:7660   */\n      tag_218\n        /* \"#utility.yul\":7654:7659   */\n      dup3\n        /* \"#utility.yul\":7636:7660   */\n      tag_219\n      jump\t// in\n    tag_218:\n        /* \"#utility.yul\":7625:7660   */\n      swap1\n      pop\n        /* \"#utility.yul\":7570:7666   */\n      swap2\n      swap1\n      pop\n      jump\t// out\n        /* \"#utility.yul\":7672:7762   */\n    tag_149:\n        /* \"#utility.yul\":7706:7713   */\n      0x00\n        /* \"#utility.yul\":7749:7754   */\n      dup2\n        /* \"#utility.yul\":7742:7755   */\n      iszero\n        /* \"#utility.yul\":7735:7756   */\n      iszero\n        /* \"#utility.yul\":7724:7756   */\n      swap1\n      pop\n        /* \"#utility.yul\":7672:7762   */\n      swap2\n      swap1\n      pop\n      jump\t// out\n        /* \"#utility.yul\":7768:7915   */\n    tag_221:\n        /* \"#utility.yul\":7823:7830   */\n      0x00\n        /* \"#utility.yul\":7852:7857   */\n      dup2\n        /* \"#utility.yul\":7841:7857   */\n      swap1\n      pop\n        /* \"#utility.yul\":7858:7909   */\n      tag_223\n        /* \"#utility.yul\":7903:7908   */\n      dup3\n        /* \"#utility.yul\":7858:7909   */\n      tag_224\n      jump\t// in\n    tag_223:\n        /* \"#utility.yul\":7768:7915   */\n      swap2\n      swap1\n      pop\n      jump\t// out\n        /* \"#utility.yul\":7921:8046   */\n    tag_225:\n        /* \"#utility.yul\":7965:7972   */\n      0x00\n        /* \"#utility.yul\":7994:7999   */\n      dup2\n        /* \"#utility.yul\":7983:7999   */\n      swap1\n      pop\n        /* \"#utility.yul\":8000:8040   */\n      tag_227\n        /* \"#utility.yul\":8034:8039   */\n      dup3\n        /* \"#utility.yul\":8000:8040   */\n      tag_228\n      jump\t// in\n    tag_227:\n        /* \"#utility.yul\":7921:8046   */\n      swap2\n      swap1\n      pop\n      jump\t// out\n        /* \"#utility.yul\":8052:8178   */\n    tag_219:\n        /* \"#utility.yul\":8089:8096   */\n      0x00\n        /* \"#utility.yul\":8129:8171   */\n      0xffffffffffffffffffffffffffffffffffffffff\n        /* \"#utility.yul\":8122:8127   */\n      dup3\n        /* \"#utility.yul\":8118:8172   */\n      and\n        /* \"#utility.yul\":8107:8172   */\n      swap1\n      pop\n        /* \"#utility.yul\":8052:8178   */\n      swap2\n      swap1\n      pop\n      jump\t// out\n        /* \"#utility.yul\":8184:8331   */\n    tag_153:\n        /* \"#utility.yul\":8250:8259   */\n      0x00\n        /* \"#utility.yul\":8283:8325   */\n      tag_231\n        /* \"#utility.yul\":8319:8324   */\n      dup3\n        /* \"#utility.yul\":8283:8325   */\n      tag_221\n      jump\t// in\n    tag_231:\n        /* \"#utility.yul\":8270:8325   */\n      swap1\n      pop\n        /* \"#utility.yul\":8184:8331   */\n      swap2\n      swap1\n      pop\n      jump\t// out\n        /* \"#utility.yul\":8337:8462   */\n    tag_157:\n        /* \"#utility.yul\":8392:8401   */\n      0x00\n        /* \"#utility.yul\":8425:8456   */\n      tag_233\n        /* \"#utility.yul\":8450:8455   */\n      dup3\n        /* \"#utility.yul\":8425:8456   */\n      tag_225\n      jump\t// in\n    tag_233:\n        /* \"#utility.yul\":8412:8456   */\n      swap1\n      pop\n        /* \"#utility.yul\":8337:8462   */\n      swap2\n      swap1\n      pop\n      jump\t// out\n        /* \"#utility.yul\":8468:8775   */\n    tag_165:\n        /* \"#utility.yul\":8536:8537   */\n      0x00\n        /* \"#utility.yul\":8546:8659   */\n    tag_235:\n        /* \"#utility.yul\":8560:8566   */\n      dup4\n        /* \"#utility.yul\":8557:8558   */\n      dup2\n        /* \"#utility.yul\":8554:8567   */\n      lt\n        /* \"#utility.yul\":8546:8659   */\n      iszero\n      tag_237\n      jumpi\n        /* \"#utility.yul\":8645:8646   */\n      dup1\n        /* \"#utility.yul\":8640:8643   */\n      dup3\n        /* \"#utility.yul\":8636:8647   */\n      add\n        /* \"#utility.yul\":8630:8648   */\n      mload\n        /* \"#utility.yul\":8626:8627   */\n      dup2\n        /* \"#utility.yul\":8621:8624   */\n      dup5\n        /* \"#utility.yul\":8617:8628   */\n      add\n        /* \"#utility.yul\":8610:8649   */\n      mstore\n        /* \"#utility.yul\":8582:8584   */\n      0x20\n        /* \"#utility.yul\":8579:8580   */\n      dup2\n        /* \"#utility.yul\":8575:8585   */\n      add\n        /* \"#utility.yul\":8570:8585   */\n      swap1\n      pop\n        /* \"#utility.yul\":8546:8659   */\n      jump(tag_235)\n    tag_237:\n        /* \"#utility.yul\":8677:8683   */\n      dup4\n        /* \"#utility.yul\":8674:8675   */\n      dup2\n        /* \"#utility.yul\":8671:8684   */\n      gt\n        /* \"#utility.yul\":8668:8769   */\n      iszero\n      tag_238\n      jumpi\n        /* \"#utility.yul\":8757:8758   */\n      0x00\n        /* \"#utility.yul\":8748:8754   */\n      dup5\n        /* \"#utility.yul\":8743:8746   */\n      dup5\n        /* \"#utility.yul\":8739:8755   */\n      add\n        /* \"#utility.yul\":8732:8759   */\n      mstore\n        /* \"#utility.yul\":8668:8769   */\n    tag_238:\n        /* \"#utility.yul\":8517:8775   */\n      pop\n        /* \"#utility.yul\":8468:8775   */\n      pop\n      pop\n      pop\n      jump\t// out\n        /* \"#utility.yul\":8781:9101   */\n    tag_58:\n        /* \"#utility.yul\":8825:8831   */\n      0x00\n        /* \"#utility.yul\":8862:8863   */\n      0x02\n        /* \"#utility.yul\":8856:8860   */\n      dup3\n        /* \"#utility.yul\":8852:8864   */\n      div\n        /* \"#utility.yul\":8842:8864   */\n      swap1\n      pop\n        /* \"#utility.yul\":8909:8910   */\n      0x01\n        /* \"#utility.yul\":8903:8907   */\n      dup3\n        /* \"#utility.yul\":8899:8911   */\n      and\n        /* \"#utility.yul\":8930:8948   */\n      dup1\n        /* \"#utility.yul\":8920:9001   */\n      tag_240\n      jumpi\n        /* \"#utility.yul\":8986:8990   */\n      0x7f\n        /* \"#utility.yul\":8978:8984   */\n      dup3\n        /* \"#utility.yul\":8974:8991   */\n      and\n        /* \"#utility.yul\":8964:8991   */\n      swap2\n      pop\n        /* \"#utility.yul\":8920:9001   */\n    tag_240:\n        /* \"#utility.yul\":9048:9050   */\n      0x20\n        /* \"#utility.yul\":9040:9046   */\n      dup3\n        /* \"#utility.yul\":9037:9051   */\n      lt\n        /* \"#utility.yul\":9017:9035   */\n      dup2\n        /* \"#utility.yul\":9014:9052   */\n      eq\n        /* \"#utility.yul\":9011:9095   */\n      iszero\n      tag_241\n      jumpi\n        /* \"#utility.yul\":9067:9085   */\n      tag_242\n      tag_243\n      jump\t// in\n    tag_242:\n        /* \"#utility.yul\":9011:9095   */\n    tag_241:\n        /* \"#utility.yul\":8832:9101   */\n      pop\n        /* \"#utility.yul\":8781:9101   */\n      swap2\n      swap1\n      pop\n      jump\t// out\n        /* \"#utility.yul\":9107:9287   */\n    tag_72:\n        /* \"#utility.yul\":9155:9232   */\n      0x4e487b7100000000000000000000000000000000000000000000000000000000\n        /* \"#utility.yul\":9152:9153   */\n      0x00\n        /* \"#utility.yul\":9145:9233   */\n      mstore\n        /* \"#utility.yul\":9252:9256   */\n      0x21\n        /* \"#utility.yul\":9249:9250   */\n      0x04\n        /* \"#utility.yul\":9242:9257   */\n      mstore\n        /* \"#utility.yul\":9276:9280   */\n      0x24\n        /* \"#utility.yul\":9273:9274   */\n      0x00\n        /* \"#utility.yul\":9266:9281   */\n      revert\n        /* \"#utility.yul\":9293:9473   */\n    tag_243:\n        /* \"#utility.yul\":9341:9418   */\n      0x4e487b7100000000000000000000000000000000000000000000000000000000\n        /* \"#utility.yul\":9338:9339   */\n      0x00\n        /* \"#utility.yul\":9331:9419   */\n      mstore\n        /* \"#utility.yul\":9438:9442   */\n      0x22\n        /* \"#utility.yul\":9435:9436   */\n      0x04\n        /* \"#utility.yul\":9428:9443   */\n      mstore\n        /* \"#utility.yul\":9462:9466   */\n      0x24\n        /* \"#utility.yul\":9459:9460   */\n      0x00\n        /* \"#utility.yul\":9452:9467   */\n      revert\n        /* \"#utility.yul\":9602:9719   */\n    tag_136:\n        /* \"#utility.yul\":9711:9712   */\n      0x00\n        /* \"#utility.yul\":9708:9709   */\n      dup1\n        /* \"#utility.yul\":9701:9713   */\n      revert\n        /* \"#utility.yul\":9725:9827   */\n    tag_167:\n        /* \"#utility.yul\":9766:9772   */\n      0x00\n        /* \"#utility.yul\":9817:9819   */\n      0x1f\n        /* \"#utility.yul\":9813:9820   */\n      not\n        /* \"#utility.yul\":9808:9810   */\n      0x1f\n        /* \"#utility.yul\":9801:9806   */\n      dup4\n        /* \"#utility.yul\":9797:9811   */\n      add\n        /* \"#utility.yul\":9793:9821   */\n      and\n        /* \"#utility.yul\":9783:9821   */\n      swap1\n      pop\n        /* \"#utility.yul\":9725:9827   */\n      swap2\n      swap1\n      pop\n      jump\t// out\n        /* \"#utility.yul\":9833:10005   */\n    tag_172:\n        /* \"#utility.yul\":9973:9997   */\n      0x4e6f742074686520726967687420686f73706974616c00000000000000000000\n        /* \"#utility.yul\":9969:9970   */\n      0x00\n        /* \"#utility.yul\":9961:9967   */\n      dup3\n        /* \"#utility.yul\":9957:9971   */\n      add\n        /* \"#utility.yul\":9950:9998   */\n      mstore\n        /* \"#utility.yul\":9833:10005   */\n      pop\n      jump\t// out\n        /* \"#utility.yul\":10011:10170   */\n    tag_177:\n        /* \"#utility.yul\":10151:10162   */\n      0x4e6f742072656164790000000000000000000000000000000000000000000000\n        /* \"#utility.yul\":10147:10148   */\n      0x00\n        /* \"#utility.yul\":10139:10145   */\n      dup3\n        /* \"#utility.yul\":10135:10149   */\n      add\n        /* \"#utility.yul\":10128:10163   */\n      mstore\n        /* \"#utility.yul\":10011:10170   */\n      pop\n      jump\t// out\n        /* \"#utility.yul\":10176:10343   */\n    tag_182:\n        /* \"#utility.yul\":10316:10335   */\n      0x4e6f7420696e2070726f64756374696f6e000000000000000000000000000000\n        /* \"#utility.yul\":10312:10313   */\n      0x00\n        /* \"#utility.yul\":10304:10310   */\n      dup3\n        /* \"#utility.yul\":10300:10314   */\n      add\n        /* \"#utility.yul\":10293:10336   */\n      mstore\n        /* \"#utility.yul\":10176:10343   */\n      pop\n      jump\t// out\n        /* \"#utility.yul\":10349:10525   */\n    tag_187:\n        /* \"#utility.yul\":10489:10517   */\n      0x5374696c6c2077616974696e6720666f722064656c6976657279000000000000\n        /* \"#utility.yul\":10485:10486   */\n      0x00\n        /* \"#utility.yul\":10477:10483   */\n      dup3\n        /* \"#utility.yul\":10473:10487   */\n      add\n        /* \"#utility.yul\":10466:10518   */\n      mstore\n        /* \"#utility.yul\":10349:10525   */\n      pop\n      jump\t// out\n        /* \"#utility.yul\":10531:10703   */\n    tag_192:\n        /* \"#utility.yul\":10671:10695   */\n      0x20596f7520617265206e6f7420746865206f776e657200000000000000000000\n        /* \"#utility.yul\":10667:10668   */\n      0x00\n        /* \"#utility.yul\":10659:10665   */\n      dup3\n        /* \"#utility.yul\":10655:10669   */\n      add\n        /* \"#utility.yul\":10648:10696   */\n      mstore\n        /* \"#utility.yul\":10531:10703   */\n      pop\n      jump\t// out\n        /* \"#utility.yul\":10709:10832   */\n    tag_224:\n        /* \"#utility.yul\":10800:10801   */\n      0x04\n        /* \"#utility.yul\":10793:10798   */\n      dup2\n        /* \"#utility.yul\":10790:10802   */\n      lt\n        /* \"#utility.yul\":10780:10826   */\n      tag_256\n      jumpi\n        /* \"#utility.yul\":10806:10824   */\n      tag_257\n      tag_72\n      jump\t// in\n    tag_257:\n        /* \"#utility.yul\":10780:10826   */\n    tag_256:\n        /* \"#utility.yul\":10709:10832   */\n      pop\n      jump\t// out\n        /* \"#utility.yul\":10838:10950   */\n    tag_228:\n        /* \"#utility.yul\":10918:10919   */\n      0x05\n        /* \"#utility.yul\":10911:10916   */\n      dup2\n        /* \"#utility.yul\":10908:10920   */\n      lt\n        /* \"#utility.yul\":10898:10944   */\n      tag_259\n      jumpi\n        /* \"#utility.yul\":10924:10942   */\n      tag_260\n      tag_72\n      jump\t// in\n    tag_260:\n        /* \"#utility.yul\":10898:10944   */\n    tag_259:\n        /* \"#utility.yul\":10838:10950   */\n      pop\n      jump\t// out\n        /* \"#utility.yul\":10956:11078   */\n    tag_128:\n        /* \"#utility.yul\":11029:11053   */\n      tag_262\n        /* \"#utility.yul\":11047:11052   */\n      dup2\n        /* \"#utility.yul\":11029:11053   */\n      tag_145\n      jump\t// in\n    tag_262:\n        /* \"#utility.yul\":11022:11027   */\n      dup2\n        /* \"#utility.yul\":11019:11054   */\n      eq\n        /* \"#utility.yul\":11009:11072   */\n      tag_263\n      jumpi\n        /* \"#utility.yul\":11068:11069   */\n      0x00\n        /* \"#utility.yul\":11065:11066   */\n      dup1\n        /* \"#utility.yul\":11058:11070   */\n      revert\n        /* \"#utility.yul\":11009:11072   */\n    tag_263:\n        /* \"#utility.yul\":10956:11078   */\n      pop\n      jump\t// out\n        /* \"#utility.yul\":11084:11201   */\n    tag_132:\n        /* \"#utility.yul\":11175:11176   */\n      0x04\n        /* \"#utility.yul\":11168:11173   */\n      dup2\n        /* \"#utility.yul\":11165:11177   */\n      lt\n        /* \"#utility.yul\":11155:11195   */\n      tag_265\n      jumpi\n        /* \"#utility.yul\":11191:11192   */\n      0x00\n        /* \"#utility.yul\":11188:11189   */\n      dup1\n        /* \"#utility.yul\":11181:11193   */\n      revert\n        /* \"#utility.yul\":11155:11195   */\n    tag_265:\n        /* \"#utility.yul\":11084:11201   */\n      pop\n      jump\t// out\n\n    auxdata: 0xa264697066735822122046632ca84e03f174760329cae9fda4d94199f7156cc14e97030cc649580d4d1464736f6c63430008070033\n}\n",
				"bytecode": {
					"linkReferences": {},
					"object": "60806040526040518060400160405280600981526020017f436f7669642056617800000000000000000000000000000000000000000000008152506000908051906020019062000051929190620001d9565b503480156200005f57600080fd5b50604051620013b8380380620013b88339818101604052810190620000859190620002a0565b33600260006101000a81548173ffffffffffffffffffffffffffffffffffffffff021916908373ffffffffffffffffffffffffffffffffffffffff16021790555081600160006101000a81548173ffffffffffffffffffffffffffffffffffffffff021916908373ffffffffffffffffffffffffffffffffffffffff16021790555080600360006101000a81548173ffffffffffffffffffffffffffffffffffffffff021916908373ffffffffffffffffffffffffffffffffffffffff1602179055506000600560006101000a81548160ff021916908360048111156200017157620001706200037f565b5b02179055507f400153a8cebbd91509d8511ec62d3fe08eac19a7afab5e61a723c0860db23520600260009054906101000a900473ffffffffffffffffffffffffffffffffffffffff16604051620001c99190620002f8565b60405180910390a15050620003fc565b828054620001e79062000349565b90600052602060002090601f0160209004810192826200020b576000855562000257565b82601f106200022657805160ff191683800117855562000257565b8280016001018555821562000257579182015b828111156200025657825182559160200191906001019062000239565b5b5090506200026691906200026a565b5090565b5b80821115620002855760008160009055506001016200026b565b5090565b6000815190506200029a81620003e2565b92915050565b60008060408385031215620002ba57620002b9620003dd565b5b6000620002ca8582860162000289565b9250506020620002dd8582860162000289565b9150509250929050565b620002f28162000315565b82525050565b60006020820190506200030f6000830184620002e7565b92915050565b6000620003228262000329565b9050919050565b600073ffffffffffffffffffffffffffffffffffffffff82169050919050565b600060028204905060018216806200036257607f821691505b60208210811415620003795762000378620003ae565b5b50919050565b7f4e487b7100000000000000000000000000000000000000000000000000000000600052602160045260246000fd5b7f4e487b7100000000000000000000000000000000000000000000000000000000600052602260045260246000fd5b600080fd5b620003ed8162000315565b8114620003f957600080fd5b50565b610fac806200040c6000396000f3fe608060405234801561001057600080fd5b50600436106100b45760003560e01c8063aa2fedde11610071578063aa2fedde14610155578063b6c859bf14610173578063b7c779f41461017d578063bf9ce95214610187578063e25fe175146101a5578063e8950c0f146101c3576100b4565b80630fc8f82a146100b957806311e760dc146100d75780631fe49587146100f557806336da4468146101115780633d5a70c21461012f578063a72e783b14610139575b600080fd5b6100c16101f3565b6040516100ce9190610c1b565b60405180910390f35b6100df610281565b6040516100ec9190610be5565b60405180910390f35b61010f600480360381019061010a9190610a31565b610294565b005b6101196103b6565b6040516101269190610baf565b60405180910390f35b6101376103dc565b005b610153600480360381019061014e9190610a5e565b610546565b005b61015d6106b1565b60405161016a9190610baf565b60405180910390f35b61017b6106d7565b005b610185610841565b005b61018f6109ae565b60405161019c9190610baf565b60405180910390f35b6101ad6109d4565b6040516101ba9190610c00565b60405180910390f35b6101dd60048036038101906101d89190610a31565b6109e7565b6040516101ea9190610bca565b60405180910390f35b6000805461020090610db4565b80601f016020809104026020016040519081016040528092919081815260200182805461022c90610db4565b80156102795780601f1061024e57610100808354040283529160200191610279565b820191906000526020600020905b81548152906001019060200180831161025c57829003601f168201915b505050505081565b600560019054906101000a900460ff1681565b600260009054906101000a900473ffffffffffffffffffffffffffffffffffffffff1673ffffffffffffffffffffffffffffffffffffffff163373ffffffffffffffffffffffffffffffffffffffff1614610324576040517f08c379a000000000000000000000000000000000000000000000000000000000815260040161031b90610cbd565b60405180910390fd5b6001600460008373ffffffffffffffffffffffffffffffffffffffff1673ffffffffffffffffffffffffffffffffffffffff16815260200190815260200160002060006101000a81548160ff0219169083151502179055507f400153a8cebbd91509d8511ec62d3fe08eac19a7afab5e61a723c0860db23520336040516103ab9190610baf565b60405180910390a150565b600260009054906101000a900473ffffffffffffffffffffffffffffffffffffffff1681565b600260048111156103f0576103ef610de6565b5b600560009054906101000a900460ff16600481111561041257610411610de6565b5b14610452576040517f08c379a000000000000000000000000000000000000000000000000000000000815260040161044990610c9d565b60405180910390fd5b600360009054906101000a900473ffffffffffffffffffffffffffffffffffffffff1673ffffffffffffffffffffffffffffffffffffffff163373ffffffffffffffffffffffffffffffffffffffff16146104e2576040517f08c379a00000000000000000000000000000000000000000000000000000000081526004016104d990610c3d565b60405180910390fd5b6003600560006101000a81548160ff0219169083600481111561050857610507610de6565b5b02179055507f400153a8cebbd91509d8511ec62d3fe08eac19a7afab5e61a723c0860db235203360405161053c9190610baf565b60405180910390a1565b6003600481111561055a57610559610de6565b5b600560009054906101000a900460ff16600481111561057c5761057b610de6565b5b146105bc576040517f08c379a00000000000000000000000000000000000000000000000000000000081526004016105b390610c9d565b60405180910390fd5b600360009054906101000a900473ffffffffffffffffffffffffffffffffffffffff1673ffffffffffffffffffffffffffffffffffffffff163373ffffffffffffffffffffffffffffffffffffffff161461064c576040517f08c379a000000000000000000000000000000000000000000000000000000000815260040161064390610c3d565b60405180910390fd5b6004600560006101000a81548160ff0219169083600481111561067257610671610de6565b5b02179055507f400153a8cebbd91509d8511ec62d3fe08eac19a7afab5e61a723c0860db23520336040516106a69190610baf565b60405180910390a150565b600360009054906101000a900473ffffffffffffffffffffffffffffffffffffffff1681565b600260009054906101000a900473ffffffffffffffffffffffffffffffffffffffff1673ffffffffffffffffffffffffffffffffffffffff163373ffffffffffffffffffffffffffffffffffffffff1614610767576040517f08c379a000000000000000000000000000000000000000000000000000000000815260040161075e90610cbd565b60405180910390fd5b6000600481111561077b5761077a610de6565b5b600560009054906101000a900460ff16600481111561079d5761079c610de6565b5b146107dd576040517f08c379a00000000000000000000000000000000000000000000000000000000081526004016107d490610c7d565b60405180910390fd5b6001600560006101000a81548160ff0219169083600481111561080357610802610de6565b5b02179055507f400153a8cebbd91509d8511ec62d3fe08eac19a7afab5e61a723c0860db23520336040516108379190610baf565b60405180910390a1565b60011515600460003373ffffffffffffffffffffffffffffffffffffffff1673ffffffffffffffffffffffffffffffffffffffff16815260200190815260200160002060009054906101000a900460ff161515146108d4576040517f08c379a00000000000000000000000000000000000000000000000000000000081526004016108cb90610cbd565b60405180910390fd5b600160048111156108e8576108e7610de6565b5b600560009054906101000a900460ff16600481111561090a57610909610de6565b5b1461094a576040517f08c379a000000000000000000000000000000000000000000000000000000000815260040161094190610c5d565b60405180910390fd5b6002600560006101000a81548160ff021916908360048111156109705761096f610de6565b5b02179055507ffb229d12ab26294bc680d0ad524e4315a0ce05f84a2b75c4c7a0da7f1c0b1343336040516109a49190610baf565b60405180910390a1565b600160009054906101000a900473ffffffffffffffffffffffffffffffffffffffff1681565b600560009054906101000a900460ff1681565b60046020528060005260406000206000915054906101000a900460ff1681565b600081359050610a1681610f4f565b92915050565b600081359050610a2b81610f66565b92915050565b600060208284031215610a4757610a46610e44565b5b6000610a5584828501610a07565b91505092915050565b600060208284031215610a7457610a73610e44565b5b6000610a8284828501610a1c565b91505092915050565b610a9481610cf9565b82525050565b610aa381610d0b565b82525050565b610ab281610d5d565b82525050565b610ac181610d6f565b82525050565b6000610ad282610cdd565b610adc8185610ce8565b9350610aec818560208601610d81565b610af581610e49565b840191505092915050565b6000610b0d601683610ce8565b9150610b1882610e5a565b602082019050919050565b6000610b30600983610ce8565b9150610b3b82610e83565b602082019050919050565b6000610b53601183610ce8565b9150610b5e82610eac565b602082019050919050565b6000610b76601a83610ce8565b9150610b8182610ed5565b602082019050919050565b6000610b99601683610ce8565b9150610ba482610efe565b602082019050919050565b6000602082019050610bc46000830184610a8b565b92915050565b6000602082019050610bdf6000830184610a9a565b92915050565b6000602082019050610bfa6000830184610aa9565b92915050565b6000602082019050610c156000830184610ab8565b92915050565b60006020820190508181036000830152610c358184610ac7565b905092915050565b60006020820190508181036000830152610c5681610b00565b9050919050565b60006020820190508181036000830152610c7681610b23565b9050919050565b60006020820190508181036000830152610c9681610b46565b9050919050565b60006020820190508181036000830152610cb681610b69565b9050919050565b60006020820190508181036000830152610cd681610b8c565b9050919050565b600081519050919050565b600082825260208201905092915050565b6000610d0482610d3d565b9050919050565b60008115159050919050565b6000819050610d2582610f27565b919050565b6000819050610d3882610f3b565b919050565b600073ffffffffffffffffffffffffffffffffffffffff82169050919050565b6000610d6882610d17565b9050919050565b6000610d7a82610d2a565b9050919050565b60005b83811015610d9f578082015181840152602081019050610d84565b83811115610dae576000848401525b50505050565b60006002820490506001821680610dcc57607f821691505b60208210811415610de057610ddf610e15565b5b50919050565b7f4e487b7100000000000000000000000000000000000000000000000000000000600052602160045260246000fd5b7f4e487b7100000000000000000000000000000000000000000000000000000000600052602260045260246000fd5b600080fd5b6000601f19601f8301169050919050565b7f4e6f742074686520726967687420686f73706974616c00000000000000000000600082015250565b7f4e6f742072656164790000000000000000000000000000000000000000000000600082015250565b7f4e6f7420696e2070726f64756374696f6e000000000000000000000000000000600082015250565b7f5374696c6c2077616974696e6720666f722064656c6976657279000000000000600082015250565b7f20596f7520617265206e6f7420746865206f776e657200000000000000000000600082015250565b60048110610f3857610f37610de6565b5b50565b60058110610f4c57610f4b610de6565b5b50565b610f5881610cf9565b8114610f6357600080fd5b50565b60048110610f7357600080fd5b5056fea264697066735822122046632ca84e03f174760329cae9fda4d94199f7156cc14e97030cc649580d4d1464736f6c63430008070033",
					"opcodes": "PUSH1 0x80 PUSH1 0x40 MSTORE PUSH1 0x40 MLOAD DUP1 PUSH1 0x40 ADD PUSH1 0x40 MSTORE DUP1 PUSH1 0x9 DUP2 MSTORE PUSH1 0x20 ADD PUSH32 0x436F766964205661780000000000000000000000000000000000000000000000 DUP2 MSTORE POP PUSH1 0x0 SWAP1 DUP1 MLOAD SWAP1 PUSH1 0x20 ADD SWAP1 PUSH3 0x51 SWAP3 SWAP2 SWAP1 PUSH3 0x1D9 JUMP JUMPDEST POP CALLVALUE DUP1 ISZERO PUSH3 0x5F JUMPI PUSH1 0x0 DUP1 REVERT JUMPDEST POP PUSH1 0x40 MLOAD PUSH3 0x13B8 CODESIZE SUB DUP1 PUSH3 0x13B8 DUP4 CODECOPY DUP2 DUP2 ADD PUSH1 0x40 MSTORE DUP2 ADD SWAP1 PUSH3 0x85 SWAP2 SWAP1 PUSH3 0x2A0 JUMP JUMPDEST CALLER PUSH1 0x2 PUSH1 0x0 PUSH2 0x100 EXP DUP2 SLOAD DUP2 PUSH20 0xFFFFFFFFFFFFFFFFFFFFFFFFFFFFFFFFFFFFFFFF MUL NOT AND SWAP1 DUP4 PUSH20 0xFFFFFFFFFFFFFFFFFFFFFFFFFFFFFFFFFFFFFFFF AND MUL OR SWAP1 SSTORE POP DUP2 PUSH1 0x1 PUSH1 0x0 PUSH2 0x100 EXP DUP2 SLOAD DUP2 PUSH20 0xFFFFFFFFFFFFFFFFFFFFFFFFFFFFFFFFFFFFFFFF MUL NOT AND SWAP1 DUP4 PUSH20 0xFFFFFFFFFFFFFFFFFFFFFFFFFFFFFFFFFFFFFFFF AND MUL OR SWAP1 SSTORE POP DUP1 PUSH1 0x3 PUSH1 0x0 PUSH2 0x100 EXP DUP2 SLOAD DUP2 PUSH20 0xFFFFFFFFFFFFFFFFFFFFFFFFFFFFFFFFFFFFFFFF MUL NOT AND SWAP1 DUP4 PUSH20 0xFFFFFFFFFFFFFFFFFFFFFFFFFFFFFFFFFFFFFFFF AND MUL OR SWAP1 SSTORE POP PUSH1 0x0 PUSH1 0x5 PUSH1 0x0 PUSH2 0x100 EXP DUP2 SLOAD DUP2 PUSH1 0xFF MUL NOT AND SWAP1 DUP4 PUSH1 0x4 DUP2 GT ISZERO PUSH3 0x171 JUMPI PUSH3 0x170 PUSH3 0x37F JUMP JUMPDEST JUMPDEST MUL OR SWAP1 SSTORE POP PUSH32 0x400153A8CEBBD91509D8511EC62D3FE08EAC19A7AFAB5E61A723C0860DB23520 PUSH1 0x2 PUSH1 0x0 SWAP1 SLOAD SWAP1 PUSH2 0x100 EXP SWAP1 DIV PUSH20 0xFFFFFFFFFFFFFFFFFFFFFFFFFFFFFFFFFFFFFFFF AND PUSH1 0x40 MLOAD PUSH3 0x1C9 SWAP2 SWAP1 PUSH3 0x2F8 JUMP JUMPDEST PUSH1 0x40 MLOAD DUP1 SWAP2 SUB SWAP1 LOG1 POP POP PUSH3 0x3FC JUMP JUMPDEST DUP3 DUP1 SLOAD PUSH3 0x1E7 SWAP1 PUSH3 0x349 JUMP JUMPDEST SWAP1 PUSH1 0x0 MSTORE PUSH1 0x20 PUSH1 0x0 KECCAK256 SWAP1 PUSH1 0x1F ADD PUSH1 0x20 SWAP1 DIV DUP2 ADD SWAP3 DUP3 PUSH3 0x20B JUMPI PUSH1 0x0 DUP6 SSTORE PUSH3 0x257 JUMP JUMPDEST DUP3 PUSH1 0x1F LT PUSH3 0x226 JUMPI DUP1 MLOAD PUSH1 0xFF NOT AND DUP4 DUP1 ADD OR DUP6 SSTORE PUSH3 0x257 JUMP JUMPDEST DUP3 DUP1 ADD PUSH1 0x1 ADD DUP6 SSTORE DUP3 ISZERO PUSH3 0x257 JUMPI SWAP2 DUP3 ADD JUMPDEST DUP3 DUP2 GT ISZERO PUSH3 0x256 JUMPI DUP3 MLOAD DUP3 SSTORE SWAP2 PUSH1 0x20 ADD SWAP2 SWAP1 PUSH1 0x1 ADD SWAP1 PUSH3 0x239 JUMP JUMPDEST JUMPDEST POP SWAP1 POP PUSH3 0x266 SWAP2 SWAP1 PUSH3 0x26A JUMP JUMPDEST POP SWAP1 JUMP JUMPDEST JUMPDEST DUP1 DUP3 GT ISZERO PUSH3 0x285 JUMPI PUSH1 0x0 DUP2 PUSH1 0x0 SWAP1 SSTORE POP PUSH1 0x1 ADD PUSH3 0x26B JUMP JUMPDEST POP SWAP1 JUMP JUMPDEST PUSH1 0x0 DUP2 MLOAD SWAP1 POP PUSH3 0x29A DUP2 PUSH3 0x3E2 JUMP JUMPDEST SWAP3 SWAP2 POP POP JUMP JUMPDEST PUSH1 0x0 DUP1 PUSH1 0x40 DUP4 DUP6 SUB SLT ISZERO PUSH3 0x2BA JUMPI PUSH3 0x2B9 PUSH3 0x3DD JUMP JUMPDEST JUMPDEST PUSH1 0x0 PUSH3 0x2CA DUP6 DUP3 DUP7 ADD PUSH3 0x289 JUMP JUMPDEST SWAP3 POP POP PUSH1 0x20 PUSH3 0x2DD DUP6 DUP3 DUP7 ADD PUSH3 0x289 JUMP JUMPDEST SWAP2 POP POP SWAP3 POP SWAP3 SWAP1 POP JUMP JUMPDEST PUSH3 0x2F2 DUP2 PUSH3 0x315 JUMP JUMPDEST DUP3 MSTORE POP POP JUMP JUMPDEST PUSH1 0x0 PUSH1 0x20 DUP3 ADD SWAP1 POP PUSH3 0x30F PUSH1 0x0 DUP4 ADD DUP5 PUSH3 0x2E7 JUMP JUMPDEST SWAP3 SWAP2 POP POP JUMP JUMPDEST PUSH1 0x0 PUSH3 0x322 DUP3 PUSH3 0x329 JUMP JUMPDEST SWAP1 POP SWAP2 SWAP1 POP JUMP JUMPDEST PUSH1 0x0 PUSH20 0xFFFFFFFFFFFFFFFFFFFFFFFFFFFFFFFFFFFFFFFF DUP3 AND SWAP1 POP SWAP2 SWAP1 POP JUMP JUMPDEST PUSH1 0x0 PUSH1 0x2 DUP3 DIV SWAP1 POP PUSH1 0x1 DUP3 AND DUP1 PUSH3 0x362 JUMPI PUSH1 0x7F DUP3 AND SWAP2 POP JUMPDEST PUSH1 0x20 DUP3 LT DUP2 EQ ISZERO PUSH3 0x379 JUMPI PUSH3 0x378 PUSH3 0x3AE JUMP JUMPDEST JUMPDEST POP SWAP2 SWAP1 POP JUMP JUMPDEST PUSH32 0x4E487B7100000000000000000000000000000000000000000000000000000000 PUSH1 0x0 MSTORE PUSH1 0x21 PUSH1 0x4 MSTORE PUSH1 0x24 PUSH1 0x0 REVERT JUMPDEST PUSH32 0x4E487B7100000000000000000000000000000000000000000000000000000000 PUSH1 0x0 MSTORE PUSH1 0x22 PUSH1 0x4 MSTORE PUSH1 0x24 PUSH1 0x0 REVERT JUMPDEST PUSH1 0x0 DUP1 REVERT JUMPDEST PUSH3 0x3ED DUP2 PUSH3 0x315 JUMP JUMPDEST DUP2 EQ PUSH3 0x3F9 JUMPI PUSH1 0x0 DUP1 REVERT JUMPDEST POP JUMP JUMPDEST PUSH2 0xFAC DUP1 PUSH3 0x40C PUSH1 0x0 CODECOPY PUSH1 0x0 RETURN INVALID PUSH1 0x80 PUSH1 0x40 MSTORE CALLVALUE DUP1 ISZERO PUSH2 0x10 JUMPI PUSH1 0x0 DUP1 REVERT JUMPDEST POP PUSH1 0x4 CALLDATASIZE LT PUSH2 0xB4 JUMPI PUSH1 0x0 CALLDATALOAD PUSH1 0xE0 SHR DUP1 PUSH4 0xAA2FEDDE GT PUSH2 0x71 JUMPI DUP1 PUSH4 0xAA2FEDDE EQ PUSH2 0x155 JUMPI DUP1 PUSH4 0xB6C859BF EQ PUSH2 0x173 JUMPI DUP1 PUSH4 0xB7C779F4 EQ PUSH2 0x17D JUMPI DUP1 PUSH4 0xBF9CE952 EQ PUSH2 0x187 JUMPI DUP1 PUSH4 0xE25FE175 EQ PUSH2 0x1A5 JUMPI DUP1 PUSH4 0xE8950C0F EQ PUSH2 0x1C3 JUMPI PUSH2 0xB4 JUMP JUMPDEST DUP1 PUSH4 0xFC8F82A EQ PUSH2 0xB9 JUMPI DUP1 PUSH4 0x11E760DC EQ PUSH2 0xD7 JUMPI DUP1 PUSH4 0x1FE49587 EQ PUSH2 0xF5 JUMPI DUP1 PUSH4 0x36DA4468 EQ PUSH2 0x111 JUMPI DUP1 PUSH4 0x3D5A70C2 EQ PUSH2 0x12F JUMPI DUP1 PUSH4 0xA72E783B EQ PUSH2 0x139 JUMPI JUMPDEST PUSH1 0x0 DUP1 REVERT JUMPDEST PUSH2 0xC1 PUSH2 0x1F3 JUMP JUMPDEST PUSH1 0x40 MLOAD PUSH2 0xCE SWAP2 SWAP1 PUSH2 0xC1B JUMP JUMPDEST PUSH1 0x40 MLOAD DUP1 SWAP2 SUB SWAP1 RETURN JUMPDEST PUSH2 0xDF PUSH2 0x281 JUMP JUMPDEST PUSH1 0x40 MLOAD PUSH2 0xEC SWAP2 SWAP1 PUSH2 0xBE5 JUMP JUMPDEST PUSH1 0x40 MLOAD DUP1 SWAP2 SUB SWAP1 RETURN JUMPDEST PUSH2 0x10F PUSH1 0x4 DUP1 CALLDATASIZE SUB DUP2 ADD SWAP1 PUSH2 0x10A SWAP2 SWAP1 PUSH2 0xA31 JUMP JUMPDEST PUSH2 0x294 JUMP JUMPDEST STOP JUMPDEST PUSH2 0x119 PUSH2 0x3B6 JUMP JUMPDEST PUSH1 0x40 MLOAD PUSH2 0x126 SWAP2 SWAP1 PUSH2 0xBAF JUMP JUMPDEST PUSH1 0x40 MLOAD DUP1 SWAP2 SUB SWAP1 RETURN JUMPDEST PUSH2 0x137 PUSH2 0x3DC JUMP JUMPDEST STOP JUMPDEST PUSH2 0x153 PUSH1 0x4 DUP1 CALLDATASIZE SUB DUP2 ADD SWAP1 PUSH2 0x14E SWAP2 SWAP1 PUSH2 0xA5E JUMP JUMPDEST PUSH2 0x546 JUMP JUMPDEST STOP JUMPDEST PUSH2 0x15D PUSH2 0x6B1 JUMP JUMPDEST PUSH1 0x40 MLOAD PUSH2 0x16A SWAP2 SWAP1 PUSH2 0xBAF JUMP JUMPDEST PUSH1 0x40 MLOAD DUP1 SWAP2 SUB SWAP1 RETURN JUMPDEST PUSH2 0x17B PUSH2 0x6D7 JUMP JUMPDEST STOP JUMPDEST PUSH2 0x185 PUSH2 0x841 JUMP JUMPDEST STOP JUMPDEST PUSH2 0x18F PUSH2 0x9AE JUMP JUMPDEST PUSH1 0x40 MLOAD PUSH2 0x19C SWAP2 SWAP1 PUSH2 0xBAF JUMP JUMPDEST PUSH1 0x40 MLOAD DUP1 SWAP2 SUB SWAP1 RETURN JUMPDEST PUSH2 0x1AD PUSH2 0x9D4 JUMP JUMPDEST PUSH1 0x40 MLOAD PUSH2 0x1BA SWAP2 SWAP1 PUSH2 0xC00 JUMP JUMPDEST PUSH1 0x40 MLOAD DUP1 SWAP2 SUB SWAP1 RETURN JUMPDEST PUSH2 0x1DD PUSH1 0x4 DUP1 CALLDATASIZE SUB DUP2 ADD SWAP1 PUSH2 0x1D8 SWAP2 SWAP1 PUSH2 0xA31 JUMP JUMPDEST PUSH2 0x9E7 JUMP JUMPDEST PUSH1 0x40 MLOAD PUSH2 0x1EA SWAP2 SWAP1 PUSH2 0xBCA JUMP JUMPDEST PUSH1 0x40 MLOAD DUP1 SWAP2 SUB SWAP1 RETURN JUMPDEST PUSH1 0x0 DUP1 SLOAD PUSH2 0x200 SWAP1 PUSH2 0xDB4 JUMP JUMPDEST DUP1 PUSH1 0x1F ADD PUSH1 0x20 DUP1 SWAP2 DIV MUL PUSH1 0x20 ADD PUSH1 0x40 MLOAD SWAP1 DUP2 ADD PUSH1 0x40 MSTORE DUP1 SWAP3 SWAP2 SWAP1 DUP2 DUP2 MSTORE PUSH1 0x20 ADD DUP3 DUP1 SLOAD PUSH2 0x22C SWAP1 PUSH2 0xDB4 JUMP JUMPDEST DUP1 ISZERO PUSH2 0x279 JUMPI DUP1 PUSH1 0x1F LT PUSH2 0x24E JUMPI PUSH2 0x100 DUP1 DUP4 SLOAD DIV MUL DUP4 MSTORE SWAP2 PUSH1 0x20 ADD SWAP2 PUSH2 0x279 JUMP JUMPDEST DUP3 ADD SWAP2 SWAP1 PUSH1 0x0 MSTORE PUSH1 0x20 PUSH1 0x0 KECCAK256 SWAP1 JUMPDEST DUP2 SLOAD DUP2 MSTORE SWAP1 PUSH1 0x1 ADD SWAP1 PUSH1 0x20 ADD DUP1 DUP4 GT PUSH2 0x25C JUMPI DUP3 SWAP1 SUB PUSH1 0x1F AND DUP3 ADD SWAP2 JUMPDEST POP POP POP POP POP DUP2 JUMP JUMPDEST PUSH1 0x5 PUSH1 0x1 SWAP1 SLOAD SWAP1 PUSH2 0x100 EXP SWAP1 DIV PUSH1 0xFF AND DUP2 JUMP JUMPDEST PUSH1 0x2 PUSH1 0x0 SWAP1 SLOAD SWAP1 PUSH2 0x100 EXP SWAP1 DIV PUSH20 0xFFFFFFFFFFFFFFFFFFFFFFFFFFFFFFFFFFFFFFFF AND PUSH20 0xFFFFFFFFFFFFFFFFFFFFFFFFFFFFFFFFFFFFFFFF AND CALLER PUSH20 0xFFFFFFFFFFFFFFFFFFFFFFFFFFFFFFFFFFFFFFFF AND EQ PUSH2 0x324 JUMPI PUSH1 0x40 MLOAD PUSH32 0x8C379A000000000000000000000000000000000000000000000000000000000 DUP2 MSTORE PUSH1 0x4 ADD PUSH2 0x31B SWAP1 PUSH2 0xCBD JUMP JUMPDEST PUSH1 0x40 MLOAD DUP1 SWAP2 SUB SWAP1 REVERT JUMPDEST PUSH1 0x1 PUSH1 0x4 PUSH1 0x0 DUP4 PUSH20 0xFFFFFFFFFFFFFFFFFFFFFFFFFFFFFFFFFFFFFFFF AND PUSH20 0xFFFFFFFFFFFFFFFFFFFFFFFFFFFFFFFFFFFFFFFF AND DUP2 MSTORE PUSH1 0x20 ADD SWAP1 DUP2 MSTORE PUSH1 0x20 ADD PUSH1 0x0 KECCAK256 PUSH1 0x0 PUSH2 0x100 EXP DUP2 SLOAD DUP2 PUSH1 0xFF MUL NOT AND SWAP1 DUP4 ISZERO ISZERO MUL OR SWAP1 SSTORE POP PUSH32 0x400153A8CEBBD91509D8511EC62D3FE08EAC19A7AFAB5E61A723C0860DB23520 CALLER PUSH1 0x40 MLOAD PUSH2 0x3AB SWAP2 SWAP1 PUSH2 0xBAF JUMP JUMPDEST PUSH1 0x40 MLOAD DUP1 SWAP2 SUB SWAP1 LOG1 POP JUMP JUMPDEST PUSH1 0x2 PUSH1 0x0 SWAP1 SLOAD SWAP1 PUSH2 0x100 EXP SWAP1 DIV PUSH20 0xFFFFFFFFFFFFFFFFFFFFFFFFFFFFFFFFFFFFFFFF AND DUP2 JUMP JUMPDEST PUSH1 0x2 PUSH1 0x4 DUP2 GT ISZERO PUSH2 0x3F0 JUMPI PUSH2 0x3EF PUSH2 0xDE6 JUMP JUMPDEST JUMPDEST PUSH1 0x5 PUSH1 0x0 SWAP1 SLOAD SWAP1 PUSH2 0x100 EXP SWAP1 DIV PUSH1 0xFF AND PUSH1 0x4 DUP2 GT ISZERO PUSH2 0x412 JUMPI PUSH2 0x411 PUSH2 0xDE6 JUMP JUMPDEST JUMPDEST EQ PUSH2 0x452 JUMPI PUSH1 0x40 MLOAD PUSH32 0x8C379A000000000000000000000000000000000000000000000000000000000 DUP2 MSTORE PUSH1 0x4 ADD PUSH2 0x449 SWAP1 PUSH2 0xC9D JUMP JUMPDEST PUSH1 0x40 MLOAD DUP1 SWAP2 SUB SWAP1 REVERT JUMPDEST PUSH1 0x3 PUSH1 0x0 SWAP1 SLOAD SWAP1 PUSH2 0x100 EXP SWAP1 DIV PUSH20 0xFFFFFFFFFFFFFFFFFFFFFFFFFFFFFFFFFFFFFFFF AND PUSH20 0xFFFFFFFFFFFFFFFFFFFFFFFFFFFFFFFFFFFFFFFF AND CALLER PUSH20 0xFFFFFFFFFFFFFFFFFFFFFFFFFFFFFFFFFFFFFFFF AND EQ PUSH2 0x4E2 JUMPI PUSH1 0x40 MLOAD PUSH32 0x8C379A000000000000000000000000000000000000000000000000000000000 DUP2 MSTORE PUSH1 0x4 ADD PUSH2 0x4D9 SWAP1 PUSH2 0xC3D JUMP JUMPDEST PUSH1 0x40 MLOAD DUP1 SWAP2 SUB SWAP1 REVERT JUMPDEST PUSH1 0x3 PUSH1 0x5 PUSH1 0x0 PUSH2 0x100 EXP DUP2 SLOAD DUP2 PUSH1 0xFF MUL NOT AND SWAP1 DUP4 PUSH1 0x4 DUP2 GT ISZERO PUSH2 0x508 JUMPI PUSH2 0x507 PUSH2 0xDE6 JUMP JUMPDEST JUMPDEST MUL OR SWAP1 SSTORE POP PUSH32 0x400153A8CEBBD91509D8511EC62D3FE08EAC19A7AFAB5E61A723C0860DB23520 CALLER PUSH1 0x40 MLOAD PUSH2 0x53C SWAP2 SWAP1 PUSH2 0xBAF JUMP JUMPDEST PUSH1 0x40 MLOAD DUP1 SWAP2 SUB SWAP1 LOG1 JUMP JUMPDEST PUSH1 0x3 PUSH1 0x4 DUP2 GT ISZERO PUSH2 0x55A JUMPI PUSH2 0x559 PUSH2 0xDE6 JUMP JUMPDEST JUMPDEST PUSH1 0x5 PUSH1 0x0 SWAP1 SLOAD SWAP1 PUSH2 0x100 EXP SWAP1 DIV PUSH1 0xFF AND PUSH1 0x4 DUP2 GT ISZERO PUSH2 0x57C JUMPI PUSH2 0x57B PUSH2 0xDE6 JUMP JUMPDEST JUMPDEST EQ PUSH2 0x5BC JUMPI PUSH1 0x40 MLOAD PUSH32 0x8C379A000000000000000000000000000000000000000000000000000000000 DUP2 MSTORE PUSH1 0x4 ADD PUSH2 0x5B3 SWAP1 PUSH2 0xC9D JUMP JUMPDEST PUSH1 0x40 MLOAD DUP1 SWAP2 SUB SWAP1 REVERT JUMPDEST PUSH1 0x3 PUSH1 0x0 SWAP1 SLOAD SWAP1 PUSH2 0x100 EXP SWAP1 DIV PUSH20 0xFFFFFFFFFFFFFFFFFFFFFFFFFFFFFFFFFFFFFFFF AND PUSH20 0xFFFFFFFFFFFFFFFFFFFFFFFFFFFFFFFFFFFFFFFF AND CALLER PUSH20 0xFFFFFFFFFFFFFFFFFFFFFFFFFFFFFFFFFFFFFFFF AND EQ PUSH2 0x64C JUMPI PUSH1 0x40 MLOAD PUSH32 0x8C379A000000000000000000000000000000000000000000000000000000000 DUP2 MSTORE PUSH1 0x4 ADD PUSH2 0x643 SWAP1 PUSH2 0xC3D JUMP JUMPDEST PUSH1 0x40 MLOAD DUP1 SWAP2 SUB SWAP1 REVERT JUMPDEST PUSH1 0x4 PUSH1 0x5 PUSH1 0x0 PUSH2 0x100 EXP DUP2 SLOAD DUP2 PUSH1 0xFF MUL NOT AND SWAP1 DUP4 PUSH1 0x4 DUP2 GT ISZERO PUSH2 0x672 JUMPI PUSH2 0x671 PUSH2 0xDE6 JUMP JUMPDEST JUMPDEST MUL OR SWAP1 SSTORE POP PUSH32 0x400153A8CEBBD91509D8511EC62D3FE08EAC19A7AFAB5E61A723C0860DB23520 CALLER PUSH1 0x40 MLOAD PUSH2 0x6A6 SWAP2 SWAP1 PUSH2 0xBAF JUMP JUMPDEST PUSH1 0x40 MLOAD DUP1 SWAP2 SUB SWAP1 LOG1 POP JUMP JUMPDEST PUSH1 0x3 PUSH1 0x0 SWAP1 SLOAD SWAP1 PUSH2 0x100 EXP SWAP1 DIV PUSH20 0xFFFFFFFFFFFFFFFFFFFFFFFFFFFFFFFFFFFFFFFF AND DUP2 JUMP JUMPDEST PUSH1 0x2 PUSH1 0x0 SWAP1 SLOAD SWAP1 PUSH2 0x100 EXP SWAP1 DIV PUSH20 0xFFFFFFFFFFFFFFFFFFFFFFFFFFFFFFFFFFFFFFFF AND PUSH20 0xFFFFFFFFFFFFFFFFFFFFFFFFFFFFFFFFFFFFFFFF AND CALLER PUSH20 0xFFFFFFFFFFFFFFFFFFFFFFFFFFFFFFFFFFFFFFFF AND EQ PUSH2 0x767 JUMPI PUSH1 0x40 MLOAD PUSH32 0x8C379A000000000000000000000000000000000000000000000000000000000 DUP2 MSTORE PUSH1 0x4 ADD PUSH2 0x75E SWAP1 PUSH2 0xCBD JUMP JUMPDEST PUSH1 0x40 MLOAD DUP1 SWAP2 SUB SWAP1 REVERT JUMPDEST PUSH1 0x0 PUSH1 0x4 DUP2 GT ISZERO PUSH2 0x77B JUMPI PUSH2 0x77A PUSH2 0xDE6 JUMP JUMPDEST JUMPDEST PUSH1 0x5 PUSH1 0x0 SWAP1 SLOAD SWAP1 PUSH2 0x100 EXP SWAP1 DIV PUSH1 0xFF AND PUSH1 0x4 DUP2 GT ISZERO PUSH2 0x79D JUMPI PUSH2 0x79C PUSH2 0xDE6 JUMP JUMPDEST JUMPDEST EQ PUSH2 0x7DD JUMPI PUSH1 0x40 MLOAD PUSH32 0x8C379A000000000000000000000000000000000000000000000000000000000 DUP2 MSTORE PUSH1 0x4 ADD PUSH2 0x7D4 SWAP1 PUSH2 0xC7D JUMP JUMPDEST PUSH1 0x40 MLOAD DUP1 SWAP2 SUB SWAP1 REVERT JUMPDEST PUSH1 0x1 PUSH1 0x5 PUSH1 0x0 PUSH2 0x100 EXP DUP2 SLOAD DUP2 PUSH1 0xFF MUL NOT AND SWAP1 DUP4 PUSH1 0x4 DUP2 GT ISZERO PUSH2 0x803 JUMPI PUSH2 0x802 PUSH2 0xDE6 JUMP JUMPDEST JUMPDEST MUL OR SWAP1 SSTORE POP PUSH32 0x400153A8CEBBD91509D8511EC62D3FE08EAC19A7AFAB5E61A723C0860DB23520 CALLER PUSH1 0x40 MLOAD PUSH2 0x837 SWAP2 SWAP1 PUSH2 0xBAF JUMP JUMPDEST PUSH1 0x40 MLOAD DUP1 SWAP2 SUB SWAP1 LOG1 JUMP JUMPDEST PUSH1 0x1 ISZERO ISZERO PUSH1 0x4 PUSH1 0x0 CALLER PUSH20 0xFFFFFFFFFFFFFFFFFFFFFFFFFFFFFFFFFFFFFFFF AND PUSH20 0xFFFFFFFFFFFFFFFFFFFFFFFFFFFFFFFFFFFFFFFF AND DUP2 MSTORE PUSH1 0x20 ADD SWAP1 DUP2 MSTORE PUSH1 0x20 ADD PUSH1 0x0 KECCAK256 PUSH1 0x0 SWAP1 SLOAD SWAP1 PUSH2 0x100 EXP SWAP1 DIV PUSH1 0xFF AND ISZERO ISZERO EQ PUSH2 0x8D4 JUMPI PUSH1 0x40 MLOAD PUSH32 0x8C379A000000000000000000000000000000000000000000000000000000000 DUP2 MSTORE PUSH1 0x4 ADD PUSH2 0x8CB SWAP1 PUSH2 0xCBD JUMP JUMPDEST PUSH1 0x40 MLOAD DUP1 SWAP2 SUB SWAP1 REVERT JUMPDEST PUSH1 0x1 PUSH1 0x4 DUP2 GT ISZERO PUSH2 0x8E8 JUMPI PUSH2 0x8E7 PUSH2 0xDE6 JUMP JUMPDEST JUMPDEST PUSH1 0x5 PUSH1 0x0 SWAP1 SLOAD SWAP1 PUSH2 0x100 EXP SWAP1 DIV PUSH1 0xFF AND PUSH1 0x4 DUP2 GT ISZERO PUSH2 0x90A JUMPI PUSH2 0x909 PUSH2 0xDE6 JUMP JUMPDEST JUMPDEST EQ PUSH2 0x94A JUMPI PUSH1 0x40 MLOAD PUSH32 0x8C379A000000000000000000000000000000000000000000000000000000000 DUP2 MSTORE PUSH1 0x4 ADD PUSH2 0x941 SWAP1 PUSH2 0xC5D JUMP JUMPDEST PUSH1 0x40 MLOAD DUP1 SWAP2 SUB SWAP1 REVERT JUMPDEST PUSH1 0x2 PUSH1 0x5 PUSH1 0x0 PUSH2 0x100 EXP DUP2 SLOAD DUP2 PUSH1 0xFF MUL NOT AND SWAP1 DUP4 PUSH1 0x4 DUP2 GT ISZERO PUSH2 0x970 JUMPI PUSH2 0x96F PUSH2 0xDE6 JUMP JUMPDEST JUMPDEST MUL OR SWAP1 SSTORE POP PUSH32 0xFB229D12AB26294BC680D0AD524E4315A0CE05F84A2B75C4C7A0DA7F1C0B1343 CALLER PUSH1 0x40 MLOAD PUSH2 0x9A4 SWAP2 SWAP1 PUSH2 0xBAF JUMP JUMPDEST PUSH1 0x40 MLOAD DUP1 SWAP2 SUB SWAP1 LOG1 JUMP JUMPDEST PUSH1 0x1 PUSH1 0x0 SWAP1 SLOAD SWAP1 PUSH2 0x100 EXP SWAP1 DIV PUSH20 0xFFFFFFFFFFFFFFFFFFFFFFFFFFFFFFFFFFFFFFFF AND DUP2 JUMP JUMPDEST PUSH1 0x5 PUSH1 0x0 SWAP1 SLOAD SWAP1 PUSH2 0x100 EXP SWAP1 DIV PUSH1 0xFF AND DUP2 JUMP JUMPDEST PUSH1 0x4 PUSH1 0x20 MSTORE DUP1 PUSH1 0x0 MSTORE PUSH1 0x40 PUSH1 0x0 KECCAK256 PUSH1 0x0 SWAP2 POP SLOAD SWAP1 PUSH2 0x100 EXP SWAP1 DIV PUSH1 0xFF AND DUP2 JUMP JUMPDEST PUSH1 0x0 DUP2 CALLDATALOAD SWAP1 POP PUSH2 0xA16 DUP2 PUSH2 0xF4F JUMP JUMPDEST SWAP3 SWAP2 POP POP JUMP JUMPDEST PUSH1 0x0 DUP2 CALLDATALOAD SWAP1 POP PUSH2 0xA2B DUP2 PUSH2 0xF66 JUMP JUMPDEST SWAP3 SWAP2 POP POP JUMP JUMPDEST PUSH1 0x0 PUSH1 0x20 DUP3 DUP5 SUB SLT ISZERO PUSH2 0xA47 JUMPI PUSH2 0xA46 PUSH2 0xE44 JUMP JUMPDEST JUMPDEST PUSH1 0x0 PUSH2 0xA55 DUP5 DUP3 DUP6 ADD PUSH2 0xA07 JUMP JUMPDEST SWAP2 POP POP SWAP3 SWAP2 POP POP JUMP JUMPDEST PUSH1 0x0 PUSH1 0x20 DUP3 DUP5 SUB SLT ISZERO PUSH2 0xA74 JUMPI PUSH2 0xA73 PUSH2 0xE44 JUMP JUMPDEST JUMPDEST PUSH1 0x0 PUSH2 0xA82 DUP5 DUP3 DUP6 ADD PUSH2 0xA1C JUMP JUMPDEST SWAP2 POP POP SWAP3 SWAP2 POP POP JUMP JUMPDEST PUSH2 0xA94 DUP2 PUSH2 0xCF9 JUMP JUMPDEST DUP3 MSTORE POP POP JUMP JUMPDEST PUSH2 0xAA3 DUP2 PUSH2 0xD0B JUMP JUMPDEST DUP3 MSTORE POP POP JUMP JUMPDEST PUSH2 0xAB2 DUP2 PUSH2 0xD5D JUMP JUMPDEST DUP3 MSTORE POP POP JUMP JUMPDEST PUSH2 0xAC1 DUP2 PUSH2 0xD6F JUMP JUMPDEST DUP3 MSTORE POP POP JUMP JUMPDEST PUSH1 0x0 PUSH2 0xAD2 DUP3 PUSH2 0xCDD JUMP JUMPDEST PUSH2 0xADC DUP2 DUP6 PUSH2 0xCE8 JUMP JUMPDEST SWAP4 POP PUSH2 0xAEC DUP2 DUP6 PUSH1 0x20 DUP7 ADD PUSH2 0xD81 JUMP JUMPDEST PUSH2 0xAF5 DUP2 PUSH2 0xE49 JUMP JUMPDEST DUP5 ADD SWAP2 POP POP SWAP3 SWAP2 POP POP JUMP JUMPDEST PUSH1 0x0 PUSH2 0xB0D PUSH1 0x16 DUP4 PUSH2 0xCE8 JUMP JUMPDEST SWAP2 POP PUSH2 0xB18 DUP3 PUSH2 0xE5A JUMP JUMPDEST PUSH1 0x20 DUP3 ADD SWAP1 POP SWAP2 SWAP1 POP JUMP JUMPDEST PUSH1 0x0 PUSH2 0xB30 PUSH1 0x9 DUP4 PUSH2 0xCE8 JUMP JUMPDEST SWAP2 POP PUSH2 0xB3B DUP3 PUSH2 0xE83 JUMP JUMPDEST PUSH1 0x20 DUP3 ADD SWAP1 POP SWAP2 SWAP1 POP JUMP JUMPDEST PUSH1 0x0 PUSH2 0xB53 PUSH1 0x11 DUP4 PUSH2 0xCE8 JUMP JUMPDEST SWAP2 POP PUSH2 0xB5E DUP3 PUSH2 0xEAC JUMP JUMPDEST PUSH1 0x20 DUP3 ADD SWAP1 POP SWAP2 SWAP1 POP JUMP JUMPDEST PUSH1 0x0 PUSH2 0xB76 PUSH1 0x1A DUP4 PUSH2 0xCE8 JUMP JUMPDEST SWAP2 POP PUSH2 0xB81 DUP3 PUSH2 0xED5 JUMP JUMPDEST PUSH1 0x20 DUP3 ADD SWAP1 POP SWAP2 SWAP1 POP JUMP JUMPDEST PUSH1 0x0 PUSH2 0xB99 PUSH1 0x16 DUP4 PUSH2 0xCE8 JUMP JUMPDEST SWAP2 POP PUSH2 0xBA4 DUP3 PUSH2 0xEFE JUMP JUMPDEST PUSH1 0x20 DUP3 ADD SWAP1 POP SWAP2 SWAP1 POP JUMP JUMPDEST PUSH1 0x0 PUSH1 0x20 DUP3 ADD SWAP1 POP PUSH2 0xBC4 PUSH1 0x0 DUP4 ADD DUP5 PUSH2 0xA8B JUMP JUMPDEST SWAP3 SWAP2 POP POP JUMP JUMPDEST PUSH1 0x0 PUSH1 0x20 DUP3 ADD SWAP1 POP PUSH2 0xBDF PUSH1 0x0 DUP4 ADD DUP5 PUSH2 0xA9A JUMP JUMPDEST SWAP3 SWAP2 POP POP JUMP JUMPDEST PUSH1 0x0 PUSH1 0x20 DUP3 ADD SWAP1 POP PUSH2 0xBFA PUSH1 0x0 DUP4 ADD DUP5 PUSH2 0xAA9 JUMP JUMPDEST SWAP3 SWAP2 POP POP JUMP JUMPDEST PUSH1 0x0 PUSH1 0x20 DUP3 ADD SWAP1 POP PUSH2 0xC15 PUSH1 0x0 DUP4 ADD DUP5 PUSH2 0xAB8 JUMP JUMPDEST SWAP3 SWAP2 POP POP JUMP JUMPDEST PUSH1 0x0 PUSH1 0x20 DUP3 ADD SWAP1 POP DUP2 DUP2 SUB PUSH1 0x0 DUP4 ADD MSTORE PUSH2 0xC35 DUP2 DUP5 PUSH2 0xAC7 JUMP JUMPDEST SWAP1 POP SWAP3 SWAP2 POP POP JUMP JUMPDEST PUSH1 0x0 PUSH1 0x20 DUP3 ADD SWAP1 POP DUP2 DUP2 SUB PUSH1 0x0 DUP4 ADD MSTORE PUSH2 0xC56 DUP2 PUSH2 0xB00 JUMP JUMPDEST SWAP1 POP SWAP2 SWAP1 POP JUMP JUMPDEST PUSH1 0x0 PUSH1 0x20 DUP3 ADD SWAP1 POP DUP2 DUP2 SUB PUSH1 0x0 DUP4 ADD MSTORE PUSH2 0xC76 DUP2 PUSH2 0xB23 JUMP JUMPDEST SWAP1 POP SWAP2 SWAP1 POP JUMP JUMPDEST PUSH1 0x0 PUSH1 0x20 DUP3 ADD SWAP1 POP DUP2 DUP2 SUB PUSH1 0x0 DUP4 ADD MSTORE PUSH2 0xC96 DUP2 PUSH2 0xB46 JUMP JUMPDEST SWAP1 POP SWAP2 SWAP1 POP JUMP JUMPDEST PUSH1 0x0 PUSH1 0x20 DUP3 ADD SWAP1 POP DUP2 DUP2 SUB PUSH1 0x0 DUP4 ADD MSTORE PUSH2 0xCB6 DUP2 PUSH2 0xB69 JUMP JUMPDEST SWAP1 POP SWAP2 SWAP1 POP JUMP JUMPDEST PUSH1 0x0 PUSH1 0x20 DUP3 ADD SWAP1 POP DUP2 DUP2 SUB PUSH1 0x0 DUP4 ADD MSTORE PUSH2 0xCD6 DUP2 PUSH2 0xB8C JUMP JUMPDEST SWAP1 POP SWAP2 SWAP1 POP JUMP JUMPDEST PUSH1 0x0 DUP2 MLOAD SWAP1 POP SWAP2 SWAP1 POP JUMP JUMPDEST PUSH1 0x0 DUP3 DUP3 MSTORE PUSH1 0x20 DUP3 ADD SWAP1 POP SWAP3 SWAP2 POP POP JUMP JUMPDEST PUSH1 0x0 PUSH2 0xD04 DUP3 PUSH2 0xD3D JUMP JUMPDEST SWAP1 POP SWAP2 SWAP1 POP JUMP JUMPDEST PUSH1 0x0 DUP2 ISZERO ISZERO SWAP1 POP SWAP2 SWAP1 POP JUMP JUMPDEST PUSH1 0x0 DUP2 SWAP1 POP PUSH2 0xD25 DUP3 PUSH2 0xF27 JUMP JUMPDEST SWAP2 SWAP1 POP JUMP JUMPDEST PUSH1 0x0 DUP2 SWAP1 POP PUSH2 0xD38 DUP3 PUSH2 0xF3B JUMP JUMPDEST SWAP2 SWAP1 POP JUMP JUMPDEST PUSH1 0x0 PUSH20 0xFFFFFFFFFFFFFFFFFFFFFFFFFFFFFFFFFFFFFFFF DUP3 AND SWAP1 POP SWAP2 SWAP1 POP JUMP JUMPDEST PUSH1 0x0 PUSH2 0xD68 DUP3 PUSH2 0xD17 JUMP JUMPDEST SWAP1 POP SWAP2 SWAP1 POP JUMP JUMPDEST PUSH1 0x0 PUSH2 0xD7A DUP3 PUSH2 0xD2A JUMP JUMPDEST SWAP1 POP SWAP2 SWAP1 POP JUMP JUMPDEST PUSH1 0x0 JUMPDEST DUP4 DUP2 LT ISZERO PUSH2 0xD9F JUMPI DUP1 DUP3 ADD MLOAD DUP2 DUP5 ADD MSTORE PUSH1 0x20 DUP2 ADD SWAP1 POP PUSH2 0xD84 JUMP JUMPDEST DUP4 DUP2 GT ISZERO PUSH2 0xDAE JUMPI PUSH1 0x0 DUP5 DUP5 ADD MSTORE JUMPDEST POP POP POP POP JUMP JUMPDEST PUSH1 0x0 PUSH1 0x2 DUP3 DIV SWAP1 POP PUSH1 0x1 DUP3 AND DUP1 PUSH2 0xDCC JUMPI PUSH1 0x7F DUP3 AND SWAP2 POP JUMPDEST PUSH1 0x20 DUP3 LT DUP2 EQ ISZERO PUSH2 0xDE0 JUMPI PUSH2 0xDDF PUSH2 0xE15 JUMP JUMPDEST JUMPDEST POP SWAP2 SWAP1 POP JUMP JUMPDEST PUSH32 0x4E487B7100000000000000000000000000000000000000000000000000000000 PUSH1 0x0 MSTORE PUSH1 0x21 PUSH1 0x4 MSTORE PUSH1 0x24 PUSH1 0x0 REVERT JUMPDEST PUSH32 0x4E487B7100000000000000000000000000000000000000000000000000000000 PUSH1 0x0 MSTORE PUSH1 0x22 PUSH1 0x4 MSTORE PUSH1 0x24 PUSH1 0x0 REVERT JUMPDEST PUSH1 0x0 DUP1 REVERT JUMPDEST PUSH1 0x0 PUSH1 0x1F NOT PUSH1 0x1F DUP4 ADD AND SWAP1 POP SWAP2 SWAP1 POP JUMP JUMPDEST PUSH32 0x4E6F742074686520726967687420686F73706974616C00000000000000000000 PUSH1 0x0 DUP3 ADD MSTORE POP JUMP JUMPDEST PUSH32 0x4E6F742072656164790000000000000000000000000000000000000000000000 PUSH1 0x0 DUP3 ADD MSTORE POP JUMP JUMPDEST PUSH32 0x4E6F7420696E2070726F64756374696F6E000000000000000000000000000000 PUSH1 0x0 DUP3 ADD MSTORE POP JUMP JUMPDEST PUSH32 0x5374696C6C2077616974696E6720666F722064656C6976657279000000000000 PUSH1 0x0 DUP3 ADD MSTORE POP JUMP JUMPDEST PUSH32 0x20596F7520617265206E6F7420746865206F776E657200000000000000000000 PUSH1 0x0 DUP3 ADD MSTORE POP JUMP JUMPDEST PUSH1 0x4 DUP2 LT PUSH2 0xF38 JUMPI PUSH2 0xF37 PUSH2 0xDE6 JUMP JUMPDEST JUMPDEST POP JUMP JUMPDEST PUSH1 0x5 DUP2 LT PUSH2 0xF4C JUMPI PUSH2 0xF4B PUSH2 0xDE6 JUMP JUMPDEST JUMPDEST POP JUMP JUMPDEST PUSH2 0xF58 DUP2 PUSH2 0xCF9 JUMP JUMPDEST DUP2 EQ PUSH2 0xF63 JUMPI PUSH1 0x0 DUP1 REVERT JUMPDEST POP JUMP JUMPDEST PUSH1 0x4 DUP2 LT PUSH2 0xF73 JUMPI PUSH1 0x0 DUP1 REVERT JUMPDEST POP JUMP INVALID LOG2 PUSH5 0x6970667358 0x22 SLT KECCAK256 CHAINID PUSH4 0x2CA84E03 CALL PUSH21 0x760329CAE9FDA4D94199F7156CC14E97030CC64958 0xD 0x4D EQ PUSH5 0x736F6C6343 STOP ADDMOD SMOD STOP CALLER "
				},
				"gasEstimates": {
					"creation": {
						"codeDepositCost": "802400",
						"executionCost": "infinite",
						"totalCost": "infinite"
					},
					"external": {
						"Auth(address)": "infinite",
						"CODE()": "infinite",
						"ProductDestruct(uint8)": "30381",
						"StepOfDelivery()": "30073",
						"defectiveReason()": "2633",
						"deliverers(address)": "2955",
						"delivery()": "30140",
						"deliveryManfunction()": "30185",
						"hospital()": "2514",
						"product()": "2580",
						"step()": "2648",
						"supplier()": "2581"
					}
				},
				"methodIdentifiers": {
					"Auth(address)": "1fe49587",
					"CODE()": "0fc8f82a",
					"ProductDestruct(uint8)": "a72e783b",
					"StepOfDelivery()": "b6c859bf",
					"defectiveReason()": "11e760dc",
					"deliverers(address)": "e8950c0f",
					"delivery()": "3d5a70c2",
					"deliveryManfunction()": "b7c779f4",
					"hospital()": "aa2fedde",
					"product()": "bf9ce952",
					"step()": "e25fe175",
					"supplier()": "36da4468"
				}
			},
			"userdoc": {
				"kind": "user",
				"methods": {},
				"version": 1
			}
		}
	}
}