{
	"contracts/CovidVaccineSupplyChain.sol": {
		"Vax": {
			"abi": [
				{
					"inputs": [
						{
							"internalType": "address",
							"name": "_product",
							"type": "address"
						},
						{
							"internalType": "address",
							"name": "_hospital",
							"type": "address"
						}
					],
					"stateMutability": "nonpayable",
					"type": "constructor"
				},
				{
					"anonymous": false,
					"inputs": [
						{
							"indexed": false,
							"internalType": "address",
							"name": "deliverer",
							"type": "address"
						}
					],
					"name": "Deliverer",
					"type": "event"
				},
				{
					"anonymous": false,
					"inputs": [
						{
							"indexed": false,
							"internalType": "address",
							"name": "supplier",
							"type": "address"
						}
					],
					"name": "OwnerOfProduct",
					"type": "event"
				},
				{
					"inputs": [
						{
							"internalType": "address",
							"name": "_deliverer",
							"type": "address"
						}
					],
					"name": "Auth",
					"outputs": [],
					"stateMutability": "nonpayable",
					"type": "function"
				},
				{
					"inputs": [],
					"name": "CODE",
					"outputs": [
						{
							"internalType": "string",
							"name": "",
							"type": "string"
						}
					],
					"stateMutability": "view",
					"type": "function"
				},
				{
					"inputs": [],
					"name": "ProductDestruct",
					"outputs": [],
					"stateMutability": "nonpayable",
					"type": "function"
				},
				{
					"inputs": [],
					"name": "StepOfDelivery",
					"outputs": [],
					"stateMutability": "nonpayable",
					"type": "function"
				},
				{
					"inputs": [],
					"name": "defectiveReason",
					"outputs": [
						{
							"internalType": "enum Vax.DefectiveReason",
							"name": "",
							"type": "uint8"
						}
					],
					"stateMutability": "view",
					"type": "function"
				},
				{
					"inputs": [
						{
							"internalType": "address",
							"name": "",
							"type": "address"
						}
					],
					"name": "deliverers",
					"outputs": [
						{
							"internalType": "bool",
							"name": "",
							"type": "bool"
						}
					],
					"stateMutability": "view",
					"type": "function"
				},
				{
					"inputs": [],
					"name": "delivery",
					"outputs": [],
					"stateMutability": "nonpayable",
					"type": "function"
				},
				{
					"inputs": [],
					"name": "deliveryManfunction",
					"outputs": [],
					"stateMutability": "nonpayable",
					"type": "function"
				},
				{
					"inputs": [],
					"name": "hospital",
					"outputs": [
						{
							"internalType": "address",
							"name": "",
							"type": "address"
						}
					],
					"stateMutability": "view",
					"type": "function"
				},
				{
					"inputs": [],
					"name": "product",
					"outputs": [
						{
							"internalType": "address",
							"name": "",
							"type": "address"
						}
					],
					"stateMutability": "view",
					"type": "function"
				},
				{
					"inputs": [],
					"name": "step",
					"outputs": [
						{
							"internalType": "enum Vax.Step",
							"name": "",
							"type": "uint8"
						}
					],
					"stateMutability": "view",
					"type": "function"
				},
				{
					"inputs": [],
					"name": "supplier",
					"outputs": [
						{
							"internalType": "address",
							"name": "",
							"type": "address"
						}
					],
					"stateMutability": "view",
					"type": "function"
				}
			],
			"devdoc": {
				"kind": "dev",
				"methods": {},
				"version": 1
			},
			"evm": {
				"assembly": "    /* \"contracts/CovidVaccineSupplyChain.sol\":76:2099  contract Vax {\r... */\n  mstore(0x40, 0x80)\n    /* \"contracts/CovidVaccineSupplyChain.sol\":102:133  string public CODE =\"Covid Vax\" */\n  mload(0x40)\n  dup1\n  0x40\n  add\n  0x40\n  mstore\n  dup1\n  0x09\n  dup2\n  mstore\n  0x20\n  add\n  0x436f766964205661780000000000000000000000000000000000000000000000\n  dup2\n  mstore\n  pop\n  0x00\n  swap1\n  dup1\n  mload\n  swap1\n  0x20\n  add\n  swap1\n  tag_1\n  swap3\n  swap2\n  swap1\n  tag_2\n  jump\t// in\ntag_1:\n  pop\n    /* \"contracts/CovidVaccineSupplyChain.sol\":578:795  constructor(address _product , address _hospital){\r... */\n  callvalue\n  dup1\n  iszero\n  tag_3\n  jumpi\n  0x00\n  dup1\n  revert\ntag_3:\n  pop\n  mload(0x40)\n  sub(codesize, bytecodeSize)\n  dup1\n  bytecodeSize\n  dup4\n  codecopy\n  dup2\n  dup2\n  add\n  0x40\n  mstore\n  dup2\n  add\n  swap1\n  tag_4\n  swap2\n  swap1\n  tag_5\n  jump\t// in\ntag_4:\n    /* \"contracts/CovidVaccineSupplyChain.sol\":648:658  msg.sender */\n  caller\n    /* \"contracts/CovidVaccineSupplyChain.sol\":637:645  supplier */\n  0x02\n  0x00\n    /* \"contracts/CovidVaccineSupplyChain.sol\":637:658  supplier = msg.sender */\n  0x0100\n  exp\n  dup2\n  sload\n  dup2\n  0xffffffffffffffffffffffffffffffffffffffff\n  mul\n  not\n  and\n  swap1\n  dup4\n  0xffffffffffffffffffffffffffffffffffffffff\n  and\n  mul\n  or\n  swap1\n  sstore\n  pop\n    /* \"contracts/CovidVaccineSupplyChain.sol\":678:686  _product */\n  dup2\n    /* \"contracts/CovidVaccineSupplyChain.sol\":668:675  product */\n  0x01\n  0x00\n    /* \"contracts/CovidVaccineSupplyChain.sol\":668:686  product = _product */\n  0x0100\n  exp\n  dup2\n  sload\n  dup2\n  0xffffffffffffffffffffffffffffffffffffffff\n  mul\n  not\n  and\n  swap1\n  dup4\n  0xffffffffffffffffffffffffffffffffffffffff\n  and\n  mul\n  or\n  swap1\n  sstore\n  pop\n    /* \"contracts/CovidVaccineSupplyChain.sol\":707:716  _hospital */\n  dup1\n    /* \"contracts/CovidVaccineSupplyChain.sol\":696:704  hospital */\n  0x03\n  0x00\n    /* \"contracts/CovidVaccineSupplyChain.sol\":696:716  hospital = _hospital */\n  0x0100\n  exp\n  dup2\n  sload\n  dup2\n  0xffffffffffffffffffffffffffffffffffffffff\n  mul\n  not\n  and\n  swap1\n  dup4\n  0xffffffffffffffffffffffffffffffffffffffff\n  and\n  mul\n  or\n  swap1\n  sstore\n  pop\n    /* \"contracts/CovidVaccineSupplyChain.sol\":733:748  Step.production */\n  0x00\n    /* \"contracts/CovidVaccineSupplyChain.sol\":726:730  step */\n  0x05\n  0x00\n    /* \"contracts/CovidVaccineSupplyChain.sol\":726:748  step = Step.production */\n  0x0100\n  exp\n  dup2\n  sload\n  dup2\n  0xff\n  mul\n  not\n  and\n  swap1\n  dup4\n  0x04\n  dup2\n  gt\n  iszero\n  tag_8\n  jumpi\n  tag_9\n  tag_10\n  jump\t// in\ntag_9:\ntag_8:\n  mul\n  or\n  swap1\n  sstore\n  pop\n    /* \"contracts/CovidVaccineSupplyChain.sol\":763:787  OwnerOfProduct(supplier) */\n  0x400153a8cebbd91509d8511ec62d3fe08eac19a7afab5e61a723c0860db23520\n    /* \"contracts/CovidVaccineSupplyChain.sol\":778:786  supplier */\n  0x02\n  0x00\n  swap1\n  sload\n  swap1\n  0x0100\n  exp\n  swap1\n  div\n  0xffffffffffffffffffffffffffffffffffffffff\n  and\n    /* \"contracts/CovidVaccineSupplyChain.sol\":763:787  OwnerOfProduct(supplier) */\n  mload(0x40)\n  tag_11\n  swap2\n  swap1\n  tag_12\n  jump\t// in\ntag_11:\n  mload(0x40)\n  dup1\n  swap2\n  sub\n  swap1\n  log1\n    /* \"contracts/CovidVaccineSupplyChain.sol\":578:795  constructor(address _product , address _hospital){\r... */\n  pop\n  pop\n    /* \"contracts/CovidVaccineSupplyChain.sol\":76:2099  contract Vax {\r... */\n  jump(tag_13)\ntag_2:\n  dup3\n  dup1\n  sload\n  tag_14\n  swap1\n  tag_15\n  jump\t// in\ntag_14:\n  swap1\n  0x00\n  mstore\n  keccak256(0x00, 0x20)\n  swap1\n  0x1f\n  add\n  0x20\n  swap1\n  div\n  dup2\n  add\n  swap3\n  dup3\n  tag_17\n  jumpi\n  0x00\n  dup6\n  sstore\n  jump(tag_16)\ntag_17:\n  dup3\n  0x1f\n  lt\n  tag_18\n  jumpi\n  dup1\n  mload\n  not(0xff)\n  and\n  dup4\n  dup1\n  add\n  or\n  dup6\n  sstore\n  jump(tag_16)\ntag_18:\n  dup3\n  dup1\n  add\n  0x01\n  add\n  dup6\n  sstore\n  dup3\n  iszero\n  tag_16\n  jumpi\n  swap2\n  dup3\n  add\ntag_19:\n  dup3\n  dup2\n  gt\n  iszero\n  tag_20\n  jumpi\n  dup3\n  mload\n  dup3\n  sstore\n  swap2\n  0x20\n  add\n  swap2\n  swap1\n  0x01\n  add\n  swap1\n  jump(tag_19)\ntag_20:\ntag_16:\n  pop\n  swap1\n  pop\n  tag_21\n  swap2\n  swap1\n  tag_22\n  jump\t// in\ntag_21:\n  pop\n  swap1\n  jump\t// out\ntag_22:\ntag_23:\n  dup1\n  dup3\n  gt\n  iszero\n  tag_24\n  jumpi\n  0x00\n  dup2\n  0x00\n  swap1\n  sstore\n  pop\n  0x01\n  add\n  jump(tag_23)\ntag_24:\n  pop\n  swap1\n  jump\t// out\n    /* \"#utility.yul\":7:150   */\ntag_26:\n    /* \"#utility.yul\":64:69   */\n  0x00\n    /* \"#utility.yul\":95:101   */\n  dup2\n    /* \"#utility.yul\":89:102   */\n  mload\n    /* \"#utility.yul\":80:102   */\n  swap1\n  pop\n    /* \"#utility.yul\":111:144   */\n  tag_28\n    /* \"#utility.yul\":138:143   */\n  dup2\n    /* \"#utility.yul\":111:144   */\n  tag_29\n  jump\t// in\ntag_28:\n    /* \"#utility.yul\":7:150   */\n  swap3\n  swap2\n  pop\n  pop\n  jump\t// out\n    /* \"#utility.yul\":156:663   */\ntag_5:\n    /* \"#utility.yul\":235:241   */\n  0x00\n    /* \"#utility.yul\":243:249   */\n  dup1\n    /* \"#utility.yul\":292:294   */\n  0x40\n    /* \"#utility.yul\":280:289   */\n  dup4\n    /* \"#utility.yul\":271:278   */\n  dup6\n    /* \"#utility.yul\":267:290   */\n  sub\n    /* \"#utility.yul\":263:295   */\n  slt\n    /* \"#utility.yul\":260:379   */\n  iszero\n  tag_31\n  jumpi\n    /* \"#utility.yul\":298:377   */\n  tag_32\n  tag_33\n  jump\t// in\ntag_32:\n    /* \"#utility.yul\":260:379   */\ntag_31:\n    /* \"#utility.yul\":418:419   */\n  0x00\n    /* \"#utility.yul\":443:507   */\n  tag_34\n    /* \"#utility.yul\":499:506   */\n  dup6\n    /* \"#utility.yul\":490:496   */\n  dup3\n    /* \"#utility.yul\":479:488   */\n  dup7\n    /* \"#utility.yul\":475:497   */\n  add\n    /* \"#utility.yul\":443:507   */\n  tag_26\n  jump\t// in\ntag_34:\n    /* \"#utility.yul\":433:507   */\n  swap3\n  pop\n    /* \"#utility.yul\":389:517   */\n  pop\n    /* \"#utility.yul\":556:558   */\n  0x20\n    /* \"#utility.yul\":582:646   */\n  tag_35\n    /* \"#utility.yul\":638:645   */\n  dup6\n    /* \"#utility.yul\":629:635   */\n  dup3\n    /* \"#utility.yul\":618:627   */\n  dup7\n    /* \"#utility.yul\":614:636   */\n  add\n    /* \"#utility.yul\":582:646   */\n  tag_26\n  jump\t// in\ntag_35:\n    /* \"#utility.yul\":572:646   */\n  swap2\n  pop\n    /* \"#utility.yul\":527:656   */\n  pop\n    /* \"#utility.yul\":156:663   */\n  swap3\n  pop\n  swap3\n  swap1\n  pop\n  jump\t// out\n    /* \"#utility.yul\":669:787   */\ntag_36:\n    /* \"#utility.yul\":756:780   */\n  tag_38\n    /* \"#utility.yul\":774:779   */\n  dup2\n    /* \"#utility.yul\":756:780   */\n  tag_39\n  jump\t// in\ntag_38:\n    /* \"#utility.yul\":751:754   */\n  dup3\n    /* \"#utility.yul\":744:781   */\n  mstore\n    /* \"#utility.yul\":669:787   */\n  pop\n  pop\n  jump\t// out\n    /* \"#utility.yul\":793:1015   */\ntag_12:\n    /* \"#utility.yul\":886:890   */\n  0x00\n    /* \"#utility.yul\":924:926   */\n  0x20\n    /* \"#utility.yul\":913:922   */\n  dup3\n    /* \"#utility.yul\":909:927   */\n  add\n    /* \"#utility.yul\":901:927   */\n  swap1\n  pop\n    /* \"#utility.yul\":937:1008   */\n  tag_41\n    /* \"#utility.yul\":1005:1006   */\n  0x00\n    /* \"#utility.yul\":994:1003   */\n  dup4\n    /* \"#utility.yul\":990:1007   */\n  add\n    /* \"#utility.yul\":981:987   */\n  dup5\n    /* \"#utility.yul\":937:1008   */\n  tag_36\n  jump\t// in\ntag_41:\n    /* \"#utility.yul\":793:1015   */\n  swap3\n  swap2\n  pop\n  pop\n  jump\t// out\n    /* \"#utility.yul\":1102:1198   */\ntag_39:\n    /* \"#utility.yul\":1139:1146   */\n  0x00\n    /* \"#utility.yul\":1168:1192   */\n  tag_45\n    /* \"#utility.yul\":1186:1191   */\n  dup3\n    /* \"#utility.yul\":1168:1192   */\n  tag_46\n  jump\t// in\ntag_45:\n    /* \"#utility.yul\":1157:1192   */\n  swap1\n  pop\n    /* \"#utility.yul\":1102:1198   */\n  swap2\n  swap1\n  pop\n  jump\t// out\n    /* \"#utility.yul\":1204:1330   */\ntag_46:\n    /* \"#utility.yul\":1241:1248   */\n  0x00\n    /* \"#utility.yul\":1281:1323   */\n  0xffffffffffffffffffffffffffffffffffffffff\n    /* \"#utility.yul\":1274:1279   */\n  dup3\n    /* \"#utility.yul\":1270:1324   */\n  and\n    /* \"#utility.yul\":1259:1324   */\n  swap1\n  pop\n    /* \"#utility.yul\":1204:1330   */\n  swap2\n  swap1\n  pop\n  jump\t// out\n    /* \"#utility.yul\":1336:1656   */\ntag_15:\n    /* \"#utility.yul\":1380:1386   */\n  0x00\n    /* \"#utility.yul\":1417:1418   */\n  0x02\n    /* \"#utility.yul\":1411:1415   */\n  dup3\n    /* \"#utility.yul\":1407:1419   */\n  div\n    /* \"#utility.yul\":1397:1419   */\n  swap1\n  pop\n    /* \"#utility.yul\":1464:1465   */\n  0x01\n    /* \"#utility.yul\":1458:1462   */\n  dup3\n    /* \"#utility.yul\":1454:1466   */\n  and\n    /* \"#utility.yul\":1485:1503   */\n  dup1\n    /* \"#utility.yul\":1475:1556   */\n  tag_49\n  jumpi\n    /* \"#utility.yul\":1541:1545   */\n  0x7f\n    /* \"#utility.yul\":1533:1539   */\n  dup3\n    /* \"#utility.yul\":1529:1546   */\n  and\n    /* \"#utility.yul\":1519:1546   */\n  swap2\n  pop\n    /* \"#utility.yul\":1475:1556   */\ntag_49:\n    /* \"#utility.yul\":1603:1605   */\n  0x20\n    /* \"#utility.yul\":1595:1601   */\n  dup3\n    /* \"#utility.yul\":1592:1606   */\n  lt\n    /* \"#utility.yul\":1572:1590   */\n  dup2\n    /* \"#utility.yul\":1569:1607   */\n  eq\n    /* \"#utility.yul\":1566:1650   */\n  iszero\n  tag_50\n  jumpi\n    /* \"#utility.yul\":1622:1640   */\n  tag_51\n  tag_52\n  jump\t// in\ntag_51:\n    /* \"#utility.yul\":1566:1650   */\ntag_50:\n    /* \"#utility.yul\":1387:1656   */\n  pop\n    /* \"#utility.yul\":1336:1656   */\n  swap2\n  swap1\n  pop\n  jump\t// out\n    /* \"#utility.yul\":1662:1842   */\ntag_10:\n    /* \"#utility.yul\":1710:1787   */\n  0x4e487b7100000000000000000000000000000000000000000000000000000000\n    /* \"#utility.yul\":1707:1708   */\n  0x00\n    /* \"#utility.yul\":1700:1788   */\n  mstore\n    /* \"#utility.yul\":1807:1811   */\n  0x21\n    /* \"#utility.yul\":1804:1805   */\n  0x04\n    /* \"#utility.yul\":1797:1812   */\n  mstore\n    /* \"#utility.yul\":1831:1835   */\n  0x24\n    /* \"#utility.yul\":1828:1829   */\n  0x00\n    /* \"#utility.yul\":1821:1836   */\n  revert\n    /* \"#utility.yul\":1848:2028   */\ntag_52:\n    /* \"#utility.yul\":1896:1973   */\n  0x4e487b7100000000000000000000000000000000000000000000000000000000\n    /* \"#utility.yul\":1893:1894   */\n  0x00\n    /* \"#utility.yul\":1886:1974   */\n  mstore\n    /* \"#utility.yul\":1993:1997   */\n  0x22\n    /* \"#utility.yul\":1990:1991   */\n  0x04\n    /* \"#utility.yul\":1983:1998   */\n  mstore\n    /* \"#utility.yul\":2017:2021   */\n  0x24\n    /* \"#utility.yul\":2014:2015   */\n  0x00\n    /* \"#utility.yul\":2007:2022   */\n  revert\n    /* \"#utility.yul\":2157:2274   */\ntag_33:\n    /* \"#utility.yul\":2266:2267   */\n  0x00\n    /* \"#utility.yul\":2263:2264   */\n  dup1\n    /* \"#utility.yul\":2256:2268   */\n  revert\n    /* \"#utility.yul\":2280:2402   */\ntag_29:\n    /* \"#utility.yul\":2353:2377   */\n  tag_59\n    /* \"#utility.yul\":2371:2376   */\n  dup2\n    /* \"#utility.yul\":2353:2377   */\n  tag_39\n  jump\t// in\ntag_59:\n    /* \"#utility.yul\":2346:2351   */\n  dup2\n    /* \"#utility.yul\":2343:2378   */\n  eq\n    /* \"#utility.yul\":2333:2396   */\n  tag_60\n  jumpi\n    /* \"#utility.yul\":2392:2393   */\n  0x00\n    /* \"#utility.yul\":2389:2390   */\n  dup1\n    /* \"#utility.yul\":2382:2394   */\n  revert\n    /* \"#utility.yul\":2333:2396   */\ntag_60:\n    /* \"#utility.yul\":2280:2402   */\n  pop\n  jump\t// out\n    /* \"contracts/CovidVaccineSupplyChain.sol\":76:2099  contract Vax {\r... */\ntag_13:\n  dataSize(sub_0)\n  dup1\n  dataOffset(sub_0)\n  0x00\n  codecopy\n  0x00\n  return\nstop\n\nsub_0: assembly {\n        /* \"contracts/CovidVaccineSupplyChain.sol\":76:2099  contract Vax {\r... */\n      mstore(0x40, 0x80)\n      callvalue\n      dup1\n      iszero\n      tag_1\n      jumpi\n      0x00\n      dup1\n      revert\n    tag_1:\n      pop\n      jumpi(tag_2, lt(calldatasize, 0x04))\n      shr(0xe0, calldataload(0x00))\n      dup1\n      0xb6c859bf\n      gt\n      tag_15\n      jumpi\n      dup1\n      0xb6c859bf\n      eq\n      tag_9\n      jumpi\n      dup1\n      0xb6edb26c\n      eq\n      tag_10\n      jumpi\n      dup1\n      0xb7c779f4\n      eq\n      tag_11\n      jumpi\n      dup1\n      0xbf9ce952\n      eq\n      tag_12\n      jumpi\n      dup1\n      0xe25fe175\n      eq\n      tag_13\n      jumpi\n      dup1\n      0xe8950c0f\n      eq\n      tag_14\n      jumpi\n      jump(tag_2)\n    tag_15:\n      dup1\n      0x0fc8f82a\n      eq\n      tag_3\n      jumpi\n      dup1\n      0x11e760dc\n      eq\n      tag_4\n      jumpi\n      dup1\n      0x1fe49587\n      eq\n      tag_5\n      jumpi\n      dup1\n      0x36da4468\n      eq\n      tag_6\n      jumpi\n      dup1\n      0x3d5a70c2\n      eq\n      tag_7\n      jumpi\n      dup1\n      0xaa2fedde\n      eq\n      tag_8\n      jumpi\n    tag_2:\n      0x00\n      dup1\n      revert\n        /* \"contracts/CovidVaccineSupplyChain.sol\":102:133  string public CODE =\"Covid Vax\" */\n    tag_3:\n      tag_16\n      tag_17\n      jump\t// in\n    tag_16:\n      mload(0x40)\n      tag_18\n      swap2\n      swap1\n      tag_19\n      jump\t// in\n    tag_18:\n      mload(0x40)\n      dup1\n      swap2\n      sub\n      swap1\n      return\n        /* \"contracts/CovidVaccineSupplyChain.sol\":531:569  DefectiveReason public defectiveReason */\n    tag_4:\n      tag_20\n      tag_21\n      jump\t// in\n    tag_20:\n      mload(0x40)\n      tag_22\n      swap2\n      swap1\n      tag_23\n      jump\t// in\n    tag_22:\n      mload(0x40)\n      dup1\n      swap2\n      sub\n      swap1\n      return\n        /* \"contracts/CovidVaccineSupplyChain.sol\":1046:1185  function Auth(address _deliverer)external isOwner{\r... */\n    tag_5:\n      tag_24\n      0x04\n      dup1\n      calldatasize\n      sub\n      dup2\n      add\n      swap1\n      tag_25\n      swap2\n      swap1\n      tag_26\n      jump\t// in\n    tag_25:\n      tag_27\n      jump\t// in\n    tag_24:\n      stop\n        /* \"contracts/CovidVaccineSupplyChain.sol\":169:192  address public supplier */\n    tag_6:\n      tag_28\n      tag_29\n      jump\t// in\n    tag_28:\n      mload(0x40)\n      tag_30\n      swap2\n      swap1\n      tag_31\n      jump\t// in\n    tag_30:\n      mload(0x40)\n      dup1\n      swap2\n      sub\n      swap1\n      return\n        /* \"contracts/CovidVaccineSupplyChain.sol\":1579:1824  function delivery()external {\r... */\n    tag_7:\n      tag_32\n      tag_33\n      jump\t// in\n    tag_32:\n      stop\n        /* \"contracts/CovidVaccineSupplyChain.sol\":199:222  address public hospital */\n    tag_8:\n      tag_34\n      tag_35\n      jump\t// in\n    tag_34:\n      mload(0x40)\n      tag_36\n      swap2\n      swap1\n      tag_31\n      jump\t// in\n    tag_36:\n      mload(0x40)\n      dup1\n      swap2\n      sub\n      swap1\n      return\n        /* \"contracts/CovidVaccineSupplyChain.sol\":1197:1385  function StepOfDelivery() external isOwner{\r... */\n    tag_9:\n      tag_37\n      tag_38\n      jump\t// in\n    tag_37:\n      stop\n        /* \"contracts/CovidVaccineSupplyChain.sol\":1834:2090  function ProductDestruct()external {\r... */\n    tag_10:\n      tag_39\n      tag_40\n      jump\t// in\n    tag_39:\n      stop\n        /* \"contracts/CovidVaccineSupplyChain.sol\":1393:1571  function deliveryManfunction() external isDeliverer{\r... */\n    tag_11:\n      tag_41\n      tag_42\n      jump\t// in\n    tag_41:\n      stop\n        /* \"contracts/CovidVaccineSupplyChain.sol\":140:162  address public product */\n    tag_12:\n      tag_43\n      tag_44\n      jump\t// in\n    tag_43:\n      mload(0x40)\n      tag_45\n      swap2\n      swap1\n      tag_31\n      jump\t// in\n    tag_45:\n      mload(0x40)\n      dup1\n      swap2\n      sub\n      swap1\n      return\n        /* \"contracts/CovidVaccineSupplyChain.sol\":508:524  Step public step */\n    tag_13:\n      tag_46\n      tag_47\n      jump\t// in\n    tag_46:\n      mload(0x40)\n      tag_48\n      swap2\n      swap1\n      tag_49\n      jump\t// in\n    tag_48:\n      mload(0x40)\n      dup1\n      swap2\n      sub\n      swap1\n      return\n        /* \"contracts/CovidVaccineSupplyChain.sol\":229:271  mapping (address => bool)public deliverers */\n    tag_14:\n      tag_50\n      0x04\n      dup1\n      calldatasize\n      sub\n      dup2\n      add\n      swap1\n      tag_51\n      swap2\n      swap1\n      tag_26\n      jump\t// in\n    tag_51:\n      tag_52\n      jump\t// in\n    tag_50:\n      mload(0x40)\n      tag_53\n      swap2\n      swap1\n      tag_54\n      jump\t// in\n    tag_53:\n      mload(0x40)\n      dup1\n      swap2\n      sub\n      swap1\n      return\n        /* \"contracts/CovidVaccineSupplyChain.sol\":102:133  string public CODE =\"Covid Vax\" */\n    tag_17:\n      0x00\n      dup1\n      sload\n      tag_55\n      swap1\n      tag_56\n      jump\t// in\n    tag_55:\n      dup1\n      0x1f\n      add\n      0x20\n      dup1\n      swap2\n      div\n      mul\n      0x20\n      add\n      mload(0x40)\n      swap1\n      dup2\n      add\n      0x40\n      mstore\n      dup1\n      swap3\n      swap2\n      swap1\n      dup2\n      dup2\n      mstore\n      0x20\n      add\n      dup3\n      dup1\n      sload\n      tag_57\n      swap1\n      tag_56\n      jump\t// in\n    tag_57:\n      dup1\n      iszero\n      tag_58\n      jumpi\n      dup1\n      0x1f\n      lt\n      tag_59\n      jumpi\n      0x0100\n      dup1\n      dup4\n      sload\n      div\n      mul\n      dup4\n      mstore\n      swap2\n      0x20\n      add\n      swap2\n      jump(tag_58)\n    tag_59:\n      dup3\n      add\n      swap2\n      swap1\n      0x00\n      mstore\n      keccak256(0x00, 0x20)\n      swap1\n    tag_60:\n      dup2\n      sload\n      dup2\n      mstore\n      swap1\n      0x01\n      add\n      swap1\n      0x20\n      add\n      dup1\n      dup4\n      gt\n      tag_60\n      jumpi\n      dup3\n      swap1\n      sub\n      0x1f\n      and\n      dup3\n      add\n      swap2\n    tag_58:\n      pop\n      pop\n      pop\n      pop\n      pop\n      dup2\n      jump\t// out\n        /* \"contracts/CovidVaccineSupplyChain.sol\":531:569  DefectiveReason public defectiveReason */\n    tag_21:\n      0x05\n      0x01\n      swap1\n      sload\n      swap1\n      0x0100\n      exp\n      swap1\n      div\n      0xff\n      and\n      dup2\n      jump\t// out\n        /* \"contracts/CovidVaccineSupplyChain.sol\":1046:1185  function Auth(address _deliverer)external isOwner{\r... */\n    tag_27:\n        /* \"contracts/CovidVaccineSupplyChain.sol\":854:862  supplier */\n      0x02\n      0x00\n      swap1\n      sload\n      swap1\n      0x0100\n      exp\n      swap1\n      div\n      0xffffffffffffffffffffffffffffffffffffffff\n      and\n        /* \"contracts/CovidVaccineSupplyChain.sol\":840:862  msg.sender == supplier */\n      0xffffffffffffffffffffffffffffffffffffffff\n      and\n        /* \"contracts/CovidVaccineSupplyChain.sol\":840:850  msg.sender */\n      caller\n        /* \"contracts/CovidVaccineSupplyChain.sol\":840:862  msg.sender == supplier */\n      0xffffffffffffffffffffffffffffffffffffffff\n      and\n      eq\n        /* \"contracts/CovidVaccineSupplyChain.sol\":832:889  require(msg.sender == supplier, \" You are not the owner\") */\n      tag_62\n      jumpi\n      mload(0x40)\n      0x08c379a000000000000000000000000000000000000000000000000000000000\n      dup2\n      mstore\n      0x04\n      add\n      tag_63\n      swap1\n      tag_64\n      jump\t// in\n    tag_63:\n      mload(0x40)\n      dup1\n      swap2\n      sub\n      swap1\n      revert\n    tag_62:\n        /* \"contracts/CovidVaccineSupplyChain.sol\":1131:1135  true */\n      0x01\n        /* \"contracts/CovidVaccineSupplyChain.sol\":1106:1116  deliverers */\n      0x04\n        /* \"contracts/CovidVaccineSupplyChain.sol\":1106:1128  deliverers[_deliverer] */\n      0x00\n        /* \"contracts/CovidVaccineSupplyChain.sol\":1117:1127  _deliverer */\n      dup4\n        /* \"contracts/CovidVaccineSupplyChain.sol\":1106:1128  deliverers[_deliverer] */\n      0xffffffffffffffffffffffffffffffffffffffff\n      and\n      0xffffffffffffffffffffffffffffffffffffffff\n      and\n      dup2\n      mstore\n      0x20\n      add\n      swap1\n      dup2\n      mstore\n      0x20\n      add\n      0x00\n      keccak256\n      0x00\n        /* \"contracts/CovidVaccineSupplyChain.sol\":1106:1135  deliverers[_deliverer] = true */\n      0x0100\n      exp\n      dup2\n      sload\n      dup2\n      0xff\n      mul\n      not\n      and\n      swap1\n      dup4\n      iszero\n      iszero\n      mul\n      or\n      swap1\n      sstore\n      pop\n        /* \"contracts/CovidVaccineSupplyChain.sol\":1151:1177  OwnerOfProduct(msg.sender) */\n      0x400153a8cebbd91509d8511ec62d3fe08eac19a7afab5e61a723c0860db23520\n        /* \"contracts/CovidVaccineSupplyChain.sol\":1166:1176  msg.sender */\n      caller\n        /* \"contracts/CovidVaccineSupplyChain.sol\":1151:1177  OwnerOfProduct(msg.sender) */\n      mload(0x40)\n      tag_66\n      swap2\n      swap1\n      tag_31\n      jump\t// in\n    tag_66:\n      mload(0x40)\n      dup1\n      swap2\n      sub\n      swap1\n      log1\n        /* \"contracts/CovidVaccineSupplyChain.sol\":1046:1185  function Auth(address _deliverer)external isOwner{\r... */\n      pop\n      jump\t// out\n        /* \"contracts/CovidVaccineSupplyChain.sol\":169:192  address public supplier */\n    tag_29:\n      0x02\n      0x00\n      swap1\n      sload\n      swap1\n      0x0100\n      exp\n      swap1\n      div\n      0xffffffffffffffffffffffffffffffffffffffff\n      and\n      dup2\n      jump\t// out\n        /* \"contracts/CovidVaccineSupplyChain.sol\":1579:1824  function delivery()external {\r... */\n    tag_33:\n        /* \"contracts/CovidVaccineSupplyChain.sol\":1634:1644  Step.onWay */\n      0x02\n        /* \"contracts/CovidVaccineSupplyChain.sol\":1626:1644  step == Step.onWay */\n      0x04\n      dup2\n      gt\n      iszero\n      tag_68\n      jumpi\n      tag_69\n      tag_70\n      jump\t// in\n    tag_69:\n    tag_68:\n        /* \"contracts/CovidVaccineSupplyChain.sol\":1626:1630  step */\n      0x05\n      0x00\n      swap1\n      sload\n      swap1\n      0x0100\n      exp\n      swap1\n      div\n      0xff\n      and\n        /* \"contracts/CovidVaccineSupplyChain.sol\":1626:1644  step == Step.onWay */\n      0x04\n      dup2\n      gt\n      iszero\n      tag_71\n      jumpi\n      tag_72\n      tag_70\n      jump\t// in\n    tag_72:\n    tag_71:\n      eq\n        /* \"contracts/CovidVaccineSupplyChain.sol\":1618:1676  require(step == Step.onWay , \"Still waiting for delivery\") */\n      tag_73\n      jumpi\n      mload(0x40)\n      0x08c379a000000000000000000000000000000000000000000000000000000000\n      dup2\n      mstore\n      0x04\n      add\n      tag_74\n      swap1\n      tag_75\n      jump\t// in\n    tag_74:\n      mload(0x40)\n      dup1\n      swap2\n      sub\n      swap1\n      revert\n    tag_73:\n        /* \"contracts/CovidVaccineSupplyChain.sol\":1709:1717  hospital */\n      0x03\n      0x00\n      swap1\n      sload\n      swap1\n      0x0100\n      exp\n      swap1\n      div\n      0xffffffffffffffffffffffffffffffffffffffff\n      and\n        /* \"contracts/CovidVaccineSupplyChain.sol\":1695:1717  msg.sender == hospital */\n      0xffffffffffffffffffffffffffffffffffffffff\n      and\n        /* \"contracts/CovidVaccineSupplyChain.sol\":1695:1705  msg.sender */\n      caller\n        /* \"contracts/CovidVaccineSupplyChain.sol\":1695:1717  msg.sender == hospital */\n      0xffffffffffffffffffffffffffffffffffffffff\n      and\n      eq\n        /* \"contracts/CovidVaccineSupplyChain.sol\":1687:1744  require(msg.sender == hospital, \"Not the right hospital\") */\n      tag_76\n      jumpi\n      mload(0x40)\n      0x08c379a000000000000000000000000000000000000000000000000000000000\n      dup2\n      mstore\n      0x04\n      add\n      tag_77\n      swap1\n      tag_78\n      jump\t// in\n    tag_77:\n      mload(0x40)\n      dup1\n      swap2\n      sub\n      swap1\n      revert\n    tag_76:\n        /* \"contracts/CovidVaccineSupplyChain.sol\":1762:1774  Step.shipped */\n      0x03\n        /* \"contracts/CovidVaccineSupplyChain.sol\":1755:1759  step */\n      0x05\n      0x00\n        /* \"contracts/CovidVaccineSupplyChain.sol\":1755:1774  step = Step.shipped */\n      0x0100\n      exp\n      dup2\n      sload\n      dup2\n      0xff\n      mul\n      not\n      and\n      swap1\n      dup4\n      0x04\n      dup2\n      gt\n      iszero\n      tag_79\n      jumpi\n      tag_80\n      tag_70\n      jump\t// in\n    tag_80:\n    tag_79:\n      mul\n      or\n      swap1\n      sstore\n      pop\n        /* \"contracts/CovidVaccineSupplyChain.sol\":1790:1816  OwnerOfProduct(msg.sender) */\n      0x400153a8cebbd91509d8511ec62d3fe08eac19a7afab5e61a723c0860db23520\n        /* \"contracts/CovidVaccineSupplyChain.sol\":1805:1815  msg.sender */\n      caller\n        /* \"contracts/CovidVaccineSupplyChain.sol\":1790:1816  OwnerOfProduct(msg.sender) */\n      mload(0x40)\n      tag_81\n      swap2\n      swap1\n      tag_31\n      jump\t// in\n    tag_81:\n      mload(0x40)\n      dup1\n      swap2\n      sub\n      swap1\n      log1\n        /* \"contracts/CovidVaccineSupplyChain.sol\":1579:1824  function delivery()external {\r... */\n      jump\t// out\n        /* \"contracts/CovidVaccineSupplyChain.sol\":199:222  address public hospital */\n    tag_35:\n      0x03\n      0x00\n      swap1\n      sload\n      swap1\n      0x0100\n      exp\n      swap1\n      div\n      0xffffffffffffffffffffffffffffffffffffffff\n      and\n      dup2\n      jump\t// out\n        /* \"contracts/CovidVaccineSupplyChain.sol\":1197:1385  function StepOfDelivery() external isOwner{\r... */\n    tag_38:\n        /* \"contracts/CovidVaccineSupplyChain.sol\":854:862  supplier */\n      0x02\n      0x00\n      swap1\n      sload\n      swap1\n      0x0100\n      exp\n      swap1\n      div\n      0xffffffffffffffffffffffffffffffffffffffff\n      and\n        /* \"contracts/CovidVaccineSupplyChain.sol\":840:862  msg.sender == supplier */\n      0xffffffffffffffffffffffffffffffffffffffff\n      and\n        /* \"contracts/CovidVaccineSupplyChain.sol\":840:850  msg.sender */\n      caller\n        /* \"contracts/CovidVaccineSupplyChain.sol\":840:862  msg.sender == supplier */\n      0xffffffffffffffffffffffffffffffffffffffff\n      and\n      eq\n        /* \"contracts/CovidVaccineSupplyChain.sol\":832:889  require(msg.sender == supplier, \" You are not the owner\") */\n      tag_83\n      jumpi\n      mload(0x40)\n      0x08c379a000000000000000000000000000000000000000000000000000000000\n      dup2\n      mstore\n      0x04\n      add\n      tag_84\n      swap1\n      tag_64\n      jump\t// in\n    tag_84:\n      mload(0x40)\n      dup1\n      swap2\n      sub\n      swap1\n      revert\n    tag_83:\n        /* \"contracts/CovidVaccineSupplyChain.sol\":1266:1281  Step.production */\n      0x00\n        /* \"contracts/CovidVaccineSupplyChain.sol\":1258:1281  step == Step.production */\n      0x04\n      dup2\n      gt\n      iszero\n      tag_86\n      jumpi\n      tag_87\n      tag_70\n      jump\t// in\n    tag_87:\n    tag_86:\n        /* \"contracts/CovidVaccineSupplyChain.sol\":1258:1262  step */\n      0x05\n      0x00\n      swap1\n      sload\n      swap1\n      0x0100\n      exp\n      swap1\n      div\n      0xff\n      and\n        /* \"contracts/CovidVaccineSupplyChain.sol\":1258:1281  step == Step.production */\n      0x04\n      dup2\n      gt\n      iszero\n      tag_88\n      jumpi\n      tag_89\n      tag_70\n      jump\t// in\n    tag_89:\n    tag_88:\n      eq\n        /* \"contracts/CovidVaccineSupplyChain.sol\":1250:1303  require(step == Step.production, \"Not in production\") */\n      tag_90\n      jumpi\n      mload(0x40)\n      0x08c379a000000000000000000000000000000000000000000000000000000000\n      dup2\n      mstore\n      0x04\n      add\n      tag_91\n      swap1\n      tag_92\n      jump\t// in\n    tag_91:\n      mload(0x40)\n      dup1\n      swap2\n      sub\n      swap1\n      revert\n    tag_90:\n        /* \"contracts/CovidVaccineSupplyChain.sol\":1321:1333  Step.waiting */\n      0x01\n        /* \"contracts/CovidVaccineSupplyChain.sol\":1314:1318  step */\n      0x05\n      0x00\n        /* \"contracts/CovidVaccineSupplyChain.sol\":1314:1333  step = Step.waiting */\n      0x0100\n      exp\n      dup2\n      sload\n      dup2\n      0xff\n      mul\n      not\n      and\n      swap1\n      dup4\n      0x04\n      dup2\n      gt\n      iszero\n      tag_93\n      jumpi\n      tag_94\n      tag_70\n      jump\t// in\n    tag_94:\n    tag_93:\n      mul\n      or\n      swap1\n      sstore\n      pop\n        /* \"contracts/CovidVaccineSupplyChain.sol\":1351:1377  OwnerOfProduct(msg.sender) */\n      0x400153a8cebbd91509d8511ec62d3fe08eac19a7afab5e61a723c0860db23520\n        /* \"contracts/CovidVaccineSupplyChain.sol\":1366:1376  msg.sender */\n      caller\n        /* \"contracts/CovidVaccineSupplyChain.sol\":1351:1377  OwnerOfProduct(msg.sender) */\n      mload(0x40)\n      tag_95\n      swap2\n      swap1\n      tag_31\n      jump\t// in\n    tag_95:\n      mload(0x40)\n      dup1\n      swap2\n      sub\n      swap1\n      log1\n        /* \"contracts/CovidVaccineSupplyChain.sol\":1197:1385  function StepOfDelivery() external isOwner{\r... */\n      jump\t// out\n        /* \"contracts/CovidVaccineSupplyChain.sol\":1834:2090  function ProductDestruct()external {\r... */\n    tag_40:\n        /* \"contracts/CovidVaccineSupplyChain.sol\":1896:1908  Step.shipped */\n      0x03\n        /* \"contracts/CovidVaccineSupplyChain.sol\":1888:1908  step == Step.shipped */\n      0x04\n      dup2\n      gt\n      iszero\n      tag_97\n      jumpi\n      tag_98\n      tag_70\n      jump\t// in\n    tag_98:\n    tag_97:\n        /* \"contracts/CovidVaccineSupplyChain.sol\":1888:1892  step */\n      0x05\n      0x00\n      swap1\n      sload\n      swap1\n      0x0100\n      exp\n      swap1\n      div\n      0xff\n      and\n        /* \"contracts/CovidVaccineSupplyChain.sol\":1888:1908  step == Step.shipped */\n      0x04\n      dup2\n      gt\n      iszero\n      tag_99\n      jumpi\n      tag_100\n      tag_70\n      jump\t// in\n    tag_100:\n    tag_99:\n      eq\n        /* \"contracts/CovidVaccineSupplyChain.sol\":1880:1940  require(step == Step.shipped , \"Still waiting for delivery\") */\n      tag_101\n      jumpi\n      mload(0x40)\n      0x08c379a000000000000000000000000000000000000000000000000000000000\n      dup2\n      mstore\n      0x04\n      add\n      tag_102\n      swap1\n      tag_75\n      jump\t// in\n    tag_102:\n      mload(0x40)\n      dup1\n      swap2\n      sub\n      swap1\n      revert\n    tag_101:\n        /* \"contracts/CovidVaccineSupplyChain.sol\":1973:1981  hospital */\n      0x03\n      0x00\n      swap1\n      sload\n      swap1\n      0x0100\n      exp\n      swap1\n      div\n      0xffffffffffffffffffffffffffffffffffffffff\n      and\n        /* \"contracts/CovidVaccineSupplyChain.sol\":1959:1981  msg.sender == hospital */\n      0xffffffffffffffffffffffffffffffffffffffff\n      and\n        /* \"contracts/CovidVaccineSupplyChain.sol\":1959:1969  msg.sender */\n      caller\n        /* \"contracts/CovidVaccineSupplyChain.sol\":1959:1981  msg.sender == hospital */\n      0xffffffffffffffffffffffffffffffffffffffff\n      and\n      eq\n        /* \"contracts/CovidVaccineSupplyChain.sol\":1951:2008  require(msg.sender == hospital, \"Not the right hospital\") */\n      tag_103\n      jumpi\n      mload(0x40)\n      0x08c379a000000000000000000000000000000000000000000000000000000000\n      dup2\n      mstore\n      0x04\n      add\n      tag_104\n      swap1\n      tag_78\n      jump\t// in\n    tag_104:\n      mload(0x40)\n      dup1\n      swap2\n      sub\n      swap1\n      revert\n    tag_103:\n        /* \"contracts/CovidVaccineSupplyChain.sol\":2026:2040  Step.defective */\n      0x04\n        /* \"contracts/CovidVaccineSupplyChain.sol\":2019:2023  step */\n      0x05\n      0x00\n        /* \"contracts/CovidVaccineSupplyChain.sol\":2019:2040  step = Step.defective */\n      0x0100\n      exp\n      dup2\n      sload\n      dup2\n      0xff\n      mul\n      not\n      and\n      swap1\n      dup4\n      0x04\n      dup2\n      gt\n      iszero\n      tag_105\n      jumpi\n      tag_106\n      tag_70\n      jump\t// in\n    tag_106:\n    tag_105:\n      mul\n      or\n      swap1\n      sstore\n      pop\n        /* \"contracts/CovidVaccineSupplyChain.sol\":2056:2082  OwnerOfProduct(msg.sender) */\n      0x400153a8cebbd91509d8511ec62d3fe08eac19a7afab5e61a723c0860db23520\n        /* \"contracts/CovidVaccineSupplyChain.sol\":2071:2081  msg.sender */\n      caller\n        /* \"contracts/CovidVaccineSupplyChain.sol\":2056:2082  OwnerOfProduct(msg.sender) */\n      mload(0x40)\n      tag_107\n      swap2\n      swap1\n      tag_31\n      jump\t// in\n    tag_107:\n      mload(0x40)\n      dup1\n      swap2\n      sub\n      swap1\n      log1\n        /* \"contracts/CovidVaccineSupplyChain.sol\":1834:2090  function ProductDestruct()external {\r... */\n      jump\t// out\n        /* \"contracts/CovidVaccineSupplyChain.sol\":1393:1571  function deliveryManfunction() external isDeliverer{\r... */\n    tag_42:\n        /* \"contracts/CovidVaccineSupplyChain.sol\":987:991  true */\n      0x01\n        /* \"contracts/CovidVaccineSupplyChain.sol\":961:991  deliverers[msg.sender] == true */\n      iszero\n      iszero\n        /* \"contracts/CovidVaccineSupplyChain.sol\":961:971  deliverers */\n      0x04\n        /* \"contracts/CovidVaccineSupplyChain.sol\":961:983  deliverers[msg.sender] */\n      0x00\n        /* \"contracts/CovidVaccineSupplyChain.sol\":972:982  msg.sender */\n      caller\n        /* \"contracts/CovidVaccineSupplyChain.sol\":961:983  deliverers[msg.sender] */\n      0xffffffffffffffffffffffffffffffffffffffff\n      and\n      0xffffffffffffffffffffffffffffffffffffffff\n      and\n      dup2\n      mstore\n      0x20\n      add\n      swap1\n      dup2\n      mstore\n      0x20\n      add\n      0x00\n      keccak256\n      0x00\n      swap1\n      sload\n      swap1\n      0x0100\n      exp\n      swap1\n      div\n      0xff\n      and\n        /* \"contracts/CovidVaccineSupplyChain.sol\":961:991  deliverers[msg.sender] == true */\n      iszero\n      iszero\n      eq\n        /* \"contracts/CovidVaccineSupplyChain.sol\":953:1018  require(deliverers[msg.sender] == true, \" You are not the owner\") */\n      tag_109\n      jumpi\n      mload(0x40)\n      0x08c379a000000000000000000000000000000000000000000000000000000000\n      dup2\n      mstore\n      0x04\n      add\n      tag_110\n      swap1\n      tag_64\n      jump\t// in\n    tag_110:\n      mload(0x40)\n      dup1\n      swap2\n      sub\n      swap1\n      revert\n    tag_109:\n        /* \"contracts/CovidVaccineSupplyChain.sol\":1471:1483  Step.waiting */\n      0x01\n        /* \"contracts/CovidVaccineSupplyChain.sol\":1463:1483  step == Step.waiting */\n      0x04\n      dup2\n      gt\n      iszero\n      tag_112\n      jumpi\n      tag_113\n      tag_70\n      jump\t// in\n    tag_113:\n    tag_112:\n        /* \"contracts/CovidVaccineSupplyChain.sol\":1463:1467  step */\n      0x05\n      0x00\n      swap1\n      sload\n      swap1\n      0x0100\n      exp\n      swap1\n      div\n      0xff\n      and\n        /* \"contracts/CovidVaccineSupplyChain.sol\":1463:1483  step == Step.waiting */\n      0x04\n      dup2\n      gt\n      iszero\n      tag_114\n      jumpi\n      tag_115\n      tag_70\n      jump\t// in\n    tag_115:\n    tag_114:\n      eq\n        /* \"contracts/CovidVaccineSupplyChain.sol\":1455:1498  require(step == Step.waiting , \"Not ready\") */\n      tag_116\n      jumpi\n      mload(0x40)\n      0x08c379a000000000000000000000000000000000000000000000000000000000\n      dup2\n      mstore\n      0x04\n      add\n      tag_117\n      swap1\n      tag_118\n      jump\t// in\n    tag_117:\n      mload(0x40)\n      dup1\n      swap2\n      sub\n      swap1\n      revert\n    tag_116:\n        /* \"contracts/CovidVaccineSupplyChain.sol\":1516:1526  Step.onWay */\n      0x02\n        /* \"contracts/CovidVaccineSupplyChain.sol\":1509:1513  step */\n      0x05\n      0x00\n        /* \"contracts/CovidVaccineSupplyChain.sol\":1509:1526  step = Step.onWay */\n      0x0100\n      exp\n      dup2\n      sload\n      dup2\n      0xff\n      mul\n      not\n      and\n      swap1\n      dup4\n      0x04\n      dup2\n      gt\n      iszero\n      tag_119\n      jumpi\n      tag_120\n      tag_70\n      jump\t// in\n    tag_120:\n    tag_119:\n      mul\n      or\n      swap1\n      sstore\n      pop\n        /* \"contracts/CovidVaccineSupplyChain.sol\":1542:1563  Deliverer(msg.sender) */\n      0xfb229d12ab26294bc680d0ad524e4315a0ce05f84a2b75c4c7a0da7f1c0b1343\n        /* \"contracts/CovidVaccineSupplyChain.sol\":1552:1562  msg.sender */\n      caller\n        /* \"contracts/CovidVaccineSupplyChain.sol\":1542:1563  Deliverer(msg.sender) */\n      mload(0x40)\n      tag_121\n      swap2\n      swap1\n      tag_31\n      jump\t// in\n    tag_121:\n      mload(0x40)\n      dup1\n      swap2\n      sub\n      swap1\n      log1\n        /* \"contracts/CovidVaccineSupplyChain.sol\":1393:1571  function deliveryManfunction() external isDeliverer{\r... */\n      jump\t// out\n        /* \"contracts/CovidVaccineSupplyChain.sol\":140:162  address public product */\n    tag_44:\n      0x01\n      0x00\n      swap1\n      sload\n      swap1\n      0x0100\n      exp\n      swap1\n      div\n      0xffffffffffffffffffffffffffffffffffffffff\n      and\n      dup2\n      jump\t// out\n        /* \"contracts/CovidVaccineSupplyChain.sol\":508:524  Step public step */\n    tag_47:\n      0x05\n      0x00\n      swap1\n      sload\n      swap1\n      0x0100\n      exp\n      swap1\n      div\n      0xff\n      and\n      dup2\n      jump\t// out\n        /* \"contracts/CovidVaccineSupplyChain.sol\":229:271  mapping (address => bool)public deliverers */\n    tag_52:\n      mstore(0x20, 0x04)\n      dup1\n      0x00\n      mstore\n      keccak256(0x00, 0x40)\n      0x00\n      swap2\n      pop\n      sload\n      swap1\n      0x0100\n      exp\n      swap1\n      div\n      0xff\n      and\n      dup2\n      jump\t// out\n        /* \"#utility.yul\":7:146   */\n    tag_123:\n        /* \"#utility.yul\":53:58   */\n      0x00\n        /* \"#utility.yul\":91:97   */\n      dup2\n        /* \"#utility.yul\":78:98   */\n      calldataload\n        /* \"#utility.yul\":69:98   */\n      swap1\n      pop\n        /* \"#utility.yul\":107:140   */\n      tag_125\n        /* \"#utility.yul\":134:139   */\n      dup2\n        /* \"#utility.yul\":107:140   */\n      tag_126\n      jump\t// in\n    tag_125:\n        /* \"#utility.yul\":7:146   */\n      swap3\n      swap2\n      pop\n      pop\n      jump\t// out\n        /* \"#utility.yul\":152:481   */\n    tag_26:\n        /* \"#utility.yul\":211:217   */\n      0x00\n        /* \"#utility.yul\":260:262   */\n      0x20\n        /* \"#utility.yul\":248:257   */\n      dup3\n        /* \"#utility.yul\":239:246   */\n      dup5\n        /* \"#utility.yul\":235:258   */\n      sub\n        /* \"#utility.yul\":231:263   */\n      slt\n        /* \"#utility.yul\":228:347   */\n      iszero\n      tag_128\n      jumpi\n        /* \"#utility.yul\":266:345   */\n      tag_129\n      tag_130\n      jump\t// in\n    tag_129:\n        /* \"#utility.yul\":228:347   */\n    tag_128:\n        /* \"#utility.yul\":386:387   */\n      0x00\n        /* \"#utility.yul\":411:464   */\n      tag_131\n        /* \"#utility.yul\":456:463   */\n      dup5\n        /* \"#utility.yul\":447:453   */\n      dup3\n        /* \"#utility.yul\":436:445   */\n      dup6\n        /* \"#utility.yul\":432:454   */\n      add\n        /* \"#utility.yul\":411:464   */\n      tag_123\n      jump\t// in\n    tag_131:\n        /* \"#utility.yul\":401:464   */\n      swap2\n      pop\n        /* \"#utility.yul\":357:474   */\n      pop\n        /* \"#utility.yul\":152:481   */\n      swap3\n      swap2\n      pop\n      pop\n      jump\t// out\n        /* \"#utility.yul\":487:605   */\n    tag_132:\n        /* \"#utility.yul\":574:598   */\n      tag_134\n        /* \"#utility.yul\":592:597   */\n      dup2\n        /* \"#utility.yul\":574:598   */\n      tag_135\n      jump\t// in\n    tag_134:\n        /* \"#utility.yul\":569:572   */\n      dup3\n        /* \"#utility.yul\":562:599   */\n      mstore\n        /* \"#utility.yul\":487:605   */\n      pop\n      pop\n      jump\t// out\n        /* \"#utility.yul\":611:720   */\n    tag_136:\n        /* \"#utility.yul\":692:713   */\n      tag_138\n        /* \"#utility.yul\":707:712   */\n      dup2\n        /* \"#utility.yul\":692:713   */\n      tag_139\n      jump\t// in\n    tag_138:\n        /* \"#utility.yul\":687:690   */\n      dup3\n        /* \"#utility.yul\":680:714   */\n      mstore\n        /* \"#utility.yul\":611:720   */\n      pop\n      pop\n      jump\t// out\n        /* \"#utility.yul\":726:889   */\n    tag_140:\n        /* \"#utility.yul\":829:882   */\n      tag_142\n        /* \"#utility.yul\":876:881   */\n      dup2\n        /* \"#utility.yul\":829:882   */\n      tag_143\n      jump\t// in\n    tag_142:\n        /* \"#utility.yul\":824:827   */\n      dup3\n        /* \"#utility.yul\":817:883   */\n      mstore\n        /* \"#utility.yul\":726:889   */\n      pop\n      pop\n      jump\t// out\n        /* \"#utility.yul\":895:1036   */\n    tag_144:\n        /* \"#utility.yul\":987:1029   */\n      tag_146\n        /* \"#utility.yul\":1023:1028   */\n      dup2\n        /* \"#utility.yul\":987:1029   */\n      tag_147\n      jump\t// in\n    tag_146:\n        /* \"#utility.yul\":982:985   */\n      dup3\n        /* \"#utility.yul\":975:1030   */\n      mstore\n        /* \"#utility.yul\":895:1036   */\n      pop\n      pop\n      jump\t// out\n        /* \"#utility.yul\":1042:1406   */\n    tag_148:\n        /* \"#utility.yul\":1130:1133   */\n      0x00\n        /* \"#utility.yul\":1158:1197   */\n      tag_150\n        /* \"#utility.yul\":1191:1196   */\n      dup3\n        /* \"#utility.yul\":1158:1197   */\n      tag_151\n      jump\t// in\n    tag_150:\n        /* \"#utility.yul\":1213:1284   */\n      tag_152\n        /* \"#utility.yul\":1277:1283   */\n      dup2\n        /* \"#utility.yul\":1272:1275   */\n      dup6\n        /* \"#utility.yul\":1213:1284   */\n      tag_153\n      jump\t// in\n    tag_152:\n        /* \"#utility.yul\":1206:1284   */\n      swap4\n      pop\n        /* \"#utility.yul\":1293:1345   */\n      tag_154\n        /* \"#utility.yul\":1338:1344   */\n      dup2\n        /* \"#utility.yul\":1333:1336   */\n      dup6\n        /* \"#utility.yul\":1326:1330   */\n      0x20\n        /* \"#utility.yul\":1319:1324   */\n      dup7\n        /* \"#utility.yul\":1315:1331   */\n      add\n        /* \"#utility.yul\":1293:1345   */\n      tag_155\n      jump\t// in\n    tag_154:\n        /* \"#utility.yul\":1370:1399   */\n      tag_156\n        /* \"#utility.yul\":1392:1398   */\n      dup2\n        /* \"#utility.yul\":1370:1399   */\n      tag_157\n      jump\t// in\n    tag_156:\n        /* \"#utility.yul\":1365:1368   */\n      dup5\n        /* \"#utility.yul\":1361:1400   */\n      add\n        /* \"#utility.yul\":1354:1400   */\n      swap2\n      pop\n        /* \"#utility.yul\":1134:1406   */\n      pop\n        /* \"#utility.yul\":1042:1406   */\n      swap3\n      swap2\n      pop\n      pop\n      jump\t// out\n        /* \"#utility.yul\":1412:1778   */\n    tag_158:\n        /* \"#utility.yul\":1554:1557   */\n      0x00\n        /* \"#utility.yul\":1575:1642   */\n      tag_160\n        /* \"#utility.yul\":1639:1641   */\n      0x16\n        /* \"#utility.yul\":1634:1637   */\n      dup4\n        /* \"#utility.yul\":1575:1642   */\n      tag_153\n      jump\t// in\n    tag_160:\n        /* \"#utility.yul\":1568:1642   */\n      swap2\n      pop\n        /* \"#utility.yul\":1651:1744   */\n      tag_161\n        /* \"#utility.yul\":1740:1743   */\n      dup3\n        /* \"#utility.yul\":1651:1744   */\n      tag_162\n      jump\t// in\n    tag_161:\n        /* \"#utility.yul\":1769:1771   */\n      0x20\n        /* \"#utility.yul\":1764:1767   */\n      dup3\n        /* \"#utility.yul\":1760:1772   */\n      add\n        /* \"#utility.yul\":1753:1772   */\n      swap1\n      pop\n        /* \"#utility.yul\":1412:1778   */\n      swap2\n      swap1\n      pop\n      jump\t// out\n        /* \"#utility.yul\":1784:2149   */\n    tag_163:\n        /* \"#utility.yul\":1926:1929   */\n      0x00\n        /* \"#utility.yul\":1947:2013   */\n      tag_165\n        /* \"#utility.yul\":2011:2012   */\n      0x09\n        /* \"#utility.yul\":2006:2009   */\n      dup4\n        /* \"#utility.yul\":1947:2013   */\n      tag_153\n      jump\t// in\n    tag_165:\n        /* \"#utility.yul\":1940:2013   */\n      swap2\n      pop\n        /* \"#utility.yul\":2022:2115   */\n      tag_166\n        /* \"#utility.yul\":2111:2114   */\n      dup3\n        /* \"#utility.yul\":2022:2115   */\n      tag_167\n      jump\t// in\n    tag_166:\n        /* \"#utility.yul\":2140:2142   */\n      0x20\n        /* \"#utility.yul\":2135:2138   */\n      dup3\n        /* \"#utility.yul\":2131:2143   */\n      add\n        /* \"#utility.yul\":2124:2143   */\n      swap1\n      pop\n        /* \"#utility.yul\":1784:2149   */\n      swap2\n      swap1\n      pop\n      jump\t// out\n        /* \"#utility.yul\":2155:2521   */\n    tag_168:\n        /* \"#utility.yul\":2297:2300   */\n      0x00\n        /* \"#utility.yul\":2318:2385   */\n      tag_170\n        /* \"#utility.yul\":2382:2384   */\n      0x11\n        /* \"#utility.yul\":2377:2380   */\n      dup4\n        /* \"#utility.yul\":2318:2385   */\n      tag_153\n      jump\t// in\n    tag_170:\n        /* \"#utility.yul\":2311:2385   */\n      swap2\n      pop\n        /* \"#utility.yul\":2394:2487   */\n      tag_171\n        /* \"#utility.yul\":2483:2486   */\n      dup3\n        /* \"#utility.yul\":2394:2487   */\n      tag_172\n      jump\t// in\n    tag_171:\n        /* \"#utility.yul\":2512:2514   */\n      0x20\n        /* \"#utility.yul\":2507:2510   */\n      dup3\n        /* \"#utility.yul\":2503:2515   */\n      add\n        /* \"#utility.yul\":2496:2515   */\n      swap1\n      pop\n        /* \"#utility.yul\":2155:2521   */\n      swap2\n      swap1\n      pop\n      jump\t// out\n        /* \"#utility.yul\":2527:2893   */\n    tag_173:\n        /* \"#utility.yul\":2669:2672   */\n      0x00\n        /* \"#utility.yul\":2690:2757   */\n      tag_175\n        /* \"#utility.yul\":2754:2756   */\n      0x1a\n        /* \"#utility.yul\":2749:2752   */\n      dup4\n        /* \"#utility.yul\":2690:2757   */\n      tag_153\n      jump\t// in\n    tag_175:\n        /* \"#utility.yul\":2683:2757   */\n      swap2\n      pop\n        /* \"#utility.yul\":2766:2859   */\n      tag_176\n        /* \"#utility.yul\":2855:2858   */\n      dup3\n        /* \"#utility.yul\":2766:2859   */\n      tag_177\n      jump\t// in\n    tag_176:\n        /* \"#utility.yul\":2884:2886   */\n      0x20\n        /* \"#utility.yul\":2879:2882   */\n      dup3\n        /* \"#utility.yul\":2875:2887   */\n      add\n        /* \"#utility.yul\":2868:2887   */\n      swap1\n      pop\n        /* \"#utility.yul\":2527:2893   */\n      swap2\n      swap1\n      pop\n      jump\t// out\n        /* \"#utility.yul\":2899:3265   */\n    tag_178:\n        /* \"#utility.yul\":3041:3044   */\n      0x00\n        /* \"#utility.yul\":3062:3129   */\n      tag_180\n        /* \"#utility.yul\":3126:3128   */\n      0x16\n        /* \"#utility.yul\":3121:3124   */\n      dup4\n        /* \"#utility.yul\":3062:3129   */\n      tag_153\n      jump\t// in\n    tag_180:\n        /* \"#utility.yul\":3055:3129   */\n      swap2\n      pop\n        /* \"#utility.yul\":3138:3231   */\n      tag_181\n        /* \"#utility.yul\":3227:3230   */\n      dup3\n        /* \"#utility.yul\":3138:3231   */\n      tag_182\n      jump\t// in\n    tag_181:\n        /* \"#utility.yul\":3256:3258   */\n      0x20\n        /* \"#utility.yul\":3251:3254   */\n      dup3\n        /* \"#utility.yul\":3247:3259   */\n      add\n        /* \"#utility.yul\":3240:3259   */\n      swap1\n      pop\n        /* \"#utility.yul\":2899:3265   */\n      swap2\n      swap1\n      pop\n      jump\t// out\n        /* \"#utility.yul\":3271:3493   */\n    tag_31:\n        /* \"#utility.yul\":3364:3368   */\n      0x00\n        /* \"#utility.yul\":3402:3404   */\n      0x20\n        /* \"#utility.yul\":3391:3400   */\n      dup3\n        /* \"#utility.yul\":3387:3405   */\n      add\n        /* \"#utility.yul\":3379:3405   */\n      swap1\n      pop\n        /* \"#utility.yul\":3415:3486   */\n      tag_184\n        /* \"#utility.yul\":3483:3484   */\n      0x00\n        /* \"#utility.yul\":3472:3481   */\n      dup4\n        /* \"#utility.yul\":3468:3485   */\n      add\n        /* \"#utility.yul\":3459:3465   */\n      dup5\n        /* \"#utility.yul\":3415:3486   */\n      tag_132\n      jump\t// in\n    tag_184:\n        /* \"#utility.yul\":3271:3493   */\n      swap3\n      swap2\n      pop\n      pop\n      jump\t// out\n        /* \"#utility.yul\":3499:3709   */\n    tag_54:\n        /* \"#utility.yul\":3586:3590   */\n      0x00\n        /* \"#utility.yul\":3624:3626   */\n      0x20\n        /* \"#utility.yul\":3613:3622   */\n      dup3\n        /* \"#utility.yul\":3609:3627   */\n      add\n        /* \"#utility.yul\":3601:3627   */\n      swap1\n      pop\n        /* \"#utility.yul\":3637:3702   */\n      tag_186\n        /* \"#utility.yul\":3699:3700   */\n      0x00\n        /* \"#utility.yul\":3688:3697   */\n      dup4\n        /* \"#utility.yul\":3684:3701   */\n      add\n        /* \"#utility.yul\":3675:3681   */\n      dup5\n        /* \"#utility.yul\":3637:3702   */\n      tag_136\n      jump\t// in\n    tag_186:\n        /* \"#utility.yul\":3499:3709   */\n      swap3\n      swap2\n      pop\n      pop\n      jump\t// out\n        /* \"#utility.yul\":3715:3969   */\n    tag_23:\n        /* \"#utility.yul\":3824:3828   */\n      0x00\n        /* \"#utility.yul\":3862:3864   */\n      0x20\n        /* \"#utility.yul\":3851:3860   */\n      dup3\n        /* \"#utility.yul\":3847:3865   */\n      add\n        /* \"#utility.yul\":3839:3865   */\n      swap1\n      pop\n        /* \"#utility.yul\":3875:3962   */\n      tag_188\n        /* \"#utility.yul\":3959:3960   */\n      0x00\n        /* \"#utility.yul\":3948:3957   */\n      dup4\n        /* \"#utility.yul\":3944:3961   */\n      add\n        /* \"#utility.yul\":3935:3941   */\n      dup5\n        /* \"#utility.yul\":3875:3962   */\n      tag_140\n      jump\t// in\n    tag_188:\n        /* \"#utility.yul\":3715:3969   */\n      swap3\n      swap2\n      pop\n      pop\n      jump\t// out\n        /* \"#utility.yul\":3975:4207   */\n    tag_49:\n        /* \"#utility.yul\":4073:4077   */\n      0x00\n        /* \"#utility.yul\":4111:4113   */\n      0x20\n        /* \"#utility.yul\":4100:4109   */\n      dup3\n        /* \"#utility.yul\":4096:4114   */\n      add\n        /* \"#utility.yul\":4088:4114   */\n      swap1\n      pop\n        /* \"#utility.yul\":4124:4200   */\n      tag_190\n        /* \"#utility.yul\":4197:4198   */\n      0x00\n        /* \"#utility.yul\":4186:4195   */\n      dup4\n        /* \"#utility.yul\":4182:4199   */\n      add\n        /* \"#utility.yul\":4173:4179   */\n      dup5\n        /* \"#utility.yul\":4124:4200   */\n      tag_144\n      jump\t// in\n    tag_190:\n        /* \"#utility.yul\":3975:4207   */\n      swap3\n      swap2\n      pop\n      pop\n      jump\t// out\n        /* \"#utility.yul\":4213:4526   */\n    tag_19:\n        /* \"#utility.yul\":4326:4330   */\n      0x00\n        /* \"#utility.yul\":4364:4366   */\n      0x20\n        /* \"#utility.yul\":4353:4362   */\n      dup3\n        /* \"#utility.yul\":4349:4367   */\n      add\n        /* \"#utility.yul\":4341:4367   */\n      swap1\n      pop\n        /* \"#utility.yul\":4413:4422   */\n      dup2\n        /* \"#utility.yul\":4407:4411   */\n      dup2\n        /* \"#utility.yul\":4403:4423   */\n      sub\n        /* \"#utility.yul\":4399:4400   */\n      0x00\n        /* \"#utility.yul\":4388:4397   */\n      dup4\n        /* \"#utility.yul\":4384:4401   */\n      add\n        /* \"#utility.yul\":4377:4424   */\n      mstore\n        /* \"#utility.yul\":4441:4519   */\n      tag_192\n        /* \"#utility.yul\":4514:4518   */\n      dup2\n        /* \"#utility.yul\":4505:4511   */\n      dup5\n        /* \"#utility.yul\":4441:4519   */\n      tag_148\n      jump\t// in\n    tag_192:\n        /* \"#utility.yul\":4433:4519   */\n      swap1\n      pop\n        /* \"#utility.yul\":4213:4526   */\n      swap3\n      swap2\n      pop\n      pop\n      jump\t// out\n        /* \"#utility.yul\":4532:4951   */\n    tag_78:\n        /* \"#utility.yul\":4698:4702   */\n      0x00\n        /* \"#utility.yul\":4736:4738   */\n      0x20\n        /* \"#utility.yul\":4725:4734   */\n      dup3\n        /* \"#utility.yul\":4721:4739   */\n      add\n        /* \"#utility.yul\":4713:4739   */\n      swap1\n      pop\n        /* \"#utility.yul\":4785:4794   */\n      dup2\n        /* \"#utility.yul\":4779:4783   */\n      dup2\n        /* \"#utility.yul\":4775:4795   */\n      sub\n        /* \"#utility.yul\":4771:4772   */\n      0x00\n        /* \"#utility.yul\":4760:4769   */\n      dup4\n        /* \"#utility.yul\":4756:4773   */\n      add\n        /* \"#utility.yul\":4749:4796   */\n      mstore\n        /* \"#utility.yul\":4813:4944   */\n      tag_194\n        /* \"#utility.yul\":4939:4943   */\n      dup2\n        /* \"#utility.yul\":4813:4944   */\n      tag_158\n      jump\t// in\n    tag_194:\n        /* \"#utility.yul\":4805:4944   */\n      swap1\n      pop\n        /* \"#utility.yul\":4532:4951   */\n      swap2\n      swap1\n      pop\n      jump\t// out\n        /* \"#utility.yul\":4957:5376   */\n    tag_118:\n        /* \"#utility.yul\":5123:5127   */\n      0x00\n        /* \"#utility.yul\":5161:5163   */\n      0x20\n        /* \"#utility.yul\":5150:5159   */\n      dup3\n        /* \"#utility.yul\":5146:5164   */\n      add\n        /* \"#utility.yul\":5138:5164   */\n      swap1\n      pop\n        /* \"#utility.yul\":5210:5219   */\n      dup2\n        /* \"#utility.yul\":5204:5208   */\n      dup2\n        /* \"#utility.yul\":5200:5220   */\n      sub\n        /* \"#utility.yul\":5196:5197   */\n      0x00\n        /* \"#utility.yul\":5185:5194   */\n      dup4\n        /* \"#utility.yul\":5181:5198   */\n      add\n        /* \"#utility.yul\":5174:5221   */\n      mstore\n        /* \"#utility.yul\":5238:5369   */\n      tag_196\n        /* \"#utility.yul\":5364:5368   */\n      dup2\n        /* \"#utility.yul\":5238:5369   */\n      tag_163\n      jump\t// in\n    tag_196:\n        /* \"#utility.yul\":5230:5369   */\n      swap1\n      pop\n        /* \"#utility.yul\":4957:5376   */\n      swap2\n      swap1\n      pop\n      jump\t// out\n        /* \"#utility.yul\":5382:5801   */\n    tag_92:\n        /* \"#utility.yul\":5548:5552   */\n      0x00\n        /* \"#utility.yul\":5586:5588   */\n      0x20\n        /* \"#utility.yul\":5575:5584   */\n      dup3\n        /* \"#utility.yul\":5571:5589   */\n      add\n        /* \"#utility.yul\":5563:5589   */\n      swap1\n      pop\n        /* \"#utility.yul\":5635:5644   */\n      dup2\n        /* \"#utility.yul\":5629:5633   */\n      dup2\n        /* \"#utility.yul\":5625:5645   */\n      sub\n        /* \"#utility.yul\":5621:5622   */\n      0x00\n        /* \"#utility.yul\":5610:5619   */\n      dup4\n        /* \"#utility.yul\":5606:5623   */\n      add\n        /* \"#utility.yul\":5599:5646   */\n      mstore\n        /* \"#utility.yul\":5663:5794   */\n      tag_198\n        /* \"#utility.yul\":5789:5793   */\n      dup2\n        /* \"#utility.yul\":5663:5794   */\n      tag_168\n      jump\t// in\n    tag_198:\n        /* \"#utility.yul\":5655:5794   */\n      swap1\n      pop\n        /* \"#utility.yul\":5382:5801   */\n      swap2\n      swap1\n      pop\n      jump\t// out\n        /* \"#utility.yul\":5807:6226   */\n    tag_75:\n        /* \"#utility.yul\":5973:5977   */\n      0x00\n        /* \"#utility.yul\":6011:6013   */\n      0x20\n        /* \"#utility.yul\":6000:6009   */\n      dup3\n        /* \"#utility.yul\":5996:6014   */\n      add\n        /* \"#utility.yul\":5988:6014   */\n      swap1\n      pop\n        /* \"#utility.yul\":6060:6069   */\n      dup2\n        /* \"#utility.yul\":6054:6058   */\n      dup2\n        /* \"#utility.yul\":6050:6070   */\n      sub\n        /* \"#utility.yul\":6046:6047   */\n      0x00\n        /* \"#utility.yul\":6035:6044   */\n      dup4\n        /* \"#utility.yul\":6031:6048   */\n      add\n        /* \"#utility.yul\":6024:6071   */\n      mstore\n        /* \"#utility.yul\":6088:6219   */\n      tag_200\n        /* \"#utility.yul\":6214:6218   */\n      dup2\n        /* \"#utility.yul\":6088:6219   */\n      tag_173\n      jump\t// in\n    tag_200:\n        /* \"#utility.yul\":6080:6219   */\n      swap1\n      pop\n        /* \"#utility.yul\":5807:6226   */\n      swap2\n      swap1\n      pop\n      jump\t// out\n        /* \"#utility.yul\":6232:6651   */\n    tag_64:\n        /* \"#utility.yul\":6398:6402   */\n      0x00\n        /* \"#utility.yul\":6436:6438   */\n      0x20\n        /* \"#utility.yul\":6425:6434   */\n      dup3\n        /* \"#utility.yul\":6421:6439   */\n      add\n        /* \"#utility.yul\":6413:6439   */\n      swap1\n      pop\n        /* \"#utility.yul\":6485:6494   */\n      dup2\n        /* \"#utility.yul\":6479:6483   */\n      dup2\n        /* \"#utility.yul\":6475:6495   */\n      sub\n        /* \"#utility.yul\":6471:6472   */\n      0x00\n        /* \"#utility.yul\":6460:6469   */\n      dup4\n        /* \"#utility.yul\":6456:6473   */\n      add\n        /* \"#utility.yul\":6449:6496   */\n      mstore\n        /* \"#utility.yul\":6513:6644   */\n      tag_202\n        /* \"#utility.yul\":6639:6643   */\n      dup2\n        /* \"#utility.yul\":6513:6644   */\n      tag_178\n      jump\t// in\n    tag_202:\n        /* \"#utility.yul\":6505:6644   */\n      swap1\n      pop\n        /* \"#utility.yul\":6232:6651   */\n      swap2\n      swap1\n      pop\n      jump\t// out\n        /* \"#utility.yul\":6738:6837   */\n    tag_151:\n        /* \"#utility.yul\":6790:6796   */\n      0x00\n        /* \"#utility.yul\":6824:6829   */\n      dup2\n        /* \"#utility.yul\":6818:6830   */\n      mload\n        /* \"#utility.yul\":6808:6830   */\n      swap1\n      pop\n        /* \"#utility.yul\":6738:6837   */\n      swap2\n      swap1\n      pop\n      jump\t// out\n        /* \"#utility.yul\":6843:7012   */\n    tag_153:\n        /* \"#utility.yul\":6927:6938   */\n      0x00\n        /* \"#utility.yul\":6961:6967   */\n      dup3\n        /* \"#utility.yul\":6956:6959   */\n      dup3\n        /* \"#utility.yul\":6949:6968   */\n      mstore\n        /* \"#utility.yul\":7001:7005   */\n      0x20\n        /* \"#utility.yul\":6996:6999   */\n      dup3\n        /* \"#utility.yul\":6992:7006   */\n      add\n        /* \"#utility.yul\":6977:7006   */\n      swap1\n      pop\n        /* \"#utility.yul\":6843:7012   */\n      swap3\n      swap2\n      pop\n      pop\n      jump\t// out\n        /* \"#utility.yul\":7018:7114   */\n    tag_135:\n        /* \"#utility.yul\":7055:7062   */\n      0x00\n        /* \"#utility.yul\":7084:7108   */\n      tag_208\n        /* \"#utility.yul\":7102:7107   */\n      dup3\n        /* \"#utility.yul\":7084:7108   */\n      tag_209\n      jump\t// in\n    tag_208:\n        /* \"#utility.yul\":7073:7108   */\n      swap1\n      pop\n        /* \"#utility.yul\":7018:7114   */\n      swap2\n      swap1\n      pop\n      jump\t// out\n        /* \"#utility.yul\":7120:7210   */\n    tag_139:\n        /* \"#utility.yul\":7154:7161   */\n      0x00\n        /* \"#utility.yul\":7197:7202   */\n      dup2\n        /* \"#utility.yul\":7190:7203   */\n      iszero\n        /* \"#utility.yul\":7183:7204   */\n      iszero\n        /* \"#utility.yul\":7172:7204   */\n      swap1\n      pop\n        /* \"#utility.yul\":7120:7210   */\n      swap2\n      swap1\n      pop\n      jump\t// out\n        /* \"#utility.yul\":7216:7363   */\n    tag_211:\n        /* \"#utility.yul\":7271:7278   */\n      0x00\n        /* \"#utility.yul\":7300:7305   */\n      dup2\n        /* \"#utility.yul\":7289:7305   */\n      swap1\n      pop\n        /* \"#utility.yul\":7306:7357   */\n      tag_213\n        /* \"#utility.yul\":7351:7356   */\n      dup3\n        /* \"#utility.yul\":7306:7357   */\n      tag_214\n      jump\t// in\n    tag_213:\n        /* \"#utility.yul\":7216:7363   */\n      swap2\n      swap1\n      pop\n      jump\t// out\n        /* \"#utility.yul\":7369:7494   */\n    tag_215:\n        /* \"#utility.yul\":7413:7420   */\n      0x00\n        /* \"#utility.yul\":7442:7447   */\n      dup2\n        /* \"#utility.yul\":7431:7447   */\n      swap1\n      pop\n        /* \"#utility.yul\":7448:7488   */\n      tag_217\n        /* \"#utility.yul\":7482:7487   */\n      dup3\n        /* \"#utility.yul\":7448:7488   */\n      tag_218\n      jump\t// in\n    tag_217:\n        /* \"#utility.yul\":7369:7494   */\n      swap2\n      swap1\n      pop\n      jump\t// out\n        /* \"#utility.yul\":7500:7626   */\n    tag_209:\n        /* \"#utility.yul\":7537:7544   */\n      0x00\n        /* \"#utility.yul\":7577:7619   */\n      0xffffffffffffffffffffffffffffffffffffffff\n        /* \"#utility.yul\":7570:7575   */\n      dup3\n        /* \"#utility.yul\":7566:7620   */\n      and\n        /* \"#utility.yul\":7555:7620   */\n      swap1\n      pop\n        /* \"#utility.yul\":7500:7626   */\n      swap2\n      swap1\n      pop\n      jump\t// out\n        /* \"#utility.yul\":7632:7779   */\n    tag_143:\n        /* \"#utility.yul\":7698:7707   */\n      0x00\n        /* \"#utility.yul\":7731:7773   */\n      tag_221\n        /* \"#utility.yul\":7767:7772   */\n      dup3\n        /* \"#utility.yul\":7731:7773   */\n      tag_211\n      jump\t// in\n    tag_221:\n        /* \"#utility.yul\":7718:7773   */\n      swap1\n      pop\n        /* \"#utility.yul\":7632:7779   */\n      swap2\n      swap1\n      pop\n      jump\t// out\n        /* \"#utility.yul\":7785:7910   */\n    tag_147:\n        /* \"#utility.yul\":7840:7849   */\n      0x00\n        /* \"#utility.yul\":7873:7904   */\n      tag_223\n        /* \"#utility.yul\":7898:7903   */\n      dup3\n        /* \"#utility.yul\":7873:7904   */\n      tag_215\n      jump\t// in\n    tag_223:\n        /* \"#utility.yul\":7860:7904   */\n      swap1\n      pop\n        /* \"#utility.yul\":7785:7910   */\n      swap2\n      swap1\n      pop\n      jump\t// out\n        /* \"#utility.yul\":7916:8223   */\n    tag_155:\n        /* \"#utility.yul\":7984:7985   */\n      0x00\n        /* \"#utility.yul\":7994:8107   */\n    tag_225:\n        /* \"#utility.yul\":8008:8014   */\n      dup4\n        /* \"#utility.yul\":8005:8006   */\n      dup2\n        /* \"#utility.yul\":8002:8015   */\n      lt\n        /* \"#utility.yul\":7994:8107   */\n      iszero\n      tag_227\n      jumpi\n        /* \"#utility.yul\":8093:8094   */\n      dup1\n        /* \"#utility.yul\":8088:8091   */\n      dup3\n        /* \"#utility.yul\":8084:8095   */\n      add\n        /* \"#utility.yul\":8078:8096   */\n      mload\n        /* \"#utility.yul\":8074:8075   */\n      dup2\n        /* \"#utility.yul\":8069:8072   */\n      dup5\n        /* \"#utility.yul\":8065:8076   */\n      add\n        /* \"#utility.yul\":8058:8097   */\n      mstore\n        /* \"#utility.yul\":8030:8032   */\n      0x20\n        /* \"#utility.yul\":8027:8028   */\n      dup2\n        /* \"#utility.yul\":8023:8033   */\n      add\n        /* \"#utility.yul\":8018:8033   */\n      swap1\n      pop\n        /* \"#utility.yul\":7994:8107   */\n      jump(tag_225)\n    tag_227:\n        /* \"#utility.yul\":8125:8131   */\n      dup4\n        /* \"#utility.yul\":8122:8123   */\n      dup2\n        /* \"#utility.yul\":8119:8132   */\n      gt\n        /* \"#utility.yul\":8116:8217   */\n      iszero\n      tag_228\n      jumpi\n        /* \"#utility.yul\":8205:8206   */\n      0x00\n        /* \"#utility.yul\":8196:8202   */\n      dup5\n        /* \"#utility.yul\":8191:8194   */\n      dup5\n        /* \"#utility.yul\":8187:8203   */\n      add\n        /* \"#utility.yul\":8180:8207   */\n      mstore\n        /* \"#utility.yul\":8116:8217   */\n    tag_228:\n        /* \"#utility.yul\":7965:8223   */\n      pop\n        /* \"#utility.yul\":7916:8223   */\n      pop\n      pop\n      pop\n      jump\t// out\n        /* \"#utility.yul\":8229:8549   */\n    tag_56:\n        /* \"#utility.yul\":8273:8279   */\n      0x00\n        /* \"#utility.yul\":8310:8311   */\n      0x02\n        /* \"#utility.yul\":8304:8308   */\n      dup3\n        /* \"#utility.yul\":8300:8312   */\n      div\n        /* \"#utility.yul\":8290:8312   */\n      swap1\n      pop\n        /* \"#utility.yul\":8357:8358   */\n      0x01\n        /* \"#utility.yul\":8351:8355   */\n      dup3\n        /* \"#utility.yul\":8347:8359   */\n      and\n        /* \"#utility.yul\":8378:8396   */\n      dup1\n        /* \"#utility.yul\":8368:8449   */\n      tag_230\n      jumpi\n        /* \"#utility.yul\":8434:8438   */\n      0x7f\n        /* \"#utility.yul\":8426:8432   */\n      dup3\n        /* \"#utility.yul\":8422:8439   */\n      and\n        /* \"#utility.yul\":8412:8439   */\n      swap2\n      pop\n        /* \"#utility.yul\":8368:8449   */\n    tag_230:\n        /* \"#utility.yul\":8496:8498   */\n      0x20\n        /* \"#utility.yul\":8488:8494   */\n      dup3\n        /* \"#utility.yul\":8485:8499   */\n      lt\n        /* \"#utility.yul\":8465:8483   */\n      dup2\n        /* \"#utility.yul\":8462:8500   */\n      eq\n        /* \"#utility.yul\":8459:8543   */\n      iszero\n      tag_231\n      jumpi\n        /* \"#utility.yul\":8515:8533   */\n      tag_232\n      tag_233\n      jump\t// in\n    tag_232:\n        /* \"#utility.yul\":8459:8543   */\n    tag_231:\n        /* \"#utility.yul\":8280:8549   */\n      pop\n        /* \"#utility.yul\":8229:8549   */\n      swap2\n      swap1\n      pop\n      jump\t// out\n        /* \"#utility.yul\":8555:8735   */\n    tag_70:\n        /* \"#utility.yul\":8603:8680   */\n      0x4e487b7100000000000000000000000000000000000000000000000000000000\n        /* \"#utility.yul\":8600:8601   */\n      0x00\n        /* \"#utility.yul\":8593:8681   */\n      mstore\n        /* \"#utility.yul\":8700:8704   */\n      0x21\n        /* \"#utility.yul\":8697:8698   */\n      0x04\n        /* \"#utility.yul\":8690:8705   */\n      mstore\n        /* \"#utility.yul\":8724:8728   */\n      0x24\n        /* \"#utility.yul\":8721:8722   */\n      0x00\n        /* \"#utility.yul\":8714:8729   */\n      revert\n        /* \"#utility.yul\":8741:8921   */\n    tag_233:\n        /* \"#utility.yul\":8789:8866   */\n      0x4e487b7100000000000000000000000000000000000000000000000000000000\n        /* \"#utility.yul\":8786:8787   */\n      0x00\n        /* \"#utility.yul\":8779:8867   */\n      mstore\n        /* \"#utility.yul\":8886:8890   */\n      0x22\n        /* \"#utility.yul\":8883:8884   */\n      0x04\n        /* \"#utility.yul\":8876:8891   */\n      mstore\n        /* \"#utility.yul\":8910:8914   */\n      0x24\n        /* \"#utility.yul\":8907:8908   */\n      0x00\n        /* \"#utility.yul\":8900:8915   */\n      revert\n        /* \"#utility.yul\":9050:9167   */\n    tag_130:\n        /* \"#utility.yul\":9159:9160   */\n      0x00\n        /* \"#utility.yul\":9156:9157   */\n      dup1\n        /* \"#utility.yul\":9149:9161   */\n      revert\n        /* \"#utility.yul\":9173:9275   */\n    tag_157:\n        /* \"#utility.yul\":9214:9220   */\n      0x00\n        /* \"#utility.yul\":9265:9267   */\n      0x1f\n        /* \"#utility.yul\":9261:9268   */\n      not\n        /* \"#utility.yul\":9256:9258   */\n      0x1f\n        /* \"#utility.yul\":9249:9254   */\n      dup4\n        /* \"#utility.yul\":9245:9259   */\n      add\n        /* \"#utility.yul\":9241:9269   */\n      and\n        /* \"#utility.yul\":9231:9269   */\n      swap1\n      pop\n        /* \"#utility.yul\":9173:9275   */\n      swap2\n      swap1\n      pop\n      jump\t// out\n        /* \"#utility.yul\":9281:9453   */\n    tag_162:\n        /* \"#utility.yul\":9421:9445   */\n      0x4e6f742074686520726967687420686f73706974616c00000000000000000000\n        /* \"#utility.yul\":9417:9418   */\n      0x00\n        /* \"#utility.yul\":9409:9415   */\n      dup3\n        /* \"#utility.yul\":9405:9419   */\n      add\n        /* \"#utility.yul\":9398:9446   */\n      mstore\n        /* \"#utility.yul\":9281:9453   */\n      pop\n      jump\t// out\n        /* \"#utility.yul\":9459:9618   */\n    tag_167:\n        /* \"#utility.yul\":9599:9610   */\n      0x4e6f742072656164790000000000000000000000000000000000000000000000\n        /* \"#utility.yul\":9595:9596   */\n      0x00\n        /* \"#utility.yul\":9587:9593   */\n      dup3\n        /* \"#utility.yul\":9583:9597   */\n      add\n        /* \"#utility.yul\":9576:9611   */\n      mstore\n        /* \"#utility.yul\":9459:9618   */\n      pop\n      jump\t// out\n        /* \"#utility.yul\":9624:9791   */\n    tag_172:\n        /* \"#utility.yul\":9764:9783   */\n      0x4e6f7420696e2070726f64756374696f6e000000000000000000000000000000\n        /* \"#utility.yul\":9760:9761   */\n      0x00\n        /* \"#utility.yul\":9752:9758   */\n      dup3\n        /* \"#utility.yul\":9748:9762   */\n      add\n        /* \"#utility.yul\":9741:9784   */\n      mstore\n        /* \"#utility.yul\":9624:9791   */\n      pop\n      jump\t// out\n        /* \"#utility.yul\":9797:9973   */\n    tag_177:\n        /* \"#utility.yul\":9937:9965   */\n      0x5374696c6c2077616974696e6720666f722064656c6976657279000000000000\n        /* \"#utility.yul\":9933:9934   */\n      0x00\n        /* \"#utility.yul\":9925:9931   */\n      dup3\n        /* \"#utility.yul\":9921:9935   */\n      add\n        /* \"#utility.yul\":9914:9966   */\n      mstore\n        /* \"#utility.yul\":9797:9973   */\n      pop\n      jump\t// out\n        /* \"#utility.yul\":9979:10151   */\n    tag_182:\n        /* \"#utility.yul\":10119:10143   */\n      0x20596f7520617265206e6f7420746865206f776e657200000000000000000000\n        /* \"#utility.yul\":10115:10116   */\n      0x00\n        /* \"#utility.yul\":10107:10113   */\n      dup3\n        /* \"#utility.yul\":10103:10117   */\n      add\n        /* \"#utility.yul\":10096:10144   */\n      mstore\n        /* \"#utility.yul\":9979:10151   */\n      pop\n      jump\t// out\n        /* \"#utility.yul\":10157:10280   */\n    tag_214:\n        /* \"#utility.yul\":10248:10249   */\n      0x04\n        /* \"#utility.yul\":10241:10246   */\n      dup2\n        /* \"#utility.yul\":10238:10250   */\n      lt\n        /* \"#utility.yul\":10228:10274   */\n      tag_246\n      jumpi\n        /* \"#utility.yul\":10254:10272   */\n      tag_247\n      tag_70\n      jump\t// in\n    tag_247:\n        /* \"#utility.yul\":10228:10274   */\n    tag_246:\n        /* \"#utility.yul\":10157:10280   */\n      pop\n      jump\t// out\n        /* \"#utility.yul\":10286:10398   */\n    tag_218:\n        /* \"#utility.yul\":10366:10367   */\n      0x05\n        /* \"#utility.yul\":10359:10364   */\n      dup2\n        /* \"#utility.yul\":10356:10368   */\n      lt\n        /* \"#utility.yul\":10346:10392   */\n      tag_249\n      jumpi\n        /* \"#utility.yul\":10372:10390   */\n      tag_250\n      tag_70\n      jump\t// in\n    tag_250:\n        /* \"#utility.yul\":10346:10392   */\n    tag_249:\n        /* \"#utility.yul\":10286:10398   */\n      pop\n      jump\t// out\n        /* \"#utility.yul\":10404:10526   */\n    tag_126:\n        /* \"#utility.yul\":10477:10501   */\n      tag_252\n        /* \"#utility.yul\":10495:10500   */\n      dup2\n        /* \"#utility.yul\":10477:10501   */\n      tag_135\n      jump\t// in\n    tag_252:\n        /* \"#utility.yul\":10470:10475   */\n      dup2\n        /* \"#utility.yul\":10467:10502   */\n      eq\n        /* \"#utility.yul\":10457:10520   */\n      tag_253\n      jumpi\n        /* \"#utility.yul\":10516:10517   */\n      0x00\n        /* \"#utility.yul\":10513:10514   */\n      dup1\n        /* \"#utility.yul\":10506:10518   */\n      revert\n        /* \"#utility.yul\":10457:10520   */\n    tag_253:\n        /* \"#utility.yul\":10404:10526   */\n      pop\n      jump\t// out\n\n    auxdata: 0xa26469706673582212203587d629f5d721f902c3e68a17340ac8dbb87f4f8837a2fe51e061e6fcf38c5064736f6c63430008070033\n}\n",
				"bytecode": {
					"linkReferences": {},
					"object": "60806040526040518060400160405280600981526020017f436f7669642056617800000000000000000000000000000000000000000000008152506000908051906020019062000051929190620001d9565b503480156200005f57600080fd5b5060405162001353380380620013538339818101604052810190620000859190620002a0565b33600260006101000a81548173ffffffffffffffffffffffffffffffffffffffff021916908373ffffffffffffffffffffffffffffffffffffffff16021790555081600160006101000a81548173ffffffffffffffffffffffffffffffffffffffff021916908373ffffffffffffffffffffffffffffffffffffffff16021790555080600360006101000a81548173ffffffffffffffffffffffffffffffffffffffff021916908373ffffffffffffffffffffffffffffffffffffffff1602179055506000600560006101000a81548160ff021916908360048111156200017157620001706200037f565b5b02179055507f400153a8cebbd91509d8511ec62d3fe08eac19a7afab5e61a723c0860db23520600260009054906101000a900473ffffffffffffffffffffffffffffffffffffffff16604051620001c99190620002f8565b60405180910390a15050620003fc565b828054620001e79062000349565b90600052602060002090601f0160209004810192826200020b576000855562000257565b82601f106200022657805160ff191683800117855562000257565b8280016001018555821562000257579182015b828111156200025657825182559160200191906001019062000239565b5b5090506200026691906200026a565b5090565b5b80821115620002855760008160009055506001016200026b565b5090565b6000815190506200029a81620003e2565b92915050565b60008060408385031215620002ba57620002b9620003dd565b5b6000620002ca8582860162000289565b9250506020620002dd8582860162000289565b9150509250929050565b620002f28162000315565b82525050565b60006020820190506200030f6000830184620002e7565b92915050565b6000620003228262000329565b9050919050565b600073ffffffffffffffffffffffffffffffffffffffff82169050919050565b600060028204905060018216806200036257607f821691505b60208210811415620003795762000378620003ae565b5b50919050565b7f4e487b7100000000000000000000000000000000000000000000000000000000600052602160045260246000fd5b7f4e487b7100000000000000000000000000000000000000000000000000000000600052602260045260246000fd5b600080fd5b620003ed8162000315565b8114620003f957600080fd5b50565b610f47806200040c6000396000f3fe608060405234801561001057600080fd5b50600436106100b45760003560e01c8063b6c859bf11610071578063b6c859bf14610157578063b6edb26c14610161578063b7c779f41461016b578063bf9ce95214610175578063e25fe17514610193578063e8950c0f146101b1576100b4565b80630fc8f82a146100b957806311e760dc146100d75780631fe49587146100f557806336da4468146101115780633d5a70c21461012f578063aa2fedde14610139575b600080fd5b6100c16101e1565b6040516100ce9190610bc6565b60405180910390f35b6100df61026f565b6040516100ec9190610b90565b60405180910390f35b61010f600480360381019061010a9190610a09565b610282565b005b6101196103a4565b6040516101269190610b5a565b60405180910390f35b6101376103ca565b005b610141610534565b60405161014e9190610b5a565b60405180910390f35b61015f61055a565b005b6101696106c4565b005b61017361082e565b005b61017d61099b565b60405161018a9190610b5a565b60405180910390f35b61019b6109c1565b6040516101a89190610bab565b60405180910390f35b6101cb60048036038101906101c69190610a09565b6109d4565b6040516101d89190610b75565b60405180910390f35b600080546101ee90610d5f565b80601f016020809104026020016040519081016040528092919081815260200182805461021a90610d5f565b80156102675780601f1061023c57610100808354040283529160200191610267565b820191906000526020600020905b81548152906001019060200180831161024a57829003601f168201915b505050505081565b600560019054906101000a900460ff1681565b600260009054906101000a900473ffffffffffffffffffffffffffffffffffffffff1673ffffffffffffffffffffffffffffffffffffffff163373ffffffffffffffffffffffffffffffffffffffff1614610312576040517f08c379a000000000000000000000000000000000000000000000000000000000815260040161030990610c68565b60405180910390fd5b6001600460008373ffffffffffffffffffffffffffffffffffffffff1673ffffffffffffffffffffffffffffffffffffffff16815260200190815260200160002060006101000a81548160ff0219169083151502179055507f400153a8cebbd91509d8511ec62d3fe08eac19a7afab5e61a723c0860db23520336040516103999190610b5a565b60405180910390a150565b600260009054906101000a900473ffffffffffffffffffffffffffffffffffffffff1681565b600260048111156103de576103dd610d91565b5b600560009054906101000a900460ff166004811115610400576103ff610d91565b5b14610440576040517f08c379a000000000000000000000000000000000000000000000000000000000815260040161043790610c48565b60405180910390fd5b600360009054906101000a900473ffffffffffffffffffffffffffffffffffffffff1673ffffffffffffffffffffffffffffffffffffffff163373ffffffffffffffffffffffffffffffffffffffff16146104d0576040517f08c379a00000000000000000000000000000000000000000000000000000000081526004016104c790610be8565b60405180910390fd5b6003600560006101000a81548160ff021916908360048111156104f6576104f5610d91565b5b02179055507f400153a8cebbd91509d8511ec62d3fe08eac19a7afab5e61a723c0860db235203360405161052a9190610b5a565b60405180910390a1565b600360009054906101000a900473ffffffffffffffffffffffffffffffffffffffff1681565b600260009054906101000a900473ffffffffffffffffffffffffffffffffffffffff1673ffffffffffffffffffffffffffffffffffffffff163373ffffffffffffffffffffffffffffffffffffffff16146105ea576040517f08c379a00000000000000000000000000000000000000000000000000000000081526004016105e190610c68565b60405180910390fd5b600060048111156105fe576105fd610d91565b5b600560009054906101000a900460ff1660048111156106205761061f610d91565b5b14610660576040517f08c379a000000000000000000000000000000000000000000000000000000000815260040161065790610c28565b60405180910390fd5b6001600560006101000a81548160ff0219169083600481111561068657610685610d91565b5b02179055507f400153a8cebbd91509d8511ec62d3fe08eac19a7afab5e61a723c0860db23520336040516106ba9190610b5a565b60405180910390a1565b600360048111156106d8576106d7610d91565b5b600560009054906101000a900460ff1660048111156106fa576106f9610d91565b5b1461073a576040517f08c379a000000000000000000000000000000000000000000000000000000000815260040161073190610c48565b60405180910390fd5b600360009054906101000a900473ffffffffffffffffffffffffffffffffffffffff1673ffffffffffffffffffffffffffffffffffffffff163373ffffffffffffffffffffffffffffffffffffffff16146107ca576040517f08c379a00000000000000000000000000000000000000000000000000000000081526004016107c190610be8565b60405180910390fd5b6004600560006101000a81548160ff021916908360048111156107f0576107ef610d91565b5b02179055507f400153a8cebbd91509d8511ec62d3fe08eac19a7afab5e61a723c0860db23520336040516108249190610b5a565b60405180910390a1565b60011515600460003373ffffffffffffffffffffffffffffffffffffffff1673ffffffffffffffffffffffffffffffffffffffff16815260200190815260200160002060009054906101000a900460ff161515146108c1576040517f08c379a00000000000000000000000000000000000000000000000000000000081526004016108b890610c68565b60405180910390fd5b600160048111156108d5576108d4610d91565b5b600560009054906101000a900460ff1660048111156108f7576108f6610d91565b5b14610937576040517f08c379a000000000000000000000000000000000000000000000000000000000815260040161092e90610c08565b60405180910390fd5b6002600560006101000a81548160ff0219169083600481111561095d5761095c610d91565b5b02179055507ffb229d12ab26294bc680d0ad524e4315a0ce05f84a2b75c4c7a0da7f1c0b1343336040516109919190610b5a565b60405180910390a1565b600160009054906101000a900473ffffffffffffffffffffffffffffffffffffffff1681565b600560009054906101000a900460ff1681565b60046020528060005260406000206000915054906101000a900460ff1681565b600081359050610a0381610efa565b92915050565b600060208284031215610a1f57610a1e610def565b5b6000610a2d848285016109f4565b91505092915050565b610a3f81610ca4565b82525050565b610a4e81610cb6565b82525050565b610a5d81610d08565b82525050565b610a6c81610d1a565b82525050565b6000610a7d82610c88565b610a878185610c93565b9350610a97818560208601610d2c565b610aa081610df4565b840191505092915050565b6000610ab8601683610c93565b9150610ac382610e05565b602082019050919050565b6000610adb600983610c93565b9150610ae682610e2e565b602082019050919050565b6000610afe601183610c93565b9150610b0982610e57565b602082019050919050565b6000610b21601a83610c93565b9150610b2c82610e80565b602082019050919050565b6000610b44601683610c93565b9150610b4f82610ea9565b602082019050919050565b6000602082019050610b6f6000830184610a36565b92915050565b6000602082019050610b8a6000830184610a45565b92915050565b6000602082019050610ba56000830184610a54565b92915050565b6000602082019050610bc06000830184610a63565b92915050565b60006020820190508181036000830152610be08184610a72565b905092915050565b60006020820190508181036000830152610c0181610aab565b9050919050565b60006020820190508181036000830152610c2181610ace565b9050919050565b60006020820190508181036000830152610c4181610af1565b9050919050565b60006020820190508181036000830152610c6181610b14565b9050919050565b60006020820190508181036000830152610c8181610b37565b9050919050565b600081519050919050565b600082825260208201905092915050565b6000610caf82610ce8565b9050919050565b60008115159050919050565b6000819050610cd082610ed2565b919050565b6000819050610ce382610ee6565b919050565b600073ffffffffffffffffffffffffffffffffffffffff82169050919050565b6000610d1382610cc2565b9050919050565b6000610d2582610cd5565b9050919050565b60005b83811015610d4a578082015181840152602081019050610d2f565b83811115610d59576000848401525b50505050565b60006002820490506001821680610d7757607f821691505b60208210811415610d8b57610d8a610dc0565b5b50919050565b7f4e487b7100000000000000000000000000000000000000000000000000000000600052602160045260246000fd5b7f4e487b7100000000000000000000000000000000000000000000000000000000600052602260045260246000fd5b600080fd5b6000601f19601f8301169050919050565b7f4e6f742074686520726967687420686f73706974616c00000000000000000000600082015250565b7f4e6f742072656164790000000000000000000000000000000000000000000000600082015250565b7f4e6f7420696e2070726f64756374696f6e000000000000000000000000000000600082015250565b7f5374696c6c2077616974696e6720666f722064656c6976657279000000000000600082015250565b7f20596f7520617265206e6f7420746865206f776e657200000000000000000000600082015250565b60048110610ee357610ee2610d91565b5b50565b60058110610ef757610ef6610d91565b5b50565b610f0381610ca4565b8114610f0e57600080fd5b5056fea26469706673582212203587d629f5d721f902c3e68a17340ac8dbb87f4f8837a2fe51e061e6fcf38c5064736f6c63430008070033",
					"opcodes": "PUSH1 0x80 PUSH1 0x40 MSTORE PUSH1 0x40 MLOAD DUP1 PUSH1 0x40 ADD PUSH1 0x40 MSTORE DUP1 PUSH1 0x9 DUP2 MSTORE PUSH1 0x20 ADD PUSH32 0x436F766964205661780000000000000000000000000000000000000000000000 DUP2 MSTORE POP PUSH1 0x0 SWAP1 DUP1 MLOAD SWAP1 PUSH1 0x20 ADD SWAP1 PUSH3 0x51 SWAP3 SWAP2 SWAP1 PUSH3 0x1D9 JUMP JUMPDEST POP CALLVALUE DUP1 ISZERO PUSH3 0x5F JUMPI PUSH1 0x0 DUP1 REVERT JUMPDEST POP PUSH1 0x40 MLOAD PUSH3 0x1353 CODESIZE SUB DUP1 PUSH3 0x1353 DUP4 CODECOPY DUP2 DUP2 ADD PUSH1 0x40 MSTORE DUP2 ADD SWAP1 PUSH3 0x85 SWAP2 SWAP1 PUSH3 0x2A0 JUMP JUMPDEST CALLER PUSH1 0x2 PUSH1 0x0 PUSH2 0x100 EXP DUP2 SLOAD DUP2 PUSH20 0xFFFFFFFFFFFFFFFFFFFFFFFFFFFFFFFFFFFFFFFF MUL NOT AND SWAP1 DUP4 PUSH20 0xFFFFFFFFFFFFFFFFFFFFFFFFFFFFFFFFFFFFFFFF AND MUL OR SWAP1 SSTORE POP DUP2 PUSH1 0x1 PUSH1 0x0 PUSH2 0x100 EXP DUP2 SLOAD DUP2 PUSH20 0xFFFFFFFFFFFFFFFFFFFFFFFFFFFFFFFFFFFFFFFF MUL NOT AND SWAP1 DUP4 PUSH20 0xFFFFFFFFFFFFFFFFFFFFFFFFFFFFFFFFFFFFFFFF AND MUL OR SWAP1 SSTORE POP DUP1 PUSH1 0x3 PUSH1 0x0 PUSH2 0x100 EXP DUP2 SLOAD DUP2 PUSH20 0xFFFFFFFFFFFFFFFFFFFFFFFFFFFFFFFFFFFFFFFF MUL NOT AND SWAP1 DUP4 PUSH20 0xFFFFFFFFFFFFFFFFFFFFFFFFFFFFFFFFFFFFFFFF AND MUL OR SWAP1 SSTORE POP PUSH1 0x0 PUSH1 0x5 PUSH1 0x0 PUSH2 0x100 EXP DUP2 SLOAD DUP2 PUSH1 0xFF MUL NOT AND SWAP1 DUP4 PUSH1 0x4 DUP2 GT ISZERO PUSH3 0x171 JUMPI PUSH3 0x170 PUSH3 0x37F JUMP JUMPDEST JUMPDEST MUL OR SWAP1 SSTORE POP PUSH32 0x400153A8CEBBD91509D8511EC62D3FE08EAC19A7AFAB5E61A723C0860DB23520 PUSH1 0x2 PUSH1 0x0 SWAP1 SLOAD SWAP1 PUSH2 0x100 EXP SWAP1 DIV PUSH20 0xFFFFFFFFFFFFFFFFFFFFFFFFFFFFFFFFFFFFFFFF AND PUSH1 0x40 MLOAD PUSH3 0x1C9 SWAP2 SWAP1 PUSH3 0x2F8 JUMP JUMPDEST PUSH1 0x40 MLOAD DUP1 SWAP2 SUB SWAP1 LOG1 POP POP PUSH3 0x3FC JUMP JUMPDEST DUP3 DUP1 SLOAD PUSH3 0x1E7 SWAP1 PUSH3 0x349 JUMP JUMPDEST SWAP1 PUSH1 0x0 MSTORE PUSH1 0x20 PUSH1 0x0 KECCAK256 SWAP1 PUSH1 0x1F ADD PUSH1 0x20 SWAP1 DIV DUP2 ADD SWAP3 DUP3 PUSH3 0x20B JUMPI PUSH1 0x0 DUP6 SSTORE PUSH3 0x257 JUMP JUMPDEST DUP3 PUSH1 0x1F LT PUSH3 0x226 JUMPI DUP1 MLOAD PUSH1 0xFF NOT AND DUP4 DUP1 ADD OR DUP6 SSTORE PUSH3 0x257 JUMP JUMPDEST DUP3 DUP1 ADD PUSH1 0x1 ADD DUP6 SSTORE DUP3 ISZERO PUSH3 0x257 JUMPI SWAP2 DUP3 ADD JUMPDEST DUP3 DUP2 GT ISZERO PUSH3 0x256 JUMPI DUP3 MLOAD DUP3 SSTORE SWAP2 PUSH1 0x20 ADD SWAP2 SWAP1 PUSH1 0x1 ADD SWAP1 PUSH3 0x239 JUMP JUMPDEST JUMPDEST POP SWAP1 POP PUSH3 0x266 SWAP2 SWAP1 PUSH3 0x26A JUMP JUMPDEST POP SWAP1 JUMP JUMPDEST JUMPDEST DUP1 DUP3 GT ISZERO PUSH3 0x285 JUMPI PUSH1 0x0 DUP2 PUSH1 0x0 SWAP1 SSTORE POP PUSH1 0x1 ADD PUSH3 0x26B JUMP JUMPDEST POP SWAP1 JUMP JUMPDEST PUSH1 0x0 DUP2 MLOAD SWAP1 POP PUSH3 0x29A DUP2 PUSH3 0x3E2 JUMP JUMPDEST SWAP3 SWAP2 POP POP JUMP JUMPDEST PUSH1 0x0 DUP1 PUSH1 0x40 DUP4 DUP6 SUB SLT ISZERO PUSH3 0x2BA JUMPI PUSH3 0x2B9 PUSH3 0x3DD JUMP JUMPDEST JUMPDEST PUSH1 0x0 PUSH3 0x2CA DUP6 DUP3 DUP7 ADD PUSH3 0x289 JUMP JUMPDEST SWAP3 POP POP PUSH1 0x20 PUSH3 0x2DD DUP6 DUP3 DUP7 ADD PUSH3 0x289 JUMP JUMPDEST SWAP2 POP POP SWAP3 POP SWAP3 SWAP1 POP JUMP JUMPDEST PUSH3 0x2F2 DUP2 PUSH3 0x315 JUMP JUMPDEST DUP3 MSTORE POP POP JUMP JUMPDEST PUSH1 0x0 PUSH1 0x20 DUP3 ADD SWAP1 POP PUSH3 0x30F PUSH1 0x0 DUP4 ADD DUP5 PUSH3 0x2E7 JUMP JUMPDEST SWAP3 SWAP2 POP POP JUMP JUMPDEST PUSH1 0x0 PUSH3 0x322 DUP3 PUSH3 0x329 JUMP JUMPDEST SWAP1 POP SWAP2 SWAP1 POP JUMP JUMPDEST PUSH1 0x0 PUSH20 0xFFFFFFFFFFFFFFFFFFFFFFFFFFFFFFFFFFFFFFFF DUP3 AND SWAP1 POP SWAP2 SWAP1 POP JUMP JUMPDEST PUSH1 0x0 PUSH1 0x2 DUP3 DIV SWAP1 POP PUSH1 0x1 DUP3 AND DUP1 PUSH3 0x362 JUMPI PUSH1 0x7F DUP3 AND SWAP2 POP JUMPDEST PUSH1 0x20 DUP3 LT DUP2 EQ ISZERO PUSH3 0x379 JUMPI PUSH3 0x378 PUSH3 0x3AE JUMP JUMPDEST JUMPDEST POP SWAP2 SWAP1 POP JUMP JUMPDEST PUSH32 0x4E487B7100000000000000000000000000000000000000000000000000000000 PUSH1 0x0 MSTORE PUSH1 0x21 PUSH1 0x4 MSTORE PUSH1 0x24 PUSH1 0x0 REVERT JUMPDEST PUSH32 0x4E487B7100000000000000000000000000000000000000000000000000000000 PUSH1 0x0 MSTORE PUSH1 0x22 PUSH1 0x4 MSTORE PUSH1 0x24 PUSH1 0x0 REVERT JUMPDEST PUSH1 0x0 DUP1 REVERT JUMPDEST PUSH3 0x3ED DUP2 PUSH3 0x315 JUMP JUMPDEST DUP2 EQ PUSH3 0x3F9 JUMPI PUSH1 0x0 DUP1 REVERT JUMPDEST POP JUMP JUMPDEST PUSH2 0xF47 DUP1 PUSH3 0x40C PUSH1 0x0 CODECOPY PUSH1 0x0 RETURN INVALID PUSH1 0x80 PUSH1 0x40 MSTORE CALLVALUE DUP1 ISZERO PUSH2 0x10 JUMPI PUSH1 0x0 DUP1 REVERT JUMPDEST POP PUSH1 0x4 CALLDATASIZE LT PUSH2 0xB4 JUMPI PUSH1 0x0 CALLDATALOAD PUSH1 0xE0 SHR DUP1 PUSH4 0xB6C859BF GT PUSH2 0x71 JUMPI DUP1 PUSH4 0xB6C859BF EQ PUSH2 0x157 JUMPI DUP1 PUSH4 0xB6EDB26C EQ PUSH2 0x161 JUMPI DUP1 PUSH4 0xB7C779F4 EQ PUSH2 0x16B JUMPI DUP1 PUSH4 0xBF9CE952 EQ PUSH2 0x175 JUMPI DUP1 PUSH4 0xE25FE175 EQ PUSH2 0x193 JUMPI DUP1 PUSH4 0xE8950C0F EQ PUSH2 0x1B1 JUMPI PUSH2 0xB4 JUMP JUMPDEST DUP1 PUSH4 0xFC8F82A EQ PUSH2 0xB9 JUMPI DUP1 PUSH4 0x11E760DC EQ PUSH2 0xD7 JUMPI DUP1 PUSH4 0x1FE49587 EQ PUSH2 0xF5 JUMPI DUP1 PUSH4 0x36DA4468 EQ PUSH2 0x111 JUMPI DUP1 PUSH4 0x3D5A70C2 EQ PUSH2 0x12F JUMPI DUP1 PUSH4 0xAA2FEDDE EQ PUSH2 0x139 JUMPI JUMPDEST PUSH1 0x0 DUP1 REVERT JUMPDEST PUSH2 0xC1 PUSH2 0x1E1 JUMP JUMPDEST PUSH1 0x40 MLOAD PUSH2 0xCE SWAP2 SWAP1 PUSH2 0xBC6 JUMP JUMPDEST PUSH1 0x40 MLOAD DUP1 SWAP2 SUB SWAP1 RETURN JUMPDEST PUSH2 0xDF PUSH2 0x26F JUMP JUMPDEST PUSH1 0x40 MLOAD PUSH2 0xEC SWAP2 SWAP1 PUSH2 0xB90 JUMP JUMPDEST PUSH1 0x40 MLOAD DUP1 SWAP2 SUB SWAP1 RETURN JUMPDEST PUSH2 0x10F PUSH1 0x4 DUP1 CALLDATASIZE SUB DUP2 ADD SWAP1 PUSH2 0x10A SWAP2 SWAP1 PUSH2 0xA09 JUMP JUMPDEST PUSH2 0x282 JUMP JUMPDEST STOP JUMPDEST PUSH2 0x119 PUSH2 0x3A4 JUMP JUMPDEST PUSH1 0x40 MLOAD PUSH2 0x126 SWAP2 SWAP1 PUSH2 0xB5A JUMP JUMPDEST PUSH1 0x40 MLOAD DUP1 SWAP2 SUB SWAP1 RETURN JUMPDEST PUSH2 0x137 PUSH2 0x3CA JUMP JUMPDEST STOP JUMPDEST PUSH2 0x141 PUSH2 0x534 JUMP JUMPDEST PUSH1 0x40 MLOAD PUSH2 0x14E SWAP2 SWAP1 PUSH2 0xB5A JUMP JUMPDEST PUSH1 0x40 MLOAD DUP1 SWAP2 SUB SWAP1 RETURN JUMPDEST PUSH2 0x15F PUSH2 0x55A JUMP JUMPDEST STOP JUMPDEST PUSH2 0x169 PUSH2 0x6C4 JUMP JUMPDEST STOP JUMPDEST PUSH2 0x173 PUSH2 0x82E JUMP JUMPDEST STOP JUMPDEST PUSH2 0x17D PUSH2 0x99B JUMP JUMPDEST PUSH1 0x40 MLOAD PUSH2 0x18A SWAP2 SWAP1 PUSH2 0xB5A JUMP JUMPDEST PUSH1 0x40 MLOAD DUP1 SWAP2 SUB SWAP1 RETURN JUMPDEST PUSH2 0x19B PUSH2 0x9C1 JUMP JUMPDEST PUSH1 0x40 MLOAD PUSH2 0x1A8 SWAP2 SWAP1 PUSH2 0xBAB JUMP JUMPDEST PUSH1 0x40 MLOAD DUP1 SWAP2 SUB SWAP1 RETURN JUMPDEST PUSH2 0x1CB PUSH1 0x4 DUP1 CALLDATASIZE SUB DUP2 ADD SWAP1 PUSH2 0x1C6 SWAP2 SWAP1 PUSH2 0xA09 JUMP JUMPDEST PUSH2 0x9D4 JUMP JUMPDEST PUSH1 0x40 MLOAD PUSH2 0x1D8 SWAP2 SWAP1 PUSH2 0xB75 JUMP JUMPDEST PUSH1 0x40 MLOAD DUP1 SWAP2 SUB SWAP1 RETURN JUMPDEST PUSH1 0x0 DUP1 SLOAD PUSH2 0x1EE SWAP1 PUSH2 0xD5F JUMP JUMPDEST DUP1 PUSH1 0x1F ADD PUSH1 0x20 DUP1 SWAP2 DIV MUL PUSH1 0x20 ADD PUSH1 0x40 MLOAD SWAP1 DUP2 ADD PUSH1 0x40 MSTORE DUP1 SWAP3 SWAP2 SWAP1 DUP2 DUP2 MSTORE PUSH1 0x20 ADD DUP3 DUP1 SLOAD PUSH2 0x21A SWAP1 PUSH2 0xD5F JUMP JUMPDEST DUP1 ISZERO PUSH2 0x267 JUMPI DUP1 PUSH1 0x1F LT PUSH2 0x23C JUMPI PUSH2 0x100 DUP1 DUP4 SLOAD DIV MUL DUP4 MSTORE SWAP2 PUSH1 0x20 ADD SWAP2 PUSH2 0x267 JUMP JUMPDEST DUP3 ADD SWAP2 SWAP1 PUSH1 0x0 MSTORE PUSH1 0x20 PUSH1 0x0 KECCAK256 SWAP1 JUMPDEST DUP2 SLOAD DUP2 MSTORE SWAP1 PUSH1 0x1 ADD SWAP1 PUSH1 0x20 ADD DUP1 DUP4 GT PUSH2 0x24A JUMPI DUP3 SWAP1 SUB PUSH1 0x1F AND DUP3 ADD SWAP2 JUMPDEST POP POP POP POP POP DUP2 JUMP JUMPDEST PUSH1 0x5 PUSH1 0x1 SWAP1 SLOAD SWAP1 PUSH2 0x100 EXP SWAP1 DIV PUSH1 0xFF AND DUP2 JUMP JUMPDEST PUSH1 0x2 PUSH1 0x0 SWAP1 SLOAD SWAP1 PUSH2 0x100 EXP SWAP1 DIV PUSH20 0xFFFFFFFFFFFFFFFFFFFFFFFFFFFFFFFFFFFFFFFF AND PUSH20 0xFFFFFFFFFFFFFFFFFFFFFFFFFFFFFFFFFFFFFFFF AND CALLER PUSH20 0xFFFFFFFFFFFFFFFFFFFFFFFFFFFFFFFFFFFFFFFF AND EQ PUSH2 0x312 JUMPI PUSH1 0x40 MLOAD PUSH32 0x8C379A000000000000000000000000000000000000000000000000000000000 DUP2 MSTORE PUSH1 0x4 ADD PUSH2 0x309 SWAP1 PUSH2 0xC68 JUMP JUMPDEST PUSH1 0x40 MLOAD DUP1 SWAP2 SUB SWAP1 REVERT JUMPDEST PUSH1 0x1 PUSH1 0x4 PUSH1 0x0 DUP4 PUSH20 0xFFFFFFFFFFFFFFFFFFFFFFFFFFFFFFFFFFFFFFFF AND PUSH20 0xFFFFFFFFFFFFFFFFFFFFFFFFFFFFFFFFFFFFFFFF AND DUP2 MSTORE PUSH1 0x20 ADD SWAP1 DUP2 MSTORE PUSH1 0x20 ADD PUSH1 0x0 KECCAK256 PUSH1 0x0 PUSH2 0x100 EXP DUP2 SLOAD DUP2 PUSH1 0xFF MUL NOT AND SWAP1 DUP4 ISZERO ISZERO MUL OR SWAP1 SSTORE POP PUSH32 0x400153A8CEBBD91509D8511EC62D3FE08EAC19A7AFAB5E61A723C0860DB23520 CALLER PUSH1 0x40 MLOAD PUSH2 0x399 SWAP2 SWAP1 PUSH2 0xB5A JUMP JUMPDEST PUSH1 0x40 MLOAD DUP1 SWAP2 SUB SWAP1 LOG1 POP JUMP JUMPDEST PUSH1 0x2 PUSH1 0x0 SWAP1 SLOAD SWAP1 PUSH2 0x100 EXP SWAP1 DIV PUSH20 0xFFFFFFFFFFFFFFFFFFFFFFFFFFFFFFFFFFFFFFFF AND DUP2 JUMP JUMPDEST PUSH1 0x2 PUSH1 0x4 DUP2 GT ISZERO PUSH2 0x3DE JUMPI PUSH2 0x3DD PUSH2 0xD91 JUMP JUMPDEST JUMPDEST PUSH1 0x5 PUSH1 0x0 SWAP1 SLOAD SWAP1 PUSH2 0x100 EXP SWAP1 DIV PUSH1 0xFF AND PUSH1 0x4 DUP2 GT ISZERO PUSH2 0x400 JUMPI PUSH2 0x3FF PUSH2 0xD91 JUMP JUMPDEST JUMPDEST EQ PUSH2 0x440 JUMPI PUSH1 0x40 MLOAD PUSH32 0x8C379A000000000000000000000000000000000000000000000000000000000 DUP2 MSTORE PUSH1 0x4 ADD PUSH2 0x437 SWAP1 PUSH2 0xC48 JUMP JUMPDEST PUSH1 0x40 MLOAD DUP1 SWAP2 SUB SWAP1 REVERT JUMPDEST PUSH1 0x3 PUSH1 0x0 SWAP1 SLOAD SWAP1 PUSH2 0x100 EXP SWAP1 DIV PUSH20 0xFFFFFFFFFFFFFFFFFFFFFFFFFFFFFFFFFFFFFFFF AND PUSH20 0xFFFFFFFFFFFFFFFFFFFFFFFFFFFFFFFFFFFFFFFF AND CALLER PUSH20 0xFFFFFFFFFFFFFFFFFFFFFFFFFFFFFFFFFFFFFFFF AND EQ PUSH2 0x4D0 JUMPI PUSH1 0x40 MLOAD PUSH32 0x8C379A000000000000000000000000000000000000000000000000000000000 DUP2 MSTORE PUSH1 0x4 ADD PUSH2 0x4C7 SWAP1 PUSH2 0xBE8 JUMP JUMPDEST PUSH1 0x40 MLOAD DUP1 SWAP2 SUB SWAP1 REVERT JUMPDEST PUSH1 0x3 PUSH1 0x5 PUSH1 0x0 PUSH2 0x100 EXP DUP2 SLOAD DUP2 PUSH1 0xFF MUL NOT AND SWAP1 DUP4 PUSH1 0x4 DUP2 GT ISZERO PUSH2 0x4F6 JUMPI PUSH2 0x4F5 PUSH2 0xD91 JUMP JUMPDEST JUMPDEST MUL OR SWAP1 SSTORE POP PUSH32 0x400153A8CEBBD91509D8511EC62D3FE08EAC19A7AFAB5E61A723C0860DB23520 CALLER PUSH1 0x40 MLOAD PUSH2 0x52A SWAP2 SWAP1 PUSH2 0xB5A JUMP JUMPDEST PUSH1 0x40 MLOAD DUP1 SWAP2 SUB SWAP1 LOG1 JUMP JUMPDEST PUSH1 0x3 PUSH1 0x0 SWAP1 SLOAD SWAP1 PUSH2 0x100 EXP SWAP1 DIV PUSH20 0xFFFFFFFFFFFFFFFFFFFFFFFFFFFFFFFFFFFFFFFF AND DUP2 JUMP JUMPDEST PUSH1 0x2 PUSH1 0x0 SWAP1 SLOAD SWAP1 PUSH2 0x100 EXP SWAP1 DIV PUSH20 0xFFFFFFFFFFFFFFFFFFFFFFFFFFFFFFFFFFFFFFFF AND PUSH20 0xFFFFFFFFFFFFFFFFFFFFFFFFFFFFFFFFFFFFFFFF AND CALLER PUSH20 0xFFFFFFFFFFFFFFFFFFFFFFFFFFFFFFFFFFFFFFFF AND EQ PUSH2 0x5EA JUMPI PUSH1 0x40 MLOAD PUSH32 0x8C379A000000000000000000000000000000000000000000000000000000000 DUP2 MSTORE PUSH1 0x4 ADD PUSH2 0x5E1 SWAP1 PUSH2 0xC68 JUMP JUMPDEST PUSH1 0x40 MLOAD DUP1 SWAP2 SUB SWAP1 REVERT JUMPDEST PUSH1 0x0 PUSH1 0x4 DUP2 GT ISZERO PUSH2 0x5FE JUMPI PUSH2 0x5FD PUSH2 0xD91 JUMP JUMPDEST JUMPDEST PUSH1 0x5 PUSH1 0x0 SWAP1 SLOAD SWAP1 PUSH2 0x100 EXP SWAP1 DIV PUSH1 0xFF AND PUSH1 0x4 DUP2 GT ISZERO PUSH2 0x620 JUMPI PUSH2 0x61F PUSH2 0xD91 JUMP JUMPDEST JUMPDEST EQ PUSH2 0x660 JUMPI PUSH1 0x40 MLOAD PUSH32 0x8C379A000000000000000000000000000000000000000000000000000000000 DUP2 MSTORE PUSH1 0x4 ADD PUSH2 0x657 SWAP1 PUSH2 0xC28 JUMP JUMPDEST PUSH1 0x40 MLOAD DUP1 SWAP2 SUB SWAP1 REVERT JUMPDEST PUSH1 0x1 PUSH1 0x5 PUSH1 0x0 PUSH2 0x100 EXP DUP2 SLOAD DUP2 PUSH1 0xFF MUL NOT AND SWAP1 DUP4 PUSH1 0x4 DUP2 GT ISZERO PUSH2 0x686 JUMPI PUSH2 0x685 PUSH2 0xD91 JUMP JUMPDEST JUMPDEST MUL OR SWAP1 SSTORE POP PUSH32 0x400153A8CEBBD91509D8511EC62D3FE08EAC19A7AFAB5E61A723C0860DB23520 CALLER PUSH1 0x40 MLOAD PUSH2 0x6BA SWAP2 SWAP1 PUSH2 0xB5A JUMP JUMPDEST PUSH1 0x40 MLOAD DUP1 SWAP2 SUB SWAP1 LOG1 JUMP JUMPDEST PUSH1 0x3 PUSH1 0x4 DUP2 GT ISZERO PUSH2 0x6D8 JUMPI PUSH2 0x6D7 PUSH2 0xD91 JUMP JUMPDEST JUMPDEST PUSH1 0x5 PUSH1 0x0 SWAP1 SLOAD SWAP1 PUSH2 0x100 EXP SWAP1 DIV PUSH1 0xFF AND PUSH1 0x4 DUP2 GT ISZERO PUSH2 0x6FA JUMPI PUSH2 0x6F9 PUSH2 0xD91 JUMP JUMPDEST JUMPDEST EQ PUSH2 0x73A JUMPI PUSH1 0x40 MLOAD PUSH32 0x8C379A000000000000000000000000000000000000000000000000000000000 DUP2 MSTORE PUSH1 0x4 ADD PUSH2 0x731 SWAP1 PUSH2 0xC48 JUMP JUMPDEST PUSH1 0x40 MLOAD DUP1 SWAP2 SUB SWAP1 REVERT JUMPDEST PUSH1 0x3 PUSH1 0x0 SWAP1 SLOAD SWAP1 PUSH2 0x100 EXP SWAP1 DIV PUSH20 0xFFFFFFFFFFFFFFFFFFFFFFFFFFFFFFFFFFFFFFFF AND PUSH20 0xFFFFFFFFFFFFFFFFFFFFFFFFFFFFFFFFFFFFFFFF AND CALLER PUSH20 0xFFFFFFFFFFFFFFFFFFFFFFFFFFFFFFFFFFFFFFFF AND EQ PUSH2 0x7CA JUMPI PUSH1 0x40 MLOAD PUSH32 0x8C379A000000000000000000000000000000000000000000000000000000000 DUP2 MSTORE PUSH1 0x4 ADD PUSH2 0x7C1 SWAP1 PUSH2 0xBE8 JUMP JUMPDEST PUSH1 0x40 MLOAD DUP1 SWAP2 SUB SWAP1 REVERT JUMPDEST PUSH1 0x4 PUSH1 0x5 PUSH1 0x0 PUSH2 0x100 EXP DUP2 SLOAD DUP2 PUSH1 0xFF MUL NOT AND SWAP1 DUP4 PUSH1 0x4 DUP2 GT ISZERO PUSH2 0x7F0 JUMPI PUSH2 0x7EF PUSH2 0xD91 JUMP JUMPDEST JUMPDEST MUL OR SWAP1 SSTORE POP PUSH32 0x400153A8CEBBD91509D8511EC62D3FE08EAC19A7AFAB5E61A723C0860DB23520 CALLER PUSH1 0x40 MLOAD PUSH2 0x824 SWAP2 SWAP1 PUSH2 0xB5A JUMP JUMPDEST PUSH1 0x40 MLOAD DUP1 SWAP2 SUB SWAP1 LOG1 JUMP JUMPDEST PUSH1 0x1 ISZERO ISZERO PUSH1 0x4 PUSH1 0x0 CALLER PUSH20 0xFFFFFFFFFFFFFFFFFFFFFFFFFFFFFFFFFFFFFFFF AND PUSH20 0xFFFFFFFFFFFFFFFFFFFFFFFFFFFFFFFFFFFFFFFF AND DUP2 MSTORE PUSH1 0x20 ADD SWAP1 DUP2 MSTORE PUSH1 0x20 ADD PUSH1 0x0 KECCAK256 PUSH1 0x0 SWAP1 SLOAD SWAP1 PUSH2 0x100 EXP SWAP1 DIV PUSH1 0xFF AND ISZERO ISZERO EQ PUSH2 0x8C1 JUMPI PUSH1 0x40 MLOAD PUSH32 0x8C379A000000000000000000000000000000000000000000000000000000000 DUP2 MSTORE PUSH1 0x4 ADD PUSH2 0x8B8 SWAP1 PUSH2 0xC68 JUMP JUMPDEST PUSH1 0x40 MLOAD DUP1 SWAP2 SUB SWAP1 REVERT JUMPDEST PUSH1 0x1 PUSH1 0x4 DUP2 GT ISZERO PUSH2 0x8D5 JUMPI PUSH2 0x8D4 PUSH2 0xD91 JUMP JUMPDEST JUMPDEST PUSH1 0x5 PUSH1 0x0 SWAP1 SLOAD SWAP1 PUSH2 0x100 EXP SWAP1 DIV PUSH1 0xFF AND PUSH1 0x4 DUP2 GT ISZERO PUSH2 0x8F7 JUMPI PUSH2 0x8F6 PUSH2 0xD91 JUMP JUMPDEST JUMPDEST EQ PUSH2 0x937 JUMPI PUSH1 0x40 MLOAD PUSH32 0x8C379A000000000000000000000000000000000000000000000000000000000 DUP2 MSTORE PUSH1 0x4 ADD PUSH2 0x92E SWAP1 PUSH2 0xC08 JUMP JUMPDEST PUSH1 0x40 MLOAD DUP1 SWAP2 SUB SWAP1 REVERT JUMPDEST PUSH1 0x2 PUSH1 0x5 PUSH1 0x0 PUSH2 0x100 EXP DUP2 SLOAD DUP2 PUSH1 0xFF MUL NOT AND SWAP1 DUP4 PUSH1 0x4 DUP2 GT ISZERO PUSH2 0x95D JUMPI PUSH2 0x95C PUSH2 0xD91 JUMP JUMPDEST JUMPDEST MUL OR SWAP1 SSTORE POP PUSH32 0xFB229D12AB26294BC680D0AD524E4315A0CE05F84A2B75C4C7A0DA7F1C0B1343 CALLER PUSH1 0x40 MLOAD PUSH2 0x991 SWAP2 SWAP1 PUSH2 0xB5A JUMP JUMPDEST PUSH1 0x40 MLOAD DUP1 SWAP2 SUB SWAP1 LOG1 JUMP JUMPDEST PUSH1 0x1 PUSH1 0x0 SWAP1 SLOAD SWAP1 PUSH2 0x100 EXP SWAP1 DIV PUSH20 0xFFFFFFFFFFFFFFFFFFFFFFFFFFFFFFFFFFFFFFFF AND DUP2 JUMP JUMPDEST PUSH1 0x5 PUSH1 0x0 SWAP1 SLOAD SWAP1 PUSH2 0x100 EXP SWAP1 DIV PUSH1 0xFF AND DUP2 JUMP JUMPDEST PUSH1 0x4 PUSH1 0x20 MSTORE DUP1 PUSH1 0x0 MSTORE PUSH1 0x40 PUSH1 0x0 KECCAK256 PUSH1 0x0 SWAP2 POP SLOAD SWAP1 PUSH2 0x100 EXP SWAP1 DIV PUSH1 0xFF AND DUP2 JUMP JUMPDEST PUSH1 0x0 DUP2 CALLDATALOAD SWAP1 POP PUSH2 0xA03 DUP2 PUSH2 0xEFA JUMP JUMPDEST SWAP3 SWAP2 POP POP JUMP JUMPDEST PUSH1 0x0 PUSH1 0x20 DUP3 DUP5 SUB SLT ISZERO PUSH2 0xA1F JUMPI PUSH2 0xA1E PUSH2 0xDEF JUMP JUMPDEST JUMPDEST PUSH1 0x0 PUSH2 0xA2D DUP5 DUP3 DUP6 ADD PUSH2 0x9F4 JUMP JUMPDEST SWAP2 POP POP SWAP3 SWAP2 POP POP JUMP JUMPDEST PUSH2 0xA3F DUP2 PUSH2 0xCA4 JUMP JUMPDEST DUP3 MSTORE POP POP JUMP JUMPDEST PUSH2 0xA4E DUP2 PUSH2 0xCB6 JUMP JUMPDEST DUP3 MSTORE POP POP JUMP JUMPDEST PUSH2 0xA5D DUP2 PUSH2 0xD08 JUMP JUMPDEST DUP3 MSTORE POP POP JUMP JUMPDEST PUSH2 0xA6C DUP2 PUSH2 0xD1A JUMP JUMPDEST DUP3 MSTORE POP POP JUMP JUMPDEST PUSH1 0x0 PUSH2 0xA7D DUP3 PUSH2 0xC88 JUMP JUMPDEST PUSH2 0xA87 DUP2 DUP6 PUSH2 0xC93 JUMP JUMPDEST SWAP4 POP PUSH2 0xA97 DUP2 DUP6 PUSH1 0x20 DUP7 ADD PUSH2 0xD2C JUMP JUMPDEST PUSH2 0xAA0 DUP2 PUSH2 0xDF4 JUMP JUMPDEST DUP5 ADD SWAP2 POP POP SWAP3 SWAP2 POP POP JUMP JUMPDEST PUSH1 0x0 PUSH2 0xAB8 PUSH1 0x16 DUP4 PUSH2 0xC93 JUMP JUMPDEST SWAP2 POP PUSH2 0xAC3 DUP3 PUSH2 0xE05 JUMP JUMPDEST PUSH1 0x20 DUP3 ADD SWAP1 POP SWAP2 SWAP1 POP JUMP JUMPDEST PUSH1 0x0 PUSH2 0xADB PUSH1 0x9 DUP4 PUSH2 0xC93 JUMP JUMPDEST SWAP2 POP PUSH2 0xAE6 DUP3 PUSH2 0xE2E JUMP JUMPDEST PUSH1 0x20 DUP3 ADD SWAP1 POP SWAP2 SWAP1 POP JUMP JUMPDEST PUSH1 0x0 PUSH2 0xAFE PUSH1 0x11 DUP4 PUSH2 0xC93 JUMP JUMPDEST SWAP2 POP PUSH2 0xB09 DUP3 PUSH2 0xE57 JUMP JUMPDEST PUSH1 0x20 DUP3 ADD SWAP1 POP SWAP2 SWAP1 POP JUMP JUMPDEST PUSH1 0x0 PUSH2 0xB21 PUSH1 0x1A DUP4 PUSH2 0xC93 JUMP JUMPDEST SWAP2 POP PUSH2 0xB2C DUP3 PUSH2 0xE80 JUMP JUMPDEST PUSH1 0x20 DUP3 ADD SWAP1 POP SWAP2 SWAP1 POP JUMP JUMPDEST PUSH1 0x0 PUSH2 0xB44 PUSH1 0x16 DUP4 PUSH2 0xC93 JUMP JUMPDEST SWAP2 POP PUSH2 0xB4F DUP3 PUSH2 0xEA9 JUMP JUMPDEST PUSH1 0x20 DUP3 ADD SWAP1 POP SWAP2 SWAP1 POP JUMP JUMPDEST PUSH1 0x0 PUSH1 0x20 DUP3 ADD SWAP1 POP PUSH2 0xB6F PUSH1 0x0 DUP4 ADD DUP5 PUSH2 0xA36 JUMP JUMPDEST SWAP3 SWAP2 POP POP JUMP JUMPDEST PUSH1 0x0 PUSH1 0x20 DUP3 ADD SWAP1 POP PUSH2 0xB8A PUSH1 0x0 DUP4 ADD DUP5 PUSH2 0xA45 JUMP JUMPDEST SWAP3 SWAP2 POP POP JUMP JUMPDEST PUSH1 0x0 PUSH1 0x20 DUP3 ADD SWAP1 POP PUSH2 0xBA5 PUSH1 0x0 DUP4 ADD DUP5 PUSH2 0xA54 JUMP JUMPDEST SWAP3 SWAP2 POP POP JUMP JUMPDEST PUSH1 0x0 PUSH1 0x20 DUP3 ADD SWAP1 POP PUSH2 0xBC0 PUSH1 0x0 DUP4 ADD DUP5 PUSH2 0xA63 JUMP JUMPDEST SWAP3 SWAP2 POP POP JUMP JUMPDEST PUSH1 0x0 PUSH1 0x20 DUP3 ADD SWAP1 POP DUP2 DUP2 SUB PUSH1 0x0 DUP4 ADD MSTORE PUSH2 0xBE0 DUP2 DUP5 PUSH2 0xA72 JUMP JUMPDEST SWAP1 POP SWAP3 SWAP2 POP POP JUMP JUMPDEST PUSH1 0x0 PUSH1 0x20 DUP3 ADD SWAP1 POP DUP2 DUP2 SUB PUSH1 0x0 DUP4 ADD MSTORE PUSH2 0xC01 DUP2 PUSH2 0xAAB JUMP JUMPDEST SWAP1 POP SWAP2 SWAP1 POP JUMP JUMPDEST PUSH1 0x0 PUSH1 0x20 DUP3 ADD SWAP1 POP DUP2 DUP2 SUB PUSH1 0x0 DUP4 ADD MSTORE PUSH2 0xC21 DUP2 PUSH2 0xACE JUMP JUMPDEST SWAP1 POP SWAP2 SWAP1 POP JUMP JUMPDEST PUSH1 0x0 PUSH1 0x20 DUP3 ADD SWAP1 POP DUP2 DUP2 SUB PUSH1 0x0 DUP4 ADD MSTORE PUSH2 0xC41 DUP2 PUSH2 0xAF1 JUMP JUMPDEST SWAP1 POP SWAP2 SWAP1 POP JUMP JUMPDEST PUSH1 0x0 PUSH1 0x20 DUP3 ADD SWAP1 POP DUP2 DUP2 SUB PUSH1 0x0 DUP4 ADD MSTORE PUSH2 0xC61 DUP2 PUSH2 0xB14 JUMP JUMPDEST SWAP1 POP SWAP2 SWAP1 POP JUMP JUMPDEST PUSH1 0x0 PUSH1 0x20 DUP3 ADD SWAP1 POP DUP2 DUP2 SUB PUSH1 0x0 DUP4 ADD MSTORE PUSH2 0xC81 DUP2 PUSH2 0xB37 JUMP JUMPDEST SWAP1 POP SWAP2 SWAP1 POP JUMP JUMPDEST PUSH1 0x0 DUP2 MLOAD SWAP1 POP SWAP2 SWAP1 POP JUMP JUMPDEST PUSH1 0x0 DUP3 DUP3 MSTORE PUSH1 0x20 DUP3 ADD SWAP1 POP SWAP3 SWAP2 POP POP JUMP JUMPDEST PUSH1 0x0 PUSH2 0xCAF DUP3 PUSH2 0xCE8 JUMP JUMPDEST SWAP1 POP SWAP2 SWAP1 POP JUMP JUMPDEST PUSH1 0x0 DUP2 ISZERO ISZERO SWAP1 POP SWAP2 SWAP1 POP JUMP JUMPDEST PUSH1 0x0 DUP2 SWAP1 POP PUSH2 0xCD0 DUP3 PUSH2 0xED2 JUMP JUMPDEST SWAP2 SWAP1 POP JUMP JUMPDEST PUSH1 0x0 DUP2 SWAP1 POP PUSH2 0xCE3 DUP3 PUSH2 0xEE6 JUMP JUMPDEST SWAP2 SWAP1 POP JUMP JUMPDEST PUSH1 0x0 PUSH20 0xFFFFFFFFFFFFFFFFFFFFFFFFFFFFFFFFFFFFFFFF DUP3 AND SWAP1 POP SWAP2 SWAP1 POP JUMP JUMPDEST PUSH1 0x0 PUSH2 0xD13 DUP3 PUSH2 0xCC2 JUMP JUMPDEST SWAP1 POP SWAP2 SWAP1 POP JUMP JUMPDEST PUSH1 0x0 PUSH2 0xD25 DUP3 PUSH2 0xCD5 JUMP JUMPDEST SWAP1 POP SWAP2 SWAP1 POP JUMP JUMPDEST PUSH1 0x0 JUMPDEST DUP4 DUP2 LT ISZERO PUSH2 0xD4A JUMPI DUP1 DUP3 ADD MLOAD DUP2 DUP5 ADD MSTORE PUSH1 0x20 DUP2 ADD SWAP1 POP PUSH2 0xD2F JUMP JUMPDEST DUP4 DUP2 GT ISZERO PUSH2 0xD59 JUMPI PUSH1 0x0 DUP5 DUP5 ADD MSTORE JUMPDEST POP POP POP POP JUMP JUMPDEST PUSH1 0x0 PUSH1 0x2 DUP3 DIV SWAP1 POP PUSH1 0x1 DUP3 AND DUP1 PUSH2 0xD77 JUMPI PUSH1 0x7F DUP3 AND SWAP2 POP JUMPDEST PUSH1 0x20 DUP3 LT DUP2 EQ ISZERO PUSH2 0xD8B JUMPI PUSH2 0xD8A PUSH2 0xDC0 JUMP JUMPDEST JUMPDEST POP SWAP2 SWAP1 POP JUMP JUMPDEST PUSH32 0x4E487B7100000000000000000000000000000000000000000000000000000000 PUSH1 0x0 MSTORE PUSH1 0x21 PUSH1 0x4 MSTORE PUSH1 0x24 PUSH1 0x0 REVERT JUMPDEST PUSH32 0x4E487B7100000000000000000000000000000000000000000000000000000000 PUSH1 0x0 MSTORE PUSH1 0x22 PUSH1 0x4 MSTORE PUSH1 0x24 PUSH1 0x0 REVERT JUMPDEST PUSH1 0x0 DUP1 REVERT JUMPDEST PUSH1 0x0 PUSH1 0x1F NOT PUSH1 0x1F DUP4 ADD AND SWAP1 POP SWAP2 SWAP1 POP JUMP JUMPDEST PUSH32 0x4E6F742074686520726967687420686F73706974616C00000000000000000000 PUSH1 0x0 DUP3 ADD MSTORE POP JUMP JUMPDEST PUSH32 0x4E6F742072656164790000000000000000000000000000000000000000000000 PUSH1 0x0 DUP3 ADD MSTORE POP JUMP JUMPDEST PUSH32 0x4E6F7420696E2070726F64756374696F6E000000000000000000000000000000 PUSH1 0x0 DUP3 ADD MSTORE POP JUMP JUMPDEST PUSH32 0x5374696C6C2077616974696E6720666F722064656C6976657279000000000000 PUSH1 0x0 DUP3 ADD MSTORE POP JUMP JUMPDEST PUSH32 0x20596F7520617265206E6F7420746865206F776E657200000000000000000000 PUSH1 0x0 DUP3 ADD MSTORE POP JUMP JUMPDEST PUSH1 0x4 DUP2 LT PUSH2 0xEE3 JUMPI PUSH2 0xEE2 PUSH2 0xD91 JUMP JUMPDEST JUMPDEST POP JUMP JUMPDEST PUSH1 0x5 DUP2 LT PUSH2 0xEF7 JUMPI PUSH2 0xEF6 PUSH2 0xD91 JUMP JUMPDEST JUMPDEST POP JUMP JUMPDEST PUSH2 0xF03 DUP2 PUSH2 0xCA4 JUMP JUMPDEST DUP2 EQ PUSH2 0xF0E JUMPI PUSH1 0x0 DUP1 REVERT JUMPDEST POP JUMP INVALID LOG2 PUSH5 0x6970667358 0x22 SLT KECCAK256 CALLDATALOAD DUP8 0xD6 0x29 CREATE2 0xD7 0x21 0xF9 MUL 0xC3 0xE6 DUP11 OR CALLVALUE EXP 0xC8 0xDB 0xB8 PUSH32 0x4F8837A2FE51E061E6FCF38C5064736F6C634300080700330000000000000000 "
				},
				"gasEstimates": {
					"creation": {
						"codeDepositCost": "782200",
						"executionCost": "infinite",
						"totalCost": "infinite"
					},
					"external": {
						"Auth(address)": "infinite",
						"CODE()": "infinite",
						"ProductDestruct()": "30073",
						"StepOfDelivery()": "30051",
						"defectiveReason()": "2633",
						"deliverers(address)": "2955",
						"delivery()": "30140",
						"deliveryManfunction()": "30185",
						"hospital()": "2625",
						"product()": "2580",
						"step()": "2648",
						"supplier()": "2581"
					}
				},
				"methodIdentifiers": {
					"Auth(address)": "1fe49587",
					"CODE()": "0fc8f82a",
					"ProductDestruct()": "b6edb26c",
					"StepOfDelivery()": "b6c859bf",
					"defectiveReason()": "11e760dc",
					"deliverers(address)": "e8950c0f",
					"delivery()": "3d5a70c2",
					"deliveryManfunction()": "b7c779f4",
					"hospital()": "aa2fedde",
					"product()": "bf9ce952",
					"step()": "e25fe175",
					"supplier()": "36da4468"
				}
			},
			"userdoc": {
				"kind": "user",
				"methods": {},
				"version": 1
			}
		}
	}
}