{
	"contracts/CovidVaccineSupplyChain.sol": {
		"Vax": {
			"abi": [
				{
					"inputs": [
						{
							"internalType": "address",
							"name": "_product",
							"type": "address"
						},
						{
							"internalType": "address",
							"name": "_hospital",
							"type": "address"
						}
					],
					"stateMutability": "nonpayable",
					"type": "constructor"
				},
				{
					"anonymous": false,
					"inputs": [
						{
							"indexed": false,
							"internalType": "string",
							"name": "accident",
							"type": "string"
						}
					],
					"name": "Accident",
					"type": "event"
				},
				{
					"anonymous": false,
					"inputs": [
						{
							"indexed": false,
							"internalType": "string",
							"name": "confusion",
							"type": "string"
						}
					],
					"name": "Confusion",
					"type": "event"
				},
				{
					"anonymous": false,
					"inputs": [
						{
							"indexed": false,
							"internalType": "address",
							"name": "deliverer",
							"type": "address"
						}
					],
					"name": "Deliverer",
					"type": "event"
				},
				{
					"anonymous": false,
					"inputs": [
						{
							"indexed": false,
							"internalType": "address",
							"name": "supplier",
							"type": "address"
						}
					],
					"name": "OwnerOfProduct",
					"type": "event"
				},
				{
					"anonymous": false,
					"inputs": [
						{
							"indexed": false,
							"internalType": "string",
							"name": "temperature",
							"type": "string"
						}
					],
					"name": "Temperature",
					"type": "event"
				},
				{
					"inputs": [
						{
							"internalType": "address",
							"name": "_deliverer",
							"type": "address"
						}
					],
					"name": "Auth",
					"outputs": [],
					"stateMutability": "nonpayable",
					"type": "function"
				},
				{
					"inputs": [],
					"name": "CODE",
					"outputs": [
						{
							"internalType": "string",
							"name": "",
							"type": "string"
						}
					],
					"stateMutability": "view",
					"type": "function"
				},
				{
					"inputs": [
						{
							"internalType": "enum Vax.DefectiveReason",
							"name": "_reason",
							"type": "uint8"
						}
					],
					"name": "ProductDestruct",
					"outputs": [],
					"stateMutability": "nonpayable",
					"type": "function"
				},
				{
					"inputs": [],
					"name": "StepOfDelivery",
					"outputs": [],
					"stateMutability": "nonpayable",
					"type": "function"
				},
				{
					"inputs": [],
					"name": "defectiveReason",
					"outputs": [
						{
							"internalType": "enum Vax.DefectiveReason",
							"name": "",
							"type": "uint8"
						}
					],
					"stateMutability": "view",
					"type": "function"
				},
				{
					"inputs": [
						{
							"internalType": "address",
							"name": "",
							"type": "address"
						}
					],
					"name": "deliverers",
					"outputs": [
						{
							"internalType": "bool",
							"name": "",
							"type": "bool"
						}
					],
					"stateMutability": "view",
					"type": "function"
				},
				{
					"inputs": [],
					"name": "delivery",
					"outputs": [],
					"stateMutability": "nonpayable",
					"type": "function"
				},
				{
					"inputs": [],
					"name": "deliveryManfunction",
					"outputs": [],
					"stateMutability": "nonpayable",
					"type": "function"
				},
				{
					"inputs": [],
					"name": "hospital",
					"outputs": [
						{
							"internalType": "address",
							"name": "",
							"type": "address"
						}
					],
					"stateMutability": "view",
					"type": "function"
				},
				{
					"inputs": [],
					"name": "product",
					"outputs": [
						{
							"internalType": "address",
							"name": "",
							"type": "address"
						}
					],
					"stateMutability": "view",
					"type": "function"
				},
				{
					"inputs": [],
					"name": "step",
					"outputs": [
						{
							"internalType": "enum Vax.Step",
							"name": "",
							"type": "uint8"
						}
					],
					"stateMutability": "view",
					"type": "function"
				},
				{
					"inputs": [],
					"name": "supplier",
					"outputs": [
						{
							"internalType": "address",
							"name": "",
							"type": "address"
						}
					],
					"stateMutability": "view",
					"type": "function"
				}
			],
			"devdoc": {
				"kind": "dev",
				"methods": {},
				"version": 1
			},
			"evm": {
				"assembly": "    /* \"contracts/CovidVaccineSupplyChain.sol\":76:2743  contract Vax {\r... */\n  mstore(0x40, 0x80)\n    /* \"contracts/CovidVaccineSupplyChain.sol\":102:133  string public CODE =\"Covid Vax\" */\n  mload(0x40)\n  dup1\n  0x40\n  add\n  0x40\n  mstore\n  dup1\n  0x09\n  dup2\n  mstore\n  0x20\n  add\n  0x436f766964205661780000000000000000000000000000000000000000000000\n  dup2\n  mstore\n  pop\n  0x00\n  swap1\n  dup1\n  mload\n  swap1\n  0x20\n  add\n  swap1\n  tag_1\n  swap3\n  swap2\n  swap1\n  tag_2\n  jump\t// in\ntag_1:\n  pop\n    /* \"contracts/CovidVaccineSupplyChain.sol\":805:1022  constructor(address _product , address _hospital){\r... */\n  callvalue\n  dup1\n  iszero\n  tag_3\n  jumpi\n  0x00\n  dup1\n  revert\ntag_3:\n  pop\n  mload(0x40)\n  sub(codesize, bytecodeSize)\n  dup1\n  bytecodeSize\n  dup4\n  codecopy\n  dup2\n  dup2\n  add\n  0x40\n  mstore\n  dup2\n  add\n  swap1\n  tag_4\n  swap2\n  swap1\n  tag_5\n  jump\t// in\ntag_4:\n    /* \"contracts/CovidVaccineSupplyChain.sol\":875:885  msg.sender */\n  caller\n    /* \"contracts/CovidVaccineSupplyChain.sol\":864:872  supplier */\n  0x02\n  0x00\n    /* \"contracts/CovidVaccineSupplyChain.sol\":864:885  supplier = msg.sender */\n  0x0100\n  exp\n  dup2\n  sload\n  dup2\n  0xffffffffffffffffffffffffffffffffffffffff\n  mul\n  not\n  and\n  swap1\n  dup4\n  0xffffffffffffffffffffffffffffffffffffffff\n  and\n  mul\n  or\n  swap1\n  sstore\n  pop\n    /* \"contracts/CovidVaccineSupplyChain.sol\":905:913  _product */\n  dup2\n    /* \"contracts/CovidVaccineSupplyChain.sol\":895:902  product */\n  0x01\n  0x00\n    /* \"contracts/CovidVaccineSupplyChain.sol\":895:913  product = _product */\n  0x0100\n  exp\n  dup2\n  sload\n  dup2\n  0xffffffffffffffffffffffffffffffffffffffff\n  mul\n  not\n  and\n  swap1\n  dup4\n  0xffffffffffffffffffffffffffffffffffffffff\n  and\n  mul\n  or\n  swap1\n  sstore\n  pop\n    /* \"contracts/CovidVaccineSupplyChain.sol\":934:943  _hospital */\n  dup1\n    /* \"contracts/CovidVaccineSupplyChain.sol\":923:931  hospital */\n  0x03\n  0x00\n    /* \"contracts/CovidVaccineSupplyChain.sol\":923:943  hospital = _hospital */\n  0x0100\n  exp\n  dup2\n  sload\n  dup2\n  0xffffffffffffffffffffffffffffffffffffffff\n  mul\n  not\n  and\n  swap1\n  dup4\n  0xffffffffffffffffffffffffffffffffffffffff\n  and\n  mul\n  or\n  swap1\n  sstore\n  pop\n    /* \"contracts/CovidVaccineSupplyChain.sol\":960:975  Step.production */\n  0x00\n    /* \"contracts/CovidVaccineSupplyChain.sol\":953:957  step */\n  0x05\n  0x00\n    /* \"contracts/CovidVaccineSupplyChain.sol\":953:975  step = Step.production */\n  0x0100\n  exp\n  dup2\n  sload\n  dup2\n  0xff\n  mul\n  not\n  and\n  swap1\n  dup4\n  0x04\n  dup2\n  gt\n  iszero\n  tag_8\n  jumpi\n  tag_9\n  tag_10\n  jump\t// in\ntag_9:\ntag_8:\n  mul\n  or\n  swap1\n  sstore\n  pop\n    /* \"contracts/CovidVaccineSupplyChain.sol\":990:1014  OwnerOfProduct(supplier) */\n  0x400153a8cebbd91509d8511ec62d3fe08eac19a7afab5e61a723c0860db23520\n    /* \"contracts/CovidVaccineSupplyChain.sol\":1005:1013  supplier */\n  0x02\n  0x00\n  swap1\n  sload\n  swap1\n  0x0100\n  exp\n  swap1\n  div\n  0xffffffffffffffffffffffffffffffffffffffff\n  and\n    /* \"contracts/CovidVaccineSupplyChain.sol\":990:1014  OwnerOfProduct(supplier) */\n  mload(0x40)\n  tag_11\n  swap2\n  swap1\n  tag_12\n  jump\t// in\ntag_11:\n  mload(0x40)\n  dup1\n  swap2\n  sub\n  swap1\n  log1\n    /* \"contracts/CovidVaccineSupplyChain.sol\":805:1022  constructor(address _product , address _hospital){\r... */\n  pop\n  pop\n    /* \"contracts/CovidVaccineSupplyChain.sol\":76:2743  contract Vax {\r... */\n  jump(tag_13)\ntag_2:\n  dup3\n  dup1\n  sload\n  tag_14\n  swap1\n  tag_15\n  jump\t// in\ntag_14:\n  swap1\n  0x00\n  mstore\n  keccak256(0x00, 0x20)\n  swap1\n  0x1f\n  add\n  0x20\n  swap1\n  div\n  dup2\n  add\n  swap3\n  dup3\n  tag_17\n  jumpi\n  0x00\n  dup6\n  sstore\n  jump(tag_16)\ntag_17:\n  dup3\n  0x1f\n  lt\n  tag_18\n  jumpi\n  dup1\n  mload\n  not(0xff)\n  and\n  dup4\n  dup1\n  add\n  or\n  dup6\n  sstore\n  jump(tag_16)\ntag_18:\n  dup3\n  dup1\n  add\n  0x01\n  add\n  dup6\n  sstore\n  dup3\n  iszero\n  tag_16\n  jumpi\n  swap2\n  dup3\n  add\ntag_19:\n  dup3\n  dup2\n  gt\n  iszero\n  tag_20\n  jumpi\n  dup3\n  mload\n  dup3\n  sstore\n  swap2\n  0x20\n  add\n  swap2\n  swap1\n  0x01\n  add\n  swap1\n  jump(tag_19)\ntag_20:\ntag_16:\n  pop\n  swap1\n  pop\n  tag_21\n  swap2\n  swap1\n  tag_22\n  jump\t// in\ntag_21:\n  pop\n  swap1\n  jump\t// out\ntag_22:\ntag_23:\n  dup1\n  dup3\n  gt\n  iszero\n  tag_24\n  jumpi\n  0x00\n  dup2\n  0x00\n  swap1\n  sstore\n  pop\n  0x01\n  add\n  jump(tag_23)\ntag_24:\n  pop\n  swap1\n  jump\t// out\n    /* \"#utility.yul\":7:150   */\ntag_26:\n    /* \"#utility.yul\":64:69   */\n  0x00\n    /* \"#utility.yul\":95:101   */\n  dup2\n    /* \"#utility.yul\":89:102   */\n  mload\n    /* \"#utility.yul\":80:102   */\n  swap1\n  pop\n    /* \"#utility.yul\":111:144   */\n  tag_28\n    /* \"#utility.yul\":138:143   */\n  dup2\n    /* \"#utility.yul\":111:144   */\n  tag_29\n  jump\t// in\ntag_28:\n    /* \"#utility.yul\":7:150   */\n  swap3\n  swap2\n  pop\n  pop\n  jump\t// out\n    /* \"#utility.yul\":156:663   */\ntag_5:\n    /* \"#utility.yul\":235:241   */\n  0x00\n    /* \"#utility.yul\":243:249   */\n  dup1\n    /* \"#utility.yul\":292:294   */\n  0x40\n    /* \"#utility.yul\":280:289   */\n  dup4\n    /* \"#utility.yul\":271:278   */\n  dup6\n    /* \"#utility.yul\":267:290   */\n  sub\n    /* \"#utility.yul\":263:295   */\n  slt\n    /* \"#utility.yul\":260:379   */\n  iszero\n  tag_31\n  jumpi\n    /* \"#utility.yul\":298:377   */\n  tag_32\n  tag_33\n  jump\t// in\ntag_32:\n    /* \"#utility.yul\":260:379   */\ntag_31:\n    /* \"#utility.yul\":418:419   */\n  0x00\n    /* \"#utility.yul\":443:507   */\n  tag_34\n    /* \"#utility.yul\":499:506   */\n  dup6\n    /* \"#utility.yul\":490:496   */\n  dup3\n    /* \"#utility.yul\":479:488   */\n  dup7\n    /* \"#utility.yul\":475:497   */\n  add\n    /* \"#utility.yul\":443:507   */\n  tag_26\n  jump\t// in\ntag_34:\n    /* \"#utility.yul\":433:507   */\n  swap3\n  pop\n    /* \"#utility.yul\":389:517   */\n  pop\n    /* \"#utility.yul\":556:558   */\n  0x20\n    /* \"#utility.yul\":582:646   */\n  tag_35\n    /* \"#utility.yul\":638:645   */\n  dup6\n    /* \"#utility.yul\":629:635   */\n  dup3\n    /* \"#utility.yul\":618:627   */\n  dup7\n    /* \"#utility.yul\":614:636   */\n  add\n    /* \"#utility.yul\":582:646   */\n  tag_26\n  jump\t// in\ntag_35:\n    /* \"#utility.yul\":572:646   */\n  swap2\n  pop\n    /* \"#utility.yul\":527:656   */\n  pop\n    /* \"#utility.yul\":156:663   */\n  swap3\n  pop\n  swap3\n  swap1\n  pop\n  jump\t// out\n    /* \"#utility.yul\":669:787   */\ntag_36:\n    /* \"#utility.yul\":756:780   */\n  tag_38\n    /* \"#utility.yul\":774:779   */\n  dup2\n    /* \"#utility.yul\":756:780   */\n  tag_39\n  jump\t// in\ntag_38:\n    /* \"#utility.yul\":751:754   */\n  dup3\n    /* \"#utility.yul\":744:781   */\n  mstore\n    /* \"#utility.yul\":669:787   */\n  pop\n  pop\n  jump\t// out\n    /* \"#utility.yul\":793:1015   */\ntag_12:\n    /* \"#utility.yul\":886:890   */\n  0x00\n    /* \"#utility.yul\":924:926   */\n  0x20\n    /* \"#utility.yul\":913:922   */\n  dup3\n    /* \"#utility.yul\":909:927   */\n  add\n    /* \"#utility.yul\":901:927   */\n  swap1\n  pop\n    /* \"#utility.yul\":937:1008   */\n  tag_41\n    /* \"#utility.yul\":1005:1006   */\n  0x00\n    /* \"#utility.yul\":994:1003   */\n  dup4\n    /* \"#utility.yul\":990:1007   */\n  add\n    /* \"#utility.yul\":981:987   */\n  dup5\n    /* \"#utility.yul\":937:1008   */\n  tag_36\n  jump\t// in\ntag_41:\n    /* \"#utility.yul\":793:1015   */\n  swap3\n  swap2\n  pop\n  pop\n  jump\t// out\n    /* \"#utility.yul\":1102:1198   */\ntag_39:\n    /* \"#utility.yul\":1139:1146   */\n  0x00\n    /* \"#utility.yul\":1168:1192   */\n  tag_45\n    /* \"#utility.yul\":1186:1191   */\n  dup3\n    /* \"#utility.yul\":1168:1192   */\n  tag_46\n  jump\t// in\ntag_45:\n    /* \"#utility.yul\":1157:1192   */\n  swap1\n  pop\n    /* \"#utility.yul\":1102:1198   */\n  swap2\n  swap1\n  pop\n  jump\t// out\n    /* \"#utility.yul\":1204:1330   */\ntag_46:\n    /* \"#utility.yul\":1241:1248   */\n  0x00\n    /* \"#utility.yul\":1281:1323   */\n  0xffffffffffffffffffffffffffffffffffffffff\n    /* \"#utility.yul\":1274:1279   */\n  dup3\n    /* \"#utility.yul\":1270:1324   */\n  and\n    /* \"#utility.yul\":1259:1324   */\n  swap1\n  pop\n    /* \"#utility.yul\":1204:1330   */\n  swap2\n  swap1\n  pop\n  jump\t// out\n    /* \"#utility.yul\":1336:1656   */\ntag_15:\n    /* \"#utility.yul\":1380:1386   */\n  0x00\n    /* \"#utility.yul\":1417:1418   */\n  0x02\n    /* \"#utility.yul\":1411:1415   */\n  dup3\n    /* \"#utility.yul\":1407:1419   */\n  div\n    /* \"#utility.yul\":1397:1419   */\n  swap1\n  pop\n    /* \"#utility.yul\":1464:1465   */\n  0x01\n    /* \"#utility.yul\":1458:1462   */\n  dup3\n    /* \"#utility.yul\":1454:1466   */\n  and\n    /* \"#utility.yul\":1485:1503   */\n  dup1\n    /* \"#utility.yul\":1475:1556   */\n  tag_49\n  jumpi\n    /* \"#utility.yul\":1541:1545   */\n  0x7f\n    /* \"#utility.yul\":1533:1539   */\n  dup3\n    /* \"#utility.yul\":1529:1546   */\n  and\n    /* \"#utility.yul\":1519:1546   */\n  swap2\n  pop\n    /* \"#utility.yul\":1475:1556   */\ntag_49:\n    /* \"#utility.yul\":1603:1605   */\n  0x20\n    /* \"#utility.yul\":1595:1601   */\n  dup3\n    /* \"#utility.yul\":1592:1606   */\n  lt\n    /* \"#utility.yul\":1572:1590   */\n  dup2\n    /* \"#utility.yul\":1569:1607   */\n  eq\n    /* \"#utility.yul\":1566:1650   */\n  iszero\n  tag_50\n  jumpi\n    /* \"#utility.yul\":1622:1640   */\n  tag_51\n  tag_52\n  jump\t// in\ntag_51:\n    /* \"#utility.yul\":1566:1650   */\ntag_50:\n    /* \"#utility.yul\":1387:1656   */\n  pop\n    /* \"#utility.yul\":1336:1656   */\n  swap2\n  swap1\n  pop\n  jump\t// out\n    /* \"#utility.yul\":1662:1842   */\ntag_10:\n    /* \"#utility.yul\":1710:1787   */\n  0x4e487b7100000000000000000000000000000000000000000000000000000000\n    /* \"#utility.yul\":1707:1708   */\n  0x00\n    /* \"#utility.yul\":1700:1788   */\n  mstore\n    /* \"#utility.yul\":1807:1811   */\n  0x21\n    /* \"#utility.yul\":1804:1805   */\n  0x04\n    /* \"#utility.yul\":1797:1812   */\n  mstore\n    /* \"#utility.yul\":1831:1835   */\n  0x24\n    /* \"#utility.yul\":1828:1829   */\n  0x00\n    /* \"#utility.yul\":1821:1836   */\n  revert\n    /* \"#utility.yul\":1848:2028   */\ntag_52:\n    /* \"#utility.yul\":1896:1973   */\n  0x4e487b7100000000000000000000000000000000000000000000000000000000\n    /* \"#utility.yul\":1893:1894   */\n  0x00\n    /* \"#utility.yul\":1886:1974   */\n  mstore\n    /* \"#utility.yul\":1993:1997   */\n  0x22\n    /* \"#utility.yul\":1990:1991   */\n  0x04\n    /* \"#utility.yul\":1983:1998   */\n  mstore\n    /* \"#utility.yul\":2017:2021   */\n  0x24\n    /* \"#utility.yul\":2014:2015   */\n  0x00\n    /* \"#utility.yul\":2007:2022   */\n  revert\n    /* \"#utility.yul\":2157:2274   */\ntag_33:\n    /* \"#utility.yul\":2266:2267   */\n  0x00\n    /* \"#utility.yul\":2263:2264   */\n  dup1\n    /* \"#utility.yul\":2256:2268   */\n  revert\n    /* \"#utility.yul\":2280:2402   */\ntag_29:\n    /* \"#utility.yul\":2353:2377   */\n  tag_59\n    /* \"#utility.yul\":2371:2376   */\n  dup2\n    /* \"#utility.yul\":2353:2377   */\n  tag_39\n  jump\t// in\ntag_59:\n    /* \"#utility.yul\":2346:2351   */\n  dup2\n    /* \"#utility.yul\":2343:2378   */\n  eq\n    /* \"#utility.yul\":2333:2396   */\n  tag_60\n  jumpi\n    /* \"#utility.yul\":2392:2393   */\n  0x00\n    /* \"#utility.yul\":2389:2390   */\n  dup1\n    /* \"#utility.yul\":2382:2394   */\n  revert\n    /* \"#utility.yul\":2333:2396   */\ntag_60:\n    /* \"#utility.yul\":2280:2402   */\n  pop\n  jump\t// out\n    /* \"contracts/CovidVaccineSupplyChain.sol\":76:2743  contract Vax {\r... */\ntag_13:\n  dataSize(sub_0)\n  dup1\n  dataOffset(sub_0)\n  0x00\n  codecopy\n  0x00\n  return\nstop\n\nsub_0: assembly {\n        /* \"contracts/CovidVaccineSupplyChain.sol\":76:2743  contract Vax {\r... */\n      mstore(0x40, 0x80)\n      callvalue\n      dup1\n      iszero\n      tag_1\n      jumpi\n      0x00\n      dup1\n      revert\n    tag_1:\n      pop\n      jumpi(tag_2, lt(calldatasize, 0x04))\n      shr(0xe0, calldataload(0x00))\n      dup1\n      0xaa2fedde\n      gt\n      tag_15\n      jumpi\n      dup1\n      0xaa2fedde\n      eq\n      tag_9\n      jumpi\n      dup1\n      0xb6c859bf\n      eq\n      tag_10\n      jumpi\n      dup1\n      0xb7c779f4\n      eq\n      tag_11\n      jumpi\n      dup1\n      0xbf9ce952\n      eq\n      tag_12\n      jumpi\n      dup1\n      0xe25fe175\n      eq\n      tag_13\n      jumpi\n      dup1\n      0xe8950c0f\n      eq\n      tag_14\n      jumpi\n      jump(tag_2)\n    tag_15:\n      dup1\n      0x0fc8f82a\n      eq\n      tag_3\n      jumpi\n      dup1\n      0x11e760dc\n      eq\n      tag_4\n      jumpi\n      dup1\n      0x1fe49587\n      eq\n      tag_5\n      jumpi\n      dup1\n      0x36da4468\n      eq\n      tag_6\n      jumpi\n      dup1\n      0x3d5a70c2\n      eq\n      tag_7\n      jumpi\n      dup1\n      0xa72e783b\n      eq\n      tag_8\n      jumpi\n    tag_2:\n      0x00\n      dup1\n      revert\n        /* \"contracts/CovidVaccineSupplyChain.sol\":102:133  string public CODE =\"Covid Vax\" */\n    tag_3:\n      tag_16\n      tag_17\n      jump\t// in\n    tag_16:\n      mload(0x40)\n      tag_18\n      swap2\n      swap1\n      tag_19\n      jump\t// in\n    tag_18:\n      mload(0x40)\n      dup1\n      swap2\n      sub\n      swap1\n      return\n        /* \"contracts/CovidVaccineSupplyChain.sol\":758:796  DefectiveReason public defectiveReason */\n    tag_4:\n      tag_20\n      tag_21\n      jump\t// in\n    tag_20:\n      mload(0x40)\n      tag_22\n      swap2\n      swap1\n      tag_23\n      jump\t// in\n    tag_22:\n      mload(0x40)\n      dup1\n      swap2\n      sub\n      swap1\n      return\n        /* \"contracts/CovidVaccineSupplyChain.sol\":1273:1412  function Auth(address _deliverer)external isOwner{\r... */\n    tag_5:\n      tag_24\n      0x04\n      dup1\n      calldatasize\n      sub\n      dup2\n      add\n      swap1\n      tag_25\n      swap2\n      swap1\n      tag_26\n      jump\t// in\n    tag_25:\n      tag_27\n      jump\t// in\n    tag_24:\n      stop\n        /* \"contracts/CovidVaccineSupplyChain.sol\":169:192  address public supplier */\n    tag_6:\n      tag_28\n      tag_29\n      jump\t// in\n    tag_28:\n      mload(0x40)\n      tag_30\n      swap2\n      swap1\n      tag_31\n      jump\t// in\n    tag_30:\n      mload(0x40)\n      dup1\n      swap2\n      sub\n      swap1\n      return\n        /* \"contracts/CovidVaccineSupplyChain.sol\":1806:2051  function delivery()external {\r... */\n    tag_7:\n      tag_32\n      tag_33\n      jump\t// in\n    tag_32:\n      stop\n        /* \"contracts/CovidVaccineSupplyChain.sol\":2061:2734  function ProductDestruct(DefectiveReason _reason)external {\r... */\n    tag_8:\n      tag_34\n      0x04\n      dup1\n      calldatasize\n      sub\n      dup2\n      add\n      swap1\n      tag_35\n      swap2\n      swap1\n      tag_36\n      jump\t// in\n    tag_35:\n      tag_37\n      jump\t// in\n    tag_34:\n      stop\n        /* \"contracts/CovidVaccineSupplyChain.sol\":199:222  address public hospital */\n    tag_9:\n      tag_38\n      tag_39\n      jump\t// in\n    tag_38:\n      mload(0x40)\n      tag_40\n      swap2\n      swap1\n      tag_31\n      jump\t// in\n    tag_40:\n      mload(0x40)\n      dup1\n      swap2\n      sub\n      swap1\n      return\n        /* \"contracts/CovidVaccineSupplyChain.sol\":1424:1612  function StepOfDelivery() external isOwner{\r... */\n    tag_10:\n      tag_41\n      tag_42\n      jump\t// in\n    tag_41:\n      stop\n        /* \"contracts/CovidVaccineSupplyChain.sol\":1620:1798  function deliveryManfunction() external isDeliverer{\r... */\n    tag_11:\n      tag_43\n      tag_44\n      jump\t// in\n    tag_43:\n      stop\n        /* \"contracts/CovidVaccineSupplyChain.sol\":140:162  address public product */\n    tag_12:\n      tag_45\n      tag_46\n      jump\t// in\n    tag_45:\n      mload(0x40)\n      tag_47\n      swap2\n      swap1\n      tag_31\n      jump\t// in\n    tag_47:\n      mload(0x40)\n      dup1\n      swap2\n      sub\n      swap1\n      return\n        /* \"contracts/CovidVaccineSupplyChain.sol\":735:751  Step public step */\n    tag_13:\n      tag_48\n      tag_49\n      jump\t// in\n    tag_48:\n      mload(0x40)\n      tag_50\n      swap2\n      swap1\n      tag_51\n      jump\t// in\n    tag_50:\n      mload(0x40)\n      dup1\n      swap2\n      sub\n      swap1\n      return\n        /* \"contracts/CovidVaccineSupplyChain.sol\":229:271  mapping (address => bool)public deliverers */\n    tag_14:\n      tag_52\n      0x04\n      dup1\n      calldatasize\n      sub\n      dup2\n      add\n      swap1\n      tag_53\n      swap2\n      swap1\n      tag_26\n      jump\t// in\n    tag_53:\n      tag_54\n      jump\t// in\n    tag_52:\n      mload(0x40)\n      tag_55\n      swap2\n      swap1\n      tag_56\n      jump\t// in\n    tag_55:\n      mload(0x40)\n      dup1\n      swap2\n      sub\n      swap1\n      return\n        /* \"contracts/CovidVaccineSupplyChain.sol\":102:133  string public CODE =\"Covid Vax\" */\n    tag_17:\n      0x00\n      dup1\n      sload\n      tag_57\n      swap1\n      tag_58\n      jump\t// in\n    tag_57:\n      dup1\n      0x1f\n      add\n      0x20\n      dup1\n      swap2\n      div\n      mul\n      0x20\n      add\n      mload(0x40)\n      swap1\n      dup2\n      add\n      0x40\n      mstore\n      dup1\n      swap3\n      swap2\n      swap1\n      dup2\n      dup2\n      mstore\n      0x20\n      add\n      dup3\n      dup1\n      sload\n      tag_59\n      swap1\n      tag_58\n      jump\t// in\n    tag_59:\n      dup1\n      iszero\n      tag_60\n      jumpi\n      dup1\n      0x1f\n      lt\n      tag_61\n      jumpi\n      0x0100\n      dup1\n      dup4\n      sload\n      div\n      mul\n      dup4\n      mstore\n      swap2\n      0x20\n      add\n      swap2\n      jump(tag_60)\n    tag_61:\n      dup3\n      add\n      swap2\n      swap1\n      0x00\n      mstore\n      keccak256(0x00, 0x20)\n      swap1\n    tag_62:\n      dup2\n      sload\n      dup2\n      mstore\n      swap1\n      0x01\n      add\n      swap1\n      0x20\n      add\n      dup1\n      dup4\n      gt\n      tag_62\n      jumpi\n      dup3\n      swap1\n      sub\n      0x1f\n      and\n      dup3\n      add\n      swap2\n    tag_60:\n      pop\n      pop\n      pop\n      pop\n      pop\n      dup2\n      jump\t// out\n        /* \"contracts/CovidVaccineSupplyChain.sol\":758:796  DefectiveReason public defectiveReason */\n    tag_21:\n      0x05\n      0x01\n      swap1\n      sload\n      swap1\n      0x0100\n      exp\n      swap1\n      div\n      0xff\n      and\n      dup2\n      jump\t// out\n        /* \"contracts/CovidVaccineSupplyChain.sol\":1273:1412  function Auth(address _deliverer)external isOwner{\r... */\n    tag_27:\n        /* \"contracts/CovidVaccineSupplyChain.sol\":1081:1089  supplier */\n      0x02\n      0x00\n      swap1\n      sload\n      swap1\n      0x0100\n      exp\n      swap1\n      div\n      0xffffffffffffffffffffffffffffffffffffffff\n      and\n        /* \"contracts/CovidVaccineSupplyChain.sol\":1067:1089  msg.sender == supplier */\n      0xffffffffffffffffffffffffffffffffffffffff\n      and\n        /* \"contracts/CovidVaccineSupplyChain.sol\":1067:1077  msg.sender */\n      caller\n        /* \"contracts/CovidVaccineSupplyChain.sol\":1067:1089  msg.sender == supplier */\n      0xffffffffffffffffffffffffffffffffffffffff\n      and\n      eq\n        /* \"contracts/CovidVaccineSupplyChain.sol\":1059:1116  require(msg.sender == supplier, \" You are not the owner\") */\n      tag_64\n      jumpi\n      mload(0x40)\n      0x08c379a000000000000000000000000000000000000000000000000000000000\n      dup2\n      mstore\n      0x04\n      add\n      tag_65\n      swap1\n      tag_66\n      jump\t// in\n    tag_65:\n      mload(0x40)\n      dup1\n      swap2\n      sub\n      swap1\n      revert\n    tag_64:\n        /* \"contracts/CovidVaccineSupplyChain.sol\":1358:1362  true */\n      0x01\n        /* \"contracts/CovidVaccineSupplyChain.sol\":1333:1343  deliverers */\n      0x04\n        /* \"contracts/CovidVaccineSupplyChain.sol\":1333:1355  deliverers[_deliverer] */\n      0x00\n        /* \"contracts/CovidVaccineSupplyChain.sol\":1344:1354  _deliverer */\n      dup4\n        /* \"contracts/CovidVaccineSupplyChain.sol\":1333:1355  deliverers[_deliverer] */\n      0xffffffffffffffffffffffffffffffffffffffff\n      and\n      0xffffffffffffffffffffffffffffffffffffffff\n      and\n      dup2\n      mstore\n      0x20\n      add\n      swap1\n      dup2\n      mstore\n      0x20\n      add\n      0x00\n      keccak256\n      0x00\n        /* \"contracts/CovidVaccineSupplyChain.sol\":1333:1362  deliverers[_deliverer] = true */\n      0x0100\n      exp\n      dup2\n      sload\n      dup2\n      0xff\n      mul\n      not\n      and\n      swap1\n      dup4\n      iszero\n      iszero\n      mul\n      or\n      swap1\n      sstore\n      pop\n        /* \"contracts/CovidVaccineSupplyChain.sol\":1378:1404  OwnerOfProduct(msg.sender) */\n      0x400153a8cebbd91509d8511ec62d3fe08eac19a7afab5e61a723c0860db23520\n        /* \"contracts/CovidVaccineSupplyChain.sol\":1393:1403  msg.sender */\n      caller\n        /* \"contracts/CovidVaccineSupplyChain.sol\":1378:1404  OwnerOfProduct(msg.sender) */\n      mload(0x40)\n      tag_68\n      swap2\n      swap1\n      tag_31\n      jump\t// in\n    tag_68:\n      mload(0x40)\n      dup1\n      swap2\n      sub\n      swap1\n      log1\n        /* \"contracts/CovidVaccineSupplyChain.sol\":1273:1412  function Auth(address _deliverer)external isOwner{\r... */\n      pop\n      jump\t// out\n        /* \"contracts/CovidVaccineSupplyChain.sol\":169:192  address public supplier */\n    tag_29:\n      0x02\n      0x00\n      swap1\n      sload\n      swap1\n      0x0100\n      exp\n      swap1\n      div\n      0xffffffffffffffffffffffffffffffffffffffff\n      and\n      dup2\n      jump\t// out\n        /* \"contracts/CovidVaccineSupplyChain.sol\":1806:2051  function delivery()external {\r... */\n    tag_33:\n        /* \"contracts/CovidVaccineSupplyChain.sol\":1861:1871  Step.onWay */\n      0x02\n        /* \"contracts/CovidVaccineSupplyChain.sol\":1853:1871  step == Step.onWay */\n      0x04\n      dup2\n      gt\n      iszero\n      tag_70\n      jumpi\n      tag_71\n      tag_72\n      jump\t// in\n    tag_71:\n    tag_70:\n        /* \"contracts/CovidVaccineSupplyChain.sol\":1853:1857  step */\n      0x05\n      0x00\n      swap1\n      sload\n      swap1\n      0x0100\n      exp\n      swap1\n      div\n      0xff\n      and\n        /* \"contracts/CovidVaccineSupplyChain.sol\":1853:1871  step == Step.onWay */\n      0x04\n      dup2\n      gt\n      iszero\n      tag_73\n      jumpi\n      tag_74\n      tag_72\n      jump\t// in\n    tag_74:\n    tag_73:\n      eq\n        /* \"contracts/CovidVaccineSupplyChain.sol\":1845:1903  require(step == Step.onWay , \"Still waiting for delivery\") */\n      tag_75\n      jumpi\n      mload(0x40)\n      0x08c379a000000000000000000000000000000000000000000000000000000000\n      dup2\n      mstore\n      0x04\n      add\n      tag_76\n      swap1\n      tag_77\n      jump\t// in\n    tag_76:\n      mload(0x40)\n      dup1\n      swap2\n      sub\n      swap1\n      revert\n    tag_75:\n        /* \"contracts/CovidVaccineSupplyChain.sol\":1936:1944  hospital */\n      0x03\n      0x00\n      swap1\n      sload\n      swap1\n      0x0100\n      exp\n      swap1\n      div\n      0xffffffffffffffffffffffffffffffffffffffff\n      and\n        /* \"contracts/CovidVaccineSupplyChain.sol\":1922:1944  msg.sender == hospital */\n      0xffffffffffffffffffffffffffffffffffffffff\n      and\n        /* \"contracts/CovidVaccineSupplyChain.sol\":1922:1932  msg.sender */\n      caller\n        /* \"contracts/CovidVaccineSupplyChain.sol\":1922:1944  msg.sender == hospital */\n      0xffffffffffffffffffffffffffffffffffffffff\n      and\n      eq\n        /* \"contracts/CovidVaccineSupplyChain.sol\":1914:1971  require(msg.sender == hospital, \"Not the right hospital\") */\n      tag_78\n      jumpi\n      mload(0x40)\n      0x08c379a000000000000000000000000000000000000000000000000000000000\n      dup2\n      mstore\n      0x04\n      add\n      tag_79\n      swap1\n      tag_80\n      jump\t// in\n    tag_79:\n      mload(0x40)\n      dup1\n      swap2\n      sub\n      swap1\n      revert\n    tag_78:\n        /* \"contracts/CovidVaccineSupplyChain.sol\":1989:2001  Step.shipped */\n      0x03\n        /* \"contracts/CovidVaccineSupplyChain.sol\":1982:1986  step */\n      0x05\n      0x00\n        /* \"contracts/CovidVaccineSupplyChain.sol\":1982:2001  step = Step.shipped */\n      0x0100\n      exp\n      dup2\n      sload\n      dup2\n      0xff\n      mul\n      not\n      and\n      swap1\n      dup4\n      0x04\n      dup2\n      gt\n      iszero\n      tag_81\n      jumpi\n      tag_82\n      tag_72\n      jump\t// in\n    tag_82:\n    tag_81:\n      mul\n      or\n      swap1\n      sstore\n      pop\n        /* \"contracts/CovidVaccineSupplyChain.sol\":2017:2043  OwnerOfProduct(msg.sender) */\n      0x400153a8cebbd91509d8511ec62d3fe08eac19a7afab5e61a723c0860db23520\n        /* \"contracts/CovidVaccineSupplyChain.sol\":2032:2042  msg.sender */\n      caller\n        /* \"contracts/CovidVaccineSupplyChain.sol\":2017:2043  OwnerOfProduct(msg.sender) */\n      mload(0x40)\n      tag_83\n      swap2\n      swap1\n      tag_31\n      jump\t// in\n    tag_83:\n      mload(0x40)\n      dup1\n      swap2\n      sub\n      swap1\n      log1\n        /* \"contracts/CovidVaccineSupplyChain.sol\":1806:2051  function delivery()external {\r... */\n      jump\t// out\n        /* \"contracts/CovidVaccineSupplyChain.sol\":2061:2734  function ProductDestruct(DefectiveReason _reason)external {\r... */\n    tag_37:\n        /* \"contracts/CovidVaccineSupplyChain.sol\":2146:2158  Step.shipped */\n      0x03\n        /* \"contracts/CovidVaccineSupplyChain.sol\":2138:2158  step == Step.shipped */\n      0x04\n      dup2\n      gt\n      iszero\n      tag_85\n      jumpi\n      tag_86\n      tag_72\n      jump\t// in\n    tag_86:\n    tag_85:\n        /* \"contracts/CovidVaccineSupplyChain.sol\":2138:2142  step */\n      0x05\n      0x00\n      swap1\n      sload\n      swap1\n      0x0100\n      exp\n      swap1\n      div\n      0xff\n      and\n        /* \"contracts/CovidVaccineSupplyChain.sol\":2138:2158  step == Step.shipped */\n      0x04\n      dup2\n      gt\n      iszero\n      tag_87\n      jumpi\n      tag_88\n      tag_72\n      jump\t// in\n    tag_88:\n    tag_87:\n      eq\n        /* \"contracts/CovidVaccineSupplyChain.sol\":2130:2190  require(step == Step.shipped , \"Still waiting for delivery\") */\n      tag_89\n      jumpi\n      mload(0x40)\n      0x08c379a000000000000000000000000000000000000000000000000000000000\n      dup2\n      mstore\n      0x04\n      add\n      tag_90\n      swap1\n      tag_77\n      jump\t// in\n    tag_90:\n      mload(0x40)\n      dup1\n      swap2\n      sub\n      swap1\n      revert\n    tag_89:\n        /* \"contracts/CovidVaccineSupplyChain.sol\":2223:2231  hospital */\n      0x03\n      0x00\n      swap1\n      sload\n      swap1\n      0x0100\n      exp\n      swap1\n      div\n      0xffffffffffffffffffffffffffffffffffffffff\n      and\n        /* \"contracts/CovidVaccineSupplyChain.sol\":2209:2231  msg.sender == hospital */\n      0xffffffffffffffffffffffffffffffffffffffff\n      and\n        /* \"contracts/CovidVaccineSupplyChain.sol\":2209:2219  msg.sender */\n      caller\n        /* \"contracts/CovidVaccineSupplyChain.sol\":2209:2231  msg.sender == hospital */\n      0xffffffffffffffffffffffffffffffffffffffff\n      and\n      eq\n        /* \"contracts/CovidVaccineSupplyChain.sol\":2201:2258  require(msg.sender == hospital, \"Not the right hospital\") */\n      tag_91\n      jumpi\n      mload(0x40)\n      0x08c379a000000000000000000000000000000000000000000000000000000000\n      dup2\n      mstore\n      0x04\n      add\n      tag_92\n      swap1\n      tag_80\n      jump\t// in\n    tag_92:\n      mload(0x40)\n      dup1\n      swap2\n      sub\n      swap1\n      revert\n    tag_91:\n        /* \"contracts/CovidVaccineSupplyChain.sol\":2276:2290  Step.defective */\n      0x04\n        /* \"contracts/CovidVaccineSupplyChain.sol\":2269:2273  step */\n      0x05\n      0x00\n        /* \"contracts/CovidVaccineSupplyChain.sol\":2269:2290  step = Step.defective */\n      0x0100\n      exp\n      dup2\n      sload\n      dup2\n      0xff\n      mul\n      not\n      and\n      swap1\n      dup4\n      0x04\n      dup2\n      gt\n      iszero\n      tag_93\n      jumpi\n      tag_94\n      tag_72\n      jump\t// in\n    tag_94:\n    tag_93:\n      mul\n      or\n      swap1\n      sstore\n      pop\n        /* \"contracts/CovidVaccineSupplyChain.sol\":2326:2353  DefectiveReason.temperature */\n      0x01\n        /* \"contracts/CovidVaccineSupplyChain.sol\":2315:2353  _reason == DefectiveReason.temperature */\n      0x03\n      dup2\n      gt\n      iszero\n      tag_95\n      jumpi\n      tag_96\n      tag_72\n      jump\t// in\n    tag_96:\n    tag_95:\n        /* \"contracts/CovidVaccineSupplyChain.sol\":2315:2322  _reason */\n      dup2\n        /* \"contracts/CovidVaccineSupplyChain.sol\":2315:2353  _reason == DefectiveReason.temperature */\n      0x03\n      dup2\n      gt\n      iszero\n      tag_97\n      jumpi\n      tag_98\n      tag_72\n      jump\t// in\n    tag_98:\n    tag_97:\n      eq\n        /* \"contracts/CovidVaccineSupplyChain.sol\":2311:2683  if (_reason == DefectiveReason.temperature){\r... */\n      iszero\n      tag_99\n      jumpi\n        /* \"contracts/CovidVaccineSupplyChain.sol\":2374:2437  Temperature(\" temperature too high or too low during delivery\") */\n      0x1eae0aa905d37777eda12fd332ecefe877fd575cebe92a5b4e85da2e8cc1b27b\n      mload(0x40)\n      tag_100\n      swap1\n      tag_101\n      jump\t// in\n    tag_100:\n      mload(0x40)\n      dup1\n      swap2\n      sub\n      swap1\n      log1\n        /* \"contracts/CovidVaccineSupplyChain.sol\":2311:2683  if (_reason == DefectiveReason.temperature){\r... */\n      jump(tag_102)\n    tag_99:\n        /* \"contracts/CovidVaccineSupplyChain.sol\":2479:2503  DefectiveReason.accident */\n      0x02\n        /* \"contracts/CovidVaccineSupplyChain.sol\":2468:2503  _reason == DefectiveReason.accident */\n      0x03\n      dup2\n      gt\n      iszero\n      tag_103\n      jumpi\n      tag_104\n      tag_72\n      jump\t// in\n    tag_104:\n    tag_103:\n        /* \"contracts/CovidVaccineSupplyChain.sol\":2468:2475  _reason */\n      dup2\n        /* \"contracts/CovidVaccineSupplyChain.sol\":2468:2503  _reason == DefectiveReason.accident */\n      0x03\n      dup2\n      gt\n      iszero\n      tag_105\n      jumpi\n      tag_106\n      tag_72\n      jump\t// in\n    tag_106:\n    tag_105:\n      eq\n        /* \"contracts/CovidVaccineSupplyChain.sol\":2464:2683  if (_reason == DefectiveReason.accident){\r... */\n      iszero\n      tag_107\n      jumpi\n        /* \"contracts/CovidVaccineSupplyChain.sol\":2524:2560  Accident(\"Accident during delivery\") */\n      0x1a23e28fcccea66734aa0163a9dcd828e5b5513815b9c209e48a7d1f03ff0f66\n      mload(0x40)\n      tag_108\n      swap1\n      tag_109\n      jump\t// in\n    tag_108:\n      mload(0x40)\n      dup1\n      swap2\n      sub\n      swap1\n      log1\n        /* \"contracts/CovidVaccineSupplyChain.sol\":2464:2683  if (_reason == DefectiveReason.accident){\r... */\n      jump(tag_110)\n    tag_107:\n        /* \"contracts/CovidVaccineSupplyChain.sol\":2606:2671  Confusion(\"There was a confusion of product during the delevery\") */\n      0xa159983831a7d960a279c851a8b5dce81ff9f24315f6ecec503cd327d7819142\n      mload(0x40)\n      tag_111\n      swap1\n      tag_112\n      jump\t// in\n    tag_111:\n      mload(0x40)\n      dup1\n      swap2\n      sub\n      swap1\n      log1\n        /* \"contracts/CovidVaccineSupplyChain.sol\":2464:2683  if (_reason == DefectiveReason.accident){\r... */\n    tag_110:\n        /* \"contracts/CovidVaccineSupplyChain.sol\":2311:2683  if (_reason == DefectiveReason.temperature){\r... */\n    tag_102:\n        /* \"contracts/CovidVaccineSupplyChain.sol\":2700:2726  OwnerOfProduct(msg.sender) */\n      0x400153a8cebbd91509d8511ec62d3fe08eac19a7afab5e61a723c0860db23520\n        /* \"contracts/CovidVaccineSupplyChain.sol\":2715:2725  msg.sender */\n      caller\n        /* \"contracts/CovidVaccineSupplyChain.sol\":2700:2726  OwnerOfProduct(msg.sender) */\n      mload(0x40)\n      tag_113\n      swap2\n      swap1\n      tag_31\n      jump\t// in\n    tag_113:\n      mload(0x40)\n      dup1\n      swap2\n      sub\n      swap1\n      log1\n        /* \"contracts/CovidVaccineSupplyChain.sol\":2061:2734  function ProductDestruct(DefectiveReason _reason)external {\r... */\n      pop\n      jump\t// out\n        /* \"contracts/CovidVaccineSupplyChain.sol\":199:222  address public hospital */\n    tag_39:\n      0x03\n      0x00\n      swap1\n      sload\n      swap1\n      0x0100\n      exp\n      swap1\n      div\n      0xffffffffffffffffffffffffffffffffffffffff\n      and\n      dup2\n      jump\t// out\n        /* \"contracts/CovidVaccineSupplyChain.sol\":1424:1612  function StepOfDelivery() external isOwner{\r... */\n    tag_42:\n        /* \"contracts/CovidVaccineSupplyChain.sol\":1081:1089  supplier */\n      0x02\n      0x00\n      swap1\n      sload\n      swap1\n      0x0100\n      exp\n      swap1\n      div\n      0xffffffffffffffffffffffffffffffffffffffff\n      and\n        /* \"contracts/CovidVaccineSupplyChain.sol\":1067:1089  msg.sender == supplier */\n      0xffffffffffffffffffffffffffffffffffffffff\n      and\n        /* \"contracts/CovidVaccineSupplyChain.sol\":1067:1077  msg.sender */\n      caller\n        /* \"contracts/CovidVaccineSupplyChain.sol\":1067:1089  msg.sender == supplier */\n      0xffffffffffffffffffffffffffffffffffffffff\n      and\n      eq\n        /* \"contracts/CovidVaccineSupplyChain.sol\":1059:1116  require(msg.sender == supplier, \" You are not the owner\") */\n      tag_115\n      jumpi\n      mload(0x40)\n      0x08c379a000000000000000000000000000000000000000000000000000000000\n      dup2\n      mstore\n      0x04\n      add\n      tag_116\n      swap1\n      tag_66\n      jump\t// in\n    tag_116:\n      mload(0x40)\n      dup1\n      swap2\n      sub\n      swap1\n      revert\n    tag_115:\n        /* \"contracts/CovidVaccineSupplyChain.sol\":1493:1508  Step.production */\n      0x00\n        /* \"contracts/CovidVaccineSupplyChain.sol\":1485:1508  step == Step.production */\n      0x04\n      dup2\n      gt\n      iszero\n      tag_118\n      jumpi\n      tag_119\n      tag_72\n      jump\t// in\n    tag_119:\n    tag_118:\n        /* \"contracts/CovidVaccineSupplyChain.sol\":1485:1489  step */\n      0x05\n      0x00\n      swap1\n      sload\n      swap1\n      0x0100\n      exp\n      swap1\n      div\n      0xff\n      and\n        /* \"contracts/CovidVaccineSupplyChain.sol\":1485:1508  step == Step.production */\n      0x04\n      dup2\n      gt\n      iszero\n      tag_120\n      jumpi\n      tag_121\n      tag_72\n      jump\t// in\n    tag_121:\n    tag_120:\n      eq\n        /* \"contracts/CovidVaccineSupplyChain.sol\":1477:1530  require(step == Step.production, \"Not in production\") */\n      tag_122\n      jumpi\n      mload(0x40)\n      0x08c379a000000000000000000000000000000000000000000000000000000000\n      dup2\n      mstore\n      0x04\n      add\n      tag_123\n      swap1\n      tag_124\n      jump\t// in\n    tag_123:\n      mload(0x40)\n      dup1\n      swap2\n      sub\n      swap1\n      revert\n    tag_122:\n        /* \"contracts/CovidVaccineSupplyChain.sol\":1548:1560  Step.waiting */\n      0x01\n        /* \"contracts/CovidVaccineSupplyChain.sol\":1541:1545  step */\n      0x05\n      0x00\n        /* \"contracts/CovidVaccineSupplyChain.sol\":1541:1560  step = Step.waiting */\n      0x0100\n      exp\n      dup2\n      sload\n      dup2\n      0xff\n      mul\n      not\n      and\n      swap1\n      dup4\n      0x04\n      dup2\n      gt\n      iszero\n      tag_125\n      jumpi\n      tag_126\n      tag_72\n      jump\t// in\n    tag_126:\n    tag_125:\n      mul\n      or\n      swap1\n      sstore\n      pop\n        /* \"contracts/CovidVaccineSupplyChain.sol\":1578:1604  OwnerOfProduct(msg.sender) */\n      0x400153a8cebbd91509d8511ec62d3fe08eac19a7afab5e61a723c0860db23520\n        /* \"contracts/CovidVaccineSupplyChain.sol\":1593:1603  msg.sender */\n      caller\n        /* \"contracts/CovidVaccineSupplyChain.sol\":1578:1604  OwnerOfProduct(msg.sender) */\n      mload(0x40)\n      tag_127\n      swap2\n      swap1\n      tag_31\n      jump\t// in\n    tag_127:\n      mload(0x40)\n      dup1\n      swap2\n      sub\n      swap1\n      log1\n        /* \"contracts/CovidVaccineSupplyChain.sol\":1424:1612  function StepOfDelivery() external isOwner{\r... */\n      jump\t// out\n        /* \"contracts/CovidVaccineSupplyChain.sol\":1620:1798  function deliveryManfunction() external isDeliverer{\r... */\n    tag_44:\n        /* \"contracts/CovidVaccineSupplyChain.sol\":1214:1218  true */\n      0x01\n        /* \"contracts/CovidVaccineSupplyChain.sol\":1188:1218  deliverers[msg.sender] == true */\n      iszero\n      iszero\n        /* \"contracts/CovidVaccineSupplyChain.sol\":1188:1198  deliverers */\n      0x04\n        /* \"contracts/CovidVaccineSupplyChain.sol\":1188:1210  deliverers[msg.sender] */\n      0x00\n        /* \"contracts/CovidVaccineSupplyChain.sol\":1199:1209  msg.sender */\n      caller\n        /* \"contracts/CovidVaccineSupplyChain.sol\":1188:1210  deliverers[msg.sender] */\n      0xffffffffffffffffffffffffffffffffffffffff\n      and\n      0xffffffffffffffffffffffffffffffffffffffff\n      and\n      dup2\n      mstore\n      0x20\n      add\n      swap1\n      dup2\n      mstore\n      0x20\n      add\n      0x00\n      keccak256\n      0x00\n      swap1\n      sload\n      swap1\n      0x0100\n      exp\n      swap1\n      div\n      0xff\n      and\n        /* \"contracts/CovidVaccineSupplyChain.sol\":1188:1218  deliverers[msg.sender] == true */\n      iszero\n      iszero\n      eq\n        /* \"contracts/CovidVaccineSupplyChain.sol\":1180:1245  require(deliverers[msg.sender] == true, \" You are not the owner\") */\n      tag_129\n      jumpi\n      mload(0x40)\n      0x08c379a000000000000000000000000000000000000000000000000000000000\n      dup2\n      mstore\n      0x04\n      add\n      tag_130\n      swap1\n      tag_66\n      jump\t// in\n    tag_130:\n      mload(0x40)\n      dup1\n      swap2\n      sub\n      swap1\n      revert\n    tag_129:\n        /* \"contracts/CovidVaccineSupplyChain.sol\":1698:1710  Step.waiting */\n      0x01\n        /* \"contracts/CovidVaccineSupplyChain.sol\":1690:1710  step == Step.waiting */\n      0x04\n      dup2\n      gt\n      iszero\n      tag_132\n      jumpi\n      tag_133\n      tag_72\n      jump\t// in\n    tag_133:\n    tag_132:\n        /* \"contracts/CovidVaccineSupplyChain.sol\":1690:1694  step */\n      0x05\n      0x00\n      swap1\n      sload\n      swap1\n      0x0100\n      exp\n      swap1\n      div\n      0xff\n      and\n        /* \"contracts/CovidVaccineSupplyChain.sol\":1690:1710  step == Step.waiting */\n      0x04\n      dup2\n      gt\n      iszero\n      tag_134\n      jumpi\n      tag_135\n      tag_72\n      jump\t// in\n    tag_135:\n    tag_134:\n      eq\n        /* \"contracts/CovidVaccineSupplyChain.sol\":1682:1725  require(step == Step.waiting , \"Not ready\") */\n      tag_136\n      jumpi\n      mload(0x40)\n      0x08c379a000000000000000000000000000000000000000000000000000000000\n      dup2\n      mstore\n      0x04\n      add\n      tag_137\n      swap1\n      tag_138\n      jump\t// in\n    tag_137:\n      mload(0x40)\n      dup1\n      swap2\n      sub\n      swap1\n      revert\n    tag_136:\n        /* \"contracts/CovidVaccineSupplyChain.sol\":1743:1753  Step.onWay */\n      0x02\n        /* \"contracts/CovidVaccineSupplyChain.sol\":1736:1740  step */\n      0x05\n      0x00\n        /* \"contracts/CovidVaccineSupplyChain.sol\":1736:1753  step = Step.onWay */\n      0x0100\n      exp\n      dup2\n      sload\n      dup2\n      0xff\n      mul\n      not\n      and\n      swap1\n      dup4\n      0x04\n      dup2\n      gt\n      iszero\n      tag_139\n      jumpi\n      tag_140\n      tag_72\n      jump\t// in\n    tag_140:\n    tag_139:\n      mul\n      or\n      swap1\n      sstore\n      pop\n        /* \"contracts/CovidVaccineSupplyChain.sol\":1769:1790  Deliverer(msg.sender) */\n      0xfb229d12ab26294bc680d0ad524e4315a0ce05f84a2b75c4c7a0da7f1c0b1343\n        /* \"contracts/CovidVaccineSupplyChain.sol\":1779:1789  msg.sender */\n      caller\n        /* \"contracts/CovidVaccineSupplyChain.sol\":1769:1790  Deliverer(msg.sender) */\n      mload(0x40)\n      tag_141\n      swap2\n      swap1\n      tag_31\n      jump\t// in\n    tag_141:\n      mload(0x40)\n      dup1\n      swap2\n      sub\n      swap1\n      log1\n        /* \"contracts/CovidVaccineSupplyChain.sol\":1620:1798  function deliveryManfunction() external isDeliverer{\r... */\n      jump\t// out\n        /* \"contracts/CovidVaccineSupplyChain.sol\":140:162  address public product */\n    tag_46:\n      0x01\n      0x00\n      swap1\n      sload\n      swap1\n      0x0100\n      exp\n      swap1\n      div\n      0xffffffffffffffffffffffffffffffffffffffff\n      and\n      dup2\n      jump\t// out\n        /* \"contracts/CovidVaccineSupplyChain.sol\":735:751  Step public step */\n    tag_49:\n      0x05\n      0x00\n      swap1\n      sload\n      swap1\n      0x0100\n      exp\n      swap1\n      div\n      0xff\n      and\n      dup2\n      jump\t// out\n        /* \"contracts/CovidVaccineSupplyChain.sol\":229:271  mapping (address => bool)public deliverers */\n    tag_54:\n      mstore(0x20, 0x04)\n      dup1\n      0x00\n      mstore\n      keccak256(0x00, 0x40)\n      0x00\n      swap2\n      pop\n      sload\n      swap1\n      0x0100\n      exp\n      swap1\n      div\n      0xff\n      and\n      dup2\n      jump\t// out\n        /* \"#utility.yul\":7:146   */\n    tag_143:\n        /* \"#utility.yul\":53:58   */\n      0x00\n        /* \"#utility.yul\":91:97   */\n      dup2\n        /* \"#utility.yul\":78:98   */\n      calldataload\n        /* \"#utility.yul\":69:98   */\n      swap1\n      pop\n        /* \"#utility.yul\":107:140   */\n      tag_145\n        /* \"#utility.yul\":134:139   */\n      dup2\n        /* \"#utility.yul\":107:140   */\n      tag_146\n      jump\t// in\n    tag_145:\n        /* \"#utility.yul\":7:146   */\n      swap3\n      swap2\n      pop\n      pop\n      jump\t// out\n        /* \"#utility.yul\":152:327   */\n    tag_147:\n        /* \"#utility.yul\":216:221   */\n      0x00\n        /* \"#utility.yul\":254:260   */\n      dup2\n        /* \"#utility.yul\":241:261   */\n      calldataload\n        /* \"#utility.yul\":232:261   */\n      swap1\n      pop\n        /* \"#utility.yul\":270:321   */\n      tag_149\n        /* \"#utility.yul\":315:320   */\n      dup2\n        /* \"#utility.yul\":270:321   */\n      tag_150\n      jump\t// in\n    tag_149:\n        /* \"#utility.yul\":152:327   */\n      swap3\n      swap2\n      pop\n      pop\n      jump\t// out\n        /* \"#utility.yul\":333:662   */\n    tag_26:\n        /* \"#utility.yul\":392:398   */\n      0x00\n        /* \"#utility.yul\":441:443   */\n      0x20\n        /* \"#utility.yul\":429:438   */\n      dup3\n        /* \"#utility.yul\":420:427   */\n      dup5\n        /* \"#utility.yul\":416:439   */\n      sub\n        /* \"#utility.yul\":412:444   */\n      slt\n        /* \"#utility.yul\":409:528   */\n      iszero\n      tag_152\n      jumpi\n        /* \"#utility.yul\":447:526   */\n      tag_153\n      tag_154\n      jump\t// in\n    tag_153:\n        /* \"#utility.yul\":409:528   */\n    tag_152:\n        /* \"#utility.yul\":567:568   */\n      0x00\n        /* \"#utility.yul\":592:645   */\n      tag_155\n        /* \"#utility.yul\":637:644   */\n      dup5\n        /* \"#utility.yul\":628:634   */\n      dup3\n        /* \"#utility.yul\":617:626   */\n      dup6\n        /* \"#utility.yul\":613:635   */\n      add\n        /* \"#utility.yul\":592:645   */\n      tag_143\n      jump\t// in\n    tag_155:\n        /* \"#utility.yul\":582:645   */\n      swap2\n      pop\n        /* \"#utility.yul\":538:655   */\n      pop\n        /* \"#utility.yul\":333:662   */\n      swap3\n      swap2\n      pop\n      pop\n      jump\t// out\n        /* \"#utility.yul\":668:1033   */\n    tag_36:\n        /* \"#utility.yul\":745:751   */\n      0x00\n        /* \"#utility.yul\":794:796   */\n      0x20\n        /* \"#utility.yul\":782:791   */\n      dup3\n        /* \"#utility.yul\":773:780   */\n      dup5\n        /* \"#utility.yul\":769:792   */\n      sub\n        /* \"#utility.yul\":765:797   */\n      slt\n        /* \"#utility.yul\":762:881   */\n      iszero\n      tag_157\n      jumpi\n        /* \"#utility.yul\":800:879   */\n      tag_158\n      tag_154\n      jump\t// in\n    tag_158:\n        /* \"#utility.yul\":762:881   */\n    tag_157:\n        /* \"#utility.yul\":920:921   */\n      0x00\n        /* \"#utility.yul\":945:1016   */\n      tag_159\n        /* \"#utility.yul\":1008:1015   */\n      dup5\n        /* \"#utility.yul\":999:1005   */\n      dup3\n        /* \"#utility.yul\":988:997   */\n      dup6\n        /* \"#utility.yul\":984:1006   */\n      add\n        /* \"#utility.yul\":945:1016   */\n      tag_147\n      jump\t// in\n    tag_159:\n        /* \"#utility.yul\":935:1016   */\n      swap2\n      pop\n        /* \"#utility.yul\":891:1026   */\n      pop\n        /* \"#utility.yul\":668:1033   */\n      swap3\n      swap2\n      pop\n      pop\n      jump\t// out\n        /* \"#utility.yul\":1039:1157   */\n    tag_160:\n        /* \"#utility.yul\":1126:1150   */\n      tag_162\n        /* \"#utility.yul\":1144:1149   */\n      dup2\n        /* \"#utility.yul\":1126:1150   */\n      tag_163\n      jump\t// in\n    tag_162:\n        /* \"#utility.yul\":1121:1124   */\n      dup3\n        /* \"#utility.yul\":1114:1151   */\n      mstore\n        /* \"#utility.yul\":1039:1157   */\n      pop\n      pop\n      jump\t// out\n        /* \"#utility.yul\":1163:1272   */\n    tag_164:\n        /* \"#utility.yul\":1244:1265   */\n      tag_166\n        /* \"#utility.yul\":1259:1264   */\n      dup2\n        /* \"#utility.yul\":1244:1265   */\n      tag_167\n      jump\t// in\n    tag_166:\n        /* \"#utility.yul\":1239:1242   */\n      dup3\n        /* \"#utility.yul\":1232:1266   */\n      mstore\n        /* \"#utility.yul\":1163:1272   */\n      pop\n      pop\n      jump\t// out\n        /* \"#utility.yul\":1278:1441   */\n    tag_168:\n        /* \"#utility.yul\":1381:1434   */\n      tag_170\n        /* \"#utility.yul\":1428:1433   */\n      dup2\n        /* \"#utility.yul\":1381:1434   */\n      tag_171\n      jump\t// in\n    tag_170:\n        /* \"#utility.yul\":1376:1379   */\n      dup3\n        /* \"#utility.yul\":1369:1435   */\n      mstore\n        /* \"#utility.yul\":1278:1441   */\n      pop\n      pop\n      jump\t// out\n        /* \"#utility.yul\":1447:1588   */\n    tag_172:\n        /* \"#utility.yul\":1539:1581   */\n      tag_174\n        /* \"#utility.yul\":1575:1580   */\n      dup2\n        /* \"#utility.yul\":1539:1581   */\n      tag_175\n      jump\t// in\n    tag_174:\n        /* \"#utility.yul\":1534:1537   */\n      dup3\n        /* \"#utility.yul\":1527:1582   */\n      mstore\n        /* \"#utility.yul\":1447:1588   */\n      pop\n      pop\n      jump\t// out\n        /* \"#utility.yul\":1594:1958   */\n    tag_176:\n        /* \"#utility.yul\":1682:1685   */\n      0x00\n        /* \"#utility.yul\":1710:1749   */\n      tag_178\n        /* \"#utility.yul\":1743:1748   */\n      dup3\n        /* \"#utility.yul\":1710:1749   */\n      tag_179\n      jump\t// in\n    tag_178:\n        /* \"#utility.yul\":1765:1836   */\n      tag_180\n        /* \"#utility.yul\":1829:1835   */\n      dup2\n        /* \"#utility.yul\":1824:1827   */\n      dup6\n        /* \"#utility.yul\":1765:1836   */\n      tag_181\n      jump\t// in\n    tag_180:\n        /* \"#utility.yul\":1758:1836   */\n      swap4\n      pop\n        /* \"#utility.yul\":1845:1897   */\n      tag_182\n        /* \"#utility.yul\":1890:1896   */\n      dup2\n        /* \"#utility.yul\":1885:1888   */\n      dup6\n        /* \"#utility.yul\":1878:1882   */\n      0x20\n        /* \"#utility.yul\":1871:1876   */\n      dup7\n        /* \"#utility.yul\":1867:1883   */\n      add\n        /* \"#utility.yul\":1845:1897   */\n      tag_183\n      jump\t// in\n    tag_182:\n        /* \"#utility.yul\":1922:1951   */\n      tag_184\n        /* \"#utility.yul\":1944:1950   */\n      dup2\n        /* \"#utility.yul\":1922:1951   */\n      tag_185\n      jump\t// in\n    tag_184:\n        /* \"#utility.yul\":1917:1920   */\n      dup5\n        /* \"#utility.yul\":1913:1952   */\n      add\n        /* \"#utility.yul\":1906:1952   */\n      swap2\n      pop\n        /* \"#utility.yul\":1686:1958   */\n      pop\n        /* \"#utility.yul\":1594:1958   */\n      swap3\n      swap2\n      pop\n      pop\n      jump\t// out\n        /* \"#utility.yul\":1964:2330   */\n    tag_186:\n        /* \"#utility.yul\":2106:2109   */\n      0x00\n        /* \"#utility.yul\":2127:2194   */\n      tag_188\n        /* \"#utility.yul\":2191:2193   */\n      0x16\n        /* \"#utility.yul\":2186:2189   */\n      dup4\n        /* \"#utility.yul\":2127:2194   */\n      tag_181\n      jump\t// in\n    tag_188:\n        /* \"#utility.yul\":2120:2194   */\n      swap2\n      pop\n        /* \"#utility.yul\":2203:2296   */\n      tag_189\n        /* \"#utility.yul\":2292:2295   */\n      dup3\n        /* \"#utility.yul\":2203:2296   */\n      tag_190\n      jump\t// in\n    tag_189:\n        /* \"#utility.yul\":2321:2323   */\n      0x20\n        /* \"#utility.yul\":2316:2319   */\n      dup3\n        /* \"#utility.yul\":2312:2324   */\n      add\n        /* \"#utility.yul\":2305:2324   */\n      swap1\n      pop\n        /* \"#utility.yul\":1964:2330   */\n      swap2\n      swap1\n      pop\n      jump\t// out\n        /* \"#utility.yul\":2336:2701   */\n    tag_191:\n        /* \"#utility.yul\":2478:2481   */\n      0x00\n        /* \"#utility.yul\":2499:2565   */\n      tag_193\n        /* \"#utility.yul\":2563:2564   */\n      0x09\n        /* \"#utility.yul\":2558:2561   */\n      dup4\n        /* \"#utility.yul\":2499:2565   */\n      tag_181\n      jump\t// in\n    tag_193:\n        /* \"#utility.yul\":2492:2565   */\n      swap2\n      pop\n        /* \"#utility.yul\":2574:2667   */\n      tag_194\n        /* \"#utility.yul\":2663:2666   */\n      dup3\n        /* \"#utility.yul\":2574:2667   */\n      tag_195\n      jump\t// in\n    tag_194:\n        /* \"#utility.yul\":2692:2694   */\n      0x20\n        /* \"#utility.yul\":2687:2690   */\n      dup3\n        /* \"#utility.yul\":2683:2695   */\n      add\n        /* \"#utility.yul\":2676:2695   */\n      swap1\n      pop\n        /* \"#utility.yul\":2336:2701   */\n      swap2\n      swap1\n      pop\n      jump\t// out\n        /* \"#utility.yul\":2707:3073   */\n    tag_196:\n        /* \"#utility.yul\":2849:2852   */\n      0x00\n        /* \"#utility.yul\":2870:2937   */\n      tag_198\n        /* \"#utility.yul\":2934:2936   */\n      0x18\n        /* \"#utility.yul\":2929:2932   */\n      dup4\n        /* \"#utility.yul\":2870:2937   */\n      tag_181\n      jump\t// in\n    tag_198:\n        /* \"#utility.yul\":2863:2937   */\n      swap2\n      pop\n        /* \"#utility.yul\":2946:3039   */\n      tag_199\n        /* \"#utility.yul\":3035:3038   */\n      dup3\n        /* \"#utility.yul\":2946:3039   */\n      tag_200\n      jump\t// in\n    tag_199:\n        /* \"#utility.yul\":3064:3066   */\n      0x20\n        /* \"#utility.yul\":3059:3062   */\n      dup3\n        /* \"#utility.yul\":3055:3067   */\n      add\n        /* \"#utility.yul\":3048:3067   */\n      swap1\n      pop\n        /* \"#utility.yul\":2707:3073   */\n      swap2\n      swap1\n      pop\n      jump\t// out\n        /* \"#utility.yul\":3079:3445   */\n    tag_201:\n        /* \"#utility.yul\":3221:3224   */\n      0x00\n        /* \"#utility.yul\":3242:3309   */\n      tag_203\n        /* \"#utility.yul\":3306:3308   */\n      0x34\n        /* \"#utility.yul\":3301:3304   */\n      dup4\n        /* \"#utility.yul\":3242:3309   */\n      tag_181\n      jump\t// in\n    tag_203:\n        /* \"#utility.yul\":3235:3309   */\n      swap2\n      pop\n        /* \"#utility.yul\":3318:3411   */\n      tag_204\n        /* \"#utility.yul\":3407:3410   */\n      dup3\n        /* \"#utility.yul\":3318:3411   */\n      tag_205\n      jump\t// in\n    tag_204:\n        /* \"#utility.yul\":3436:3438   */\n      0x40\n        /* \"#utility.yul\":3431:3434   */\n      dup3\n        /* \"#utility.yul\":3427:3439   */\n      add\n        /* \"#utility.yul\":3420:3439   */\n      swap1\n      pop\n        /* \"#utility.yul\":3079:3445   */\n      swap2\n      swap1\n      pop\n      jump\t// out\n        /* \"#utility.yul\":3451:3817   */\n    tag_206:\n        /* \"#utility.yul\":3593:3596   */\n      0x00\n        /* \"#utility.yul\":3614:3681   */\n      tag_208\n        /* \"#utility.yul\":3678:3680   */\n      0x11\n        /* \"#utility.yul\":3673:3676   */\n      dup4\n        /* \"#utility.yul\":3614:3681   */\n      tag_181\n      jump\t// in\n    tag_208:\n        /* \"#utility.yul\":3607:3681   */\n      swap2\n      pop\n        /* \"#utility.yul\":3690:3783   */\n      tag_209\n        /* \"#utility.yul\":3779:3782   */\n      dup3\n        /* \"#utility.yul\":3690:3783   */\n      tag_210\n      jump\t// in\n    tag_209:\n        /* \"#utility.yul\":3808:3810   */\n      0x20\n        /* \"#utility.yul\":3803:3806   */\n      dup3\n        /* \"#utility.yul\":3799:3811   */\n      add\n        /* \"#utility.yul\":3792:3811   */\n      swap1\n      pop\n        /* \"#utility.yul\":3451:3817   */\n      swap2\n      swap1\n      pop\n      jump\t// out\n        /* \"#utility.yul\":3823:4189   */\n    tag_211:\n        /* \"#utility.yul\":3965:3968   */\n      0x00\n        /* \"#utility.yul\":3986:4053   */\n      tag_213\n        /* \"#utility.yul\":4050:4052   */\n      0x30\n        /* \"#utility.yul\":4045:4048   */\n      dup4\n        /* \"#utility.yul\":3986:4053   */\n      tag_181\n      jump\t// in\n    tag_213:\n        /* \"#utility.yul\":3979:4053   */\n      swap2\n      pop\n        /* \"#utility.yul\":4062:4155   */\n      tag_214\n        /* \"#utility.yul\":4151:4154   */\n      dup3\n        /* \"#utility.yul\":4062:4155   */\n      tag_215\n      jump\t// in\n    tag_214:\n        /* \"#utility.yul\":4180:4182   */\n      0x40\n        /* \"#utility.yul\":4175:4178   */\n      dup3\n        /* \"#utility.yul\":4171:4183   */\n      add\n        /* \"#utility.yul\":4164:4183   */\n      swap1\n      pop\n        /* \"#utility.yul\":3823:4189   */\n      swap2\n      swap1\n      pop\n      jump\t// out\n        /* \"#utility.yul\":4195:4561   */\n    tag_216:\n        /* \"#utility.yul\":4337:4340   */\n      0x00\n        /* \"#utility.yul\":4358:4425   */\n      tag_218\n        /* \"#utility.yul\":4422:4424   */\n      0x1a\n        /* \"#utility.yul\":4417:4420   */\n      dup4\n        /* \"#utility.yul\":4358:4425   */\n      tag_181\n      jump\t// in\n    tag_218:\n        /* \"#utility.yul\":4351:4425   */\n      swap2\n      pop\n        /* \"#utility.yul\":4434:4527   */\n      tag_219\n        /* \"#utility.yul\":4523:4526   */\n      dup3\n        /* \"#utility.yul\":4434:4527   */\n      tag_220\n      jump\t// in\n    tag_219:\n        /* \"#utility.yul\":4552:4554   */\n      0x20\n        /* \"#utility.yul\":4547:4550   */\n      dup3\n        /* \"#utility.yul\":4543:4555   */\n      add\n        /* \"#utility.yul\":4536:4555   */\n      swap1\n      pop\n        /* \"#utility.yul\":4195:4561   */\n      swap2\n      swap1\n      pop\n      jump\t// out\n        /* \"#utility.yul\":4567:4933   */\n    tag_221:\n        /* \"#utility.yul\":4709:4712   */\n      0x00\n        /* \"#utility.yul\":4730:4797   */\n      tag_223\n        /* \"#utility.yul\":4794:4796   */\n      0x16\n        /* \"#utility.yul\":4789:4792   */\n      dup4\n        /* \"#utility.yul\":4730:4797   */\n      tag_181\n      jump\t// in\n    tag_223:\n        /* \"#utility.yul\":4723:4797   */\n      swap2\n      pop\n        /* \"#utility.yul\":4806:4899   */\n      tag_224\n        /* \"#utility.yul\":4895:4898   */\n      dup3\n        /* \"#utility.yul\":4806:4899   */\n      tag_225\n      jump\t// in\n    tag_224:\n        /* \"#utility.yul\":4924:4926   */\n      0x20\n        /* \"#utility.yul\":4919:4922   */\n      dup3\n        /* \"#utility.yul\":4915:4927   */\n      add\n        /* \"#utility.yul\":4908:4927   */\n      swap1\n      pop\n        /* \"#utility.yul\":4567:4933   */\n      swap2\n      swap1\n      pop\n      jump\t// out\n        /* \"#utility.yul\":4939:5161   */\n    tag_31:\n        /* \"#utility.yul\":5032:5036   */\n      0x00\n        /* \"#utility.yul\":5070:5072   */\n      0x20\n        /* \"#utility.yul\":5059:5068   */\n      dup3\n        /* \"#utility.yul\":5055:5073   */\n      add\n        /* \"#utility.yul\":5047:5073   */\n      swap1\n      pop\n        /* \"#utility.yul\":5083:5154   */\n      tag_227\n        /* \"#utility.yul\":5151:5152   */\n      0x00\n        /* \"#utility.yul\":5140:5149   */\n      dup4\n        /* \"#utility.yul\":5136:5153   */\n      add\n        /* \"#utility.yul\":5127:5133   */\n      dup5\n        /* \"#utility.yul\":5083:5154   */\n      tag_160\n      jump\t// in\n    tag_227:\n        /* \"#utility.yul\":4939:5161   */\n      swap3\n      swap2\n      pop\n      pop\n      jump\t// out\n        /* \"#utility.yul\":5167:5377   */\n    tag_56:\n        /* \"#utility.yul\":5254:5258   */\n      0x00\n        /* \"#utility.yul\":5292:5294   */\n      0x20\n        /* \"#utility.yul\":5281:5290   */\n      dup3\n        /* \"#utility.yul\":5277:5295   */\n      add\n        /* \"#utility.yul\":5269:5295   */\n      swap1\n      pop\n        /* \"#utility.yul\":5305:5370   */\n      tag_229\n        /* \"#utility.yul\":5367:5368   */\n      0x00\n        /* \"#utility.yul\":5356:5365   */\n      dup4\n        /* \"#utility.yul\":5352:5369   */\n      add\n        /* \"#utility.yul\":5343:5349   */\n      dup5\n        /* \"#utility.yul\":5305:5370   */\n      tag_164\n      jump\t// in\n    tag_229:\n        /* \"#utility.yul\":5167:5377   */\n      swap3\n      swap2\n      pop\n      pop\n      jump\t// out\n        /* \"#utility.yul\":5383:5637   */\n    tag_23:\n        /* \"#utility.yul\":5492:5496   */\n      0x00\n        /* \"#utility.yul\":5530:5532   */\n      0x20\n        /* \"#utility.yul\":5519:5528   */\n      dup3\n        /* \"#utility.yul\":5515:5533   */\n      add\n        /* \"#utility.yul\":5507:5533   */\n      swap1\n      pop\n        /* \"#utility.yul\":5543:5630   */\n      tag_231\n        /* \"#utility.yul\":5627:5628   */\n      0x00\n        /* \"#utility.yul\":5616:5625   */\n      dup4\n        /* \"#utility.yul\":5612:5629   */\n      add\n        /* \"#utility.yul\":5603:5609   */\n      dup5\n        /* \"#utility.yul\":5543:5630   */\n      tag_168\n      jump\t// in\n    tag_231:\n        /* \"#utility.yul\":5383:5637   */\n      swap3\n      swap2\n      pop\n      pop\n      jump\t// out\n        /* \"#utility.yul\":5643:5875   */\n    tag_51:\n        /* \"#utility.yul\":5741:5745   */\n      0x00\n        /* \"#utility.yul\":5779:5781   */\n      0x20\n        /* \"#utility.yul\":5768:5777   */\n      dup3\n        /* \"#utility.yul\":5764:5782   */\n      add\n        /* \"#utility.yul\":5756:5782   */\n      swap1\n      pop\n        /* \"#utility.yul\":5792:5868   */\n      tag_233\n        /* \"#utility.yul\":5865:5866   */\n      0x00\n        /* \"#utility.yul\":5854:5863   */\n      dup4\n        /* \"#utility.yul\":5850:5867   */\n      add\n        /* \"#utility.yul\":5841:5847   */\n      dup5\n        /* \"#utility.yul\":5792:5868   */\n      tag_172\n      jump\t// in\n    tag_233:\n        /* \"#utility.yul\":5643:5875   */\n      swap3\n      swap2\n      pop\n      pop\n      jump\t// out\n        /* \"#utility.yul\":5881:6194   */\n    tag_19:\n        /* \"#utility.yul\":5994:5998   */\n      0x00\n        /* \"#utility.yul\":6032:6034   */\n      0x20\n        /* \"#utility.yul\":6021:6030   */\n      dup3\n        /* \"#utility.yul\":6017:6035   */\n      add\n        /* \"#utility.yul\":6009:6035   */\n      swap1\n      pop\n        /* \"#utility.yul\":6081:6090   */\n      dup2\n        /* \"#utility.yul\":6075:6079   */\n      dup2\n        /* \"#utility.yul\":6071:6091   */\n      sub\n        /* \"#utility.yul\":6067:6068   */\n      0x00\n        /* \"#utility.yul\":6056:6065   */\n      dup4\n        /* \"#utility.yul\":6052:6069   */\n      add\n        /* \"#utility.yul\":6045:6092   */\n      mstore\n        /* \"#utility.yul\":6109:6187   */\n      tag_235\n        /* \"#utility.yul\":6182:6186   */\n      dup2\n        /* \"#utility.yul\":6173:6179   */\n      dup5\n        /* \"#utility.yul\":6109:6187   */\n      tag_176\n      jump\t// in\n    tag_235:\n        /* \"#utility.yul\":6101:6187   */\n      swap1\n      pop\n        /* \"#utility.yul\":5881:6194   */\n      swap3\n      swap2\n      pop\n      pop\n      jump\t// out\n        /* \"#utility.yul\":6200:6619   */\n    tag_80:\n        /* \"#utility.yul\":6366:6370   */\n      0x00\n        /* \"#utility.yul\":6404:6406   */\n      0x20\n        /* \"#utility.yul\":6393:6402   */\n      dup3\n        /* \"#utility.yul\":6389:6407   */\n      add\n        /* \"#utility.yul\":6381:6407   */\n      swap1\n      pop\n        /* \"#utility.yul\":6453:6462   */\n      dup2\n        /* \"#utility.yul\":6447:6451   */\n      dup2\n        /* \"#utility.yul\":6443:6463   */\n      sub\n        /* \"#utility.yul\":6439:6440   */\n      0x00\n        /* \"#utility.yul\":6428:6437   */\n      dup4\n        /* \"#utility.yul\":6424:6441   */\n      add\n        /* \"#utility.yul\":6417:6464   */\n      mstore\n        /* \"#utility.yul\":6481:6612   */\n      tag_237\n        /* \"#utility.yul\":6607:6611   */\n      dup2\n        /* \"#utility.yul\":6481:6612   */\n      tag_186\n      jump\t// in\n    tag_237:\n        /* \"#utility.yul\":6473:6612   */\n      swap1\n      pop\n        /* \"#utility.yul\":6200:6619   */\n      swap2\n      swap1\n      pop\n      jump\t// out\n        /* \"#utility.yul\":6625:7044   */\n    tag_138:\n        /* \"#utility.yul\":6791:6795   */\n      0x00\n        /* \"#utility.yul\":6829:6831   */\n      0x20\n        /* \"#utility.yul\":6818:6827   */\n      dup3\n        /* \"#utility.yul\":6814:6832   */\n      add\n        /* \"#utility.yul\":6806:6832   */\n      swap1\n      pop\n        /* \"#utility.yul\":6878:6887   */\n      dup2\n        /* \"#utility.yul\":6872:6876   */\n      dup2\n        /* \"#utility.yul\":6868:6888   */\n      sub\n        /* \"#utility.yul\":6864:6865   */\n      0x00\n        /* \"#utility.yul\":6853:6862   */\n      dup4\n        /* \"#utility.yul\":6849:6866   */\n      add\n        /* \"#utility.yul\":6842:6889   */\n      mstore\n        /* \"#utility.yul\":6906:7037   */\n      tag_239\n        /* \"#utility.yul\":7032:7036   */\n      dup2\n        /* \"#utility.yul\":6906:7037   */\n      tag_191\n      jump\t// in\n    tag_239:\n        /* \"#utility.yul\":6898:7037   */\n      swap1\n      pop\n        /* \"#utility.yul\":6625:7044   */\n      swap2\n      swap1\n      pop\n      jump\t// out\n        /* \"#utility.yul\":7050:7469   */\n    tag_109:\n        /* \"#utility.yul\":7216:7220   */\n      0x00\n        /* \"#utility.yul\":7254:7256   */\n      0x20\n        /* \"#utility.yul\":7243:7252   */\n      dup3\n        /* \"#utility.yul\":7239:7257   */\n      add\n        /* \"#utility.yul\":7231:7257   */\n      swap1\n      pop\n        /* \"#utility.yul\":7303:7312   */\n      dup2\n        /* \"#utility.yul\":7297:7301   */\n      dup2\n        /* \"#utility.yul\":7293:7313   */\n      sub\n        /* \"#utility.yul\":7289:7290   */\n      0x00\n        /* \"#utility.yul\":7278:7287   */\n      dup4\n        /* \"#utility.yul\":7274:7291   */\n      add\n        /* \"#utility.yul\":7267:7314   */\n      mstore\n        /* \"#utility.yul\":7331:7462   */\n      tag_241\n        /* \"#utility.yul\":7457:7461   */\n      dup2\n        /* \"#utility.yul\":7331:7462   */\n      tag_196\n      jump\t// in\n    tag_241:\n        /* \"#utility.yul\":7323:7462   */\n      swap1\n      pop\n        /* \"#utility.yul\":7050:7469   */\n      swap2\n      swap1\n      pop\n      jump\t// out\n        /* \"#utility.yul\":7475:7894   */\n    tag_112:\n        /* \"#utility.yul\":7641:7645   */\n      0x00\n        /* \"#utility.yul\":7679:7681   */\n      0x20\n        /* \"#utility.yul\":7668:7677   */\n      dup3\n        /* \"#utility.yul\":7664:7682   */\n      add\n        /* \"#utility.yul\":7656:7682   */\n      swap1\n      pop\n        /* \"#utility.yul\":7728:7737   */\n      dup2\n        /* \"#utility.yul\":7722:7726   */\n      dup2\n        /* \"#utility.yul\":7718:7738   */\n      sub\n        /* \"#utility.yul\":7714:7715   */\n      0x00\n        /* \"#utility.yul\":7703:7712   */\n      dup4\n        /* \"#utility.yul\":7699:7716   */\n      add\n        /* \"#utility.yul\":7692:7739   */\n      mstore\n        /* \"#utility.yul\":7756:7887   */\n      tag_243\n        /* \"#utility.yul\":7882:7886   */\n      dup2\n        /* \"#utility.yul\":7756:7887   */\n      tag_201\n      jump\t// in\n    tag_243:\n        /* \"#utility.yul\":7748:7887   */\n      swap1\n      pop\n        /* \"#utility.yul\":7475:7894   */\n      swap2\n      swap1\n      pop\n      jump\t// out\n        /* \"#utility.yul\":7900:8319   */\n    tag_124:\n        /* \"#utility.yul\":8066:8070   */\n      0x00\n        /* \"#utility.yul\":8104:8106   */\n      0x20\n        /* \"#utility.yul\":8093:8102   */\n      dup3\n        /* \"#utility.yul\":8089:8107   */\n      add\n        /* \"#utility.yul\":8081:8107   */\n      swap1\n      pop\n        /* \"#utility.yul\":8153:8162   */\n      dup2\n        /* \"#utility.yul\":8147:8151   */\n      dup2\n        /* \"#utility.yul\":8143:8163   */\n      sub\n        /* \"#utility.yul\":8139:8140   */\n      0x00\n        /* \"#utility.yul\":8128:8137   */\n      dup4\n        /* \"#utility.yul\":8124:8141   */\n      add\n        /* \"#utility.yul\":8117:8164   */\n      mstore\n        /* \"#utility.yul\":8181:8312   */\n      tag_245\n        /* \"#utility.yul\":8307:8311   */\n      dup2\n        /* \"#utility.yul\":8181:8312   */\n      tag_206\n      jump\t// in\n    tag_245:\n        /* \"#utility.yul\":8173:8312   */\n      swap1\n      pop\n        /* \"#utility.yul\":7900:8319   */\n      swap2\n      swap1\n      pop\n      jump\t// out\n        /* \"#utility.yul\":8325:8744   */\n    tag_101:\n        /* \"#utility.yul\":8491:8495   */\n      0x00\n        /* \"#utility.yul\":8529:8531   */\n      0x20\n        /* \"#utility.yul\":8518:8527   */\n      dup3\n        /* \"#utility.yul\":8514:8532   */\n      add\n        /* \"#utility.yul\":8506:8532   */\n      swap1\n      pop\n        /* \"#utility.yul\":8578:8587   */\n      dup2\n        /* \"#utility.yul\":8572:8576   */\n      dup2\n        /* \"#utility.yul\":8568:8588   */\n      sub\n        /* \"#utility.yul\":8564:8565   */\n      0x00\n        /* \"#utility.yul\":8553:8562   */\n      dup4\n        /* \"#utility.yul\":8549:8566   */\n      add\n        /* \"#utility.yul\":8542:8589   */\n      mstore\n        /* \"#utility.yul\":8606:8737   */\n      tag_247\n        /* \"#utility.yul\":8732:8736   */\n      dup2\n        /* \"#utility.yul\":8606:8737   */\n      tag_211\n      jump\t// in\n    tag_247:\n        /* \"#utility.yul\":8598:8737   */\n      swap1\n      pop\n        /* \"#utility.yul\":8325:8744   */\n      swap2\n      swap1\n      pop\n      jump\t// out\n        /* \"#utility.yul\":8750:9169   */\n    tag_77:\n        /* \"#utility.yul\":8916:8920   */\n      0x00\n        /* \"#utility.yul\":8954:8956   */\n      0x20\n        /* \"#utility.yul\":8943:8952   */\n      dup3\n        /* \"#utility.yul\":8939:8957   */\n      add\n        /* \"#utility.yul\":8931:8957   */\n      swap1\n      pop\n        /* \"#utility.yul\":9003:9012   */\n      dup2\n        /* \"#utility.yul\":8997:9001   */\n      dup2\n        /* \"#utility.yul\":8993:9013   */\n      sub\n        /* \"#utility.yul\":8989:8990   */\n      0x00\n        /* \"#utility.yul\":8978:8987   */\n      dup4\n        /* \"#utility.yul\":8974:8991   */\n      add\n        /* \"#utility.yul\":8967:9014   */\n      mstore\n        /* \"#utility.yul\":9031:9162   */\n      tag_249\n        /* \"#utility.yul\":9157:9161   */\n      dup2\n        /* \"#utility.yul\":9031:9162   */\n      tag_216\n      jump\t// in\n    tag_249:\n        /* \"#utility.yul\":9023:9162   */\n      swap1\n      pop\n        /* \"#utility.yul\":8750:9169   */\n      swap2\n      swap1\n      pop\n      jump\t// out\n        /* \"#utility.yul\":9175:9594   */\n    tag_66:\n        /* \"#utility.yul\":9341:9345   */\n      0x00\n        /* \"#utility.yul\":9379:9381   */\n      0x20\n        /* \"#utility.yul\":9368:9377   */\n      dup3\n        /* \"#utility.yul\":9364:9382   */\n      add\n        /* \"#utility.yul\":9356:9382   */\n      swap1\n      pop\n        /* \"#utility.yul\":9428:9437   */\n      dup2\n        /* \"#utility.yul\":9422:9426   */\n      dup2\n        /* \"#utility.yul\":9418:9438   */\n      sub\n        /* \"#utility.yul\":9414:9415   */\n      0x00\n        /* \"#utility.yul\":9403:9412   */\n      dup4\n        /* \"#utility.yul\":9399:9416   */\n      add\n        /* \"#utility.yul\":9392:9439   */\n      mstore\n        /* \"#utility.yul\":9456:9587   */\n      tag_251\n        /* \"#utility.yul\":9582:9586   */\n      dup2\n        /* \"#utility.yul\":9456:9587   */\n      tag_221\n      jump\t// in\n    tag_251:\n        /* \"#utility.yul\":9448:9587   */\n      swap1\n      pop\n        /* \"#utility.yul\":9175:9594   */\n      swap2\n      swap1\n      pop\n      jump\t// out\n        /* \"#utility.yul\":9681:9780   */\n    tag_179:\n        /* \"#utility.yul\":9733:9739   */\n      0x00\n        /* \"#utility.yul\":9767:9772   */\n      dup2\n        /* \"#utility.yul\":9761:9773   */\n      mload\n        /* \"#utility.yul\":9751:9773   */\n      swap1\n      pop\n        /* \"#utility.yul\":9681:9780   */\n      swap2\n      swap1\n      pop\n      jump\t// out\n        /* \"#utility.yul\":9786:9955   */\n    tag_181:\n        /* \"#utility.yul\":9870:9881   */\n      0x00\n        /* \"#utility.yul\":9904:9910   */\n      dup3\n        /* \"#utility.yul\":9899:9902   */\n      dup3\n        /* \"#utility.yul\":9892:9911   */\n      mstore\n        /* \"#utility.yul\":9944:9948   */\n      0x20\n        /* \"#utility.yul\":9939:9942   */\n      dup3\n        /* \"#utility.yul\":9935:9949   */\n      add\n        /* \"#utility.yul\":9920:9949   */\n      swap1\n      pop\n        /* \"#utility.yul\":9786:9955   */\n      swap3\n      swap2\n      pop\n      pop\n      jump\t// out\n        /* \"#utility.yul\":9961:10057   */\n    tag_163:\n        /* \"#utility.yul\":9998:10005   */\n      0x00\n        /* \"#utility.yul\":10027:10051   */\n      tag_257\n        /* \"#utility.yul\":10045:10050   */\n      dup3\n        /* \"#utility.yul\":10027:10051   */\n      tag_258\n      jump\t// in\n    tag_257:\n        /* \"#utility.yul\":10016:10051   */\n      swap1\n      pop\n        /* \"#utility.yul\":9961:10057   */\n      swap2\n      swap1\n      pop\n      jump\t// out\n        /* \"#utility.yul\":10063:10153   */\n    tag_167:\n        /* \"#utility.yul\":10097:10104   */\n      0x00\n        /* \"#utility.yul\":10140:10145   */\n      dup2\n        /* \"#utility.yul\":10133:10146   */\n      iszero\n        /* \"#utility.yul\":10126:10147   */\n      iszero\n        /* \"#utility.yul\":10115:10147   */\n      swap1\n      pop\n        /* \"#utility.yul\":10063:10153   */\n      swap2\n      swap1\n      pop\n      jump\t// out\n        /* \"#utility.yul\":10159:10306   */\n    tag_260:\n        /* \"#utility.yul\":10214:10221   */\n      0x00\n        /* \"#utility.yul\":10243:10248   */\n      dup2\n        /* \"#utility.yul\":10232:10248   */\n      swap1\n      pop\n        /* \"#utility.yul\":10249:10300   */\n      tag_262\n        /* \"#utility.yul\":10294:10299   */\n      dup3\n        /* \"#utility.yul\":10249:10300   */\n      tag_263\n      jump\t// in\n    tag_262:\n        /* \"#utility.yul\":10159:10306   */\n      swap2\n      swap1\n      pop\n      jump\t// out\n        /* \"#utility.yul\":10312:10437   */\n    tag_264:\n        /* \"#utility.yul\":10356:10363   */\n      0x00\n        /* \"#utility.yul\":10385:10390   */\n      dup2\n        /* \"#utility.yul\":10374:10390   */\n      swap1\n      pop\n        /* \"#utility.yul\":10391:10431   */\n      tag_266\n        /* \"#utility.yul\":10425:10430   */\n      dup3\n        /* \"#utility.yul\":10391:10431   */\n      tag_267\n      jump\t// in\n    tag_266:\n        /* \"#utility.yul\":10312:10437   */\n      swap2\n      swap1\n      pop\n      jump\t// out\n        /* \"#utility.yul\":10443:10569   */\n    tag_258:\n        /* \"#utility.yul\":10480:10487   */\n      0x00\n        /* \"#utility.yul\":10520:10562   */\n      0xffffffffffffffffffffffffffffffffffffffff\n        /* \"#utility.yul\":10513:10518   */\n      dup3\n        /* \"#utility.yul\":10509:10563   */\n      and\n        /* \"#utility.yul\":10498:10563   */\n      swap1\n      pop\n        /* \"#utility.yul\":10443:10569   */\n      swap2\n      swap1\n      pop\n      jump\t// out\n        /* \"#utility.yul\":10575:10722   */\n    tag_171:\n        /* \"#utility.yul\":10641:10650   */\n      0x00\n        /* \"#utility.yul\":10674:10716   */\n      tag_270\n        /* \"#utility.yul\":10710:10715   */\n      dup3\n        /* \"#utility.yul\":10674:10716   */\n      tag_260\n      jump\t// in\n    tag_270:\n        /* \"#utility.yul\":10661:10716   */\n      swap1\n      pop\n        /* \"#utility.yul\":10575:10722   */\n      swap2\n      swap1\n      pop\n      jump\t// out\n        /* \"#utility.yul\":10728:10853   */\n    tag_175:\n        /* \"#utility.yul\":10783:10792   */\n      0x00\n        /* \"#utility.yul\":10816:10847   */\n      tag_272\n        /* \"#utility.yul\":10841:10846   */\n      dup3\n        /* \"#utility.yul\":10816:10847   */\n      tag_264\n      jump\t// in\n    tag_272:\n        /* \"#utility.yul\":10803:10847   */\n      swap1\n      pop\n        /* \"#utility.yul\":10728:10853   */\n      swap2\n      swap1\n      pop\n      jump\t// out\n        /* \"#utility.yul\":10859:11166   */\n    tag_183:\n        /* \"#utility.yul\":10927:10928   */\n      0x00\n        /* \"#utility.yul\":10937:11050   */\n    tag_274:\n        /* \"#utility.yul\":10951:10957   */\n      dup4\n        /* \"#utility.yul\":10948:10949   */\n      dup2\n        /* \"#utility.yul\":10945:10958   */\n      lt\n        /* \"#utility.yul\":10937:11050   */\n      iszero\n      tag_276\n      jumpi\n        /* \"#utility.yul\":11036:11037   */\n      dup1\n        /* \"#utility.yul\":11031:11034   */\n      dup3\n        /* \"#utility.yul\":11027:11038   */\n      add\n        /* \"#utility.yul\":11021:11039   */\n      mload\n        /* \"#utility.yul\":11017:11018   */\n      dup2\n        /* \"#utility.yul\":11012:11015   */\n      dup5\n        /* \"#utility.yul\":11008:11019   */\n      add\n        /* \"#utility.yul\":11001:11040   */\n      mstore\n        /* \"#utility.yul\":10973:10975   */\n      0x20\n        /* \"#utility.yul\":10970:10971   */\n      dup2\n        /* \"#utility.yul\":10966:10976   */\n      add\n        /* \"#utility.yul\":10961:10976   */\n      swap1\n      pop\n        /* \"#utility.yul\":10937:11050   */\n      jump(tag_274)\n    tag_276:\n        /* \"#utility.yul\":11068:11074   */\n      dup4\n        /* \"#utility.yul\":11065:11066   */\n      dup2\n        /* \"#utility.yul\":11062:11075   */\n      gt\n        /* \"#utility.yul\":11059:11160   */\n      iszero\n      tag_277\n      jumpi\n        /* \"#utility.yul\":11148:11149   */\n      0x00\n        /* \"#utility.yul\":11139:11145   */\n      dup5\n        /* \"#utility.yul\":11134:11137   */\n      dup5\n        /* \"#utility.yul\":11130:11146   */\n      add\n        /* \"#utility.yul\":11123:11150   */\n      mstore\n        /* \"#utility.yul\":11059:11160   */\n    tag_277:\n        /* \"#utility.yul\":10908:11166   */\n      pop\n        /* \"#utility.yul\":10859:11166   */\n      pop\n      pop\n      pop\n      jump\t// out\n        /* \"#utility.yul\":11172:11492   */\n    tag_58:\n        /* \"#utility.yul\":11216:11222   */\n      0x00\n        /* \"#utility.yul\":11253:11254   */\n      0x02\n        /* \"#utility.yul\":11247:11251   */\n      dup3\n        /* \"#utility.yul\":11243:11255   */\n      div\n        /* \"#utility.yul\":11233:11255   */\n      swap1\n      pop\n        /* \"#utility.yul\":11300:11301   */\n      0x01\n        /* \"#utility.yul\":11294:11298   */\n      dup3\n        /* \"#utility.yul\":11290:11302   */\n      and\n        /* \"#utility.yul\":11321:11339   */\n      dup1\n        /* \"#utility.yul\":11311:11392   */\n      tag_279\n      jumpi\n        /* \"#utility.yul\":11377:11381   */\n      0x7f\n        /* \"#utility.yul\":11369:11375   */\n      dup3\n        /* \"#utility.yul\":11365:11382   */\n      and\n        /* \"#utility.yul\":11355:11382   */\n      swap2\n      pop\n        /* \"#utility.yul\":11311:11392   */\n    tag_279:\n        /* \"#utility.yul\":11439:11441   */\n      0x20\n        /* \"#utility.yul\":11431:11437   */\n      dup3\n        /* \"#utility.yul\":11428:11442   */\n      lt\n        /* \"#utility.yul\":11408:11426   */\n      dup2\n        /* \"#utility.yul\":11405:11443   */\n      eq\n        /* \"#utility.yul\":11402:11486   */\n      iszero\n      tag_280\n      jumpi\n        /* \"#utility.yul\":11458:11476   */\n      tag_281\n      tag_282\n      jump\t// in\n    tag_281:\n        /* \"#utility.yul\":11402:11486   */\n    tag_280:\n        /* \"#utility.yul\":11223:11492   */\n      pop\n        /* \"#utility.yul\":11172:11492   */\n      swap2\n      swap1\n      pop\n      jump\t// out\n        /* \"#utility.yul\":11498:11678   */\n    tag_72:\n        /* \"#utility.yul\":11546:11623   */\n      0x4e487b7100000000000000000000000000000000000000000000000000000000\n        /* \"#utility.yul\":11543:11544   */\n      0x00\n        /* \"#utility.yul\":11536:11624   */\n      mstore\n        /* \"#utility.yul\":11643:11647   */\n      0x21\n        /* \"#utility.yul\":11640:11641   */\n      0x04\n        /* \"#utility.yul\":11633:11648   */\n      mstore\n        /* \"#utility.yul\":11667:11671   */\n      0x24\n        /* \"#utility.yul\":11664:11665   */\n      0x00\n        /* \"#utility.yul\":11657:11672   */\n      revert\n        /* \"#utility.yul\":11684:11864   */\n    tag_282:\n        /* \"#utility.yul\":11732:11809   */\n      0x4e487b7100000000000000000000000000000000000000000000000000000000\n        /* \"#utility.yul\":11729:11730   */\n      0x00\n        /* \"#utility.yul\":11722:11810   */\n      mstore\n        /* \"#utility.yul\":11829:11833   */\n      0x22\n        /* \"#utility.yul\":11826:11827   */\n      0x04\n        /* \"#utility.yul\":11819:11834   */\n      mstore\n        /* \"#utility.yul\":11853:11857   */\n      0x24\n        /* \"#utility.yul\":11850:11851   */\n      0x00\n        /* \"#utility.yul\":11843:11858   */\n      revert\n        /* \"#utility.yul\":11993:12110   */\n    tag_154:\n        /* \"#utility.yul\":12102:12103   */\n      0x00\n        /* \"#utility.yul\":12099:12100   */\n      dup1\n        /* \"#utility.yul\":12092:12104   */\n      revert\n        /* \"#utility.yul\":12116:12218   */\n    tag_185:\n        /* \"#utility.yul\":12157:12163   */\n      0x00\n        /* \"#utility.yul\":12208:12210   */\n      0x1f\n        /* \"#utility.yul\":12204:12211   */\n      not\n        /* \"#utility.yul\":12199:12201   */\n      0x1f\n        /* \"#utility.yul\":12192:12197   */\n      dup4\n        /* \"#utility.yul\":12188:12202   */\n      add\n        /* \"#utility.yul\":12184:12212   */\n      and\n        /* \"#utility.yul\":12174:12212   */\n      swap1\n      pop\n        /* \"#utility.yul\":12116:12218   */\n      swap2\n      swap1\n      pop\n      jump\t// out\n        /* \"#utility.yul\":12224:12396   */\n    tag_190:\n        /* \"#utility.yul\":12364:12388   */\n      0x4e6f742074686520726967687420686f73706974616c00000000000000000000\n        /* \"#utility.yul\":12360:12361   */\n      0x00\n        /* \"#utility.yul\":12352:12358   */\n      dup3\n        /* \"#utility.yul\":12348:12362   */\n      add\n        /* \"#utility.yul\":12341:12389   */\n      mstore\n        /* \"#utility.yul\":12224:12396   */\n      pop\n      jump\t// out\n        /* \"#utility.yul\":12402:12561   */\n    tag_195:\n        /* \"#utility.yul\":12542:12553   */\n      0x4e6f742072656164790000000000000000000000000000000000000000000000\n        /* \"#utility.yul\":12538:12539   */\n      0x00\n        /* \"#utility.yul\":12530:12536   */\n      dup3\n        /* \"#utility.yul\":12526:12540   */\n      add\n        /* \"#utility.yul\":12519:12554   */\n      mstore\n        /* \"#utility.yul\":12402:12561   */\n      pop\n      jump\t// out\n        /* \"#utility.yul\":12567:12741   */\n    tag_200:\n        /* \"#utility.yul\":12707:12733   */\n      0x4163636964656e7420647572696e672064656c69766572790000000000000000\n        /* \"#utility.yul\":12703:12704   */\n      0x00\n        /* \"#utility.yul\":12695:12701   */\n      dup3\n        /* \"#utility.yul\":12691:12705   */\n      add\n        /* \"#utility.yul\":12684:12734   */\n      mstore\n        /* \"#utility.yul\":12567:12741   */\n      pop\n      jump\t// out\n        /* \"#utility.yul\":12747:12986   */\n    tag_205:\n        /* \"#utility.yul\":12887:12921   */\n      0x546865726520776173206120636f6e667573696f6e206f662070726f64756374\n        /* \"#utility.yul\":12883:12884   */\n      0x00\n        /* \"#utility.yul\":12875:12881   */\n      dup3\n        /* \"#utility.yul\":12871:12885   */\n      add\n        /* \"#utility.yul\":12864:12922   */\n      mstore\n        /* \"#utility.yul\":12956:12978   */\n      0x20647572696e67207468652064656c6576657279000000000000000000000000\n        /* \"#utility.yul\":12951:12953   */\n      0x20\n        /* \"#utility.yul\":12943:12949   */\n      dup3\n        /* \"#utility.yul\":12939:12954   */\n      add\n        /* \"#utility.yul\":12932:12979   */\n      mstore\n        /* \"#utility.yul\":12747:12986   */\n      pop\n      jump\t// out\n        /* \"#utility.yul\":12992:13159   */\n    tag_210:\n        /* \"#utility.yul\":13132:13151   */\n      0x4e6f7420696e2070726f64756374696f6e000000000000000000000000000000\n        /* \"#utility.yul\":13128:13129   */\n      0x00\n        /* \"#utility.yul\":13120:13126   */\n      dup3\n        /* \"#utility.yul\":13116:13130   */\n      add\n        /* \"#utility.yul\":13109:13152   */\n      mstore\n        /* \"#utility.yul\":12992:13159   */\n      pop\n      jump\t// out\n        /* \"#utility.yul\":13165:13400   */\n    tag_215:\n        /* \"#utility.yul\":13305:13339   */\n      0x2074656d706572617475726520746f6f2068696768206f7220746f6f206c6f77\n        /* \"#utility.yul\":13301:13302   */\n      0x00\n        /* \"#utility.yul\":13293:13299   */\n      dup3\n        /* \"#utility.yul\":13289:13303   */\n      add\n        /* \"#utility.yul\":13282:13340   */\n      mstore\n        /* \"#utility.yul\":13374:13392   */\n      0x20647572696e672064656c697665727900000000000000000000000000000000\n        /* \"#utility.yul\":13369:13371   */\n      0x20\n        /* \"#utility.yul\":13361:13367   */\n      dup3\n        /* \"#utility.yul\":13357:13372   */\n      add\n        /* \"#utility.yul\":13350:13393   */\n      mstore\n        /* \"#utility.yul\":13165:13400   */\n      pop\n      jump\t// out\n        /* \"#utility.yul\":13406:13582   */\n    tag_220:\n        /* \"#utility.yul\":13546:13574   */\n      0x5374696c6c2077616974696e6720666f722064656c6976657279000000000000\n        /* \"#utility.yul\":13542:13543   */\n      0x00\n        /* \"#utility.yul\":13534:13540   */\n      dup3\n        /* \"#utility.yul\":13530:13544   */\n      add\n        /* \"#utility.yul\":13523:13575   */\n      mstore\n        /* \"#utility.yul\":13406:13582   */\n      pop\n      jump\t// out\n        /* \"#utility.yul\":13588:13760   */\n    tag_225:\n        /* \"#utility.yul\":13728:13752   */\n      0x20596f7520617265206e6f7420746865206f776e657200000000000000000000\n        /* \"#utility.yul\":13724:13725   */\n      0x00\n        /* \"#utility.yul\":13716:13722   */\n      dup3\n        /* \"#utility.yul\":13712:13726   */\n      add\n        /* \"#utility.yul\":13705:13753   */\n      mstore\n        /* \"#utility.yul\":13588:13760   */\n      pop\n      jump\t// out\n        /* \"#utility.yul\":13766:13889   */\n    tag_263:\n        /* \"#utility.yul\":13857:13858   */\n      0x04\n        /* \"#utility.yul\":13850:13855   */\n      dup2\n        /* \"#utility.yul\":13847:13859   */\n      lt\n        /* \"#utility.yul\":13837:13883   */\n      tag_298\n      jumpi\n        /* \"#utility.yul\":13863:13881   */\n      tag_299\n      tag_72\n      jump\t// in\n    tag_299:\n        /* \"#utility.yul\":13837:13883   */\n    tag_298:\n        /* \"#utility.yul\":13766:13889   */\n      pop\n      jump\t// out\n        /* \"#utility.yul\":13895:14007   */\n    tag_267:\n        /* \"#utility.yul\":13975:13976   */\n      0x05\n        /* \"#utility.yul\":13968:13973   */\n      dup2\n        /* \"#utility.yul\":13965:13977   */\n      lt\n        /* \"#utility.yul\":13955:14001   */\n      tag_301\n      jumpi\n        /* \"#utility.yul\":13981:13999   */\n      tag_302\n      tag_72\n      jump\t// in\n    tag_302:\n        /* \"#utility.yul\":13955:14001   */\n    tag_301:\n        /* \"#utility.yul\":13895:14007   */\n      pop\n      jump\t// out\n        /* \"#utility.yul\":14013:14135   */\n    tag_146:\n        /* \"#utility.yul\":14086:14110   */\n      tag_304\n        /* \"#utility.yul\":14104:14109   */\n      dup2\n        /* \"#utility.yul\":14086:14110   */\n      tag_163\n      jump\t// in\n    tag_304:\n        /* \"#utility.yul\":14079:14084   */\n      dup2\n        /* \"#utility.yul\":14076:14111   */\n      eq\n        /* \"#utility.yul\":14066:14129   */\n      tag_305\n      jumpi\n        /* \"#utility.yul\":14125:14126   */\n      0x00\n        /* \"#utility.yul\":14122:14123   */\n      dup1\n        /* \"#utility.yul\":14115:14127   */\n      revert\n        /* \"#utility.yul\":14066:14129   */\n    tag_305:\n        /* \"#utility.yul\":14013:14135   */\n      pop\n      jump\t// out\n        /* \"#utility.yul\":14141:14258   */\n    tag_150:\n        /* \"#utility.yul\":14232:14233   */\n      0x04\n        /* \"#utility.yul\":14225:14230   */\n      dup2\n        /* \"#utility.yul\":14222:14234   */\n      lt\n        /* \"#utility.yul\":14212:14252   */\n      tag_307\n      jumpi\n        /* \"#utility.yul\":14248:14249   */\n      0x00\n        /* \"#utility.yul\":14245:14246   */\n      dup1\n        /* \"#utility.yul\":14238:14250   */\n      revert\n        /* \"#utility.yul\":14212:14252   */\n    tag_307:\n        /* \"#utility.yul\":14141:14258   */\n      pop\n      jump\t// out\n\n    auxdata: 0xa264697066735822122047f51e3716ad0b291f889d604536f5e3e030ee5cb1b35ed759c7862066c4fb4364736f6c63430008070033\n}\n",
				"bytecode": {
					"linkReferences": {},
					"object": "60806040526040518060400160405280600981526020017f436f7669642056617800000000000000000000000000000000000000000000008152506000908051906020019062000051929190620001d9565b503480156200005f57600080fd5b506040516200164d3803806200164d8339818101604052810190620000859190620002a0565b33600260006101000a81548173ffffffffffffffffffffffffffffffffffffffff021916908373ffffffffffffffffffffffffffffffffffffffff16021790555081600160006101000a81548173ffffffffffffffffffffffffffffffffffffffff021916908373ffffffffffffffffffffffffffffffffffffffff16021790555080600360006101000a81548173ffffffffffffffffffffffffffffffffffffffff021916908373ffffffffffffffffffffffffffffffffffffffff1602179055506000600560006101000a81548160ff021916908360048111156200017157620001706200037f565b5b02179055507f400153a8cebbd91509d8511ec62d3fe08eac19a7afab5e61a723c0860db23520600260009054906101000a900473ffffffffffffffffffffffffffffffffffffffff16604051620001c99190620002f8565b60405180910390a15050620003fc565b828054620001e79062000349565b90600052602060002090601f0160209004810192826200020b576000855562000257565b82601f106200022657805160ff191683800117855562000257565b8280016001018555821562000257579182015b828111156200025657825182559160200191906001019062000239565b5b5090506200026691906200026a565b5090565b5b80821115620002855760008160009055506001016200026b565b5090565b6000815190506200029a81620003e2565b92915050565b60008060408385031215620002ba57620002b9620003dd565b5b6000620002ca8582860162000289565b9250506020620002dd8582860162000289565b9150509250929050565b620002f28162000315565b82525050565b60006020820190506200030f6000830184620002e7565b92915050565b6000620003228262000329565b9050919050565b600073ffffffffffffffffffffffffffffffffffffffff82169050919050565b600060028204905060018216806200036257607f821691505b60208210811415620003795762000378620003ae565b5b50919050565b7f4e487b7100000000000000000000000000000000000000000000000000000000600052602160045260246000fd5b7f4e487b7100000000000000000000000000000000000000000000000000000000600052602260045260246000fd5b600080fd5b620003ed8162000315565b8114620003f957600080fd5b50565b611241806200040c6000396000f3fe608060405234801561001057600080fd5b50600436106100b45760003560e01c8063aa2fedde11610071578063aa2fedde14610155578063b6c859bf14610173578063b7c779f41461017d578063bf9ce95214610187578063e25fe175146101a5578063e8950c0f146101c3576100b4565b80630fc8f82a146100b957806311e760dc146100d75780631fe49587146100f557806336da4468146101115780633d5a70c21461012f578063a72e783b14610139575b600080fd5b6100c16101f3565b6040516100ce9190610d89565b60405180910390f35b6100df610281565b6040516100ec9190610d53565b60405180910390f35b61010f600480360381019061010a9190610b36565b610294565b005b6101196103b6565b6040516101269190610d1d565b60405180910390f35b6101376103dc565b005b610153600480360381019061014e9190610b63565b610546565b005b61015d6107b6565b60405161016a9190610d1d565b60405180910390f35b61017b6107dc565b005b610185610946565b005b61018f610ab3565b60405161019c9190610d1d565b60405180910390f35b6101ad610ad9565b6040516101ba9190610d6e565b60405180910390f35b6101dd60048036038101906101d89190610b36565b610aec565b6040516101ea9190610d38565b60405180910390f35b6000805461020090610f82565b80601f016020809104026020016040519081016040528092919081815260200182805461022c90610f82565b80156102795780601f1061024e57610100808354040283529160200191610279565b820191906000526020600020905b81548152906001019060200180831161025c57829003601f168201915b505050505081565b600560019054906101000a900460ff1681565b600260009054906101000a900473ffffffffffffffffffffffffffffffffffffffff1673ffffffffffffffffffffffffffffffffffffffff163373ffffffffffffffffffffffffffffffffffffffff1614610324576040517f08c379a000000000000000000000000000000000000000000000000000000000815260040161031b90610e8b565b60405180910390fd5b6001600460008373ffffffffffffffffffffffffffffffffffffffff1673ffffffffffffffffffffffffffffffffffffffff16815260200190815260200160002060006101000a81548160ff0219169083151502179055507f400153a8cebbd91509d8511ec62d3fe08eac19a7afab5e61a723c0860db23520336040516103ab9190610d1d565b60405180910390a150565b600260009054906101000a900473ffffffffffffffffffffffffffffffffffffffff1681565b600260048111156103f0576103ef610fb4565b5b600560009054906101000a900460ff16600481111561041257610411610fb4565b5b14610452576040517f08c379a000000000000000000000000000000000000000000000000000000000815260040161044990610e6b565b60405180910390fd5b600360009054906101000a900473ffffffffffffffffffffffffffffffffffffffff1673ffffffffffffffffffffffffffffffffffffffff163373ffffffffffffffffffffffffffffffffffffffff16146104e2576040517f08c379a00000000000000000000000000000000000000000000000000000000081526004016104d990610dab565b60405180910390fd5b6003600560006101000a81548160ff0219169083600481111561050857610507610fb4565b5b02179055507f400153a8cebbd91509d8511ec62d3fe08eac19a7afab5e61a723c0860db235203360405161053c9190610d1d565b60405180910390a1565b6003600481111561055a57610559610fb4565b5b600560009054906101000a900460ff16600481111561057c5761057b610fb4565b5b146105bc576040517f08c379a00000000000000000000000000000000000000000000000000000000081526004016105b390610e6b565b60405180910390fd5b600360009054906101000a900473ffffffffffffffffffffffffffffffffffffffff1673ffffffffffffffffffffffffffffffffffffffff163373ffffffffffffffffffffffffffffffffffffffff161461064c576040517f08c379a000000000000000000000000000000000000000000000000000000000815260040161064390610dab565b60405180910390fd5b6004600560006101000a81548160ff0219169083600481111561067257610671610fb4565b5b02179055506001600381111561068b5761068a610fb4565b5b81600381111561069e5761069d610fb4565b5b14156106de577f1eae0aa905d37777eda12fd332ecefe877fd575cebe92a5b4e85da2e8cc1b27b6040516106d190610e4b565b60405180910390a161077c565b600260038111156106f2576106f1610fb4565b5b81600381111561070557610704610fb4565b5b1415610745577f1a23e28fcccea66734aa0163a9dcd828e5b5513815b9c209e48a7d1f03ff0f6660405161073890610deb565b60405180910390a161077b565b7fa159983831a7d960a279c851a8b5dce81ff9f24315f6ecec503cd327d781914260405161077290610e0b565b60405180910390a15b5b7f400153a8cebbd91509d8511ec62d3fe08eac19a7afab5e61a723c0860db23520336040516107ab9190610d1d565b60405180910390a150565b600360009054906101000a900473ffffffffffffffffffffffffffffffffffffffff1681565b600260009054906101000a900473ffffffffffffffffffffffffffffffffffffffff1673ffffffffffffffffffffffffffffffffffffffff163373ffffffffffffffffffffffffffffffffffffffff161461086c576040517f08c379a000000000000000000000000000000000000000000000000000000000815260040161086390610e8b565b60405180910390fd5b600060048111156108805761087f610fb4565b5b600560009054906101000a900460ff1660048111156108a2576108a1610fb4565b5b146108e2576040517f08c379a00000000000000000000000000000000000000000000000000000000081526004016108d990610e2b565b60405180910390fd5b6001600560006101000a81548160ff0219169083600481111561090857610907610fb4565b5b02179055507f400153a8cebbd91509d8511ec62d3fe08eac19a7afab5e61a723c0860db235203360405161093c9190610d1d565b60405180910390a1565b60011515600460003373ffffffffffffffffffffffffffffffffffffffff1673ffffffffffffffffffffffffffffffffffffffff16815260200190815260200160002060009054906101000a900460ff161515146109d9576040517f08c379a00000000000000000000000000000000000000000000000000000000081526004016109d090610e8b565b60405180910390fd5b600160048111156109ed576109ec610fb4565b5b600560009054906101000a900460ff166004811115610a0f57610a0e610fb4565b5b14610a4f576040517f08c379a0000000000000000000000000000000000000000000000000000000008152600401610a4690610dcb565b60405180910390fd5b6002600560006101000a81548160ff02191690836004811115610a7557610a74610fb4565b5b02179055507ffb229d12ab26294bc680d0ad524e4315a0ce05f84a2b75c4c7a0da7f1c0b134333604051610aa99190610d1d565b60405180910390a1565b600160009054906101000a900473ffffffffffffffffffffffffffffffffffffffff1681565b600560009054906101000a900460ff1681565b60046020528060005260406000206000915054906101000a900460ff1681565b600081359050610b1b816111e4565b92915050565b600081359050610b30816111fb565b92915050565b600060208284031215610b4c57610b4b611012565b5b6000610b5a84828501610b0c565b91505092915050565b600060208284031215610b7957610b78611012565b5b6000610b8784828501610b21565b91505092915050565b610b9981610ec7565b82525050565b610ba881610ed9565b82525050565b610bb781610f2b565b82525050565b610bc681610f3d565b82525050565b6000610bd782610eab565b610be18185610eb6565b9350610bf1818560208601610f4f565b610bfa81611017565b840191505092915050565b6000610c12601683610eb6565b9150610c1d82611028565b602082019050919050565b6000610c35600983610eb6565b9150610c4082611051565b602082019050919050565b6000610c58601883610eb6565b9150610c638261107a565b602082019050919050565b6000610c7b603483610eb6565b9150610c86826110a3565b604082019050919050565b6000610c9e601183610eb6565b9150610ca9826110f2565b602082019050919050565b6000610cc1603083610eb6565b9150610ccc8261111b565b604082019050919050565b6000610ce4601a83610eb6565b9150610cef8261116a565b602082019050919050565b6000610d07601683610eb6565b9150610d1282611193565b602082019050919050565b6000602082019050610d326000830184610b90565b92915050565b6000602082019050610d4d6000830184610b9f565b92915050565b6000602082019050610d686000830184610bae565b92915050565b6000602082019050610d836000830184610bbd565b92915050565b60006020820190508181036000830152610da38184610bcc565b905092915050565b60006020820190508181036000830152610dc481610c05565b9050919050565b60006020820190508181036000830152610de481610c28565b9050919050565b60006020820190508181036000830152610e0481610c4b565b9050919050565b60006020820190508181036000830152610e2481610c6e565b9050919050565b60006020820190508181036000830152610e4481610c91565b9050919050565b60006020820190508181036000830152610e6481610cb4565b9050919050565b60006020820190508181036000830152610e8481610cd7565b9050919050565b60006020820190508181036000830152610ea481610cfa565b9050919050565b600081519050919050565b600082825260208201905092915050565b6000610ed282610f0b565b9050919050565b60008115159050919050565b6000819050610ef3826111bc565b919050565b6000819050610f06826111d0565b919050565b600073ffffffffffffffffffffffffffffffffffffffff82169050919050565b6000610f3682610ee5565b9050919050565b6000610f4882610ef8565b9050919050565b60005b83811015610f6d578082015181840152602081019050610f52565b83811115610f7c576000848401525b50505050565b60006002820490506001821680610f9a57607f821691505b60208210811415610fae57610fad610fe3565b5b50919050565b7f4e487b7100000000000000000000000000000000000000000000000000000000600052602160045260246000fd5b7f4e487b7100000000000000000000000000000000000000000000000000000000600052602260045260246000fd5b600080fd5b6000601f19601f8301169050919050565b7f4e6f742074686520726967687420686f73706974616c00000000000000000000600082015250565b7f4e6f742072656164790000000000000000000000000000000000000000000000600082015250565b7f4163636964656e7420647572696e672064656c69766572790000000000000000600082015250565b7f546865726520776173206120636f6e667573696f6e206f662070726f6475637460008201527f20647572696e67207468652064656c6576657279000000000000000000000000602082015250565b7f4e6f7420696e2070726f64756374696f6e000000000000000000000000000000600082015250565b7f2074656d706572617475726520746f6f2068696768206f7220746f6f206c6f7760008201527f20647572696e672064656c697665727900000000000000000000000000000000602082015250565b7f5374696c6c2077616974696e6720666f722064656c6976657279000000000000600082015250565b7f20596f7520617265206e6f7420746865206f776e657200000000000000000000600082015250565b600481106111cd576111cc610fb4565b5b50565b600581106111e1576111e0610fb4565b5b50565b6111ed81610ec7565b81146111f857600080fd5b50565b6004811061120857600080fd5b5056fea264697066735822122047f51e3716ad0b291f889d604536f5e3e030ee5cb1b35ed759c7862066c4fb4364736f6c63430008070033",
					"opcodes": "PUSH1 0x80 PUSH1 0x40 MSTORE PUSH1 0x40 MLOAD DUP1 PUSH1 0x40 ADD PUSH1 0x40 MSTORE DUP1 PUSH1 0x9 DUP2 MSTORE PUSH1 0x20 ADD PUSH32 0x436F766964205661780000000000000000000000000000000000000000000000 DUP2 MSTORE POP PUSH1 0x0 SWAP1 DUP1 MLOAD SWAP1 PUSH1 0x20 ADD SWAP1 PUSH3 0x51 SWAP3 SWAP2 SWAP1 PUSH3 0x1D9 JUMP JUMPDEST POP CALLVALUE DUP1 ISZERO PUSH3 0x5F JUMPI PUSH1 0x0 DUP1 REVERT JUMPDEST POP PUSH1 0x40 MLOAD PUSH3 0x164D CODESIZE SUB DUP1 PUSH3 0x164D DUP4 CODECOPY DUP2 DUP2 ADD PUSH1 0x40 MSTORE DUP2 ADD SWAP1 PUSH3 0x85 SWAP2 SWAP1 PUSH3 0x2A0 JUMP JUMPDEST CALLER PUSH1 0x2 PUSH1 0x0 PUSH2 0x100 EXP DUP2 SLOAD DUP2 PUSH20 0xFFFFFFFFFFFFFFFFFFFFFFFFFFFFFFFFFFFFFFFF MUL NOT AND SWAP1 DUP4 PUSH20 0xFFFFFFFFFFFFFFFFFFFFFFFFFFFFFFFFFFFFFFFF AND MUL OR SWAP1 SSTORE POP DUP2 PUSH1 0x1 PUSH1 0x0 PUSH2 0x100 EXP DUP2 SLOAD DUP2 PUSH20 0xFFFFFFFFFFFFFFFFFFFFFFFFFFFFFFFFFFFFFFFF MUL NOT AND SWAP1 DUP4 PUSH20 0xFFFFFFFFFFFFFFFFFFFFFFFFFFFFFFFFFFFFFFFF AND MUL OR SWAP1 SSTORE POP DUP1 PUSH1 0x3 PUSH1 0x0 PUSH2 0x100 EXP DUP2 SLOAD DUP2 PUSH20 0xFFFFFFFFFFFFFFFFFFFFFFFFFFFFFFFFFFFFFFFF MUL NOT AND SWAP1 DUP4 PUSH20 0xFFFFFFFFFFFFFFFFFFFFFFFFFFFFFFFFFFFFFFFF AND MUL OR SWAP1 SSTORE POP PUSH1 0x0 PUSH1 0x5 PUSH1 0x0 PUSH2 0x100 EXP DUP2 SLOAD DUP2 PUSH1 0xFF MUL NOT AND SWAP1 DUP4 PUSH1 0x4 DUP2 GT ISZERO PUSH3 0x171 JUMPI PUSH3 0x170 PUSH3 0x37F JUMP JUMPDEST JUMPDEST MUL OR SWAP1 SSTORE POP PUSH32 0x400153A8CEBBD91509D8511EC62D3FE08EAC19A7AFAB5E61A723C0860DB23520 PUSH1 0x2 PUSH1 0x0 SWAP1 SLOAD SWAP1 PUSH2 0x100 EXP SWAP1 DIV PUSH20 0xFFFFFFFFFFFFFFFFFFFFFFFFFFFFFFFFFFFFFFFF AND PUSH1 0x40 MLOAD PUSH3 0x1C9 SWAP2 SWAP1 PUSH3 0x2F8 JUMP JUMPDEST PUSH1 0x40 MLOAD DUP1 SWAP2 SUB SWAP1 LOG1 POP POP PUSH3 0x3FC JUMP JUMPDEST DUP3 DUP1 SLOAD PUSH3 0x1E7 SWAP1 PUSH3 0x349 JUMP JUMPDEST SWAP1 PUSH1 0x0 MSTORE PUSH1 0x20 PUSH1 0x0 KECCAK256 SWAP1 PUSH1 0x1F ADD PUSH1 0x20 SWAP1 DIV DUP2 ADD SWAP3 DUP3 PUSH3 0x20B JUMPI PUSH1 0x0 DUP6 SSTORE PUSH3 0x257 JUMP JUMPDEST DUP3 PUSH1 0x1F LT PUSH3 0x226 JUMPI DUP1 MLOAD PUSH1 0xFF NOT AND DUP4 DUP1 ADD OR DUP6 SSTORE PUSH3 0x257 JUMP JUMPDEST DUP3 DUP1 ADD PUSH1 0x1 ADD DUP6 SSTORE DUP3 ISZERO PUSH3 0x257 JUMPI SWAP2 DUP3 ADD JUMPDEST DUP3 DUP2 GT ISZERO PUSH3 0x256 JUMPI DUP3 MLOAD DUP3 SSTORE SWAP2 PUSH1 0x20 ADD SWAP2 SWAP1 PUSH1 0x1 ADD SWAP1 PUSH3 0x239 JUMP JUMPDEST JUMPDEST POP SWAP1 POP PUSH3 0x266 SWAP2 SWAP1 PUSH3 0x26A JUMP JUMPDEST POP SWAP1 JUMP JUMPDEST JUMPDEST DUP1 DUP3 GT ISZERO PUSH3 0x285 JUMPI PUSH1 0x0 DUP2 PUSH1 0x0 SWAP1 SSTORE POP PUSH1 0x1 ADD PUSH3 0x26B JUMP JUMPDEST POP SWAP1 JUMP JUMPDEST PUSH1 0x0 DUP2 MLOAD SWAP1 POP PUSH3 0x29A DUP2 PUSH3 0x3E2 JUMP JUMPDEST SWAP3 SWAP2 POP POP JUMP JUMPDEST PUSH1 0x0 DUP1 PUSH1 0x40 DUP4 DUP6 SUB SLT ISZERO PUSH3 0x2BA JUMPI PUSH3 0x2B9 PUSH3 0x3DD JUMP JUMPDEST JUMPDEST PUSH1 0x0 PUSH3 0x2CA DUP6 DUP3 DUP7 ADD PUSH3 0x289 JUMP JUMPDEST SWAP3 POP POP PUSH1 0x20 PUSH3 0x2DD DUP6 DUP3 DUP7 ADD PUSH3 0x289 JUMP JUMPDEST SWAP2 POP POP SWAP3 POP SWAP3 SWAP1 POP JUMP JUMPDEST PUSH3 0x2F2 DUP2 PUSH3 0x315 JUMP JUMPDEST DUP3 MSTORE POP POP JUMP JUMPDEST PUSH1 0x0 PUSH1 0x20 DUP3 ADD SWAP1 POP PUSH3 0x30F PUSH1 0x0 DUP4 ADD DUP5 PUSH3 0x2E7 JUMP JUMPDEST SWAP3 SWAP2 POP POP JUMP JUMPDEST PUSH1 0x0 PUSH3 0x322 DUP3 PUSH3 0x329 JUMP JUMPDEST SWAP1 POP SWAP2 SWAP1 POP JUMP JUMPDEST PUSH1 0x0 PUSH20 0xFFFFFFFFFFFFFFFFFFFFFFFFFFFFFFFFFFFFFFFF DUP3 AND SWAP1 POP SWAP2 SWAP1 POP JUMP JUMPDEST PUSH1 0x0 PUSH1 0x2 DUP3 DIV SWAP1 POP PUSH1 0x1 DUP3 AND DUP1 PUSH3 0x362 JUMPI PUSH1 0x7F DUP3 AND SWAP2 POP JUMPDEST PUSH1 0x20 DUP3 LT DUP2 EQ ISZERO PUSH3 0x379 JUMPI PUSH3 0x378 PUSH3 0x3AE JUMP JUMPDEST JUMPDEST POP SWAP2 SWAP1 POP JUMP JUMPDEST PUSH32 0x4E487B7100000000000000000000000000000000000000000000000000000000 PUSH1 0x0 MSTORE PUSH1 0x21 PUSH1 0x4 MSTORE PUSH1 0x24 PUSH1 0x0 REVERT JUMPDEST PUSH32 0x4E487B7100000000000000000000000000000000000000000000000000000000 PUSH1 0x0 MSTORE PUSH1 0x22 PUSH1 0x4 MSTORE PUSH1 0x24 PUSH1 0x0 REVERT JUMPDEST PUSH1 0x0 DUP1 REVERT JUMPDEST PUSH3 0x3ED DUP2 PUSH3 0x315 JUMP JUMPDEST DUP2 EQ PUSH3 0x3F9 JUMPI PUSH1 0x0 DUP1 REVERT JUMPDEST POP JUMP JUMPDEST PUSH2 0x1241 DUP1 PUSH3 0x40C PUSH1 0x0 CODECOPY PUSH1 0x0 RETURN INVALID PUSH1 0x80 PUSH1 0x40 MSTORE CALLVALUE DUP1 ISZERO PUSH2 0x10 JUMPI PUSH1 0x0 DUP1 REVERT JUMPDEST POP PUSH1 0x4 CALLDATASIZE LT PUSH2 0xB4 JUMPI PUSH1 0x0 CALLDATALOAD PUSH1 0xE0 SHR DUP1 PUSH4 0xAA2FEDDE GT PUSH2 0x71 JUMPI DUP1 PUSH4 0xAA2FEDDE EQ PUSH2 0x155 JUMPI DUP1 PUSH4 0xB6C859BF EQ PUSH2 0x173 JUMPI DUP1 PUSH4 0xB7C779F4 EQ PUSH2 0x17D JUMPI DUP1 PUSH4 0xBF9CE952 EQ PUSH2 0x187 JUMPI DUP1 PUSH4 0xE25FE175 EQ PUSH2 0x1A5 JUMPI DUP1 PUSH4 0xE8950C0F EQ PUSH2 0x1C3 JUMPI PUSH2 0xB4 JUMP JUMPDEST DUP1 PUSH4 0xFC8F82A EQ PUSH2 0xB9 JUMPI DUP1 PUSH4 0x11E760DC EQ PUSH2 0xD7 JUMPI DUP1 PUSH4 0x1FE49587 EQ PUSH2 0xF5 JUMPI DUP1 PUSH4 0x36DA4468 EQ PUSH2 0x111 JUMPI DUP1 PUSH4 0x3D5A70C2 EQ PUSH2 0x12F JUMPI DUP1 PUSH4 0xA72E783B EQ PUSH2 0x139 JUMPI JUMPDEST PUSH1 0x0 DUP1 REVERT JUMPDEST PUSH2 0xC1 PUSH2 0x1F3 JUMP JUMPDEST PUSH1 0x40 MLOAD PUSH2 0xCE SWAP2 SWAP1 PUSH2 0xD89 JUMP JUMPDEST PUSH1 0x40 MLOAD DUP1 SWAP2 SUB SWAP1 RETURN JUMPDEST PUSH2 0xDF PUSH2 0x281 JUMP JUMPDEST PUSH1 0x40 MLOAD PUSH2 0xEC SWAP2 SWAP1 PUSH2 0xD53 JUMP JUMPDEST PUSH1 0x40 MLOAD DUP1 SWAP2 SUB SWAP1 RETURN JUMPDEST PUSH2 0x10F PUSH1 0x4 DUP1 CALLDATASIZE SUB DUP2 ADD SWAP1 PUSH2 0x10A SWAP2 SWAP1 PUSH2 0xB36 JUMP JUMPDEST PUSH2 0x294 JUMP JUMPDEST STOP JUMPDEST PUSH2 0x119 PUSH2 0x3B6 JUMP JUMPDEST PUSH1 0x40 MLOAD PUSH2 0x126 SWAP2 SWAP1 PUSH2 0xD1D JUMP JUMPDEST PUSH1 0x40 MLOAD DUP1 SWAP2 SUB SWAP1 RETURN JUMPDEST PUSH2 0x137 PUSH2 0x3DC JUMP JUMPDEST STOP JUMPDEST PUSH2 0x153 PUSH1 0x4 DUP1 CALLDATASIZE SUB DUP2 ADD SWAP1 PUSH2 0x14E SWAP2 SWAP1 PUSH2 0xB63 JUMP JUMPDEST PUSH2 0x546 JUMP JUMPDEST STOP JUMPDEST PUSH2 0x15D PUSH2 0x7B6 JUMP JUMPDEST PUSH1 0x40 MLOAD PUSH2 0x16A SWAP2 SWAP1 PUSH2 0xD1D JUMP JUMPDEST PUSH1 0x40 MLOAD DUP1 SWAP2 SUB SWAP1 RETURN JUMPDEST PUSH2 0x17B PUSH2 0x7DC JUMP JUMPDEST STOP JUMPDEST PUSH2 0x185 PUSH2 0x946 JUMP JUMPDEST STOP JUMPDEST PUSH2 0x18F PUSH2 0xAB3 JUMP JUMPDEST PUSH1 0x40 MLOAD PUSH2 0x19C SWAP2 SWAP1 PUSH2 0xD1D JUMP JUMPDEST PUSH1 0x40 MLOAD DUP1 SWAP2 SUB SWAP1 RETURN JUMPDEST PUSH2 0x1AD PUSH2 0xAD9 JUMP JUMPDEST PUSH1 0x40 MLOAD PUSH2 0x1BA SWAP2 SWAP1 PUSH2 0xD6E JUMP JUMPDEST PUSH1 0x40 MLOAD DUP1 SWAP2 SUB SWAP1 RETURN JUMPDEST PUSH2 0x1DD PUSH1 0x4 DUP1 CALLDATASIZE SUB DUP2 ADD SWAP1 PUSH2 0x1D8 SWAP2 SWAP1 PUSH2 0xB36 JUMP JUMPDEST PUSH2 0xAEC JUMP JUMPDEST PUSH1 0x40 MLOAD PUSH2 0x1EA SWAP2 SWAP1 PUSH2 0xD38 JUMP JUMPDEST PUSH1 0x40 MLOAD DUP1 SWAP2 SUB SWAP1 RETURN JUMPDEST PUSH1 0x0 DUP1 SLOAD PUSH2 0x200 SWAP1 PUSH2 0xF82 JUMP JUMPDEST DUP1 PUSH1 0x1F ADD PUSH1 0x20 DUP1 SWAP2 DIV MUL PUSH1 0x20 ADD PUSH1 0x40 MLOAD SWAP1 DUP2 ADD PUSH1 0x40 MSTORE DUP1 SWAP3 SWAP2 SWAP1 DUP2 DUP2 MSTORE PUSH1 0x20 ADD DUP3 DUP1 SLOAD PUSH2 0x22C SWAP1 PUSH2 0xF82 JUMP JUMPDEST DUP1 ISZERO PUSH2 0x279 JUMPI DUP1 PUSH1 0x1F LT PUSH2 0x24E JUMPI PUSH2 0x100 DUP1 DUP4 SLOAD DIV MUL DUP4 MSTORE SWAP2 PUSH1 0x20 ADD SWAP2 PUSH2 0x279 JUMP JUMPDEST DUP3 ADD SWAP2 SWAP1 PUSH1 0x0 MSTORE PUSH1 0x20 PUSH1 0x0 KECCAK256 SWAP1 JUMPDEST DUP2 SLOAD DUP2 MSTORE SWAP1 PUSH1 0x1 ADD SWAP1 PUSH1 0x20 ADD DUP1 DUP4 GT PUSH2 0x25C JUMPI DUP3 SWAP1 SUB PUSH1 0x1F AND DUP3 ADD SWAP2 JUMPDEST POP POP POP POP POP DUP2 JUMP JUMPDEST PUSH1 0x5 PUSH1 0x1 SWAP1 SLOAD SWAP1 PUSH2 0x100 EXP SWAP1 DIV PUSH1 0xFF AND DUP2 JUMP JUMPDEST PUSH1 0x2 PUSH1 0x0 SWAP1 SLOAD SWAP1 PUSH2 0x100 EXP SWAP1 DIV PUSH20 0xFFFFFFFFFFFFFFFFFFFFFFFFFFFFFFFFFFFFFFFF AND PUSH20 0xFFFFFFFFFFFFFFFFFFFFFFFFFFFFFFFFFFFFFFFF AND CALLER PUSH20 0xFFFFFFFFFFFFFFFFFFFFFFFFFFFFFFFFFFFFFFFF AND EQ PUSH2 0x324 JUMPI PUSH1 0x40 MLOAD PUSH32 0x8C379A000000000000000000000000000000000000000000000000000000000 DUP2 MSTORE PUSH1 0x4 ADD PUSH2 0x31B SWAP1 PUSH2 0xE8B JUMP JUMPDEST PUSH1 0x40 MLOAD DUP1 SWAP2 SUB SWAP1 REVERT JUMPDEST PUSH1 0x1 PUSH1 0x4 PUSH1 0x0 DUP4 PUSH20 0xFFFFFFFFFFFFFFFFFFFFFFFFFFFFFFFFFFFFFFFF AND PUSH20 0xFFFFFFFFFFFFFFFFFFFFFFFFFFFFFFFFFFFFFFFF AND DUP2 MSTORE PUSH1 0x20 ADD SWAP1 DUP2 MSTORE PUSH1 0x20 ADD PUSH1 0x0 KECCAK256 PUSH1 0x0 PUSH2 0x100 EXP DUP2 SLOAD DUP2 PUSH1 0xFF MUL NOT AND SWAP1 DUP4 ISZERO ISZERO MUL OR SWAP1 SSTORE POP PUSH32 0x400153A8CEBBD91509D8511EC62D3FE08EAC19A7AFAB5E61A723C0860DB23520 CALLER PUSH1 0x40 MLOAD PUSH2 0x3AB SWAP2 SWAP1 PUSH2 0xD1D JUMP JUMPDEST PUSH1 0x40 MLOAD DUP1 SWAP2 SUB SWAP1 LOG1 POP JUMP JUMPDEST PUSH1 0x2 PUSH1 0x0 SWAP1 SLOAD SWAP1 PUSH2 0x100 EXP SWAP1 DIV PUSH20 0xFFFFFFFFFFFFFFFFFFFFFFFFFFFFFFFFFFFFFFFF AND DUP2 JUMP JUMPDEST PUSH1 0x2 PUSH1 0x4 DUP2 GT ISZERO PUSH2 0x3F0 JUMPI PUSH2 0x3EF PUSH2 0xFB4 JUMP JUMPDEST JUMPDEST PUSH1 0x5 PUSH1 0x0 SWAP1 SLOAD SWAP1 PUSH2 0x100 EXP SWAP1 DIV PUSH1 0xFF AND PUSH1 0x4 DUP2 GT ISZERO PUSH2 0x412 JUMPI PUSH2 0x411 PUSH2 0xFB4 JUMP JUMPDEST JUMPDEST EQ PUSH2 0x452 JUMPI PUSH1 0x40 MLOAD PUSH32 0x8C379A000000000000000000000000000000000000000000000000000000000 DUP2 MSTORE PUSH1 0x4 ADD PUSH2 0x449 SWAP1 PUSH2 0xE6B JUMP JUMPDEST PUSH1 0x40 MLOAD DUP1 SWAP2 SUB SWAP1 REVERT JUMPDEST PUSH1 0x3 PUSH1 0x0 SWAP1 SLOAD SWAP1 PUSH2 0x100 EXP SWAP1 DIV PUSH20 0xFFFFFFFFFFFFFFFFFFFFFFFFFFFFFFFFFFFFFFFF AND PUSH20 0xFFFFFFFFFFFFFFFFFFFFFFFFFFFFFFFFFFFFFFFF AND CALLER PUSH20 0xFFFFFFFFFFFFFFFFFFFFFFFFFFFFFFFFFFFFFFFF AND EQ PUSH2 0x4E2 JUMPI PUSH1 0x40 MLOAD PUSH32 0x8C379A000000000000000000000000000000000000000000000000000000000 DUP2 MSTORE PUSH1 0x4 ADD PUSH2 0x4D9 SWAP1 PUSH2 0xDAB JUMP JUMPDEST PUSH1 0x40 MLOAD DUP1 SWAP2 SUB SWAP1 REVERT JUMPDEST PUSH1 0x3 PUSH1 0x5 PUSH1 0x0 PUSH2 0x100 EXP DUP2 SLOAD DUP2 PUSH1 0xFF MUL NOT AND SWAP1 DUP4 PUSH1 0x4 DUP2 GT ISZERO PUSH2 0x508 JUMPI PUSH2 0x507 PUSH2 0xFB4 JUMP JUMPDEST JUMPDEST MUL OR SWAP1 SSTORE POP PUSH32 0x400153A8CEBBD91509D8511EC62D3FE08EAC19A7AFAB5E61A723C0860DB23520 CALLER PUSH1 0x40 MLOAD PUSH2 0x53C SWAP2 SWAP1 PUSH2 0xD1D JUMP JUMPDEST PUSH1 0x40 MLOAD DUP1 SWAP2 SUB SWAP1 LOG1 JUMP JUMPDEST PUSH1 0x3 PUSH1 0x4 DUP2 GT ISZERO PUSH2 0x55A JUMPI PUSH2 0x559 PUSH2 0xFB4 JUMP JUMPDEST JUMPDEST PUSH1 0x5 PUSH1 0x0 SWAP1 SLOAD SWAP1 PUSH2 0x100 EXP SWAP1 DIV PUSH1 0xFF AND PUSH1 0x4 DUP2 GT ISZERO PUSH2 0x57C JUMPI PUSH2 0x57B PUSH2 0xFB4 JUMP JUMPDEST JUMPDEST EQ PUSH2 0x5BC JUMPI PUSH1 0x40 MLOAD PUSH32 0x8C379A000000000000000000000000000000000000000000000000000000000 DUP2 MSTORE PUSH1 0x4 ADD PUSH2 0x5B3 SWAP1 PUSH2 0xE6B JUMP JUMPDEST PUSH1 0x40 MLOAD DUP1 SWAP2 SUB SWAP1 REVERT JUMPDEST PUSH1 0x3 PUSH1 0x0 SWAP1 SLOAD SWAP1 PUSH2 0x100 EXP SWAP1 DIV PUSH20 0xFFFFFFFFFFFFFFFFFFFFFFFFFFFFFFFFFFFFFFFF AND PUSH20 0xFFFFFFFFFFFFFFFFFFFFFFFFFFFFFFFFFFFFFFFF AND CALLER PUSH20 0xFFFFFFFFFFFFFFFFFFFFFFFFFFFFFFFFFFFFFFFF AND EQ PUSH2 0x64C JUMPI PUSH1 0x40 MLOAD PUSH32 0x8C379A000000000000000000000000000000000000000000000000000000000 DUP2 MSTORE PUSH1 0x4 ADD PUSH2 0x643 SWAP1 PUSH2 0xDAB JUMP JUMPDEST PUSH1 0x40 MLOAD DUP1 SWAP2 SUB SWAP1 REVERT JUMPDEST PUSH1 0x4 PUSH1 0x5 PUSH1 0x0 PUSH2 0x100 EXP DUP2 SLOAD DUP2 PUSH1 0xFF MUL NOT AND SWAP1 DUP4 PUSH1 0x4 DUP2 GT ISZERO PUSH2 0x672 JUMPI PUSH2 0x671 PUSH2 0xFB4 JUMP JUMPDEST JUMPDEST MUL OR SWAP1 SSTORE POP PUSH1 0x1 PUSH1 0x3 DUP2 GT ISZERO PUSH2 0x68B JUMPI PUSH2 0x68A PUSH2 0xFB4 JUMP JUMPDEST JUMPDEST DUP2 PUSH1 0x3 DUP2 GT ISZERO PUSH2 0x69E JUMPI PUSH2 0x69D PUSH2 0xFB4 JUMP JUMPDEST JUMPDEST EQ ISZERO PUSH2 0x6DE JUMPI PUSH32 0x1EAE0AA905D37777EDA12FD332ECEFE877FD575CEBE92A5B4E85DA2E8CC1B27B PUSH1 0x40 MLOAD PUSH2 0x6D1 SWAP1 PUSH2 0xE4B JUMP JUMPDEST PUSH1 0x40 MLOAD DUP1 SWAP2 SUB SWAP1 LOG1 PUSH2 0x77C JUMP JUMPDEST PUSH1 0x2 PUSH1 0x3 DUP2 GT ISZERO PUSH2 0x6F2 JUMPI PUSH2 0x6F1 PUSH2 0xFB4 JUMP JUMPDEST JUMPDEST DUP2 PUSH1 0x3 DUP2 GT ISZERO PUSH2 0x705 JUMPI PUSH2 0x704 PUSH2 0xFB4 JUMP JUMPDEST JUMPDEST EQ ISZERO PUSH2 0x745 JUMPI PUSH32 0x1A23E28FCCCEA66734AA0163A9DCD828E5B5513815B9C209E48A7D1F03FF0F66 PUSH1 0x40 MLOAD PUSH2 0x738 SWAP1 PUSH2 0xDEB JUMP JUMPDEST PUSH1 0x40 MLOAD DUP1 SWAP2 SUB SWAP1 LOG1 PUSH2 0x77B JUMP JUMPDEST PUSH32 0xA159983831A7D960A279C851A8B5DCE81FF9F24315F6ECEC503CD327D7819142 PUSH1 0x40 MLOAD PUSH2 0x772 SWAP1 PUSH2 0xE0B JUMP JUMPDEST PUSH1 0x40 MLOAD DUP1 SWAP2 SUB SWAP1 LOG1 JUMPDEST JUMPDEST PUSH32 0x400153A8CEBBD91509D8511EC62D3FE08EAC19A7AFAB5E61A723C0860DB23520 CALLER PUSH1 0x40 MLOAD PUSH2 0x7AB SWAP2 SWAP1 PUSH2 0xD1D JUMP JUMPDEST PUSH1 0x40 MLOAD DUP1 SWAP2 SUB SWAP1 LOG1 POP JUMP JUMPDEST PUSH1 0x3 PUSH1 0x0 SWAP1 SLOAD SWAP1 PUSH2 0x100 EXP SWAP1 DIV PUSH20 0xFFFFFFFFFFFFFFFFFFFFFFFFFFFFFFFFFFFFFFFF AND DUP2 JUMP JUMPDEST PUSH1 0x2 PUSH1 0x0 SWAP1 SLOAD SWAP1 PUSH2 0x100 EXP SWAP1 DIV PUSH20 0xFFFFFFFFFFFFFFFFFFFFFFFFFFFFFFFFFFFFFFFF AND PUSH20 0xFFFFFFFFFFFFFFFFFFFFFFFFFFFFFFFFFFFFFFFF AND CALLER PUSH20 0xFFFFFFFFFFFFFFFFFFFFFFFFFFFFFFFFFFFFFFFF AND EQ PUSH2 0x86C JUMPI PUSH1 0x40 MLOAD PUSH32 0x8C379A000000000000000000000000000000000000000000000000000000000 DUP2 MSTORE PUSH1 0x4 ADD PUSH2 0x863 SWAP1 PUSH2 0xE8B JUMP JUMPDEST PUSH1 0x40 MLOAD DUP1 SWAP2 SUB SWAP1 REVERT JUMPDEST PUSH1 0x0 PUSH1 0x4 DUP2 GT ISZERO PUSH2 0x880 JUMPI PUSH2 0x87F PUSH2 0xFB4 JUMP JUMPDEST JUMPDEST PUSH1 0x5 PUSH1 0x0 SWAP1 SLOAD SWAP1 PUSH2 0x100 EXP SWAP1 DIV PUSH1 0xFF AND PUSH1 0x4 DUP2 GT ISZERO PUSH2 0x8A2 JUMPI PUSH2 0x8A1 PUSH2 0xFB4 JUMP JUMPDEST JUMPDEST EQ PUSH2 0x8E2 JUMPI PUSH1 0x40 MLOAD PUSH32 0x8C379A000000000000000000000000000000000000000000000000000000000 DUP2 MSTORE PUSH1 0x4 ADD PUSH2 0x8D9 SWAP1 PUSH2 0xE2B JUMP JUMPDEST PUSH1 0x40 MLOAD DUP1 SWAP2 SUB SWAP1 REVERT JUMPDEST PUSH1 0x1 PUSH1 0x5 PUSH1 0x0 PUSH2 0x100 EXP DUP2 SLOAD DUP2 PUSH1 0xFF MUL NOT AND SWAP1 DUP4 PUSH1 0x4 DUP2 GT ISZERO PUSH2 0x908 JUMPI PUSH2 0x907 PUSH2 0xFB4 JUMP JUMPDEST JUMPDEST MUL OR SWAP1 SSTORE POP PUSH32 0x400153A8CEBBD91509D8511EC62D3FE08EAC19A7AFAB5E61A723C0860DB23520 CALLER PUSH1 0x40 MLOAD PUSH2 0x93C SWAP2 SWAP1 PUSH2 0xD1D JUMP JUMPDEST PUSH1 0x40 MLOAD DUP1 SWAP2 SUB SWAP1 LOG1 JUMP JUMPDEST PUSH1 0x1 ISZERO ISZERO PUSH1 0x4 PUSH1 0x0 CALLER PUSH20 0xFFFFFFFFFFFFFFFFFFFFFFFFFFFFFFFFFFFFFFFF AND PUSH20 0xFFFFFFFFFFFFFFFFFFFFFFFFFFFFFFFFFFFFFFFF AND DUP2 MSTORE PUSH1 0x20 ADD SWAP1 DUP2 MSTORE PUSH1 0x20 ADD PUSH1 0x0 KECCAK256 PUSH1 0x0 SWAP1 SLOAD SWAP1 PUSH2 0x100 EXP SWAP1 DIV PUSH1 0xFF AND ISZERO ISZERO EQ PUSH2 0x9D9 JUMPI PUSH1 0x40 MLOAD PUSH32 0x8C379A000000000000000000000000000000000000000000000000000000000 DUP2 MSTORE PUSH1 0x4 ADD PUSH2 0x9D0 SWAP1 PUSH2 0xE8B JUMP JUMPDEST PUSH1 0x40 MLOAD DUP1 SWAP2 SUB SWAP1 REVERT JUMPDEST PUSH1 0x1 PUSH1 0x4 DUP2 GT ISZERO PUSH2 0x9ED JUMPI PUSH2 0x9EC PUSH2 0xFB4 JUMP JUMPDEST JUMPDEST PUSH1 0x5 PUSH1 0x0 SWAP1 SLOAD SWAP1 PUSH2 0x100 EXP SWAP1 DIV PUSH1 0xFF AND PUSH1 0x4 DUP2 GT ISZERO PUSH2 0xA0F JUMPI PUSH2 0xA0E PUSH2 0xFB4 JUMP JUMPDEST JUMPDEST EQ PUSH2 0xA4F JUMPI PUSH1 0x40 MLOAD PUSH32 0x8C379A000000000000000000000000000000000000000000000000000000000 DUP2 MSTORE PUSH1 0x4 ADD PUSH2 0xA46 SWAP1 PUSH2 0xDCB JUMP JUMPDEST PUSH1 0x40 MLOAD DUP1 SWAP2 SUB SWAP1 REVERT JUMPDEST PUSH1 0x2 PUSH1 0x5 PUSH1 0x0 PUSH2 0x100 EXP DUP2 SLOAD DUP2 PUSH1 0xFF MUL NOT AND SWAP1 DUP4 PUSH1 0x4 DUP2 GT ISZERO PUSH2 0xA75 JUMPI PUSH2 0xA74 PUSH2 0xFB4 JUMP JUMPDEST JUMPDEST MUL OR SWAP1 SSTORE POP PUSH32 0xFB229D12AB26294BC680D0AD524E4315A0CE05F84A2B75C4C7A0DA7F1C0B1343 CALLER PUSH1 0x40 MLOAD PUSH2 0xAA9 SWAP2 SWAP1 PUSH2 0xD1D JUMP JUMPDEST PUSH1 0x40 MLOAD DUP1 SWAP2 SUB SWAP1 LOG1 JUMP JUMPDEST PUSH1 0x1 PUSH1 0x0 SWAP1 SLOAD SWAP1 PUSH2 0x100 EXP SWAP1 DIV PUSH20 0xFFFFFFFFFFFFFFFFFFFFFFFFFFFFFFFFFFFFFFFF AND DUP2 JUMP JUMPDEST PUSH1 0x5 PUSH1 0x0 SWAP1 SLOAD SWAP1 PUSH2 0x100 EXP SWAP1 DIV PUSH1 0xFF AND DUP2 JUMP JUMPDEST PUSH1 0x4 PUSH1 0x20 MSTORE DUP1 PUSH1 0x0 MSTORE PUSH1 0x40 PUSH1 0x0 KECCAK256 PUSH1 0x0 SWAP2 POP SLOAD SWAP1 PUSH2 0x100 EXP SWAP1 DIV PUSH1 0xFF AND DUP2 JUMP JUMPDEST PUSH1 0x0 DUP2 CALLDATALOAD SWAP1 POP PUSH2 0xB1B DUP2 PUSH2 0x11E4 JUMP JUMPDEST SWAP3 SWAP2 POP POP JUMP JUMPDEST PUSH1 0x0 DUP2 CALLDATALOAD SWAP1 POP PUSH2 0xB30 DUP2 PUSH2 0x11FB JUMP JUMPDEST SWAP3 SWAP2 POP POP JUMP JUMPDEST PUSH1 0x0 PUSH1 0x20 DUP3 DUP5 SUB SLT ISZERO PUSH2 0xB4C JUMPI PUSH2 0xB4B PUSH2 0x1012 JUMP JUMPDEST JUMPDEST PUSH1 0x0 PUSH2 0xB5A DUP5 DUP3 DUP6 ADD PUSH2 0xB0C JUMP JUMPDEST SWAP2 POP POP SWAP3 SWAP2 POP POP JUMP JUMPDEST PUSH1 0x0 PUSH1 0x20 DUP3 DUP5 SUB SLT ISZERO PUSH2 0xB79 JUMPI PUSH2 0xB78 PUSH2 0x1012 JUMP JUMPDEST JUMPDEST PUSH1 0x0 PUSH2 0xB87 DUP5 DUP3 DUP6 ADD PUSH2 0xB21 JUMP JUMPDEST SWAP2 POP POP SWAP3 SWAP2 POP POP JUMP JUMPDEST PUSH2 0xB99 DUP2 PUSH2 0xEC7 JUMP JUMPDEST DUP3 MSTORE POP POP JUMP JUMPDEST PUSH2 0xBA8 DUP2 PUSH2 0xED9 JUMP JUMPDEST DUP3 MSTORE POP POP JUMP JUMPDEST PUSH2 0xBB7 DUP2 PUSH2 0xF2B JUMP JUMPDEST DUP3 MSTORE POP POP JUMP JUMPDEST PUSH2 0xBC6 DUP2 PUSH2 0xF3D JUMP JUMPDEST DUP3 MSTORE POP POP JUMP JUMPDEST PUSH1 0x0 PUSH2 0xBD7 DUP3 PUSH2 0xEAB JUMP JUMPDEST PUSH2 0xBE1 DUP2 DUP6 PUSH2 0xEB6 JUMP JUMPDEST SWAP4 POP PUSH2 0xBF1 DUP2 DUP6 PUSH1 0x20 DUP7 ADD PUSH2 0xF4F JUMP JUMPDEST PUSH2 0xBFA DUP2 PUSH2 0x1017 JUMP JUMPDEST DUP5 ADD SWAP2 POP POP SWAP3 SWAP2 POP POP JUMP JUMPDEST PUSH1 0x0 PUSH2 0xC12 PUSH1 0x16 DUP4 PUSH2 0xEB6 JUMP JUMPDEST SWAP2 POP PUSH2 0xC1D DUP3 PUSH2 0x1028 JUMP JUMPDEST PUSH1 0x20 DUP3 ADD SWAP1 POP SWAP2 SWAP1 POP JUMP JUMPDEST PUSH1 0x0 PUSH2 0xC35 PUSH1 0x9 DUP4 PUSH2 0xEB6 JUMP JUMPDEST SWAP2 POP PUSH2 0xC40 DUP3 PUSH2 0x1051 JUMP JUMPDEST PUSH1 0x20 DUP3 ADD SWAP1 POP SWAP2 SWAP1 POP JUMP JUMPDEST PUSH1 0x0 PUSH2 0xC58 PUSH1 0x18 DUP4 PUSH2 0xEB6 JUMP JUMPDEST SWAP2 POP PUSH2 0xC63 DUP3 PUSH2 0x107A JUMP JUMPDEST PUSH1 0x20 DUP3 ADD SWAP1 POP SWAP2 SWAP1 POP JUMP JUMPDEST PUSH1 0x0 PUSH2 0xC7B PUSH1 0x34 DUP4 PUSH2 0xEB6 JUMP JUMPDEST SWAP2 POP PUSH2 0xC86 DUP3 PUSH2 0x10A3 JUMP JUMPDEST PUSH1 0x40 DUP3 ADD SWAP1 POP SWAP2 SWAP1 POP JUMP JUMPDEST PUSH1 0x0 PUSH2 0xC9E PUSH1 0x11 DUP4 PUSH2 0xEB6 JUMP JUMPDEST SWAP2 POP PUSH2 0xCA9 DUP3 PUSH2 0x10F2 JUMP JUMPDEST PUSH1 0x20 DUP3 ADD SWAP1 POP SWAP2 SWAP1 POP JUMP JUMPDEST PUSH1 0x0 PUSH2 0xCC1 PUSH1 0x30 DUP4 PUSH2 0xEB6 JUMP JUMPDEST SWAP2 POP PUSH2 0xCCC DUP3 PUSH2 0x111B JUMP JUMPDEST PUSH1 0x40 DUP3 ADD SWAP1 POP SWAP2 SWAP1 POP JUMP JUMPDEST PUSH1 0x0 PUSH2 0xCE4 PUSH1 0x1A DUP4 PUSH2 0xEB6 JUMP JUMPDEST SWAP2 POP PUSH2 0xCEF DUP3 PUSH2 0x116A JUMP JUMPDEST PUSH1 0x20 DUP3 ADD SWAP1 POP SWAP2 SWAP1 POP JUMP JUMPDEST PUSH1 0x0 PUSH2 0xD07 PUSH1 0x16 DUP4 PUSH2 0xEB6 JUMP JUMPDEST SWAP2 POP PUSH2 0xD12 DUP3 PUSH2 0x1193 JUMP JUMPDEST PUSH1 0x20 DUP3 ADD SWAP1 POP SWAP2 SWAP1 POP JUMP JUMPDEST PUSH1 0x0 PUSH1 0x20 DUP3 ADD SWAP1 POP PUSH2 0xD32 PUSH1 0x0 DUP4 ADD DUP5 PUSH2 0xB90 JUMP JUMPDEST SWAP3 SWAP2 POP POP JUMP JUMPDEST PUSH1 0x0 PUSH1 0x20 DUP3 ADD SWAP1 POP PUSH2 0xD4D PUSH1 0x0 DUP4 ADD DUP5 PUSH2 0xB9F JUMP JUMPDEST SWAP3 SWAP2 POP POP JUMP JUMPDEST PUSH1 0x0 PUSH1 0x20 DUP3 ADD SWAP1 POP PUSH2 0xD68 PUSH1 0x0 DUP4 ADD DUP5 PUSH2 0xBAE JUMP JUMPDEST SWAP3 SWAP2 POP POP JUMP JUMPDEST PUSH1 0x0 PUSH1 0x20 DUP3 ADD SWAP1 POP PUSH2 0xD83 PUSH1 0x0 DUP4 ADD DUP5 PUSH2 0xBBD JUMP JUMPDEST SWAP3 SWAP2 POP POP JUMP JUMPDEST PUSH1 0x0 PUSH1 0x20 DUP3 ADD SWAP1 POP DUP2 DUP2 SUB PUSH1 0x0 DUP4 ADD MSTORE PUSH2 0xDA3 DUP2 DUP5 PUSH2 0xBCC JUMP JUMPDEST SWAP1 POP SWAP3 SWAP2 POP POP JUMP JUMPDEST PUSH1 0x0 PUSH1 0x20 DUP3 ADD SWAP1 POP DUP2 DUP2 SUB PUSH1 0x0 DUP4 ADD MSTORE PUSH2 0xDC4 DUP2 PUSH2 0xC05 JUMP JUMPDEST SWAP1 POP SWAP2 SWAP1 POP JUMP JUMPDEST PUSH1 0x0 PUSH1 0x20 DUP3 ADD SWAP1 POP DUP2 DUP2 SUB PUSH1 0x0 DUP4 ADD MSTORE PUSH2 0xDE4 DUP2 PUSH2 0xC28 JUMP JUMPDEST SWAP1 POP SWAP2 SWAP1 POP JUMP JUMPDEST PUSH1 0x0 PUSH1 0x20 DUP3 ADD SWAP1 POP DUP2 DUP2 SUB PUSH1 0x0 DUP4 ADD MSTORE PUSH2 0xE04 DUP2 PUSH2 0xC4B JUMP JUMPDEST SWAP1 POP SWAP2 SWAP1 POP JUMP JUMPDEST PUSH1 0x0 PUSH1 0x20 DUP3 ADD SWAP1 POP DUP2 DUP2 SUB PUSH1 0x0 DUP4 ADD MSTORE PUSH2 0xE24 DUP2 PUSH2 0xC6E JUMP JUMPDEST SWAP1 POP SWAP2 SWAP1 POP JUMP JUMPDEST PUSH1 0x0 PUSH1 0x20 DUP3 ADD SWAP1 POP DUP2 DUP2 SUB PUSH1 0x0 DUP4 ADD MSTORE PUSH2 0xE44 DUP2 PUSH2 0xC91 JUMP JUMPDEST SWAP1 POP SWAP2 SWAP1 POP JUMP JUMPDEST PUSH1 0x0 PUSH1 0x20 DUP3 ADD SWAP1 POP DUP2 DUP2 SUB PUSH1 0x0 DUP4 ADD MSTORE PUSH2 0xE64 DUP2 PUSH2 0xCB4 JUMP JUMPDEST SWAP1 POP SWAP2 SWAP1 POP JUMP JUMPDEST PUSH1 0x0 PUSH1 0x20 DUP3 ADD SWAP1 POP DUP2 DUP2 SUB PUSH1 0x0 DUP4 ADD MSTORE PUSH2 0xE84 DUP2 PUSH2 0xCD7 JUMP JUMPDEST SWAP1 POP SWAP2 SWAP1 POP JUMP JUMPDEST PUSH1 0x0 PUSH1 0x20 DUP3 ADD SWAP1 POP DUP2 DUP2 SUB PUSH1 0x0 DUP4 ADD MSTORE PUSH2 0xEA4 DUP2 PUSH2 0xCFA JUMP JUMPDEST SWAP1 POP SWAP2 SWAP1 POP JUMP JUMPDEST PUSH1 0x0 DUP2 MLOAD SWAP1 POP SWAP2 SWAP1 POP JUMP JUMPDEST PUSH1 0x0 DUP3 DUP3 MSTORE PUSH1 0x20 DUP3 ADD SWAP1 POP SWAP3 SWAP2 POP POP JUMP JUMPDEST PUSH1 0x0 PUSH2 0xED2 DUP3 PUSH2 0xF0B JUMP JUMPDEST SWAP1 POP SWAP2 SWAP1 POP JUMP JUMPDEST PUSH1 0x0 DUP2 ISZERO ISZERO SWAP1 POP SWAP2 SWAP1 POP JUMP JUMPDEST PUSH1 0x0 DUP2 SWAP1 POP PUSH2 0xEF3 DUP3 PUSH2 0x11BC JUMP JUMPDEST SWAP2 SWAP1 POP JUMP JUMPDEST PUSH1 0x0 DUP2 SWAP1 POP PUSH2 0xF06 DUP3 PUSH2 0x11D0 JUMP JUMPDEST SWAP2 SWAP1 POP JUMP JUMPDEST PUSH1 0x0 PUSH20 0xFFFFFFFFFFFFFFFFFFFFFFFFFFFFFFFFFFFFFFFF DUP3 AND SWAP1 POP SWAP2 SWAP1 POP JUMP JUMPDEST PUSH1 0x0 PUSH2 0xF36 DUP3 PUSH2 0xEE5 JUMP JUMPDEST SWAP1 POP SWAP2 SWAP1 POP JUMP JUMPDEST PUSH1 0x0 PUSH2 0xF48 DUP3 PUSH2 0xEF8 JUMP JUMPDEST SWAP1 POP SWAP2 SWAP1 POP JUMP JUMPDEST PUSH1 0x0 JUMPDEST DUP4 DUP2 LT ISZERO PUSH2 0xF6D JUMPI DUP1 DUP3 ADD MLOAD DUP2 DUP5 ADD MSTORE PUSH1 0x20 DUP2 ADD SWAP1 POP PUSH2 0xF52 JUMP JUMPDEST DUP4 DUP2 GT ISZERO PUSH2 0xF7C JUMPI PUSH1 0x0 DUP5 DUP5 ADD MSTORE JUMPDEST POP POP POP POP JUMP JUMPDEST PUSH1 0x0 PUSH1 0x2 DUP3 DIV SWAP1 POP PUSH1 0x1 DUP3 AND DUP1 PUSH2 0xF9A JUMPI PUSH1 0x7F DUP3 AND SWAP2 POP JUMPDEST PUSH1 0x20 DUP3 LT DUP2 EQ ISZERO PUSH2 0xFAE JUMPI PUSH2 0xFAD PUSH2 0xFE3 JUMP JUMPDEST JUMPDEST POP SWAP2 SWAP1 POP JUMP JUMPDEST PUSH32 0x4E487B7100000000000000000000000000000000000000000000000000000000 PUSH1 0x0 MSTORE PUSH1 0x21 PUSH1 0x4 MSTORE PUSH1 0x24 PUSH1 0x0 REVERT JUMPDEST PUSH32 0x4E487B7100000000000000000000000000000000000000000000000000000000 PUSH1 0x0 MSTORE PUSH1 0x22 PUSH1 0x4 MSTORE PUSH1 0x24 PUSH1 0x0 REVERT JUMPDEST PUSH1 0x0 DUP1 REVERT JUMPDEST PUSH1 0x0 PUSH1 0x1F NOT PUSH1 0x1F DUP4 ADD AND SWAP1 POP SWAP2 SWAP1 POP JUMP JUMPDEST PUSH32 0x4E6F742074686520726967687420686F73706974616C00000000000000000000 PUSH1 0x0 DUP3 ADD MSTORE POP JUMP JUMPDEST PUSH32 0x4E6F742072656164790000000000000000000000000000000000000000000000 PUSH1 0x0 DUP3 ADD MSTORE POP JUMP JUMPDEST PUSH32 0x4163636964656E7420647572696E672064656C69766572790000000000000000 PUSH1 0x0 DUP3 ADD MSTORE POP JUMP JUMPDEST PUSH32 0x546865726520776173206120636F6E667573696F6E206F662070726F64756374 PUSH1 0x0 DUP3 ADD MSTORE PUSH32 0x20647572696E67207468652064656C6576657279000000000000000000000000 PUSH1 0x20 DUP3 ADD MSTORE POP JUMP JUMPDEST PUSH32 0x4E6F7420696E2070726F64756374696F6E000000000000000000000000000000 PUSH1 0x0 DUP3 ADD MSTORE POP JUMP JUMPDEST PUSH32 0x2074656D706572617475726520746F6F2068696768206F7220746F6F206C6F77 PUSH1 0x0 DUP3 ADD MSTORE PUSH32 0x20647572696E672064656C697665727900000000000000000000000000000000 PUSH1 0x20 DUP3 ADD MSTORE POP JUMP JUMPDEST PUSH32 0x5374696C6C2077616974696E6720666F722064656C6976657279000000000000 PUSH1 0x0 DUP3 ADD MSTORE POP JUMP JUMPDEST PUSH32 0x20596F7520617265206E6F7420746865206F776E657200000000000000000000 PUSH1 0x0 DUP3 ADD MSTORE POP JUMP JUMPDEST PUSH1 0x4 DUP2 LT PUSH2 0x11CD JUMPI PUSH2 0x11CC PUSH2 0xFB4 JUMP JUMPDEST JUMPDEST POP JUMP JUMPDEST PUSH1 0x5 DUP2 LT PUSH2 0x11E1 JUMPI PUSH2 0x11E0 PUSH2 0xFB4 JUMP JUMPDEST JUMPDEST POP JUMP JUMPDEST PUSH2 0x11ED DUP2 PUSH2 0xEC7 JUMP JUMPDEST DUP2 EQ PUSH2 0x11F8 JUMPI PUSH1 0x0 DUP1 REVERT JUMPDEST POP JUMP JUMPDEST PUSH1 0x4 DUP2 LT PUSH2 0x1208 JUMPI PUSH1 0x0 DUP1 REVERT JUMPDEST POP JUMP INVALID LOG2 PUSH5 0x6970667358 0x22 SLT KECCAK256 SELFBALANCE CREATE2 0x1E CALLDATACOPY AND 0xAD SIGNEXTEND 0x29 0x1F DUP9 SWAP14 PUSH1 0x45 CALLDATASIZE CREATE2 0xE3 0xE0 ADDRESS 0xEE 0x5C 0xB1 0xB3 0x5E 0xD7 MSIZE 0xC7 DUP7 KECCAK256 PUSH7 0xC4FB4364736F6C PUSH4 0x43000807 STOP CALLER "
				},
				"gasEstimates": {
					"creation": {
						"codeDepositCost": "934600",
						"executionCost": "infinite",
						"totalCost": "infinite"
					},
					"external": {
						"Auth(address)": "infinite",
						"CODE()": "infinite",
						"ProductDestruct(uint8)": "32609",
						"StepOfDelivery()": "30073",
						"defectiveReason()": "2633",
						"deliverers(address)": "2955",
						"delivery()": "30140",
						"deliveryManfunction()": "30185",
						"hospital()": "2514",
						"product()": "2580",
						"step()": "2648",
						"supplier()": "2581"
					}
				},
				"methodIdentifiers": {
					"Auth(address)": "1fe49587",
					"CODE()": "0fc8f82a",
					"ProductDestruct(uint8)": "a72e783b",
					"StepOfDelivery()": "b6c859bf",
					"defectiveReason()": "11e760dc",
					"deliverers(address)": "e8950c0f",
					"delivery()": "3d5a70c2",
					"deliveryManfunction()": "b7c779f4",
					"hospital()": "aa2fedde",
					"product()": "bf9ce952",
					"step()": "e25fe175",
					"supplier()": "36da4468"
				}
			},
			"userdoc": {
				"kind": "user",
				"methods": {},
				"version": 1
			}
		}
	}
}